{
  "address": "0xF3199F753e21aabF30f2aC114c8780eCe7174447",
  "abi": [
    {
      "inputs": [
        {
          "internalType": "address",
          "name": "_instaFeeCollector",
          "type": "address"
        },
        {
          "internalType": "address",
          "name": "_oracleAggregator",
          "type": "address"
        }
      ],
      "stateMutability": "nonpayable",
      "type": "constructor"
    },
    {
      "inputs": [
        {
          "internalType": "address",
          "name": "_dsa",
          "type": "address"
        },
        {
          "internalType": "uint256",
          "name": "_fromVaultId",
          "type": "uint256"
        },
        {
          "internalType": "address",
          "name": "_colToken",
          "type": "address"
        },
        {
          "internalType": "uint256",
          "name": "_makerDestVaultId",
          "type": "uint256"
        },
        {
          "internalType": "string",
          "name": "_makerDestColType",
          "type": "string"
        }
      ],
      "name": "canDoRefinance",
      "outputs": [
        {
          "internalType": "string",
          "name": "",
          "type": "string"
        }
      ],
      "stateMutability": "view",
      "type": "function"
    },
    {
      "inputs": [
        {
          "internalType": "address",
          "name": "_dsa",
          "type": "address"
        },
        {
          "internalType": "uint256",
          "name": "_fromVaultId",
          "type": "uint256"
        },
        {
          "internalType": "address",
          "name": "_colToken",
          "type": "address"
        },
        {
          "internalType": "uint256",
          "name": "_makerDestVaultId",
          "type": "uint256"
        },
        {
          "internalType": "string",
          "name": "_makerDestColType",
          "type": "string"
        }
      ],
      "name": "getConditionData",
      "outputs": [
        {
          "internalType": "bytes",
          "name": "",
          "type": "bytes"
        }
      ],
      "stateMutability": "pure",
      "type": "function"
    },
    {
      "inputs": [],
      "name": "instaFeeCollector",
      "outputs": [
        {
          "internalType": "address",
          "name": "",
          "type": "address"
        }
      ],
      "stateMutability": "view",
      "type": "function"
    },
    {
      "inputs": [
        {
          "internalType": "uint256",
          "name": "",
          "type": "uint256"
        },
        {
          "internalType": "bytes",
          "name": "_conditionData",
          "type": "bytes"
        },
        {
          "internalType": "uint256",
          "name": "",
          "type": "uint256"
        }
      ],
      "name": "ok",
      "outputs": [
        {
          "internalType": "string",
          "name": "",
          "type": "string"
        }
      ],
      "stateMutability": "view",
      "type": "function"
    },
    {
      "inputs": [],
      "name": "oracleAggregator",
      "outputs": [
        {
          "internalType": "address",
          "name": "",
          "type": "address"
        }
      ],
      "stateMutability": "view",
      "type": "function"
    }
  ],
  "transactionHash": "0x86a4f833452179063bdb1b36b10d51d1bb7a3c16f5496789810d3ae53d9031e4",
  "args": [
    "0x0c159985E905ea1A3dA7305D70583Dd618862cf4",
    "0x64f31D46C52bBDe223D863B11dAb9327aB1414E9"
  ],
  "solcInputHash": "4b220f9f5ace9500863671bb012c293f",
  "bytecode": "0x60c06040523480156200001157600080fd5b5060405162003ae938038062003ae9833981016040819052620000349162000070565b6001600160601b0319606092831b8116608052911b1660a052620000a7565b80516001600160a01b03811681146200006b57600080fd5b919050565b6000806040838503121562000083578182fd5b6200008e8362000053565b91506200009e6020840162000053565b90509250929050565b60805160601c60a05160601c613a09620000e06000396000818160ca015261021601526000818161019801526102510152613a096000f3fe608060405234801561001057600080fd5b50600436106100575760003560e01c80638dffe3f41461005c578063a99891c51461007a578063ae1bd1a11461009a578063bc95af31146100ad578063feb83893146100b5575b600080fd5b6100646100c8565b604051610071919061336f565b60405180910390f35b61008d610088366004613147565b6100ec565b60405161007191906133fc565b61008d6100a8366004612f25565b610133565b610064610196565b61008d6100c3366004612eb1565b6101ba565b7f000000000000000000000000000000000000000000000000000000000000000081565b6060600080808080610101886004818c61364e565b81019061010e9190612eb1565b9450945094509450945061012585858585856101ba565b9a9950505050505050505050565b606063feb8389360e01b87878787878760405160240161015896959493929190613383565b60408051601f198184030181529190526020810180516001600160e01b03166001600160e01b03199093169290921790915290509695505050505050565b7f000000000000000000000000000000000000000000000000000000000000000081565b606060006101cf6101ca87610386565b610604565b9050600361030b6040518061012001604052808a6001600160a01b031681526020016101fa8a610620565b8152602001886001600160a01b031681526020018481526020017f00000000000000000000000000000000000000000000000000000000000000006001600160a01b031681526020018781526020018681526020017f00000000000000000000000000000000000000000000000000000000000000006001600160a01b031663ddca3f436040518163ffffffff1660e01b815260040160206040518083038186803b1580156102a857600080fd5b505afa1580156102bc573d6000803e3d6000fd5b505050506040513d601f19601f820116820180604052508101906102e09190612fda565b8152602001610304736b175474e89094c44da98b954eedeac495271d0f8b8761074b565b905261088e565b600381111561032a57634e487b7160e01b600052602160045260246000fd5b141561035f576040518060400160405280601181526020017043616e6e6f74446f526566696e616e636560781b81525061037b565b604051806040016040528060028152602001614f4b60f01b8152505b979650505050505050565b6000735ef30b9986345249bc32d8928b7ee64de9435e3981806103a983866108da565b915091506000836001600160a01b03166336569e776040518163ffffffff1660e01b815260040160206040518083038186803b1580156103e857600080fd5b505afa1580156103fc573d6000803e3d6000fd5b505050506040513d601f19601f820116820180604052508101906104209190612e95565b90506000816001600160a01b031663d9638d36856040518263ffffffff1660e01b815260040161045091906133dc565b60a06040518083038186803b15801561046857600080fd5b505afa15801561047c573d6000803e3d6000fd5b505050506040513d601f19601f820116820180604052508101906104a091906131e8565b5050509150506000826001600160a01b0316632424be5c86866040518363ffffffff1660e01b81526004016104d69291906133e5565b604080518083038186803b1580156104ed57600080fd5b505afa158015610501573d6000803e3d6000fd5b505050506040513d601f19601f820116820180604052508101906105259190613198565b9150506000836001600160a01b0316636c25b346866040518263ffffffff1660e01b8152600401610556919061336f565b60206040518083038186803b15801561056e57600080fd5b505afa158015610582573d6000803e3d6000fd5b505050506040513d601f19601f820116820180604052508101906105a69190612fda565b905060006105bd6105b784866109e1565b83610a27565b90506105d56b033b2e3c9fd0803ce80000008261368e565b9850806105ee8a6b033b2e3c9fd0803ce80000006109e1565b106105f95788610125565b610125896001613676565b600061061882670df27a2cdf448000610a55565b90505b919050565b600080735ef30b9986345249bc32d8928b7ee64de9435e3990506000816001600160a01b03166336569e776040518163ffffffff1660e01b815260040160206040518083038186803b15801561067557600080fd5b505afa158015610689573d6000803e3d6000fd5b505050506040513d601f19601f820116820180604052508101906106ad9190612e95565b90506000806106bc84876108da565b915091506000836001600160a01b0316632424be5c84846040518363ffffffff1660e01b81526004016106f09291906133e5565b604080518083038186803b15801561070757600080fd5b505afa15801561071b573d6000803e3d6000fd5b505050506040513d601f19601f8201168201806040525081019061073f9190613198565b50979650505050505050565b604051635a860c8760e01b8152600090819073a004a5afba04b74037e9e52ba1f7eb02b5e6150990635a860c879061078790889060040161336f565b60806040518083038186803b15801561079f57600080fd5b505afa1580156107b3573d6000803e3d6000fd5b505050506040513d601f19601f820116820180604052508101906107d791906130e2565b905082816000015111156107ef576000915050610887565b82816020015111801561080957506108078484610a8f565b155b15610818576001915050610887565b82816040015111801561083057506108308584610d80565b1561083f576002915050610887565b82816060015111801561085757506108578584610e04565b15610866576003915050610887565b60405162461bcd60e51b815260040161087e90613571565b60405180910390fd5b9392505050565b600061089982610e5f565b156108a65750600061061b565b6108af82610ecb565b156108bc5750600161061b565b6108c582610f4c565b156108d25750600261061b565b506003919050565b600080836001600160a01b0316632c2cb9fd846040518263ffffffff1660e01b815260040161090991906133dc565b60206040518083038186803b15801561092157600080fd5b505afa158015610935573d6000803e3d6000fd5b505050506040513d601f19601f820116820180604052508101906109599190612fda565b604051632726b07360e01b81529092506001600160a01b03851690632726b073906109889086906004016133dc565b60206040518083038186803b1580156109a057600080fd5b505afa1580156109b4573d6000803e3d6000fd5b505050506040513d601f19601f820116820180604052508101906109d89190612e95565b90509250929050565b6000811580610a05575082826109f781836137c2565b9250610a03908361368e565b145b610a215760405162461bcd60e51b815260040161087e9061343e565b92915050565b600082610a3483826137e1565b9150811115610a215760405162461bcd60e51b815260040161087e9061340f565b6000670de0b6b3a7640000610a85610a6d85856109e1565b610a806002670de0b6b3a764000061368e565b610fdb565b610887919061368e565b600080735ef30b9986345249bc32d8928b7ee64de9435e3990506000816001600160a01b03166336569e776040518163ffffffff1660e01b815260040160206040518083038186803b158015610ae457600080fd5b505afa158015610af8573d6000803e3d6000fd5b505050506040513d601f19601f82011682018060405250810190610b1c9190612e95565b9050600080610b2b84886108da565b915091506000806000856001600160a01b031663d9638d36866040518263ffffffff1660e01b8152600401610b6091906133dc565b60a06040518083038186803b158015610b7857600080fd5b505afa158015610b8c573d6000803e3d6000fd5b505050506040513d601f19601f82011682018060405250810190610bb091906131e8565b50935050925092506000866001600160a01b0316636c25b346866040518263ffffffff1660e01b8152600401610be6919061336f565b60206040518083038186803b158015610bfe57600080fd5b505afa158015610c12573d6000803e3d6000fd5b505050506040513d601f19601f82011682018060405250810190610c369190612fda565b90506000876001600160a01b031663babe8a3f6040518163ffffffff1660e01b815260040160206040518083038186803b158015610c7357600080fd5b505afa158015610c87573d6000803e3d6000fd5b505050506040513d601f19601f82011682018060405250810190610cab9190612fda565b90506000886001600160a01b0316630dca59c16040518163ffffffff1660e01b815260040160206040518083038186803b158015610ce857600080fd5b505afa158015610cfc573d6000803e3d6000fd5b505050506040513d601f19601f82011682018060405250810190610d209190612fda565b90506000610d2f8d8588611009565b90506000610d3d87836109e1565b9050610d498382610fdb565b9250610d558883610fdb565b975085610d6289896109e1565b1180610d6d57508383115b9f9e505050505050505050505050505050565b600081610d8c84611075565b6001600160a01b0316633b1d21a26040518163ffffffff1660e01b815260040160206040518083038186803b158015610dc457600080fd5b505afa158015610dd8573d6000803e3d6000fd5b505050506040513d601f19601f82011682018060405250810190610dfc9190612fda565b119392505050565b600081836001600160a01b03166370a08231733dfd23a6c5e8bbcfc9581d2e864a68feb6a076d36040518263ffffffff1660e01b8152600401610e47919061336f565b60206040518083038186803b158015610dc457600080fd5b600080610e878360600151610e788561010001516110ff565b8560e001518660800151611157565b9050610ea7736b175474e89094c44da98b954eedeac495271d0f82611239565b80156108875750610887836000015184602001518560400151848760800151611245565b600080610eec8360600151610e788560a0015160001486610100015161144b565b9050610f0683600001518460a001518560c00151846114e7565b158015610f285750610f2683600001518460a001518560c0015184611516565b155b8015610887575061088783600001518460a001518560c0015186602001518561153c565b600080610f658360600151610e7885610100015161156d565b9050610fa7736b175474e89094c44da98b954eedeac495271d0f846101000151600214610f925782610fa2565b828560600151610fa29190613676565b61159c565b80156108875750610887836000015184604001518560200151736b175474e89094c44da98b954eedeac495271d0f856115a8565b600082610fe88382613676565b9150811015610a215760405162461bcd60e51b815260040161087e9061346c565b60008161102b611025866b033b2e3c9fd0803ce80000006109e1565b85610a27565b611035919061368e565b905061104d846b033b2e3c9fd0803ce80000006109e1565b61105782846109e1565b10611062578061106d565b61106d816001613676565b949350505050565b60405163104b29e960e01b815260009073e81f70cc7c0d46e12d70efc60607f16bbd617e889063104b29e9906110af90859060040161336f565b60206040518083038186803b1580156110c757600080fd5b505afa1580156110db573d6000803e3d6000fd5b505050506040513d601f19601f820116820180604052508101906106189190612e95565b6000611123826040518060600160405280603d8152602001613997603d91396115c7565b61061861112e6115ef565b836004811061114d57634e487b7160e01b600052603260045260246000fd5b602002015161162a565b6000806000836001600160a01b0316633c772b6c6111748861164d565b73eeeeeeeeeeeeeeeeeeeeeeeeeeeeeeeeeeeeeeee736b175474e89094c44da98b954eedeac495271d0f6040518463ffffffff1660e01b81526004016111bc93929190613605565b604080518083038186803b1580156111d357600080fd5b505afa1580156111e7573d6000803e3d6000fd5b505050506040513d601f19601f8201168201806040525081019061120b9190613198565b91509150611219818361165b565b91506112258786610a55565b61122f8389613676565b61037b9190613676565b60006108878383611677565b6000808083816112548a611683565b90506001600160a01b03881673eeeeeeeeeeeeeeeeeeeeeeeeeeeeeeeeeeeeeeee141561128357889350611328565b604051630f1dcadb60e21b81526001600160a01b03831690633c772b6c906112c7908c908c9073eeeeeeeeeeeeeeeeeeeeeeeeeeeeeeeeeeeeeeee90600401613605565b604080518083038186803b1580156112de57600080fd5b505afa1580156112f2573d6000803e3d6000fd5b505050506040513d601f19601f820116820180604052508101906113169190613198565b9094509250611325838561165b565b93505b604051630f1dcadb60e21b81526001600160a01b03831690633c772b6c90611380908a90736b175474e89094c44da98b954eedeac495271d0f9073eeeeeeeeeeeeeeeeeeeeeeeeeeeeeeeeeeeeeeee90600401613605565b604080518083038186803b15801561139757600080fd5b505afa1580156113ab573d6000803e3d6000fd5b505050506040513d601f19601f820116820180604052508101906113cf9190613198565b90975092506113de838861165b565b9650670de0b6b3a764000061143c612710611401876113fc8d6117e5565b6109e1565b611413856060015186600001516109e1565b61141d9190613676565b611427919061368e565b8984602001516114379190613676565b611887565b119a9950505050505050505050565b600061146f826040518060600160405280603e8152602001613918603e91396115c7565b610887836114a85761147f6118aa565b836004811061149e57634e487b7160e01b600052603260045260246000fd5b60200201516114e2565b62030d406114b46118aa565b84600481106114d357634e487b7160e01b600052603260045260246000fd5b60200201516114e29190613676565b61162a565b60006114f384866118e4565b6114fe576000611500565b835b935061150d8484846119ed565b95945050505050565b600061152284866118e4565b61152d57600061152f565b835b935061150d848484611a0e565b600061154885876118e4565b611553576000611555565b845b945061156385858585611a2a565b9695505050505050565b600061159182604051806080016040528060418152602001613956604191396115c7565b61061861112e611a4d565b60006108878383610d80565b6000611563866115b787611075565b866115c187611075565b86611a87565b8060048311156115ea5760405162461bcd60e51b815260040161087e91906133fc565b505050565b6115f7612ce6565b60405180608001604052806223fd068152602001622d1e89815260200162339ac88152602001623d7bd881525090505b90565b60006064611639601e82613676565b61164390846137c2565b610618919061368e565b6000610618826113fc611d65565b60006108878261166c8560126137e1565b6113fc90600a6136f4565b600081610dfc84611e14565b61168b612d04565b60008060008060008073b53c1a33016b2dc2ff3653530bff1848a515c8c56001600160a01b0316630261bf8b6040518163ffffffff1660e01b815260040160206040518083038186803b1580156116e157600080fd5b505afa1580156116f5573d6000803e3d6000fd5b505050506040513d601f19601f820116820180604052508101906117199190612e95565b6001600160a01b031663bf92857c896040518263ffffffff1660e01b8152600401611744919061336f565b60c06040518083038186803b15801561175c57600080fd5b505afa158015611770573d6000803e3d6000fd5b505050506040513d601f19601f8201168201806040525081019061179491906132bd565b9550955095509550955095506040518060e001604052808781526020018681526020018581526020018481526020018381526020018281526020016117d7611f96565b905298975050505050505050565b600073057835ad21a177dbdd3090bb1cae03eacf78fc6d633e15014161180a8461201d565b6040518263ffffffff1660e01b8152600401611826919061336f565b6101406040518083038186803b15801561183f57600080fd5b505afa158015611853573d6000803e3d6000fd5b505050506040513d601f19601f820116820180604052508101906118779190613227565b50959a9950505050505050505050565b600081610a8561189f85670de0b6b3a76400006109e1565b610a8060028661368e565b6118b2612ce6565b604051806080016040528062266fd88152602001622feb948152602001623c97b8815260200162424ca8815250905090565b6000826118f357506000610a21565b60405163040b0d8960e51b8152735ef30b9986345249bc32d8928b7ee64de9435e3990638161b1209061192a9086906004016133dc565b60206040518083038186803b15801561194257600080fd5b505afa925050508015611972575060408051601f3d908101601f1916820190925261196f91810190612e95565b60015b6119d85761197e61385a565b8061198957506119c0565b8060405160200161199a9190613332565b60408051601f198184030181529082905262461bcd60e51b825261087e916004016133fc565b60405162461bcd60e51b815260040161087e906134d1565b6001600160a01b038381169116149050610a21565b60008315611a04576119ff8483612064565b61106d565b61106d83836122c7565b60008315611a20576119ff8483610a8f565b61106d8383612416565b60008415611a4257611a3d858484612682565b61150d565b61150d848484612a27565b611a55612ce6565b6040518060800160405280621ef3138152602001622814978152602001622cec41815260200162387070815250905090565b600080733d9819210a31b4961b30ef54be2aed79b9c9cd3b90506000816001600160a01b0316637dc0d1d06040518163ffffffff1660e01b815260040160206040518083038186803b158015611adc57600080fd5b505afa158015611af0573d6000803e3d6000fd5b505050506040513d601f19601f82011682018060405250810190611b149190612e95565b90506000826001600160a01b0316638e8f294b896040518263ffffffff1660e01b8152600401611b44919061336f565b60606040518083038186803b158015611b5c57600080fd5b505afa158015611b70573d6000803e3d6000fd5b505050506040513d601f19601f82011682018060405250810190611b949190612f9f565b509150506000806000856001600160a01b0316635ec88c798d6040518263ffffffff1660e01b8152600401611bc9919061336f565b60606040518083038186803b158015611be157600080fd5b505afa158015611bf5573d6000803e3d6000fd5b505050506040513d601f19601f82011682018060405250810190611c1991906131bb565b92509250925082600014611c3f5760405162461bcd60e51b815260040161087e906135bf565b611cc588866001600160a01b031663fc57d4df8c6040518263ffffffff1660e01b8152600401611c6f919061336f565b60206040518083038186803b158015611c8757600080fd5b505afa158015611c9b573d6000803e3d6000fd5b505050506040513d601f19601f82011682018060405250810190611cbf9190612fda565b83612c8e565b611d54611cd2868d612ca5565b876001600160a01b031663fc57d4df8f6040518263ffffffff1660e01b8152600401611cfe919061336f565b60206040518083038186803b158015611d1657600080fd5b505afa158015611d2a573d6000803e3d6000fd5b505050506040513d601f19601f82011682018060405250810190611d4e9190612fda565b85612c8e565b119c9b505050505050505050505050565b60008073169e633a2d1e6c10dd91238ba11c4a708dfef37c6001600160a01b03166350d25bcd6040518163ffffffff1660e01b815260040160206040518083038186803b158015611db557600080fd5b505afa158015611dc9573d6000803e3d6000fd5b505050506040513d601f19601f82011682018060405250810190611ded9190612fda565b905060008113611e0f5760405162461bcd60e51b815260040161087e9061349a565b905090565b6000816001600160a01b03166370a0823173b53c1a33016b2dc2ff3653530bff1848a515c8c56001600160a01b0316630261bf8b6040518163ffffffff1660e01b815260040160206040518083038186803b158015611e7257600080fd5b505afa158015611e86573d6000803e3d6000fd5b505050506040513d601f19601f82011682018060405250810190611eaa9190612e95565b6001600160a01b03166335ea6a75856040518263ffffffff1660e01b8152600401611ed5919061336f565b6101806040518083038186803b158015611eee57600080fd5b505afa158015611f02573d6000803e3d6000fd5b505050506040513d601f19601f82011682018060405250810190611f269190612ff2565b60e001516040518263ffffffff1660e01b8152600401611f46919061336f565b60206040518083038186803b158015611f5e57600080fd5b505afa158015611f72573d6000803e3d6000fd5b505050506040513d601f19601f820116820180604052508101906106189190612fda565b6000735f4ec3df9cbd43714fe2740f5e3616155c5b84196001600160a01b03166350d25bcd6040518163ffffffff1660e01b815260040160206040518083038186803b158015611fe557600080fd5b505afa158015611ff9573d6000803e3d6000fd5b505050506040513d601f19601f82011682018060405250810190611e0f9190612fda565b60006001600160a01b03821673eeeeeeeeeeeeeeeeeeeeeeeeeeeeeeeeeeeeeeee146120495781610618565b5073c02aaa39b223fe8d0a0e5c4f27ead9083c756cc2919050565b600080735ef30b9986345249bc32d8928b7ee64de9435e3990506000816001600160a01b03166336569e776040518163ffffffff1660e01b815260040160206040518083038186803b1580156120b957600080fd5b505afa1580156120cd573d6000803e3d6000fd5b505050506040513d601f19601f820116820180604052508101906120f19190612e95565b905060008061210084886108da565b915091506000836001600160a01b0316632424be5c84846040518363ffffffff1660e01b81526004016121349291906133e5565b604080518083038186803b15801561214b57600080fd5b505afa15801561215f573d6000803e3d6000fd5b505050506040513d601f19601f820116820180604052508101906121839190613198565b915050600080856001600160a01b031663d9638d36866040518263ffffffff1660e01b81526004016121b591906133dc565b60a06040518083038186803b1580156121cd57600080fd5b505afa1580156121e1573d6000803e3d6000fd5b505050506040513d601f19601f8201168201806040525081019061220591906131e8565b945050509250506000866001600160a01b0316636c25b346866040518263ffffffff1660e01b815260040161223a919061336f565b60206040518083038186803b15801561225257600080fd5b505afa158015612266573d6000803e3d6000fd5b505050506040513d601f19601f8201168201806040525081019061228a9190612fda565b905060006122998b8386611009565b90506122a58582610fdb565b945060006122b385876109e1565b939093109c9b505050505050505050505050565b600080735ef30b9986345249bc32d8928b7ee64de9435e3990506000816001600160a01b03166336569e776040518163ffffffff1660e01b815260040160206040518083038186803b15801561231c57600080fd5b505afa158015612330573d6000803e3d6000fd5b505050506040513d601f19601f820116820180604052508101906123549190612e95565b9050600061236186612cba565b9050600080836001600160a01b031663d9638d36846040518263ffffffff1660e01b815260040161239291906133dc565b60a06040518083038186803b1580156123aa57600080fd5b505afa1580156123be573d6000803e3d6000fd5b505050506040513d601f19601f820116820180604052508101906123e291906131e8565b9450505092505060006123f788600085611009565b9050600061240584836109e1565b929092109998505050505050505050565b600080735ef30b9986345249bc32d8928b7ee64de9435e3990506000816001600160a01b03166336569e776040518163ffffffff1660e01b815260040160206040518083038186803b15801561246b57600080fd5b505afa15801561247f573d6000803e3d6000fd5b505050506040513d601f19601f820116820180604052508101906124a39190612e95565b905060006124b086612cba565b90506000806000846001600160a01b031663d9638d36856040518263ffffffff1660e01b81526004016124e391906133dc565b60a06040518083038186803b1580156124fb57600080fd5b505afa15801561250f573d6000803e3d6000fd5b505050506040513d601f19601f8201168201806040525081019061253391906131e8565b50935050925092506000856001600160a01b031663babe8a3f6040518163ffffffff1660e01b815260040160206040518083038186803b15801561257657600080fd5b505afa15801561258a573d6000803e3d6000fd5b505050506040513d601f19601f820116820180604052508101906125ae9190612fda565b90506000866001600160a01b0316630dca59c16040518163ffffffff1660e01b815260040160206040518083038186803b1580156125eb57600080fd5b505afa1580156125ff573d6000803e3d6000fd5b505050506040513d601f19601f820116820180604052508101906126239190612fda565b905060006126338b600087611009565b9050600061264186836109e1565b905061264d8382610fdb565b92506126598783610fdb565b96508461266688886109e1565b118061267157508383115b9d9c50505050505050505050505050565b6000836126a15760405162461bcd60e51b815260040161087e90613508565b735ef30b9986345249bc32d8928b7ee64de9435e396000806126c383886108da565b604051634445d79960e01b8152919350915060009073e81f70cc7c0d46e12d70efc60607f16bbd617e8890634445d799906127029086906004016133dc565b60206040518083038186803b15801561271a57600080fd5b505afa15801561272e573d6000803e3d6000fd5b505050506040513d601f19601f820116820180604052508101906127529190612e95565b90506000846001600160a01b03166336569e776040518163ffffffff1660e01b815260040160206040518083038186803b15801561278f57600080fd5b505afa1580156127a3573d6000803e3d6000fd5b505050506040513d601f19601f820116820180604052508101906127c79190612e95565b9050600080826001600160a01b031663d9638d36876040518263ffffffff1660e01b81526004016127f891906133dc565b60a06040518083038186803b15801561281057600080fd5b505afa158015612824573d6000803e3d6000fd5b505050506040513d601f19601f8201168201806040525081019061284891906131e8565b50509250925050600080846001600160a01b0316632424be5c89896040518363ffffffff1660e01b81526004016128809291906133e5565b604080518083038186803b15801561289757600080fd5b505afa1580156128ab573d6000803e3d6000fd5b505050506040513d601f19601f820116820180604052508101906128cf9190613198565b915091506000856001600160a01b0316636c25b346896040518263ffffffff1660e01b8152600401612901919061336f565b60206040518083038186803b15801561291957600080fd5b505afa15801561292d573d6000803e3d6000fd5b505050506040513d601f19601f820116820180604052508101906129519190612fda565b905060006129cf886001600160a01b031663b3bcfa826040518163ffffffff1660e01b815260040160206040518083038186803b15801561299157600080fd5b505afa1580156129a5573d6000803e3d6000fd5b505050506040513d601f19601f820116820180604052508101906129c99190612fda565b8f61165b565b905060006129de8e8489611009565b90506129ea8583610fdb565b94506129f68482610fdb565b93506000612a0488866109e1565b9050612a1086886109e1565b10159c505050505050505050505050509392505050565b600080735ef30b9986345249bc32d8928b7ee64de9435e3990506000816001600160a01b03166336569e776040518163ffffffff1660e01b815260040160206040518083038186803b158015612a7c57600080fd5b505afa158015612a90573d6000803e3d6000fd5b505050506040513d601f19601f82011682018060405250810190612ab49190612e95565b90506000612ac187612cba565b9050600080836001600160a01b031663d9638d36846040518263ffffffff1660e01b8152600401612af291906133dc565b60a06040518083038186803b158015612b0a57600080fd5b505afa158015612b1e573d6000803e3d6000fd5b505050506040513d601f19601f82011682018060405250810190612b4291906131e8565b5050604051634445d79960e01b815291945092506000915073e81f70cc7c0d46e12d70efc60607f16bbd617e8890634445d79990612b849087906004016133dc565b60206040518083038186803b158015612b9c57600080fd5b505afa158015612bb0573d6000803e3d6000fd5b505050506040513d601f19601f82011682018060405250810190612bd49190612e95565b90506000612c52826001600160a01b031663b3bcfa826040518163ffffffff1660e01b815260040160206040518083038186803b158015612c1457600080fd5b505afa158015612c28573d6000803e3d6000fd5b505050506040513d601f19601f82011682018060405250810190612c4c9190612fda565b8b61165b565b90506000612c628a600087611009565b90506000612c7086836109e1565b9050612c7c83866109e1565b10159c9b505050505050505050505050565b600081612c9b8585612ca5565b61106d9190613676565b6000670de0b6b3a7640000610a8583856137c2565b6000815160001415612cde5760405162461bcd60e51b815260040161087e9061354b565b506020015190565b60405180608001604052806004906020820280368337509192915050565b6040518060e00160405280600081526020016000815260200160008152602001600081526020016000815260200160008152602001600081525090565b805161061b816138ff565b8051801515811461061b57600080fd5b60008083601f840112612d6d578182fd5b50813567ffffffffffffffff811115612d84578182fd5b602083019150836020828501011115612d9c57600080fd5b9250929050565b600082601f830112612db3578081fd5b813567ffffffffffffffff811115612dcd57612dcd61383e565b612de0601f8201601f1916602001613624565b818152846020838601011115612df4578283fd5b816020850160208301379081016020019190915292915050565b600060208284031215612e1f578081fd5b6040516020810181811067ffffffffffffffff82111715612e4257612e4261383e565b6040529151825250919050565b80516fffffffffffffffffffffffffffffffff8116811461061b57600080fd5b805164ffffffffff8116811461061b57600080fd5b805160ff8116811461061b57600080fd5b600060208284031215612ea6578081fd5b8151610887816138ff565b600080600080600060a08688031215612ec8578081fd5b8535612ed3816138ff565b9450602086013593506040860135612eea816138ff565b925060608601359150608086013567ffffffffffffffff811115612f0c578182fd5b612f1888828901612da3565b9150509295509295909350565b60008060008060008060a08789031215612f3d578081fd5b8635612f48816138ff565b9550602087013594506040870135612f5f816138ff565b935060608701359250608087013567ffffffffffffffff811115612f81578182fd5b612f8d89828a01612d5c565b979a9699509497509295939492505050565b600080600060608486031215612fb3578081fd5b612fbc84612d4c565b925060208401519150612fd160408501612d4c565b90509250925092565b600060208284031215612feb578081fd5b5051919050565b6000610180808385031215613005578182fd5b61300e81613624565b905061301a8484612e0e565b815261302860208401612e4f565b602082015261303960408401612e4f565b604082015261304a60608401612e4f565b606082015261305b60808401612e4f565b608082015261306c60a08401612e4f565b60a082015261307d60c08401612e6f565b60c082015261308e60e08401612d41565b60e08201526101006130a1818501612d41565b908201526101206130b3848201612d41565b908201526101406130c5848201612d41565b908201526101606130d7848201612e84565b908201529392505050565b6000608082840312156130f3578081fd5b6040516080810181811067ffffffffffffffff821117156131165761311661383e565b8060405250825181526020830151602082015260408301516040820152606083015160608201528091505092915050565b6000806000806060858703121561315c578182fd5b84359350602085013567ffffffffffffffff811115613179578283fd5b61318587828801612d5c565b9598909750949560400135949350505050565b600080604083850312156131aa578182fd5b505080516020909101519092909150565b6000806000606084860312156131cf578081fd5b8351925060208401519150604084015190509250925092565b600080600080600060a086880312156131ff578283fd5b5050835160208501516040860151606087015160809097015192989197509594509092509050565b6000806000806000806000806000806101408b8d031215613246578788fd5b8a51995060208b0151985060408b0151975060608b0151965060808b0151955061327260a08c01612d4c565b945061328060c08c01612d4c565b935061328e60e08c01612d4c565b925061329d6101008c01612d4c565b91506132ac6101208c01612d4c565b90509295989b9194979a5092959850565b60008060008060008060c087890312156132d5578384fd5b865195506020870151945060408701519350606087015192506080870151915060a087015190509295509295509295565b6000815180845261331e8160208601602086016137f8565b601f01601f19169290920160200192915050565b6000742326b0b5b2b9172fb4b9ab30bab63a27bbb732b91d60591b825282516133628160158501602087016137f8565b9190910160150192915050565b6001600160a01b0391909116815260200190565b6001600160a01b03878116825260208201879052851660408201526060810184905260a06080820181905281018290526000828460c084013781830160c090810191909152601f909201601f1916010195945050505050565b90815260200190565b9182526001600160a01b0316602082015260400190565b6000602082526108876020830184613306565b60208082526015908201527464732d6d6174682d7375622d756e646572666c6f7760581b604082015260600190565b60208082526014908201527364732d6d6174682d6d756c2d6f766572666c6f7760601b604082015260600190565b60208082526014908201527364732d6d6174682d6164642d6f766572666c6f7760601b604082015260600190565b6020808252601b908201527f5f67657447656c61746f47617350726963653a306f7242656c6f770000000000604082015260600190565b6020808252601e908201527f464d616b65722e5f69735661756c744f776e65723a756e646566696e65640000604082015260600190565b60208082526023908201527f5f7661756c7457696c6c4265536166653a20696e76616c6964207661756c742060408201526234b21760e91b606082015260800190565b6020808252600c908201526b737472696e672d656d70747960a01b604082015260600190565b6020808252602e908201527f4647656c61746f446562744272696467652e5f676574466c6173684c6f616e5260408201526d1bdd5d194e881a5b1b1a5c5d5a5960921b606082015260800190565b60208082526026908201527f476574204163636f756e74204c69717569646974792066756e6374696f6e206660408201526530b4b632b21760d11b606082015260800190565b9283526001600160a01b03918216602084015216604082015260600190565b60405181810167ffffffffffffffff811182821017156136465761364661383e565b604052919050565b6000808585111561365d578182fd5b83861115613669578182fd5b5050820193919092039150565b6000821982111561368957613689613828565b500190565b6000826136a957634e487b7160e01b81526012600452602481fd5b500490565b80825b60018086116136c057506136eb565b8187048211156136d2576136d2613828565b808616156136df57918102915b9490941c9380026136b1565b94509492505050565b6000610887600019848460008261370d57506001610887565b8161371a57506000610887565b8160018114613730576002811461373a57613767565b6001915050610887565b60ff84111561374b5761374b613828565b6001841b91508482111561376157613761613828565b50610887565b5060208310610133831016604e8410600b841016171561379a575081810a8381111561379557613795613828565b610887565b6137a784848460016136ae565b8086048211156137b9576137b9613828565b02949350505050565b60008160001904831182151516156137dc576137dc613828565b500290565b6000828210156137f3576137f3613828565b500390565b60005b838110156138135781810151838201526020016137fb565b83811115613822576000848401525b50505050565b634e487b7160e01b600052601160045260246000fd5b634e487b7160e01b600052604160045260246000fd5b60e01c90565b600060443d101561386a57611627565b600481823e6308c379a061387e8251613854565b1461388857611627565b6040513d600319016004823e80513d67ffffffffffffffff81602484011181841117156138b85750505050611627565b828401925082519150808211156138d25750505050611627565b503d830160208284010111156138ea57505050611627565b601f01601f1916810160200160405291505090565b6001600160a01b038116811461391457600080fd5b5056fe4647656c61746f446562744272696467652e5f676574476173436f73744d616b6572546f4d616b65723a20696e76616c696420726f75746520696e6465784647656c61746f446562744272696467652e5f676574476173436f73744d616b6572546f436f6d706f756e643a20696e76616c696420726f75746520696e6465784647656c61746f446562744272696467652e5f676574476173436f73744d616b6572546f416176653a20696e76616c696420726f75746520696e646578a2646970667358221220d73ba8824b329cf706191ae13d92ac05e0082197ae64076e7e91b15f0020514b64736f6c63430008000033",
  "devdoc": {
    "kind": "dev",
    "methods": {},
    "version": 1
  },
  "userdoc": {
    "kind": "user",
    "methods": {},
    "version": 1
  },
  "storageLayout": {
    "storage": [],
    "types": null
  }
}