{
  "address": "0xc9F785611986916f47f3A02590B17C3237A75b87",
  "abi": [
    {
      "inputs": [
        {
          "internalType": "address",
          "name": "_instaFeeCollector",
          "type": "address"
        },
        {
          "internalType": "address",
          "name": "_oracleAggregator",
          "type": "address"
        }
      ],
      "stateMutability": "nonpayable",
      "type": "constructor"
    },
    {
      "inputs": [
        {
          "internalType": "address",
          "name": "_dsa",
          "type": "address"
        },
        {
          "internalType": "uint256",
          "name": "_fromVaultId",
          "type": "uint256"
        },
        {
          "internalType": "uint256",
          "name": "_destVaultId",
          "type": "uint256"
        },
        {
          "internalType": "string",
          "name": "_destColType",
          "type": "string"
        }
      ],
      "name": "getConditionData",
      "outputs": [
        {
          "internalType": "bytes",
          "name": "",
          "type": "bytes"
        }
      ],
      "stateMutability": "pure",
      "type": "function"
    },
    {
      "inputs": [],
      "name": "instaFeeCollector",
      "outputs": [
        {
          "internalType": "address",
          "name": "",
          "type": "address"
        }
      ],
      "stateMutability": "view",
      "type": "function"
    },
    {
      "inputs": [
        {
          "internalType": "address",
          "name": "_dsa",
          "type": "address"
        },
        {
          "internalType": "uint256",
          "name": "_fromVaultId",
          "type": "uint256"
        },
        {
          "internalType": "uint256",
          "name": "_destVaultId",
          "type": "uint256"
        },
        {
          "internalType": "string",
          "name": "_destColType",
          "type": "string"
        }
      ],
      "name": "isDebtCeilingReached",
      "outputs": [
        {
          "internalType": "string",
          "name": "",
          "type": "string"
        }
      ],
      "stateMutability": "view",
      "type": "function"
    },
    {
      "inputs": [
        {
          "internalType": "uint256",
          "name": "",
          "type": "uint256"
        },
        {
          "internalType": "bytes",
          "name": "_conditionData",
          "type": "bytes"
        },
        {
          "internalType": "uint256",
          "name": "",
          "type": "uint256"
        }
      ],
      "name": "ok",
      "outputs": [
        {
          "internalType": "string",
          "name": "",
          "type": "string"
        }
      ],
      "stateMutability": "view",
      "type": "function"
    },
    {
      "inputs": [],
      "name": "oracleAggregator",
      "outputs": [
        {
          "internalType": "address",
          "name": "",
          "type": "address"
        }
      ],
      "stateMutability": "view",
      "type": "function"
    }
  ],
  "transactionHash": "0x3a81c5cae09c50e5adb35bb2107681b3807ea126c96bbc881c6ef3d5a5e089fb",
  "args": [
    "0x0c159985E905ea1A3dA7305D70583Dd618862cf4",
    "0x64f31D46C52bBDe223D863B11dAb9327aB1414E9"
  ],
  "solcInputHash": "06ff1a108d21b21e4ca3839d365cb0b5",
  "bytecode": "0x60c06040523480156200001157600080fd5b5060405162002997380380620029978339818101604052810190620000379190620000c4565b8173ffffffffffffffffffffffffffffffffffffffff1660808173ffffffffffffffffffffffffffffffffffffffff1660601b815250508073ffffffffffffffffffffffffffffffffffffffff1660a08173ffffffffffffffffffffffffffffffffffffffff1660601b81525050505062000153565b600081519050620000be8162000139565b92915050565b60008060408385031215620000d857600080fd5b6000620000e885828601620000ad565b9250506020620000fb85828601620000ad565b9150509250929050565b6000620001128262000119565b9050919050565b600073ffffffffffffffffffffffffffffffffffffffff82169050919050565b620001448162000105565b81146200015057600080fd5b50565b60805160601c60a05160601c61280a6200018d600039600081816101d8015261030e01526000818161013a015261037c015261280a6000f3fe608060405234801561001057600080fd5b50600436106100575760003560e01c806359d6b78a1461005c57806361d10bf01461008c5780638dffe3f4146100bc578063a99891c5146100da578063bc95af311461010a575b600080fd5b61007660048036038101906100719190611a0e565b610128565b6040516100839190612060565b60405180910390f35b6100a660048036038101906100a1919061198e565b610281565b6040516100b3919061203e565b60405180910390f35b6100c461030c565b6040516100d19190611f91565b60405180910390f35b6100f460048036038101906100ef9190611b2d565b610330565b6040516101019190612060565b60405180910390f35b61011261037a565b60405161011f9190611f91565b60405180910390f35b60606102018584846101fc88600089147f000000000000000000000000000000000000000000000000000000000000000073ffffffffffffffffffffffffffffffffffffffff1663ddca3f436040518163ffffffff1660e01b815260040160206040518083038186803b15801561019e57600080fd5b505afa1580156101b2573d6000803e3d6000fd5b505050506040513d601f19601f820116820180604052508101906101d69190611b04565b7f000000000000000000000000000000000000000000000000000000000000000061039e565b6103f1565b610240576040518060400160405280600281526020017f4f4b000000000000000000000000000000000000000000000000000000000000815250610277565b6040518060400160405280601781526020017f4d616b6572446562744365696c696e67526561636865640000000000000000008152505b9050949350505050565b60606359d6b78a60e01b86868686866040516024016102a4959493929190611fac565b604051602081830303815290604052907bffffffffffffffffffffffffffffffffffffffffffffffffffffffff19166020820180517bffffffffffffffffffffffffffffffffffffffffffffffffffffffff8381831617835250505050905095945050505050565b7f000000000000000000000000000000000000000000000000000000000000000081565b60606000806000808787600490809261034b93929190612258565b8101906103589190611913565b935093509350935061036c84848484610128565b945050505050949350505050565b7f000000000000000000000000000000000000000000000000000000000000000081565b6000806103b26103ad87610421565b6106eb565b90506103e6816103df876103da736b175474e89094c44da98b954eedeac495271d0f86610706565b610841565b8686610918565b915050949350505050565b60006103fd8486610a15565b61040857600061040a565b835b9350610417848484610ba5565b9050949350505050565b600080735ef30b9986345249bc32d8928b7ee64de9435e3990506000806104488386610bd1565b9150915060008373ffffffffffffffffffffffffffffffffffffffff166336569e776040518163ffffffff1660e01b815260040160206040518083038186803b15801561049457600080fd5b505afa1580156104a8573d6000803e3d6000fd5b505050506040513d601f19601f820116820180604052508101906104cc91906118ea565b905060008173ffffffffffffffffffffffffffffffffffffffff1663d9638d36856040518263ffffffff1660e01b81526004016105099190611ffa565b60a06040518083038186803b15801561052157600080fd5b505afa158015610535573d6000803e3d6000fd5b505050506040513d601f19601f820116820180604052508101906105599190611bd5565b50505091505060008273ffffffffffffffffffffffffffffffffffffffff16632424be5c86866040518363ffffffff1660e01b815260040161059c929190612015565b604080518083038186803b1580156105b357600080fd5b505afa1580156105c7573d6000803e3d6000fd5b505050506040513d601f19601f820116820180604052508101906105eb9190611b99565b91505060008373ffffffffffffffffffffffffffffffffffffffff16636c25b346866040518263ffffffff1660e01b81526004016106299190611f91565b60206040518083038186803b15801561064157600080fd5b505afa158015610655573d6000803e3d6000fd5b505050506040513d601f19601f820116820180604052508101906106799190611b04565b9050600061069061068a8486610cf1565b83610d5e565b90506b033b2e3c9fd0803ce8000000816106aa91906122e1565b9850806106c38a6b033b2e3c9fd0803ce8000000610cf1565b106106ce57886106dc565b6001896106db919061228b565b5b98505050505050505050919050565b60006106ff82670df27a2cdf448000610db7565b9050919050565b60008073a004a5afba04b74037e9e52ba1f7eb02b5e6150973ffffffffffffffffffffffffffffffffffffffff16635a860c87856040518263ffffffff1660e01b81526004016107569190611f91565b60806040518083038186803b15801561076e57600080fd5b505afa158015610782573d6000803e3d6000fd5b505050506040513d601f19601f820116820180604052508101906107a69190611adb565b905082816000015111156107be57600091505061083b565b82816020015111156107d457600191505061083b565b82816040015111156107ea57600291505061083b565b828160600151111561080057600391505061083b565b6040517f08c379a000000000000000000000000000000000000000000000000000000000815260040161083290612142565b60405180910390fd5b92915050565b6000610865826040518060600160405280603e8152602001612797603e9139610dfb565b610910836108b757610875610e47565b83600481106108ad577f4e487b7100000000000000000000000000000000000000000000000000000000600052603260045260246000fd5b602002015161090b565b62030d406108c3610e47565b84600481106108fb577f4e487b7100000000000000000000000000000000000000000000000000000000600052603260045260246000fd5b602002015161090a919061228b565b5b610e81565b905092915050565b60008060008373ffffffffffffffffffffffffffffffffffffffff16633c772b6c61094288610eaf565b73eeeeeeeeeeeeeeeeeeeeeeeeeeeeeeeeeeeeeeee736b175474e89094c44da98b954eedeac495271d0f6040518463ffffffff1660e01b815260040161098a9392919061217d565b604080518083038186803b1580156109a157600080fd5b505afa1580156109b5573d6000803e3d6000fd5b505050506040513d601f19601f820116820180604052508101906109d99190611b99565b915091506109e78183610ec9565b91506109f38786610db7565b82886109ff919061228b565b610a09919061228b565b92505050949350505050565b600080831415610a285760009050610b9f565b735ef30b9986345249bc32d8928b7ee64de9435e3973ffffffffffffffffffffffffffffffffffffffff16638161b120846040518263ffffffff1660e01b8152600401610a759190612162565b60206040518083038186803b158015610a8d57600080fd5b505afa925050508015610abe57506040513d601f19601f82011682018060405250810190610abb91906118ea565b60015b610b6c57610aca61266d565b80610ad55750610b31565b80604051602001610ae69190611f6f565b6040516020818303038152906040526040517f08c379a0000000000000000000000000000000000000000000000000000000008152600401610b289190612060565b60405180910390fd5b6040517f08c379a0000000000000000000000000000000000000000000000000000000008152600401610b6390612102565b60405180910390fd5b8073ffffffffffffffffffffffffffffffffffffffff168373ffffffffffffffffffffffffffffffffffffffff16149150505b92915050565b6000808414610bbd57610bb88483610ef5565b610bc8565b610bc78383611228565b5b90509392505050565b6000808373ffffffffffffffffffffffffffffffffffffffff16632c2cb9fd846040518263ffffffff1660e01b8152600401610c0d9190612162565b60206040518083038186803b158015610c2557600080fd5b505afa158015610c39573d6000803e3d6000fd5b505050506040513d601f19601f82011682018060405250810190610c5d9190611a89565b91508373ffffffffffffffffffffffffffffffffffffffff16632726b073846040518263ffffffff1660e01b8152600401610c989190612162565b60206040518083038186803b158015610cb057600080fd5b505afa158015610cc4573d6000803e3d6000fd5b505050506040513d601f19601f82011682018060405250810190610ce891906118ea565b90509250929050565b600080821480610d19575082828385610d0a9190612483565b925082610d1791906122e1565b145b610d58576040517f08c379a0000000000000000000000000000000000000000000000000000000008152600401610d4f906120a2565b60405180910390fd5b92915050565b6000828284610d6d91906124dd565b9150811115610db1576040517f08c379a0000000000000000000000000000000000000000000000000000000008152600401610da890612082565b60405180910390fd5b92915050565b6000670de0b6b3a7640000610de9610dcf8585610cf1565b6002670de0b6b3a7640000610de491906122e1565b6114c9565b610df391906122e1565b905092915050565b60048211158190610e42576040517f08c379a0000000000000000000000000000000000000000000000000000000008152600401610e399190612060565b60405180910390fd5b505050565b610e4f6116c5565b604051806080016040528062266fd88152602001622feb948152602001623c97b8815260200162424ca8815250905090565b60006064601e6064610e93919061228b565b83610e9e9190612483565b610ea891906122e1565b9050919050565b6000610ec282610ebd611522565b610cf1565b9050919050565b6000610eed82846012610edc91906124dd565b600a610ee89190612365565b610cf1565b905092915050565b600080735ef30b9986345249bc32d8928b7ee64de9435e39905060008173ffffffffffffffffffffffffffffffffffffffff166336569e776040518163ffffffff1660e01b815260040160206040518083038186803b158015610f5757600080fd5b505afa158015610f6b573d6000803e3d6000fd5b505050506040513d601f19601f82011682018060405250810190610f8f91906118ea565b9050600080610f9e8488610bd1565b9150915060008060008573ffffffffffffffffffffffffffffffffffffffff1663d9638d36866040518263ffffffff1660e01b8152600401610fe09190611ffa565b60a06040518083038186803b158015610ff857600080fd5b505afa15801561100c573d6000803e3d6000fd5b505050506040513d601f19601f820116820180604052508101906110309190611bd5565b509350509250925060008673ffffffffffffffffffffffffffffffffffffffff16636c25b346866040518263ffffffff1660e01b81526004016110739190611f91565b60206040518083038186803b15801561108b57600080fd5b505afa15801561109f573d6000803e3d6000fd5b505050506040513d601f19601f820116820180604052508101906110c39190611b04565b905060008773ffffffffffffffffffffffffffffffffffffffff1663babe8a3f6040518163ffffffff1660e01b815260040160206040518083038186803b15801561110d57600080fd5b505afa158015611121573d6000803e3d6000fd5b505050506040513d601f19601f820116820180604052508101906111459190611b04565b905060008873ffffffffffffffffffffffffffffffffffffffff16630dca59c16040518163ffffffff1660e01b815260040160206040518083038186803b15801561118f57600080fd5b505afa1580156111a3573d6000803e3d6000fd5b505050506040513d601f19601f820116820180604052508101906111c79190611b04565b905060006111d68d8588611603565b905060006111e48783610cf1565b90506111f083826114c9565b92506111fc88836114c9565b9750856112098989610cf1565b118061121457508383115b9c5050505050505050505050505092915050565b600080735ef30b9986345249bc32d8928b7ee64de9435e39905060008173ffffffffffffffffffffffffffffffffffffffff166336569e776040518163ffffffff1660e01b815260040160206040518083038186803b15801561128a57600080fd5b505afa15801561129e573d6000803e3d6000fd5b505050506040513d601f19601f820116820180604052508101906112c291906118ea565b905060006112cf86611673565b905060008060008473ffffffffffffffffffffffffffffffffffffffff1663d9638d36856040518263ffffffff1660e01b815260040161130f9190611ffa565b60a06040518083038186803b15801561132757600080fd5b505afa15801561133b573d6000803e3d6000fd5b505050506040513d601f19601f8201168201806040525081019061135f9190611bd5565b509350509250925060008573ffffffffffffffffffffffffffffffffffffffff1663babe8a3f6040518163ffffffff1660e01b815260040160206040518083038186803b1580156113af57600080fd5b505afa1580156113c3573d6000803e3d6000fd5b505050506040513d601f19601f820116820180604052508101906113e79190611b04565b905060008673ffffffffffffffffffffffffffffffffffffffff16630dca59c16040518163ffffffff1660e01b815260040160206040518083038186803b15801561143157600080fd5b505afa158015611445573d6000803e3d6000fd5b505050506040513d601f19601f820116820180604052508101906114699190611b04565b905060006114798b600087611603565b905060006114878683610cf1565b905061149383826114c9565b925061149f87836114c9565b9650846114ac8888610cf1565b11806114b757508383115b9a505050505050505050505092915050565b60008282846114d8919061228b565b915081101561151c576040517f08c379a0000000000000000000000000000000000000000000000000000000008152600401611513906120c2565b60405180910390fd5b92915050565b60008073169e633a2d1e6c10dd91238ba11c4a708dfef37c73ffffffffffffffffffffffffffffffffffffffff166350d25bcd6040518163ffffffff1660e01b815260040160206040518083038186803b15801561157f57600080fd5b505afa158015611593573d6000803e3d6000fd5b505050506040513d601f19601f820116820180604052508101906115b79190611ab2565b9050600081136115fc576040517f08c379a00000000000000000000000000000000000000000000000000000000081526004016115f3906120e2565b60405180910390fd5b8091505090565b60008161162561161f866b033b2e3c9fd0803ce8000000610cf1565b85610d5e565b61162f91906122e1565b9050611647846b033b2e3c9fd0803ce8000000610cf1565b6116518284610cf1565b1061165c578061166a565b600181611669919061228b565b5b90509392505050565b600080825114156116b9576040517f08c379a00000000000000000000000000000000000000000000000000000000081526004016116b090612122565b60405180910390fd5b60208201519050919050565b6040518060800160405280600490602082028036833780820191505090505090565b60006116fa6116f5846121e5565b6121b4565b90508281526020810184848401111561171257600080fd5b61171d848285612573565b509392505050565b60008135905061173481612723565b92915050565b60008151905061174981612723565b92915050565b60008135905061175e8161273a565b92915050565b60008151905061177381612751565b92915050565b60008083601f84011261178b57600080fd5b8235905067ffffffffffffffff8111156117a457600080fd5b6020830191508360018202830111156117bc57600080fd5b9250929050565b6000815190506117d281612768565b92915050565b60008083601f8401126117ea57600080fd5b8235905067ffffffffffffffff81111561180357600080fd5b60208301915083600182028301111561181b57600080fd5b9250929050565b600082601f83011261183357600080fd5b81356118438482602086016116e7565b91505092915050565b60006080828403121561185e57600080fd5b61186860806121b4565b90506000611878848285016118d5565b600083015250602061188c848285016118d5565b60208301525060406118a0848285016118d5565b60408301525060606118b4848285016118d5565b60608301525092915050565b6000813590506118cf8161277f565b92915050565b6000815190506118e48161277f565b92915050565b6000602082840312156118fc57600080fd5b600061190a8482850161173a565b91505092915050565b6000806000806080858703121561192957600080fd5b60006119378782880161174f565b9450506020611948878288016118c0565b9350506040611959878288016118c0565b925050606085013567ffffffffffffffff81111561197657600080fd5b61198287828801611822565b91505092959194509250565b6000806000806000608086880312156119a657600080fd5b60006119b488828901611725565b95505060206119c5888289016118c0565b94505060406119d6888289016118c0565b935050606086013567ffffffffffffffff8111156119f357600080fd5b6119ff888289016117d8565b92509250509295509295909350565b60008060008060808587031215611a2457600080fd5b6000611a3287828801611725565b9450506020611a43878288016118c0565b9350506040611a54878288016118c0565b925050606085013567ffffffffffffffff811115611a7157600080fd5b611a7d87828801611822565b91505092959194509250565b600060208284031215611a9b57600080fd5b6000611aa984828501611764565b91505092915050565b600060208284031215611ac457600080fd5b6000611ad2848285016117c3565b91505092915050565b600060808284031215611aed57600080fd5b6000611afb8482850161184c565b91505092915050565b600060208284031215611b1657600080fd5b6000611b24848285016118d5565b91505092915050565b60008060008060608587031215611b4357600080fd5b6000611b51878288016118c0565b945050602085013567ffffffffffffffff811115611b6e57600080fd5b611b7a87828801611779565b93509350506040611b8d878288016118c0565b91505092959194509250565b60008060408385031215611bac57600080fd5b6000611bba858286016118d5565b9250506020611bcb858286016118d5565b9150509250929050565b600080600080600060a08688031215611bed57600080fd5b6000611bfb888289016118d5565b9550506020611c0c888289016118d5565b9450506040611c1d888289016118d5565b9350506060611c2e888289016118d5565b9250506080611c3f888289016118d5565b9150509295509295909350565b611c5581612511565b82525050565b611c6481612535565b82525050565b6000611c7582612215565b611c7f818561222b565b9350611c8f818560208601612582565b611c9881612642565b840191505092915050565b6000611caf838561223c565b9350611cbc838584612573565b611cc583612642565b840190509392505050565b6000611cdb82612220565b611ce5818561223c565b9350611cf5818560208601612582565b611cfe81612642565b840191505092915050565b6000611d1482612220565b611d1e818561224d565b9350611d2e818560208601612582565b80840191505092915050565b6000611d4760158361223c565b91507f64732d6d6174682d7375622d756e646572666c6f7700000000000000000000006000830152602082019050919050565b6000611d8760148361223c565b91507f64732d6d6174682d6d756c2d6f766572666c6f770000000000000000000000006000830152602082019050919050565b6000611dc760148361223c565b91507f64732d6d6174682d6164642d6f766572666c6f770000000000000000000000006000830152602082019050919050565b6000611e07601b8361223c565b91507f5f67657447656c61746f47617350726963653a306f7242656c6f7700000000006000830152602082019050919050565b6000611e4760158361224d565b91507f464d616b65722e5f69735661756c744f776e65723a00000000000000000000006000830152601582019050919050565b6000611e87601e8361223c565b91507f464d616b65722e5f69735661756c744f776e65723a756e646566696e656400006000830152602082019050919050565b6000611ec7600c8361223c565b91507f737472696e672d656d70747900000000000000000000000000000000000000006000830152602082019050919050565b6000611f07602e8361223c565b91507f4647656c61746f446562744272696467652e5f676574466c6173684c6f616e5260008301527f6f7574653a20696c6c69717569640000000000000000000000000000000000006020830152604082019050919050565b611f6981612569565b82525050565b6000611f7a82611e3a565b9150611f868284611d09565b915081905092915050565b6000602082019050611fa66000830184611c4c565b92915050565b6000608082019050611fc16000830188611c4c565b611fce6020830187611f60565b611fdb6040830186611f60565b8181036060830152611fee818486611ca3565b90509695505050505050565b600060208201905061200f6000830184611c5b565b92915050565b600060408201905061202a6000830185611c5b565b6120376020830184611c4c565b9392505050565b600060208201905081810360008301526120588184611c6a565b905092915050565b6000602082019050818103600083015261207a8184611cd0565b905092915050565b6000602082019050818103600083015261209b81611d3a565b9050919050565b600060208201905081810360008301526120bb81611d7a565b9050919050565b600060208201905081810360008301526120db81611dba565b9050919050565b600060208201905081810360008301526120fb81611dfa565b9050919050565b6000602082019050818103600083015261211b81611e7a565b9050919050565b6000602082019050818103600083015261213b81611eba565b9050919050565b6000602082019050818103600083015261215b81611efa565b9050919050565b60006020820190506121776000830184611f60565b92915050565b60006060820190506121926000830186611f60565b61219f6020830185611c4c565b6121ac6040830184611c4c565b949350505050565b6000604051905081810181811067ffffffffffffffff821117156121db576121da612613565b5b8060405250919050565b600067ffffffffffffffff821115612200576121ff612613565b5b601f19601f8301169050602081019050919050565b600081519050919050565b600081519050919050565b600082825260208201905092915050565b600082825260208201905092915050565b600081905092915050565b6000808585111561226857600080fd5b8386111561227557600080fd5b6001850283019150848603905094509492505050565b600061229682612569565b91506122a183612569565b9250827fffffffffffffffffffffffffffffffffffffffffffffffffffffffffffffffff038211156122d6576122d56125b5565b5b828201905092915050565b60006122ec82612569565b91506122f783612569565b925082612307576123066125e4565b5b828204905092915050565b6000808291508390505b600185111561235c57808604811115612338576123376125b5565b5b60018516156123475780820291505b808102905061235585612653565b945061231c565b94509492505050565b600061237082612569565b915061237b83612569565b92506123a87fffffffffffffffffffffffffffffffffffffffffffffffffffffffffffffffff84846123b0565b905092915050565b6000826123c0576001905061247c565b816123ce576000905061247c565b81600181146123e457600281146123ee5761241d565b600191505061247c565b60ff841115612400576123ff6125b5565b5b8360020a915084821115612417576124166125b5565b5b5061247c565b5060208310610133831016604e8410600b84101617156124525782820a90508381111561244d5761244c6125b5565b5b61247c565b61245f8484846001612312565b92509050818404811115612476576124756125b5565b5b81810290505b9392505050565b600061248e82612569565b915061249983612569565b9250817fffffffffffffffffffffffffffffffffffffffffffffffffffffffffffffffff04831182151516156124d2576124d16125b5565b5b828202905092915050565b60006124e882612569565b91506124f383612569565b925082821015612506576125056125b5565b5b828203905092915050565b600061251c82612549565b9050919050565b600061252e82612549565b9050919050565b6000819050919050565b6000819050919050565b600073ffffffffffffffffffffffffffffffffffffffff82169050919050565b6000819050919050565b82818337600083830152505050565b60005b838110156125a0578082015181840152602081019050612585565b838111156125af576000848401525b50505050565b7f4e487b7100000000000000000000000000000000000000000000000000000000600052601160045260246000fd5b7f4e487b7100000000000000000000000000000000000000000000000000000000600052601260045260246000fd5b7f4e487b7100000000000000000000000000000000000000000000000000000000600052604160045260246000fd5b6000601f19601f8301169050919050565b60008160011c9050919050565b60008160e01c9050919050565b600060443d101561267d57612720565b60046000803e61268e600051612660565b6308c379a0811461269f5750612720565b60405160043d036004823e80513d602482011167ffffffffffffffff821117156126cb57505050612720565b808201805167ffffffffffffffff8111156126ea575050505050612720565b8060208301013d850181111561270557505050505050612720565b61270e82612642565b60208401016040528296505050505050505b90565b61272c81612511565b811461273757600080fd5b50565b61274381612523565b811461274e57600080fd5b50565b61275a81612535565b811461276557600080fd5b50565b6127718161253f565b811461277c57600080fd5b50565b61278881612569565b811461279357600080fd5b5056fe4647656c61746f446562744272696467652e5f676574476173436f73744d616b6572546f4d616b65723a20696e76616c696420726f75746520696e646578a264697066735822122012a64cdd6c675b403939ff1201ef85c2f90fae26b4ec27d4456be04fde322aa764736f6c63430008000033",
  "devdoc": {
    "kind": "dev",
    "methods": {},
    "version": 1
  },
  "userdoc": {
    "kind": "user",
    "methods": {},
    "version": 1
  },
  "storageLayout": {
    "storage": [],
    "types": null
  }
}