{
  "address": "0xb31e9501e24405e0F964E89a7be0e99c6dA9bD6E",
  "abi": [
    {
      "inputs": [
        {
          "internalType": "uint256",
          "name": "_vaultId",
          "type": "uint256"
        },
        {
          "internalType": "address",
          "name": "_priceOracle",
          "type": "address"
        },
        {
          "internalType": "bytes",
          "name": "_oraclePeekPayload",
          "type": "bytes"
        },
        {
          "internalType": "bytes",
          "name": "_oraclePeepPayload",
          "type": "bytes"
        },
        {
          "internalType": "uint256",
          "name": "_minPeekLimit",
          "type": "uint256"
        },
        {
          "internalType": "uint256",
          "name": "_minPeepLimit",
          "type": "uint256"
        }
      ],
      "name": "getConditionData",
      "outputs": [
        {
          "internalType": "bytes",
          "name": "",
          "type": "bytes"
        }
      ],
      "stateMutability": "pure",
      "type": "function"
    },
    {
      "inputs": [
        {
          "internalType": "uint256",
          "name": "_vaultID",
          "type": "uint256"
        },
        {
          "internalType": "address",
          "name": "_priceOracle",
          "type": "address"
        },
        {
          "internalType": "bytes",
          "name": "_oraclePayload",
          "type": "bytes"
        },
        {
          "internalType": "uint256",
          "name": "_minLimit",
          "type": "uint256"
        }
      ],
      "name": "isVaultUnsafeOSM",
      "outputs": [
        {
          "internalType": "string",
          "name": "",
          "type": "string"
        }
      ],
      "stateMutability": "view",
      "type": "function"
    },
    {
      "inputs": [
        {
          "internalType": "uint256",
          "name": "",
          "type": "uint256"
        },
        {
          "internalType": "bytes",
          "name": "_conditionData",
          "type": "bytes"
        },
        {
          "internalType": "uint256",
          "name": "",
          "type": "uint256"
        }
      ],
      "name": "ok",
      "outputs": [
        {
          "internalType": "string",
          "name": "",
          "type": "string"
        }
      ],
      "stateMutability": "view",
      "type": "function"
    }
  ],
  "transactionHash": "0xf56bb592f5360cb1c45b32f13b57ddd01f65bc6d3a51fbdbadd5a7c4ee9cd827",
  "args": [],
  "solcInputHash": "4b220f9f5ace9500863671bb012c293f",
  "bytecode": "0x608060405234801561001057600080fd5b506107c9806100206000396000f3fe608060405234801561001057600080fd5b50600436106100415760003560e01c80636e8391dd1461004657806398f2695e1461006f578063a99891c514610082575b600080fd5b6100596100543660046104ee565b610095565b6040516100669190610610565b60405180910390f35b61005961007d366004610456565b610132565b61005961009036600461054d565b61019b565b604051636e8391dd60e01b815260609073df3cdd10e646e4155723a3bc5b1191741dd9033390636e8391dd906100d5908890889088908890600401610680565b60006040518083038186803b1580156100ed57600080fd5b505afa158015610101573d6000803e3d6000fd5b505050506040513d6000823e601f3d908101601f19168201604052610129919081019061035d565b95945050505050565b6060636e8391dd60e01b898989898989898960405160240161015b98979695949392919061062a565b60408051601f198184030181529190526020810180516001600160e01b03166001600160e01b031990931692909217909152905098975050505050505050565b6060600080808080806101b1896004818d61070d565b8101906101be91906103c7565b9550955095509550955095506101de6101d987878786610095565b610253565b806101f357506101f36101d987878685610095565b61022857604051806040016040528060138152602001724d616b65725661756c744e6f74556e7361666560681b815250610244565b604051806040016040528060028152602001614f4b60f01b8152505b9b9a5050505050505050505050565b6000604051806040016040528060028152602001614f4b60f01b81525060405160200161028091906105f4565b60405160208183030381529060405280519060200120826040516020016102a791906105f4565b60405160208183030381529060405280519060200120149050919050565b60008083601f8401126102d6578182fd5b50813567ffffffffffffffff8111156102ed578182fd5b60208301915083602082850101111561030557600080fd5b9250929050565b600082601f83011261031c578081fd5b813561032f61032a826106e5565b6106bb565b818152846020838601011115610343578283fd5b816020850160208301379081016020019190915292915050565b60006020828403121561036e578081fd5b815167ffffffffffffffff811115610384578182fd5b8201601f81018413610394578182fd5b80516103a261032a826106e5565b8181528560208385010111156103b6578384fd5b610129826020830160208601610735565b60008060008060008060c087890312156103df578182fd5b8635955060208701356103f18161077b565b9450604087013567ffffffffffffffff8082111561040d578384fd5b6104198a838b0161030c565b9550606089013591508082111561042e578384fd5b5061043b89828a0161030c565b9350506080870135915060a087013590509295509295509295565b60008060008060008060008060c0898b031215610471578182fd5b8835975060208901356104838161077b565b9650604089013567ffffffffffffffff8082111561049f578384fd5b6104ab8c838d016102c5565b909850965060608b01359150808211156104c3578384fd5b506104d08b828c016102c5565b999c989b5096999598969760808701359660a0013595509350505050565b60008060008060808587031215610503578384fd5b8435935060208501356105158161077b565b9250604085013567ffffffffffffffff811115610530578283fd5b61053c8782880161030c565b949793965093946060013593505050565b60008060008060608587031215610562578384fd5b84359350602085013567ffffffffffffffff81111561057f578384fd5b61058b878288016102c5565b9598909750949560400135949350505050565b60008284528282602086013780602084860101526020601f19601f85011685010190509392505050565b600081518084526105e0816020860160208601610735565b601f01601f19169290920160200192915050565b60008251610606818460208701610735565b9190910192915050565b60006020825261062360208301846105c8565b9392505050565b8881526001600160a01b038816602082015260c060408201819052600090610655908301888a61059e565b828103606084015261066881878961059e565b6080840195909552505060a001529695505050505050565b8481526001600160a01b03841660208201526080604082018190526000906106aa908301856105c8565b905082606083015295945050505050565b60405181810167ffffffffffffffff811182821017156106dd576106dd610765565b604052919050565b600067ffffffffffffffff8211156106ff576106ff610765565b50601f01601f191660200190565b6000808585111561071c578182fd5b83861115610728578182fd5b5050820193919092039150565b60005b83811015610750578181015183820152602001610738565b8381111561075f576000848401525b50505050565b634e487b7160e01b600052604160045260246000fd5b6001600160a01b038116811461079057600080fd5b5056fea264697066735822122049b67e912130cc32cb4ca1fd8666b739582d1ad15853a0911fffc82c63115b3f64736f6c63430008000033",
  "devdoc": {
    "author": "Gelato Team",
    "kind": "dev",
    "methods": {
      "getConditionData(uint256,address,bytes,bytes,uint256,uint256)": {
        "details": "Use the return for your Task's Condition.data field off-chain.",
        "returns": {
          "_0": "The encoded payload for your Task's Condition.data field."
        }
      },
      "isVaultUnsafeOSM(uint256,address,bytes,uint256)": {
        "details": "The price oracle must return (bytes32, bool).",
        "params": {
          "_minLimit": "The minimum collateral ratio measured in the price of the collateral as specified by the _priceOracle.",
          "_oraclePayload": "The data for making the staticcall to the oracle's read  method e.g. the selector for MakerOracle's read fn.",
          "_priceOracle": "The price oracle contract to supply the collateral price  e.g. Maker's ETH/USD oracle for ETH collateral pricing.",
          "_vaultID": "The id of the Maker vault"
        },
        "returns": {
          "_0": "OK if the Maker Vault is unsafe, otherwise some error message."
        }
      },
      "ok(uint256,bytes,uint256)": {
        "details": "A standard interface for GelatoCore to read Conditions",
        "params": {
          "_conditionData": "The data you get from `getConditionData()`"
        },
        "returns": {
          "_0": "OK if the Condition is there, else some error message."
        }
      }
    },
    "title": "ConditionMakerVaultUnSafePosition",
    "version": 1
  },
  "userdoc": {
    "kind": "user",
    "methods": {
      "getConditionData(uint256,address,bytes,bytes,uint256,uint256)": {
        "notice": "Convenience function for off-chain _conditionData encoding"
      },
      "isVaultUnsafeOSM(uint256,address,bytes,uint256)": {
        "notice": "Specific implementation of this Condition's ok function"
      },
      "ok(uint256,bytes,uint256)": {
        "notice": "Standard GelatoCore system function"
      }
    },
    "notice": "Condition tracking Maker Vault safety requirements.",
    "version": 1
  },
  "storageLayout": {
    "storage": [],
    "types": null
  }
}