{
  "address": "0x348C20c5EB6A40346356eadE0ddc0552d3c39Be1",
  "abi": [
    {
      "inputs": [
        {
          "internalType": "address",
          "name": "_instaFeeCollector",
          "type": "address"
        },
        {
          "internalType": "address",
          "name": "_oracleAggregator",
          "type": "address"
        }
      ],
      "stateMutability": "nonpayable",
      "type": "constructor"
    },
    {
      "inputs": [
        {
          "internalType": "address",
          "name": "_dsa",
          "type": "address"
        },
        {
          "internalType": "uint256",
          "name": "_fromVaultId",
          "type": "uint256"
        }
      ],
      "name": "compoundPositionWillBeSafe",
      "outputs": [
        {
          "internalType": "string",
          "name": "",
          "type": "string"
        }
      ],
      "stateMutability": "view",
      "type": "function"
    },
    {
      "inputs": [
        {
          "internalType": "address",
          "name": "_dsa",
          "type": "address"
        },
        {
          "internalType": "uint256",
          "name": "_fromVaultId",
          "type": "uint256"
        }
      ],
      "name": "getConditionData",
      "outputs": [
        {
          "internalType": "bytes",
          "name": "",
          "type": "bytes"
        }
      ],
      "stateMutability": "pure",
      "type": "function"
    },
    {
      "inputs": [],
      "name": "instaFeeCollector",
      "outputs": [
        {
          "internalType": "address",
          "name": "",
          "type": "address"
        }
      ],
      "stateMutability": "view",
      "type": "function"
    },
    {
      "inputs": [
        {
          "internalType": "uint256",
          "name": "",
          "type": "uint256"
        },
        {
          "internalType": "bytes",
          "name": "_conditionData",
          "type": "bytes"
        },
        {
          "internalType": "uint256",
          "name": "",
          "type": "uint256"
        }
      ],
      "name": "ok",
      "outputs": [
        {
          "internalType": "string",
          "name": "",
          "type": "string"
        }
      ],
      "stateMutability": "view",
      "type": "function"
    },
    {
      "inputs": [],
      "name": "oracleAggregator",
      "outputs": [
        {
          "internalType": "address",
          "name": "",
          "type": "address"
        }
      ],
      "stateMutability": "view",
      "type": "function"
    }
  ],
  "transactionHash": "0x4fa20c41ce3ac0fd739f056daa263d5110721911bbca1dc3b291ada9cf55ea92",
  "args": [
    "0x0c159985E905ea1A3dA7305D70583Dd618862cf4",
    "0x64f31D46C52bBDe223D863B11dAb9327aB1414E9"
  ],
  "solcInputHash": "06ff1a108d21b21e4ca3839d365cb0b5",
  "bytecode": "0x60c06040523480156200001157600080fd5b506040516200280b3803806200280b8339818101604052810190620000379190620000c4565b8173ffffffffffffffffffffffffffffffffffffffff1660808173ffffffffffffffffffffffffffffffffffffffff1660601b815250508073ffffffffffffffffffffffffffffffffffffffff1660a08173ffffffffffffffffffffffffffffffffffffffff1660601b81525050505062000153565b600081519050620000be8162000139565b92915050565b60008060408385031215620000d857600080fd5b6000620000e885828601620000ad565b9250506020620000fb85828601620000ad565b9150509250929050565b6000620001128262000119565b9050919050565b600073ffffffffffffffffffffffffffffffffffffffff82169050919050565b620001448162000105565b81146200015057600080fd5b50565b60805160601c60a05160601c61267e6200018d600039600081816101f0015261031b015260008181610152015261037e015261267e6000f3fe608060405234801561001057600080fd5b50600436106100575760003560e01c806327674c131461005c5780632ba0f8171461008c5780638dffe3f4146100bc578063a99891c5146100da578063bc95af311461010a575b600080fd5b610076600480360381019061007191906118ae565b610128565b6040516100839190611ef9565b60405180910390f35b6100a660048036038101906100a191906118ae565b610297565b6040516100b39190611ebc565b60405180910390f35b6100c4610319565b6040516100d19190611e34565b60405180910390f35b6100f460048036038101906100ef9190611a1e565b61033d565b6040516101019190611ef9565b60405180910390f35b61011261037c565b60405161011f9190611e34565b60405180910390f35b606061021983610137846103a0565b736b175474e89094c44da98b954eedeac495271d0f610214867f000000000000000000000000000000000000000000000000000000000000000073ffffffffffffffffffffffffffffffffffffffff1663ddca3f436040518163ffffffff1660e01b815260040160206040518083038186803b1580156101b657600080fd5b505afa1580156101ca573d6000803e3d6000fd5b505050506040513d601f19601f820116820180604052508101906101ee91906119f5565b7f00000000000000000000000000000000000000000000000000000000000000006104e9565b61053a565b610258576040518060400160405280601e81526020017f436f6d706f756e64506f736974696f6e7357696c6c4e6f74426553616665000081525061028f565b6040518060400160405280600281526020017f4f4b0000000000000000000000000000000000000000000000000000000000008152505b905092915050565b60606327674c1360e01b83836040516024016102b4929190611e4f565b604051602081830303815290604052907bffffffffffffffffffffffffffffffffffffffffffffffffffffffff19166020820180517bffffffffffffffffffffffffffffffffffffffffffffffffffffffff8381831617835250505050905092915050565b7f000000000000000000000000000000000000000000000000000000000000000081565b606060008085856004908092610355939291906120e2565b8101906103629190611872565b915091506103708282610128565b92505050949350505050565b7f000000000000000000000000000000000000000000000000000000000000000081565b600080735ef30b9986345249bc32d8928b7ee64de9435e39905060008173ffffffffffffffffffffffffffffffffffffffff166336569e776040518163ffffffff1660e01b815260040160206040518083038186803b15801561040257600080fd5b505afa158015610416573d6000803e3d6000fd5b505050506040513d601f19601f8201168201806040525081019061043a9190611849565b9050600080610449848761055a565b9150915060008373ffffffffffffffffffffffffffffffffffffffff16632424be5c84846040518363ffffffff1660e01b815260040161048a929190611e93565b604080518083038186803b1580156104a157600080fd5b505afa1580156104b5573d6000803e3d6000fd5b505050506040513d601f19601f820116820180604052508101906104d99190611a8a565b5090508095505050505050919050565b6000806104fd6104f88661067a565b610944565b905061053081610529610524736b175474e89094c44da98b954eedeac495271d0f8561095f565b610a9a565b8686610b12565b9150509392505050565b6000610550858561054a86610c0f565b85610cb5565b9050949350505050565b6000808373ffffffffffffffffffffffffffffffffffffffff16632c2cb9fd846040518263ffffffff1660e01b81526004016105969190611ffb565b60206040518083038186803b1580156105ae57600080fd5b505afa1580156105c2573d6000803e3d6000fd5b505050506040513d601f19601f820116820180604052508101906105e6919061197a565b91508373ffffffffffffffffffffffffffffffffffffffff16632726b073846040518263ffffffff1660e01b81526004016106219190611ffb565b60206040518083038186803b15801561063957600080fd5b505afa15801561064d573d6000803e3d6000fd5b505050506040513d601f19601f820116820180604052508101906106719190611849565b90509250929050565b600080735ef30b9986345249bc32d8928b7ee64de9435e3990506000806106a1838661055a565b9150915060008373ffffffffffffffffffffffffffffffffffffffff166336569e776040518163ffffffff1660e01b815260040160206040518083038186803b1580156106ed57600080fd5b505afa158015610701573d6000803e3d6000fd5b505050506040513d601f19601f820116820180604052508101906107259190611849565b905060008173ffffffffffffffffffffffffffffffffffffffff1663d9638d36856040518263ffffffff1660e01b81526004016107629190611e78565b60a06040518083038186803b15801561077a57600080fd5b505afa15801561078e573d6000803e3d6000fd5b505050506040513d601f19601f820116820180604052508101906107b29190611b29565b50505091505060008273ffffffffffffffffffffffffffffffffffffffff16632424be5c86866040518363ffffffff1660e01b81526004016107f5929190611e93565b604080518083038186803b15801561080c57600080fd5b505afa158015610820573d6000803e3d6000fd5b505050506040513d601f19601f820116820180604052508101906108449190611a8a565b91505060008373ffffffffffffffffffffffffffffffffffffffff16636c25b346866040518263ffffffff1660e01b81526004016108829190611e34565b60206040518083038186803b15801561089a57600080fd5b505afa1580156108ae573d6000803e3d6000fd5b505050506040513d601f19601f820116820180604052508101906108d291906119f5565b905060006108e96108e38486610eb6565b83610f23565b90506b033b2e3c9fd0803ce800000081610903919061216b565b98508061091c8a6b033b2e3c9fd0803ce8000000610eb6565b106109275788610935565b6001896109349190612115565b5b98505050505050505050919050565b600061095882670df27a2cdf448000610f7c565b9050919050565b60008073a004a5afba04b74037e9e52ba1f7eb02b5e6150973ffffffffffffffffffffffffffffffffffffffff16635a860c87856040518263ffffffff1660e01b81526004016109af9190611e34565b60806040518083038186803b1580156109c757600080fd5b505afa1580156109db573d6000803e3d6000fd5b505050506040513d601f19601f820116820180604052508101906109ff91906119cc565b90508281600001511115610a17576000915050610a94565b8281602001511115610a2d576001915050610a94565b8281604001511115610a43576002915050610a94565b8281606001511115610a59576003915050610a94565b6040517f08c379a0000000000000000000000000000000000000000000000000000000008152600401610a8b90611fdb565b60405180910390fd5b92915050565b6000610abe8260405180608001604052806041815260200161260860419139610fc0565b610b0b610ac961100c565b8360048110610b01577f4e487b7100000000000000000000000000000000000000000000000000000000600052603260045260246000fd5b6020020151611046565b9050919050565b60008060008373ffffffffffffffffffffffffffffffffffffffff16633c772b6c610b3c88611074565b73eeeeeeeeeeeeeeeeeeeeeeeeeeeeeeeeeeeeeeee736b175474e89094c44da98b954eedeac495271d0f6040518463ffffffff1660e01b8152600401610b8493929190612016565b604080518083038186803b158015610b9b57600080fd5b505afa158015610baf573d6000803e3d6000fd5b505050506040513d601f19601f82011682018060405250810190610bd39190611a8a565b91509150610be1818361108e565b9150610bed8786610f7c565b8288610bf99190612115565b610c039190612115565b92505050949350505050565b600073e81f70cc7c0d46e12d70efc60607f16bbd617e8873ffffffffffffffffffffffffffffffffffffffff1663104b29e9836040518263ffffffff1660e01b8152600401610c5e9190611e34565b60206040518083038186803b158015610c7657600080fd5b505afa158015610c8a573d6000803e3d6000fd5b505050506040513d601f19601f82011682018060405250810190610cae9190611849565b9050919050565b6000610cbf6115c3565b6000733d9819210a31b4961b30ef54be2aed79b9c9cd3b905060008173ffffffffffffffffffffffffffffffffffffffff1663abfceffc896040518263ffffffff1660e01b8152600401610d139190611e34565b60006040518083038186803b158015610d2b57600080fd5b505afa158015610d3f573d6000803e3d6000fd5b505050506040513d6000823e3d601f19601f82011682018060405250810190610d6891906118ea565b905060005b8151811015610e4b576000828281518110610db1577f4e487b7100000000000000000000000000000000000000000000000000000000600052603260045260246000fd5b60200260200101519050610dc6858b836110ba565b94508773ffffffffffffffffffffffffffffffffffffffff168173ffffffffffffffffffffffffffffffffffffffff161415610e3757610e108561012001518a8760000151611442565b856000018181525050610e2d856101000151888760200151611442565b8560200181815250505b508080610e4390612472565b915050610d6d565b50600081511415610e9e57610e618389886110ba565b9250610e77836101200151888560000151611442565b836000018181525050610e94836101000151868560200151611442565b8360200181815250505b82602001518360000151119350505050949350505050565b600080821480610ede575082828385610ecf919061230d565b925082610edc919061216b565b145b610f1d576040517f08c379a0000000000000000000000000000000000000000000000000000000008152600401610f1490611f3b565b60405180910390fd5b92915050565b6000828284610f329190612367565b9150811115610f76576040517f08c379a0000000000000000000000000000000000000000000000000000000008152600401610f6d90611f1b565b60405180910390fd5b92915050565b6000670de0b6b3a7640000610fae610f948585610eb6565b6002670de0b6b3a7640000610fa9919061216b565b611462565b610fb8919061216b565b905092915050565b60048211158190611007576040517f08c379a0000000000000000000000000000000000000000000000000000000008152600401610ffe9190611ef9565b60405180910390fd5b505050565b611014611616565b6040518060800160405280621ef3138152602001622814978152602001622cec41815260200162387070815250905090565b60006064601e60646110589190612115565b83611063919061230d565b61106d919061216b565b9050919050565b6000611087826110826114bb565b610eb6565b9050919050565b60006110b2828460126110a19190612367565b600a6110ad91906121ef565b610eb6565b905092915050565b6110c26115c3565b600080733d9819210a31b4961b30ef54be2aed79b9c9cd3b90508373ffffffffffffffffffffffffffffffffffffffff1663c37f68e2866040518263ffffffff1660e01b81526004016111159190611e34565b60806040518083038186803b15801561112d57600080fd5b505afa158015611141573d6000803e3d6000fd5b505050506040513d601f19601f820116820180604052508101906111659190611ac6565b896040018a6060018b60e00183815250838152508381525083955050505050600082146111c7576040517f08c379a00000000000000000000000000000000000000000000000000000000081526004016111be90611f5b565b60405180910390fd5b8073ffffffffffffffffffffffffffffffffffffffff16638e8f294b856040518263ffffffff1660e01b81526004016112009190611e34565b60606040518083038186803b15801561121857600080fd5b505afa15801561122c573d6000803e3d6000fd5b505050506040513d601f19601f82011682018060405250810190611250919061192b565b909150508660c0018181525050733d9819210a31b4961b30ef54be2aed79b9c9cd3b73ffffffffffffffffffffffffffffffffffffffff16637dc0d1d06040518163ffffffff1660e01b815260040160206040518083038186803b1580156112b757600080fd5b505afa1580156112cb573d6000803e3d6000fd5b505050506040513d601f19601f820116820180604052508101906112ef9190611849565b73ffffffffffffffffffffffffffffffffffffffff1663fc57d4df856040518263ffffffff1660e01b81526004016113279190611ede565b60206040518083038186803b15801561133f57600080fd5b505afa158015611353573d6000803e3d6000fd5b505050506040513d601f19601f8201168201806040525081019061137791906119f5565b86610100018181525050600086610100015114156113ca576040517f08c379a00000000000000000000000000000000000000000000000000000000081526004016113c190611fbb565b60405180910390fd5b6113ea6113df8760c001518860e0015161159c565b87610100015161159c565b8661012001818152505061140c86610120015187604001518860000151611442565b86600001818152505061142d86610100015187606001518860200151611442565b86602001818152505085925050509392505050565b60008161144f858561159c565b6114599190612115565b90509392505050565b60008282846114719190612115565b91508110156114b5576040517f08c379a00000000000000000000000000000000000000000000000000000000081526004016114ac90611f7b565b60405180910390fd5b92915050565b60008073169e633a2d1e6c10dd91238ba11c4a708dfef37c73ffffffffffffffffffffffffffffffffffffffff166350d25bcd6040518163ffffffff1660e01b815260040160206040518083038186803b15801561151857600080fd5b505afa15801561152c573d6000803e3d6000fd5b505050506040513d601f19601f8201168201806040525081019061155091906119a3565b905060008113611595576040517f08c379a000000000000000000000000000000000000000000000000000000000815260040161158c90611f9b565b60405180910390fd5b8091505090565b6000670de0b6b3a76400006115b18484610eb6565b6115bb919061216b565b905092915050565b604051806101400160405280600081526020016000815260200160008152602001600081526020016000815260200160008152602001600081526020016000815260200160008152602001600081525090565b6040518060800160405280600490602082028036833780820191505090505090565b600061164b6116468461207e565b61204d565b9050808382526020820190508285602086028201111561166a57600080fd5b60005b8581101561169a57816116808882611781565b84526020840193506020830192505060018101905061166d565b5050509392505050565b6000813590506116b381612566565b92915050565b6000815190506116c881612566565b92915050565b6000813590506116dd8161257d565b92915050565b600082601f8301126116f457600080fd5b8151611704848260208601611638565b91505092915050565b60008151905061171c81612594565b92915050565b600081519050611731816125ab565b92915050565b60008083601f84011261174957600080fd5b8235905067ffffffffffffffff81111561176257600080fd5b60208301915083600182028301111561177a57600080fd5b9250929050565b600081519050611790816125c2565b92915050565b6000815190506117a5816125d9565b92915050565b6000608082840312156117bd57600080fd5b6117c7608061204d565b905060006117d784828501611834565b60008301525060206117eb84828501611834565b60208301525060406117ff84828501611834565b604083015250606061181384828501611834565b60608301525092915050565b60008135905061182e816125f0565b92915050565b600081519050611843816125f0565b92915050565b60006020828403121561185b57600080fd5b6000611869848285016116b9565b91505092915050565b6000806040838503121561188557600080fd5b6000611893858286016116ce565b92505060206118a48582860161181f565b9150509250929050565b600080604083850312156118c157600080fd5b60006118cf858286016116a4565b92505060206118e08582860161181f565b9150509250929050565b6000602082840312156118fc57600080fd5b600082015167ffffffffffffffff81111561191657600080fd5b611922848285016116e3565b91505092915050565b60008060006060848603121561194057600080fd5b600061194e8682870161170d565b935050602061195f86828701611834565b92505060406119708682870161170d565b9150509250925092565b60006020828403121561198c57600080fd5b600061199a84828501611722565b91505092915050565b6000602082840312156119b557600080fd5b60006119c384828501611796565b91505092915050565b6000608082840312156119de57600080fd5b60006119ec848285016117ab565b91505092915050565b600060208284031215611a0757600080fd5b6000611a1584828501611834565b91505092915050565b60008060008060608587031215611a3457600080fd5b6000611a428782880161181f565b945050602085013567ffffffffffffffff811115611a5f57600080fd5b611a6b87828801611737565b93509350506040611a7e8782880161181f565b91505092959194509250565b60008060408385031215611a9d57600080fd5b6000611aab85828601611834565b9250506020611abc85828601611834565b9150509250929050565b60008060008060808587031215611adc57600080fd5b6000611aea87828801611834565b9450506020611afb87828801611834565b9350506040611b0c87828801611834565b9250506060611b1d87828801611834565b91505092959194509250565b600080600080600060a08688031215611b4157600080fd5b6000611b4f88828901611834565b9550506020611b6088828901611834565b9450506040611b7188828901611834565b9350506060611b8288828901611834565b9250506080611b9388828901611834565b9150509295509295909350565b611ba98161239b565b82525050565b611bb8816123cb565b82525050565b6000611bc9826120aa565b611bd381856120c0565b9350611be381856020860161243f565b611bec81612548565b840191505092915050565b611c008161241b565b82525050565b6000611c11826120b5565b611c1b81856120d1565b9350611c2b81856020860161243f565b611c3481612548565b840191505092915050565b6000611c4c6015836120d1565b91507f64732d6d6174682d7375622d756e646572666c6f7700000000000000000000006000830152602082019050919050565b6000611c8c6014836120d1565b91507f64732d6d6174682d6d756c2d6f766572666c6f770000000000000000000000006000830152602082019050919050565b6000611ccc602a836120d1565b91507f5f67657441737365744c69717569646974793a2073656d692d6f70617175652060008301527f6572726f7220636f6465000000000000000000000000000000000000000000006020830152604082019050919050565b6000611d326014836120d1565b91507f64732d6d6174682d6164642d6f766572666c6f770000000000000000000000006000830152602082019050919050565b6000611d72601b836120d1565b91507f5f67657447656c61746f47617350726963653a306f7242656c6f7700000000006000830152602082019050919050565b6000611db26000836120d1565b9150600082019050919050565b6000611dcc602e836120d1565b91507f4647656c61746f446562744272696467652e5f676574466c6173684c6f616e5260008301527f6f7574653a20696c6c69717569640000000000000000000000000000000000006020830152604082019050919050565b611e2e81612411565b82525050565b6000602082019050611e496000830184611ba0565b92915050565b6000604082019050611e646000830185611ba0565b611e716020830184611e25565b9392505050565b6000602082019050611e8d6000830184611baf565b92915050565b6000604082019050611ea86000830185611baf565b611eb56020830184611ba0565b9392505050565b60006020820190508181036000830152611ed68184611bbe565b905092915050565b6000602082019050611ef36000830184611bf7565b92915050565b60006020820190508181036000830152611f138184611c06565b905092915050565b60006020820190508181036000830152611f3481611c3f565b9050919050565b60006020820190508181036000830152611f5481611c7f565b9050919050565b60006020820190508181036000830152611f7481611cbf565b9050919050565b60006020820190508181036000830152611f9481611d25565b9050919050565b60006020820190508181036000830152611fb481611d65565b9050919050565b60006020820190508181036000830152611fd481611da5565b9050919050565b60006020820190508181036000830152611ff481611dbf565b9050919050565b60006020820190506120106000830184611e25565b92915050565b600060608201905061202b6000830186611e25565b6120386020830185611ba0565b6120456040830184611ba0565b949350505050565b6000604051905081810181811067ffffffffffffffff8211171561207457612073612519565b5b8060405250919050565b600067ffffffffffffffff82111561209957612098612519565b5b602082029050602081019050919050565b600081519050919050565b600081519050919050565b600082825260208201905092915050565b600082825260208201905092915050565b600080858511156120f257600080fd5b838611156120ff57600080fd5b6001850283019150848603905094509492505050565b600061212082612411565b915061212b83612411565b9250827fffffffffffffffffffffffffffffffffffffffffffffffffffffffffffffffff038211156121605761215f6124bb565b5b828201905092915050565b600061217682612411565b915061218183612411565b925082612191576121906124ea565b5b828204905092915050565b6000808291508390505b60018511156121e6578086048111156121c2576121c16124bb565b5b60018516156121d15780820291505b80810290506121df85612559565b94506121a6565b94509492505050565b60006121fa82612411565b915061220583612411565b92506122327fffffffffffffffffffffffffffffffffffffffffffffffffffffffffffffffff848461223a565b905092915050565b60008261224a5760019050612306565b816122585760009050612306565b816001811461226e5760028114612278576122a7565b6001915050612306565b60ff84111561228a576122896124bb565b5b8360020a9150848211156122a1576122a06124bb565b5b50612306565b5060208310610133831016604e8410600b84101617156122dc5782820a9050838111156122d7576122d66124bb565b5b612306565b6122e9848484600161219c565b92509050818404811115612300576122ff6124bb565b5b81810290505b9392505050565b600061231882612411565b915061232383612411565b9250817fffffffffffffffffffffffffffffffffffffffffffffffffffffffffffffffff048311821515161561235c5761235b6124bb565b5b828202905092915050565b600061237282612411565b915061237d83612411565b9250828210156123905761238f6124bb565b5b828203905092915050565b60006123a6826123f1565b9050919050565b60006123b8826123f1565b9050919050565b60008115159050919050565b6000819050919050565b60006123e08261239b565b9050919050565b6000819050919050565b600073ffffffffffffffffffffffffffffffffffffffff82169050919050565b6000819050919050565b60006124268261242d565b9050919050565b6000612438826123f1565b9050919050565b60005b8381101561245d578082015181840152602081019050612442565b8381111561246c576000848401525b50505050565b600061247d82612411565b91507fffffffffffffffffffffffffffffffffffffffffffffffffffffffffffffffff8214156124b0576124af6124bb565b5b600182019050919050565b7f4e487b7100000000000000000000000000000000000000000000000000000000600052601160045260246000fd5b7f4e487b7100000000000000000000000000000000000000000000000000000000600052601260045260246000fd5b7f4e487b7100000000000000000000000000000000000000000000000000000000600052604160045260246000fd5b6000601f19601f8301169050919050565b60008160011c9050919050565b61256f8161239b565b811461257a57600080fd5b50565b612586816123ad565b811461259157600080fd5b50565b61259d816123bf565b81146125a857600080fd5b50565b6125b4816123cb565b81146125bf57600080fd5b50565b6125cb816123d5565b81146125d657600080fd5b50565b6125e2816123e7565b81146125ed57600080fd5b50565b6125f981612411565b811461260457600080fd5b5056fe4647656c61746f446562744272696467652e5f676574476173436f73744d616b6572546f436f6d706f756e643a20696e76616c696420726f75746520696e646578a2646970667358221220a1612ed0917197adc8548d6b50d26373a7d2babe2c554dee62a8932b6d26461864736f6c63430008000033",
  "devdoc": {
    "kind": "dev",
    "methods": {},
    "version": 1
  },
  "userdoc": {
    "kind": "user",
    "methods": {},
    "version": 1
  },
  "storageLayout": {
    "storage": [],
    "types": null
  }
}