{
  "address": "0xD0ee3AA435941953022103b237F0a8f7f396E243",
  "abi": [
    {
      "inputs": [
        {
          "internalType": "address",
          "name": "_instaFeeCollector",
          "type": "address"
        },
        {
          "internalType": "address",
          "name": "_oracleAggregator",
          "type": "address"
        }
      ],
      "stateMutability": "nonpayable",
      "type": "constructor"
    },
    {
      "inputs": [
        {
          "internalType": "uint256",
          "name": "_fromVaultId",
          "type": "uint256"
        }
      ],
      "name": "cTokenHasLiquidity",
      "outputs": [
        {
          "internalType": "string",
          "name": "",
          "type": "string"
        }
      ],
      "stateMutability": "view",
      "type": "function"
    },
    {
      "inputs": [
        {
          "internalType": "uint256",
          "name": "_fromVaultId",
          "type": "uint256"
        }
      ],
      "name": "getConditionData",
      "outputs": [
        {
          "internalType": "bytes",
          "name": "",
          "type": "bytes"
        }
      ],
      "stateMutability": "pure",
      "type": "function"
    },
    {
      "inputs": [],
      "name": "instaFeeCollector",
      "outputs": [
        {
          "internalType": "address",
          "name": "",
          "type": "address"
        }
      ],
      "stateMutability": "view",
      "type": "function"
    },
    {
      "inputs": [
        {
          "internalType": "uint256",
          "name": "",
          "type": "uint256"
        },
        {
          "internalType": "bytes",
          "name": "_conditionData",
          "type": "bytes"
        },
        {
          "internalType": "uint256",
          "name": "",
          "type": "uint256"
        }
      ],
      "name": "ok",
      "outputs": [
        {
          "internalType": "string",
          "name": "",
          "type": "string"
        }
      ],
      "stateMutability": "view",
      "type": "function"
    },
    {
      "inputs": [],
      "name": "oracleAggregator",
      "outputs": [
        {
          "internalType": "address",
          "name": "",
          "type": "address"
        }
      ],
      "stateMutability": "view",
      "type": "function"
    }
  ],
  "transactionHash": "0xf82e740381f8caed3f5a20c55cd6900e0cec012c17bfeecf5e3c7bdcd7fa6927",
  "args": [
    "0x0c159985E905ea1A3dA7305D70583Dd618862cf4",
    "0x64f31D46C52bBDe223D863B11dAb9327aB1414E9"
  ],
  "solcInputHash": "06ff1a108d21b21e4ca3839d365cb0b5",
  "bytecode": "0x60c06040523480156200001157600080fd5b5060405162001cb138038062001cb18339818101604052810190620000379190620000c4565b8173ffffffffffffffffffffffffffffffffffffffff1660808173ffffffffffffffffffffffffffffffffffffffff1660601b815250508073ffffffffffffffffffffffffffffffffffffffff1660a08173ffffffffffffffffffffffffffffffffffffffff1660601b81525050505062000153565b600081519050620000be8162000139565b92915050565b60008060408385031215620000d857600080fd5b6000620000e885828601620000ad565b9250506020620000fb85828601620000ad565b9150509250929050565b6000620001128262000119565b9050919050565b600073ffffffffffffffffffffffffffffffffffffffff82169050919050565b620001448162000105565b81146200015057600080fd5b50565b60805160601c60a05160601c611b246200018d60003960008181610265015261030d0152600081816101c7015261036b0152611b246000f3fe608060405234801561001057600080fd5b50600436106100575760003560e01c80637a73f5ab1461005c57806380f4cfb21461008c5780638dffe3f4146100bc578063a99891c5146100da578063bc95af311461010a575b600080fd5b610076600480360381019061007191906110f6565b610128565b60405161008391906114cb565b60405180910390f35b6100a660048036038101906100a191906110f6565b6101a7565b6040516100b391906114ed565b60405180910390f35b6100c461030b565b6040516100d1919061146c565b60405180910390f35b6100f460048036038101906100ef9190611148565b61032f565b60405161010191906114ed565b60405180910390f35b610112610369565b60405161011f919061146c565b60405180910390f35b60606380f4cfb260e01b8260405160240161014391906115af565b604051602081830303815290604052907bffffffffffffffffffffffffffffffffffffffffffffffffffffffff19166020820180517bffffffffffffffffffffffffffffffffffffffffffffffffffffffff83818316178352505050509050919050565b606061028e736b175474e89094c44da98b954eedeac495271d0f610289847f000000000000000000000000000000000000000000000000000000000000000073ffffffffffffffffffffffffffffffffffffffff1663ddca3f436040518163ffffffff1660e01b815260040160206040518083038186803b15801561022b57600080fd5b505afa15801561023f573d6000803e3d6000fd5b505050506040513d601f19601f82011682018060405250810190610263919061111f565b7f000000000000000000000000000000000000000000000000000000000000000061038d565b6103de565b6102cd576040518060400160405280601d81526020017f436f6d706f756e644861734e6f74456e6f7567684c6971756964697479000000815250610304565b6040518060400160405280600281526020017f4f4b0000000000000000000000000000000000000000000000000000000000008152505b9050919050565b7f000000000000000000000000000000000000000000000000000000000000000081565b60606000848460049080926103469392919061166a565b81019061035391906110f6565b905061035e816101a7565b915050949350505050565b7f000000000000000000000000000000000000000000000000000000000000000081565b6000806103a161039c86610470565b61073a565b90506103d4816103cd6103c8736b175474e89094c44da98b954eedeac495271d0f85610755565b610890565b8686610908565b9150509392505050565b6000816103ea84610a05565b73ffffffffffffffffffffffffffffffffffffffff16633b1d21a26040518163ffffffff1660e01b815260040160206040518083038186803b15801561042f57600080fd5b505afa158015610443573d6000803e3d6000fd5b505050506040513d601f19601f82011682018060405250810190610467919061111f565b11905092915050565b600080735ef30b9986345249bc32d8928b7ee64de9435e3990506000806104978386610aab565b9150915060008373ffffffffffffffffffffffffffffffffffffffff166336569e776040518163ffffffff1660e01b815260040160206040518083038186803b1580156104e357600080fd5b505afa1580156104f7573d6000803e3d6000fd5b505050506040513d601f19601f8201168201806040525081019061051b9190611052565b905060008173ffffffffffffffffffffffffffffffffffffffff1663d9638d36856040518263ffffffff1660e01b81526004016105589190611487565b60a06040518083038186803b15801561057057600080fd5b505afa158015610584573d6000803e3d6000fd5b505050506040513d601f19601f820116820180604052508101906105a891906111f0565b50505091505060008273ffffffffffffffffffffffffffffffffffffffff16632424be5c86866040518363ffffffff1660e01b81526004016105eb9291906114a2565b604080518083038186803b15801561060257600080fd5b505afa158015610616573d6000803e3d6000fd5b505050506040513d601f19601f8201168201806040525081019061063a91906111b4565b91505060008373ffffffffffffffffffffffffffffffffffffffff16636c25b346866040518263ffffffff1660e01b8152600401610678919061146c565b60206040518083038186803b15801561069057600080fd5b505afa1580156106a4573d6000803e3d6000fd5b505050506040513d601f19601f820116820180604052508101906106c8919061111f565b905060006106df6106d98486610bcb565b83610c38565b90506b033b2e3c9fd0803ce8000000816106f991906116f3565b9850806107128a6b033b2e3c9fd0803ce8000000610bcb565b1061071d578861072b565b60018961072a919061169d565b5b98505050505050505050919050565b600061074e82670df27a2cdf448000610c91565b9050919050565b60008073a004a5afba04b74037e9e52ba1f7eb02b5e6150973ffffffffffffffffffffffffffffffffffffffff16635a860c87856040518263ffffffff1660e01b81526004016107a5919061146c565b60806040518083038186803b1580156107bd57600080fd5b505afa1580156107d1573d6000803e3d6000fd5b505050506040513d601f19601f820116820180604052508101906107f591906110cd565b9050828160000151111561080d57600091505061088a565b828160200151111561082357600191505061088a565b828160400151111561083957600291505061088a565b828160600151111561084f57600391505061088a565b6040517f08c379a00000000000000000000000000000000000000000000000000000000081526004016108819061158f565b60405180910390fd5b92915050565b60006108b482604051806080016040528060418152602001611aae60419139610cd5565b6109016108bf610d21565b83600481106108f7577f4e487b7100000000000000000000000000000000000000000000000000000000600052603260045260246000fd5b6020020151610d5b565b9050919050565b60008060008373ffffffffffffffffffffffffffffffffffffffff16633c772b6c61093288610d89565b73eeeeeeeeeeeeeeeeeeeeeeeeeeeeeeeeeeeeeeee736b175474e89094c44da98b954eedeac495271d0f6040518463ffffffff1660e01b815260040161097a939291906115ca565b604080518083038186803b15801561099157600080fd5b505afa1580156109a5573d6000803e3d6000fd5b505050506040513d601f19601f820116820180604052508101906109c991906111b4565b915091506109d78183610da3565b91506109e38786610c91565b82886109ef919061169d565b6109f9919061169d565b92505050949350505050565b600073e81f70cc7c0d46e12d70efc60607f16bbd617e8873ffffffffffffffffffffffffffffffffffffffff1663104b29e9836040518263ffffffff1660e01b8152600401610a54919061146c565b60206040518083038186803b158015610a6c57600080fd5b505afa158015610a80573d6000803e3d6000fd5b505050506040513d601f19601f82011682018060405250810190610aa49190611052565b9050919050565b6000808373ffffffffffffffffffffffffffffffffffffffff16632c2cb9fd846040518263ffffffff1660e01b8152600401610ae791906115af565b60206040518083038186803b158015610aff57600080fd5b505afa158015610b13573d6000803e3d6000fd5b505050506040513d601f19601f82011682018060405250810190610b37919061107b565b91508373ffffffffffffffffffffffffffffffffffffffff16632726b073846040518263ffffffff1660e01b8152600401610b7291906115af565b60206040518083038186803b158015610b8a57600080fd5b505afa158015610b9e573d6000803e3d6000fd5b505050506040513d601f19601f82011682018060405250810190610bc29190611052565b90509250929050565b600080821480610bf3575082828385610be49190611895565b925082610bf191906116f3565b145b610c32576040517f08c379a0000000000000000000000000000000000000000000000000000000008152600401610c299061152f565b60405180910390fd5b92915050565b6000828284610c4791906118ef565b9150811115610c8b576040517f08c379a0000000000000000000000000000000000000000000000000000000008152600401610c829061150f565b60405180910390fd5b92915050565b6000670de0b6b3a7640000610cc3610ca98585610bcb565b6002670de0b6b3a7640000610cbe91906116f3565b610dcf565b610ccd91906116f3565b905092915050565b60048211158190610d1c576040517f08c379a0000000000000000000000000000000000000000000000000000000008152600401610d1391906114ed565b60405180910390fd5b505050565b610d29610f09565b6040518060800160405280621ef3138152602001622814978152602001622cec41815260200162387070815250905090565b60006064601e6064610d6d919061169d565b83610d789190611895565b610d8291906116f3565b9050919050565b6000610d9c82610d97610e28565b610bcb565b9050919050565b6000610dc782846012610db691906118ef565b600a610dc29190611777565b610bcb565b905092915050565b6000828284610dde919061169d565b9150811015610e22576040517f08c379a0000000000000000000000000000000000000000000000000000000008152600401610e199061154f565b60405180910390fd5b92915050565b60008073169e633a2d1e6c10dd91238ba11c4a708dfef37c73ffffffffffffffffffffffffffffffffffffffff166350d25bcd6040518163ffffffff1660e01b815260040160206040518083038186803b158015610e8557600080fd5b505afa158015610e99573d6000803e3d6000fd5b505050506040513d601f19601f82011682018060405250810190610ebd91906110a4565b905060008113610f02576040517f08c379a0000000000000000000000000000000000000000000000000000000008152600401610ef99061156f565b60405180910390fd5b8091505090565b6040518060800160405280600490602082028036833780820191505090505090565b600081519050610f3a81611a51565b92915050565b600081519050610f4f81611a68565b92915050565b60008083601f840112610f6757600080fd5b8235905067ffffffffffffffff811115610f8057600080fd5b602083019150836001820283011115610f9857600080fd5b9250929050565b600081519050610fae81611a7f565b92915050565b600060808284031215610fc657600080fd5b610fd06080611601565b90506000610fe08482850161103d565b6000830152506020610ff48482850161103d565b60208301525060406110088482850161103d565b604083015250606061101c8482850161103d565b60608301525092915050565b60008135905061103781611a96565b92915050565b60008151905061104c81611a96565b92915050565b60006020828403121561106457600080fd5b600061107284828501610f2b565b91505092915050565b60006020828403121561108d57600080fd5b600061109b84828501610f40565b91505092915050565b6000602082840312156110b657600080fd5b60006110c484828501610f9f565b91505092915050565b6000608082840312156110df57600080fd5b60006110ed84828501610fb4565b91505092915050565b60006020828403121561110857600080fd5b600061111684828501611028565b91505092915050565b60006020828403121561113157600080fd5b600061113f8482850161103d565b91505092915050565b6000806000806060858703121561115e57600080fd5b600061116c87828801611028565b945050602085013567ffffffffffffffff81111561118957600080fd5b61119587828801610f55565b935093505060406111a887828801611028565b91505092959194509250565b600080604083850312156111c757600080fd5b60006111d58582860161103d565b92505060206111e68582860161103d565b9150509250929050565b600080600080600060a0868803121561120857600080fd5b60006112168882890161103d565b95505060206112278882890161103d565b94505060406112388882890161103d565b93505060606112498882890161103d565b925050608061125a8882890161103d565b9150509295509295909350565b61127081611923565b82525050565b61127f81611935565b82525050565b600061129082611632565b61129a8185611648565b93506112aa818560208601611973565b6112b381611a33565b840191505092915050565b60006112c98261163d565b6112d38185611659565b93506112e3818560208601611973565b6112ec81611a33565b840191505092915050565b6000611304601583611659565b91507f64732d6d6174682d7375622d756e646572666c6f7700000000000000000000006000830152602082019050919050565b6000611344601483611659565b91507f64732d6d6174682d6d756c2d6f766572666c6f770000000000000000000000006000830152602082019050919050565b6000611384601483611659565b91507f64732d6d6174682d6164642d6f766572666c6f770000000000000000000000006000830152602082019050919050565b60006113c4601b83611659565b91507f5f67657447656c61746f47617350726963653a306f7242656c6f7700000000006000830152602082019050919050565b6000611404602e83611659565b91507f4647656c61746f446562744272696467652e5f676574466c6173684c6f616e5260008301527f6f7574653a20696c6c69717569640000000000000000000000000000000000006020830152604082019050919050565b61146681611969565b82525050565b60006020820190506114816000830184611267565b92915050565b600060208201905061149c6000830184611276565b92915050565b60006040820190506114b76000830185611276565b6114c46020830184611267565b9392505050565b600060208201905081810360008301526114e58184611285565b905092915050565b6000602082019050818103600083015261150781846112be565b905092915050565b60006020820190508181036000830152611528816112f7565b9050919050565b6000602082019050818103600083015261154881611337565b9050919050565b6000602082019050818103600083015261156881611377565b9050919050565b60006020820190508181036000830152611588816113b7565b9050919050565b600060208201905081810360008301526115a8816113f7565b9050919050565b60006020820190506115c4600083018461145d565b92915050565b60006060820190506115df600083018661145d565b6115ec6020830185611267565b6115f96040830184611267565b949350505050565b6000604051905081810181811067ffffffffffffffff8211171561162857611627611a04565b5b8060405250919050565b600081519050919050565b600081519050919050565b600082825260208201905092915050565b600082825260208201905092915050565b6000808585111561167a57600080fd5b8386111561168757600080fd5b6001850283019150848603905094509492505050565b60006116a882611969565b91506116b383611969565b9250827fffffffffffffffffffffffffffffffffffffffffffffffffffffffffffffffff038211156116e8576116e76119a6565b5b828201905092915050565b60006116fe82611969565b915061170983611969565b925082611719576117186119d5565b5b828204905092915050565b6000808291508390505b600185111561176e5780860481111561174a576117496119a6565b5b60018516156117595780820291505b808102905061176785611a44565b945061172e565b94509492505050565b600061178282611969565b915061178d83611969565b92506117ba7fffffffffffffffffffffffffffffffffffffffffffffffffffffffffffffffff84846117c2565b905092915050565b6000826117d2576001905061188e565b816117e0576000905061188e565b81600181146117f657600281146118005761182f565b600191505061188e565b60ff841115611812576118116119a6565b5b8360020a915084821115611829576118286119a6565b5b5061188e565b5060208310610133831016604e8410600b84101617156118645782820a90508381111561185f5761185e6119a6565b5b61188e565b6118718484846001611724565b92509050818404811115611888576118876119a6565b5b81810290505b9392505050565b60006118a082611969565b91506118ab83611969565b9250817fffffffffffffffffffffffffffffffffffffffffffffffffffffffffffffffff04831182151516156118e4576118e36119a6565b5b828202905092915050565b60006118fa82611969565b915061190583611969565b925082821015611918576119176119a6565b5b828203905092915050565b600061192e82611949565b9050919050565b6000819050919050565b6000819050919050565b600073ffffffffffffffffffffffffffffffffffffffff82169050919050565b6000819050919050565b60005b83811015611991578082015181840152602081019050611976565b838111156119a0576000848401525b50505050565b7f4e487b7100000000000000000000000000000000000000000000000000000000600052601160045260246000fd5b7f4e487b7100000000000000000000000000000000000000000000000000000000600052601260045260246000fd5b7f4e487b7100000000000000000000000000000000000000000000000000000000600052604160045260246000fd5b6000601f19601f8301169050919050565b60008160011c9050919050565b611a5a81611923565b8114611a6557600080fd5b50565b611a7181611935565b8114611a7c57600080fd5b50565b611a888161193f565b8114611a9357600080fd5b50565b611a9f81611969565b8114611aaa57600080fd5b5056fe4647656c61746f446562744272696467652e5f676574476173436f73744d616b6572546f436f6d706f756e643a20696e76616c696420726f75746520696e646578a2646970667358221220f4385b0865e987ede72bf6d8d8fbd6eb0007da74a07971a5eef775060c1bc95664736f6c63430008000033",
  "devdoc": {
    "kind": "dev",
    "methods": {},
    "version": 1
  },
  "userdoc": {
    "kind": "user",
    "methods": {},
    "version": 1
  },
  "storageLayout": {
    "storage": [],
    "types": null
  }
}