{
  "address": "0xDdBF6Db80cBc398F150E5695044cC128828FfEed",
  "abi": [
    {
      "inputs": [
        {
          "internalType": "uint256",
          "name": "_vaultId",
          "type": "uint256"
        },
        {
          "internalType": "uint256",
          "name": "_wDaiToBorrow",
          "type": "uint256"
        },
        {
          "internalType": "string",
          "name": "_colType",
          "type": "string"
        }
      ],
      "name": "debtCeilingIsReachedExplicit",
      "outputs": [
        {
          "internalType": "bool",
          "name": "",
          "type": "bool"
        }
      ],
      "stateMutability": "view",
      "type": "function"
    },
    {
      "inputs": [
        {
          "internalType": "address",
          "name": "_dsa",
          "type": "address"
        },
        {
          "internalType": "uint256",
          "name": "_fromVaultId",
          "type": "uint256"
        },
        {
          "internalType": "uint256",
          "name": "_destVaultId",
          "type": "uint256"
        },
        {
          "internalType": "string",
          "name": "_destColType",
          "type": "string"
        }
      ],
      "name": "getConditionData",
      "outputs": [
        {
          "internalType": "bytes",
          "name": "",
          "type": "bytes"
        }
      ],
      "stateMutability": "pure",
      "type": "function"
    },
    {
      "inputs": [
        {
          "internalType": "address",
          "name": "_dsa",
          "type": "address"
        },
        {
          "internalType": "uint256",
          "name": "_fromVaultId",
          "type": "uint256"
        },
        {
          "internalType": "uint256",
          "name": "_destVaultId",
          "type": "uint256"
        },
        {
          "internalType": "string",
          "name": "_destColType",
          "type": "string"
        }
      ],
      "name": "isDebtCeilingReached",
      "outputs": [
        {
          "internalType": "string",
          "name": "",
          "type": "string"
        }
      ],
      "stateMutability": "view",
      "type": "function"
    },
    {
      "inputs": [
        {
          "internalType": "uint256",
          "name": "",
          "type": "uint256"
        },
        {
          "internalType": "bytes",
          "name": "_conditionData",
          "type": "bytes"
        },
        {
          "internalType": "uint256",
          "name": "",
          "type": "uint256"
        }
      ],
      "name": "ok",
      "outputs": [
        {
          "internalType": "string",
          "name": "",
          "type": "string"
        }
      ],
      "stateMutability": "view",
      "type": "function"
    }
  ],
  "transactionHash": "0x24a284081d3f13ed783eae2396441bc5e649a21a59983d9b50db29112e21088c",
  "args": [],
  "solcInputHash": "0c702ccad6439e7f34b6d311a794eaa1",
  "bytecode": "0x608060405234801561001057600080fd5b506112b7806100206000396000f3fe608060405234801561001057600080fd5b506004361061004c5760003560e01c8063475470411461005157806359d6b78a1461007a57806361d10bf01461009a578063a99891c5146100ad575b600080fd5b61006461005f36600461108b565b6100c0565b6040516100719190611170565b60405180910390f35b61008d610088366004610f71565b6100e9565b604051610071919061117b565b61008d6100a8366004610fd2565b61017e565b61008d6100bb36600461103a565b6101de565b600083156100d7576100d28484610220565b6100e1565b6100e182846104fb565b949350505050565b60606100f58386610752565b610100576000610102565b825b925060006101176101128661095a565b610bbf565b90506101248482856100c0565b61014857604051806040016040528060028152602001614f4b60f01b815250610174565b604051806040016040528060128152602001711119589d10d95a5b1a5b99d4995858da195960721b8152505b9695505050505050565b60606359d6b78a60e01b86868686866040516024016101a1959493929190611124565b60408051601f198184030181529190526020810180516001600160e01b03166001600160e01b031990931692909217909152905095945050505050565b606060008080836101f2876004818b611195565b8101906101ff9190610f71565b9350935093509350610213848484846100e9565b9998505050505050505050565b600080735ef30b9986345249bc32d8928b7ee64de9435e3990506000816001600160a01b03166336569e776040518163ffffffff1660e01b815260040160206040518083038186803b15801561027557600080fd5b505afa158015610289573d6000803e3d6000fd5b505050506040513d602081101561029f57600080fd5b505190506000806102b08488610bd3565b915091506000806000856001600160a01b031663d9638d36866040518263ffffffff1660e01b81526004018082815260200191505060a06040518083038186803b1580156102fd57600080fd5b505afa158015610311573d6000803e3d6000fd5b505050506040513d60a081101561032757600080fd5b50805160208083015160609093015160408051633612d9a360e11b81526001600160a01b038a811660048301529151949850949650909450600093908a1692636c25b34692602480840193919291829003018186803b15801561038957600080fd5b505afa15801561039d573d6000803e3d6000fd5b505050506040513d60208110156103b357600080fd5b50516040805163babe8a3f60e01b815290519192506000916001600160a01b038a169163babe8a3f916004808301926020929190829003018186803b1580156103fb57600080fd5b505afa15801561040f573d6000803e3d6000fd5b505050506040513d602081101561042557600080fd5b505160408051630dca59c160e01b815290519192506000916001600160a01b038b1691630dca59c1916004808301926020929190829003018186803b15801561046d57600080fd5b505afa158015610481573d6000803e3d6000fd5b505050506040513d602081101561049757600080fd5b5051905060006104a88d8588610cc8565b905060006104b68783610d29565b90506104c28382610d8c565b92506104ce8883610d8c565b9750856104db8989610d29565b11806104e657508383115b9c505050505050505050505050505b92915050565b600080735ef30b9986345249bc32d8928b7ee64de9435e3990506000816001600160a01b03166336569e776040518163ffffffff1660e01b815260040160206040518083038186803b15801561055057600080fd5b505afa158015610564573d6000803e3d6000fd5b505050506040513d602081101561057a57600080fd5b50519050600061058986610ddb565b90506000806000846001600160a01b031663d9638d36856040518263ffffffff1660e01b81526004018082815260200191505060a06040518083038186803b1580156105d457600080fd5b505afa1580156105e8573d6000803e3d6000fd5b505050506040513d60a08110156105fe57600080fd5b5080516020808301516060909301516040805163babe8a3f60e01b8152905193975093955093506000926001600160a01b0389169263babe8a3f92600480840193919291829003018186803b15801561065657600080fd5b505afa15801561066a573d6000803e3d6000fd5b505050506040513d602081101561068057600080fd5b505160408051630dca59c160e01b815290519192506000916001600160a01b03891691630dca59c1916004808301926020929190829003018186803b1580156106c857600080fd5b505afa1580156106dc573d6000803e3d6000fd5b505050506040513d60208110156106f257600080fd5b5051905060006107038b8287610cc8565b905060006107118683610d29565b905061071d8382610d8c565b92506107298783610d8c565b9650846107368888610d29565b118061074157508383115b9d9c50505050505050505050505050565b600082610761575060006104f5565b735ef30b9986345249bc32d8928b7ee64de9435e396001600160a01b0316638161b120846040518263ffffffff1660e01b81526004018082815260200191505060206040518083038186803b1580156107b957600080fd5b505afa9250505080156107de57506040513d60208110156107d957600080fd5b505160015b610945576107ea6111c3565b806107f557506108f8565b806040516020018080742326b0b5b2b9172fb4b9ab30bab63a27bbb732b91d60591b81525060150182805190602001908083835b602083106108485780518252601f199092019160209182019101610829565b51815160209384036101000a60001901801990921691161790526040805192909401828103601f190183529384905262461bcd60e51b84526004840181815282516024860152825192965094508493604401925085019080838360005b838110156108bd5781810151838201526020016108a5565b50505050905090810190601f1680156108ea5780820380516001836020036101000a031916815260200191505b509250505060405180910390fd5b6040805162461bcd60e51b815260206004820152601e60248201527f464d616b65722e5f69735661756c744f776e65723a756e646566696e65640000604482015290519081900360640190fd5b6001600160a01b0383811691161490506104f5565b6000735ef30b9986345249bc32d8928b7ee64de9435e39818061097d8386610bd3565b915091506000836001600160a01b03166336569e776040518163ffffffff1660e01b815260040160206040518083038186803b1580156109bc57600080fd5b505afa1580156109d0573d6000803e3d6000fd5b505050506040513d60208110156109e657600080fd5b505160408051636cb1c69b60e11b81526004810186905290519192506000916001600160a01b0384169163d9638d369160248083019260a0929190829003018186803b158015610a3557600080fd5b505afa158015610a49573d6000803e3d6000fd5b505050506040513d60a0811015610a5f57600080fd5b5060200151604080516309092f9760e21b8152600481018790526001600160a01b038681166024830152825193945060009390861692632424be5c9260448082019391829003018186803b158015610ab657600080fd5b505afa158015610aca573d6000803e3d6000fd5b505050506040513d6040811015610ae057600080fd5b5060209081015160408051633612d9a360e11b81526001600160a01b038881166004830152915192945060009391871692636c25b34692602480840193919291829003018186803b158015610b3457600080fd5b505afa158015610b48573d6000803e3d6000fd5b505050506040513d6020811015610b5e57600080fd5b505190506000610b77610b718486610d29565b83610e2b565b90506b033b2e3c9fd0803ce80000008104985080610ba18a6b033b2e3c9fd0803ce8000000610d29565b10610bac5788610bb1565b886001015b9a9950505050505050505050565b60006104f582670df27a2cdf448000610e7b565b600080836001600160a01b0316632c2cb9fd846040518263ffffffff1660e01b81526004018082815260200191505060206040518083038186803b158015610c1a57600080fd5b505afa158015610c2e573d6000803e3d6000fd5b505050506040513d6020811015610c4457600080fd5b505160408051632726b07360e01b81526004810186905290519193506001600160a01b03861691632726b07391602480820192602092909190829003018186803b158015610c9157600080fd5b505afa158015610ca5573d6000803e3d6000fd5b505050506040513d6020811015610cbb57600080fd5b5051919491935090915050565b600081610cea610ce4866b033b2e3c9fd0803ce8000000610d29565b85610e2b565b81610cf157fe5b049050610d0a846b033b2e3c9fd0803ce8000000610d29565b610d148284610d29565b10610d1f57806100e1565b6001019392505050565b6000811580610d4457505080820282828281610d4157fe5b04145b6104f5576040805162461bcd60e51b815260206004820152601460248201527364732d6d6174682d6d756c2d6f766572666c6f7760601b604482015290519081900360640190fd5b808201828110156104f5576040805162461bcd60e51b815260206004820152601460248201527364732d6d6174682d6164642d6f766572666c6f7760601b604482015290519081900360640190fd5b6000815160001415610e23576040805162461bcd60e51b815260206004820152600c60248201526b737472696e672d656d70747960a01b604482015290519081900360640190fd5b506020015190565b808203828111156104f5576040805162461bcd60e51b815260206004820152601560248201527464732d6d6174682d7375622d756e646572666c6f7760581b604482015290519081900360640190fd5b6000670de0b6b3a7640000610ea1610e938585610d29565b6706f05b59d3b20000610d8c565b81610ea857fe5b049392505050565b60008083601f840112610ec1578182fd5b50813567ffffffffffffffff811115610ed8578182fd5b602083019150836020828501011115610ef057600080fd5b9250929050565b600082601f830112610f07578081fd5b813567ffffffffffffffff80821115610f1c57fe5b604051601f8301601f191681016020018281118282101715610f3a57fe5b604052828152925082848301602001861015610f5557600080fd5b8260208601602083013760006020848301015250505092915050565b60008060008060808587031215610f86578384fd5b8435610f9181611269565b93506020850135925060408501359150606085013567ffffffffffffffff811115610fba578182fd5b610fc687828801610ef7565b91505092959194509250565b600080600080600060808688031215610fe9578081fd5b8535610ff481611269565b94506020860135935060408601359250606086013567ffffffffffffffff81111561101d578182fd5b61102988828901610eb0565b969995985093965092949392505050565b6000806000806060858703121561104f578384fd5b84359350602085013567ffffffffffffffff81111561106c578384fd5b61107887828801610eb0565b9598909750949560400135949350505050565b60008060006060848603121561109f578283fd5b8335925060208401359150604084013567ffffffffffffffff8111156110c3578182fd5b6110cf86828701610ef7565b9150509250925092565b60008151808452815b818110156110fe576020818501810151868301820152016110e2565b8181111561110f5782602083870101525b50601f01601f19169290920160200192915050565b600060018060a01b038716825285602083015284604083015260806060830152826080830152828460a084013781830160a090810191909152601f909201601f19160101949350505050565b901515815260200190565b60006020825261118e60208301846110d9565b9392505050565b600080858511156111a4578182fd5b838611156111b0578182fd5b5050820193919092039150565b60e01c90565b600060443d10156111d357611266565b600481823e6308c379a06111e782516111bd565b146111f157611266565b6040513d600319016004823e80513d67ffffffffffffffff81602484011181841117156112215750505050611266565b8284019250825191508082111561123b5750505050611266565b503d8301602082840101111561125357505050611266565b601f01601f191681016020016040529150505b90565b6001600160a01b038116811461127e57600080fd5b5056fea2646970667358221220f52e3fe68aba8bbb3565c0c40cd11f860a8334af1e77ae67d7c888ea69a2be2564736f6c63430007040033",
  "devdoc": {
    "kind": "dev",
    "methods": {},
    "version": 1
  },
  "userdoc": {
    "kind": "user",
    "methods": {},
    "version": 1
  },
  "storageLayout": {
    "storage": [],
    "types": null
  }
}