{
  "address": "0x071E71b22d2442C8556c7317F1944b5Bb63a6750",
  "abi": [
    {
      "inputs": [
        {
          "internalType": "address",
          "name": "_dsa",
          "type": "address"
        },
        {
          "internalType": "uint256",
          "name": "_fromVaultId",
          "type": "uint256"
        },
        {
          "internalType": "uint256",
          "name": "_destVaultId",
          "type": "uint256"
        },
        {
          "internalType": "string",
          "name": "_destColType",
          "type": "string"
        }
      ],
      "name": "destVaultWillBeSafe",
      "outputs": [
        {
          "internalType": "string",
          "name": "",
          "type": "string"
        }
      ],
      "stateMutability": "view",
      "type": "function"
    },
    {
      "inputs": [
        {
          "internalType": "uint256",
          "name": "_vaultId",
          "type": "uint256"
        },
        {
          "internalType": "uint256",
          "name": "_wDaiToBorrow",
          "type": "uint256"
        },
        {
          "internalType": "uint256",
          "name": "_wColToDeposit",
          "type": "uint256"
        },
        {
          "internalType": "string",
          "name": "_colType",
          "type": "string"
        }
      ],
      "name": "destVaultWillBeSafeExplicit",
      "outputs": [
        {
          "internalType": "bool",
          "name": "",
          "type": "bool"
        }
      ],
      "stateMutability": "view",
      "type": "function"
    },
    {
      "inputs": [
        {
          "internalType": "address",
          "name": "_dsa",
          "type": "address"
        },
        {
          "internalType": "uint256",
          "name": "_fromVaultId",
          "type": "uint256"
        },
        {
          "internalType": "uint256",
          "name": "_destVaultId",
          "type": "uint256"
        },
        {
          "internalType": "string",
          "name": "_destColType",
          "type": "string"
        }
      ],
      "name": "getConditionData",
      "outputs": [
        {
          "internalType": "bytes",
          "name": "",
          "type": "bytes"
        }
      ],
      "stateMutability": "pure",
      "type": "function"
    },
    {
      "inputs": [
        {
          "internalType": "uint256",
          "name": "",
          "type": "uint256"
        },
        {
          "internalType": "bytes",
          "name": "_conditionData",
          "type": "bytes"
        },
        {
          "internalType": "uint256",
          "name": "",
          "type": "uint256"
        }
      ],
      "name": "ok",
      "outputs": [
        {
          "internalType": "string",
          "name": "",
          "type": "string"
        }
      ],
      "stateMutability": "view",
      "type": "function"
    }
  ],
  "transactionHash": "0xffc2a41fa1abbd7a044f9228c8737a39e1785ff37ea97e4b1af20ae44d90d862",
  "args": [],
  "solcInputHash": "bf7cd3f181208953a3fd533c358cf962",
  "bytecode": "0x608060405234801561001057600080fd5b50611952806100206000396000f3fe608060405234801561001057600080fd5b506004361061004c5760003560e01c806361d10bf0146100515780636e08865b1461007a578063a99891c51461009a578063cdcd5858146100ad575b600080fd5b61006461005f366004611545565b6100c0565b6040516100719190611753565b60405180910390f35b61008d61008836600461165d565b610120565b6040516100719190611748565b6100646100a836600461160c565b61014c565b6100646100bb3660046114e4565b61018e565b606063cdcd585860e01b86868686866040516024016100e39594939291906116fc565b60408051601f198184030181529190526020810180516001600160e01b03166001600160e01b031990931692909217909152905095945050505050565b600084156101385761013385858561026e565b610143565b610143828585610629565b95945050505050565b60606000808083610160876004818b611811565b81019061016d91906114e4565b93509350935093506101818484848461018e565b9998505050505050505050565b606061019a838661086f565b6101a55760006101a7565b825b925060006101bc6101b786610a79565b610cde565b905060006102016101cc87610cf2565b6101fc6101f788156101f2736b175474e89094c44da98b954eedeac495271d0f88610e13565b610f1f565b610f7f565b610f92565b905061020f85838387610120565b6102475760405180604001604052806016815260200175446573745661756c7457696c6c4e6f7442655361666560501b815250610263565b604051806040016040528060028152602001614f4b60f01b8152505b979650505050505050565b6000836102ac5760405162461bcd60e51b81526004018080602001828103825260238152602001806118fa6023913960400191505060405180910390fd5b735ef30b9986345249bc32d8928b7ee64de9435e396000806102ce8388610fe2565b91509150600073e81f70cc7c0d46e12d70efc60607f16bbd617e886001600160a01b0316634445d799846040518263ffffffff1660e01b81526004018082815260200191505060206040518083038186803b15801561032c57600080fd5b505afa158015610340573d6000803e3d6000fd5b505050506040513d602081101561035657600080fd5b5051604080516336569e7760e01b815290519192506000916001600160a01b038716916336569e77916004808301926020929190829003018186803b15801561039e57600080fd5b505afa1580156103b2573d6000803e3d6000fd5b505050506040513d60208110156103c857600080fd5b505160408051636cb1c69b60e11b815260048101879052905191925060009182916001600160a01b0385169163d9638d369160248082019260a092909190829003018186803b15801561041a57600080fd5b505afa15801561042e573d6000803e3d6000fd5b505050506040513d60a081101561044457600080fd5b50602081015160409182015182516309092f9760e21b8152600481018a90526001600160a01b0389811660248301528451939650919450600093849392881692632424be5c926044808201939291829003018186803b1580156104a657600080fd5b505afa1580156104ba573d6000803e3d6000fd5b505050506040513d60408110156104d057600080fd5b50805160209182015160408051633612d9a360e11b81526001600160a01b038c81166004830152915193965091945060009390891692636c25b346926024808201939291829003018186803b15801561052857600080fd5b505afa15801561053c573d6000803e3d6000fd5b505050506040513d602081101561055257600080fd5b5051604080516359de7d4160e11b815290519192506000916105d1916001600160a01b038b169163b3bcfa8291600480820192602092909190829003018186803b15801561059f57600080fd5b505afa1580156105b3573d6000803e3d6000fd5b505050506040513d60208110156105c957600080fd5b50518e6110d7565b905060006105e08f84896110e9565b90506105ec858361114d565b94506105f8848261114d565b93506000610606888661119c565b9050610612868861119c565b10159c505050505050505050505050509392505050565b600080735ef30b9986345249bc32d8928b7ee64de9435e3990506000816001600160a01b03166336569e776040518163ffffffff1660e01b815260040160206040518083038186803b15801561067e57600080fd5b505afa158015610692573d6000803e3d6000fd5b505050506040513d60208110156106a857600080fd5b5051905060006106b7876111ff565b9050600080836001600160a01b031663d9638d36846040518263ffffffff1660e01b81526004018082815260200191505060a06040518083038186803b15801561070057600080fd5b505afa158015610714573d6000803e3d6000fd5b505050506040513d60a081101561072a57600080fd5b506020808201516040928301518351634445d79960e01b8152600481018890529351919550935060009273e81f70cc7c0d46e12d70efc60607f16bbd617e8892634445d79992602480840193829003018186803b15801561078a57600080fd5b505afa15801561079e573d6000803e3d6000fd5b505050506040513d60208110156107b457600080fd5b5051604080516359de7d4160e11b81529051919250600091610833916001600160a01b0385169163b3bcfa8291600480820192602092909190829003018186803b15801561080157600080fd5b505afa158015610815573d6000803e3d6000fd5b505050506040513d602081101561082b57600080fd5b50518a6110d7565b905060006108438b6000876110e9565b90506000610851868361119c565b905061085d838661119c565b10159c9b505050505050505050505050565b60008261087e57506000610a73565b735ef30b9986345249bc32d8928b7ee64de9435e396001600160a01b0316638161b120846040518263ffffffff1660e01b81526004018082815260200191505060206040518083038186803b1580156108d657600080fd5b505afa9250505080156108fb57506040513d60208110156108f657600080fd5b505160015b610a625761090761183f565b806109125750610a15565b806040516020018080742326b0b5b2b9172fb4b9ab30bab63a27bbb732b91d60591b81525060150182805190602001908083835b602083106109655780518252601f199092019160209182019101610946565b51815160209384036101000a60001901801990921691161790526040805192909401828103601f190183529384905262461bcd60e51b84526004840181815282516024860152825192965094508493604401925085019080838360005b838110156109da5781810151838201526020016109c2565b50505050905090810190601f168015610a075780820380516001836020036101000a031916815260200191505b509250505060405180910390fd5b6040805162461bcd60e51b815260206004820152601e60248201527f464d616b65722e5f69735661756c744f776e65723a756e646566696e65640000604482015290519081900360640190fd5b6001600160a01b0383811691161490505b92915050565b6000735ef30b9986345249bc32d8928b7ee64de9435e398180610a9c8386610fe2565b915091506000836001600160a01b03166336569e776040518163ffffffff1660e01b815260040160206040518083038186803b158015610adb57600080fd5b505afa158015610aef573d6000803e3d6000fd5b505050506040513d6020811015610b0557600080fd5b505160408051636cb1c69b60e11b81526004810186905290519192506000916001600160a01b0384169163d9638d369160248083019260a0929190829003018186803b158015610b5457600080fd5b505afa158015610b68573d6000803e3d6000fd5b505050506040513d60a0811015610b7e57600080fd5b5060200151604080516309092f9760e21b8152600481018790526001600160a01b038681166024830152825193945060009390861692632424be5c9260448082019391829003018186803b158015610bd557600080fd5b505afa158015610be9573d6000803e3d6000fd5b505050506040513d6040811015610bff57600080fd5b5060209081015160408051633612d9a360e11b81526001600160a01b038881166004830152915192945060009391871692636c25b34692602480840193919291829003018186803b158015610c5357600080fd5b505afa158015610c67573d6000803e3d6000fd5b505050506040513d6020811015610c7d57600080fd5b505190506000610c96610c90848661119c565b83610f92565b90506b033b2e3c9fd0803ce80000008104985080610cc08a6b033b2e3c9fd0803ce800000061119c565b10610ccb5788610cd0565b886001015b9a9950505050505050505050565b6000610a7382670df27a2cdf44800061124f565b600080735ef30b9986345249bc32d8928b7ee64de9435e3990506000816001600160a01b03166336569e776040518163ffffffff1660e01b815260040160206040518083038186803b158015610d4757600080fd5b505afa158015610d5b573d6000803e3d6000fd5b505050506040513d6020811015610d7157600080fd5b50519050600080610d828487610fe2565b915091506000836001600160a01b0316632424be5c84846040518363ffffffff1660e01b815260040180838152602001826001600160a01b0316815260200192505050604080518083038186803b158015610ddc57600080fd5b505afa158015610df0573d6000803e3d6000fd5b505050506040513d6040811015610e0657600080fd5b5051979650505050505050565b6000610e1d6113dd565b604051635a860c8760e01b815273a004a5afba04b74037e9e52ba1f7eb02b5e6150990635a860c8790610e549087906004016116e8565b60806040518083038186803b158015610e6c57600080fd5b505afa158015610e80573d6000803e3d6000fd5b505050506040513d601f19601f82011682018060405250810190610ea491906115ad565b90508281600001511115610ebc576000915050610a73565b8281602001511115610ed2576001915050610a73565b8281604001511115610ee8576002915050610a73565b8281606001511115610efe576003915050610a73565b60405162461bcd60e51b8152600401610f16906117c3565b60405180910390fd5b6000610f2a82611284565b610f7883610f4f57610f3a6112a8565b8360048110610f4557fe5b6020020151610f73565b610f73610f5a6112a8565b8460048110610f6557fe5b6020020151620249f061114d565b6112e3565b9392505050565b6000610a7382610f8d611305565b61119c565b80820382811115610a73576040805162461bcd60e51b815260206004820152601560248201527464732d6d6174682d7375622d756e646572666c6f7760581b604482015290519081900360640190fd5b600080836001600160a01b0316632c2cb9fd846040518263ffffffff1660e01b81526004018082815260200191505060206040518083038186803b15801561102957600080fd5b505afa15801561103d573d6000803e3d6000fd5b505050506040513d602081101561105357600080fd5b505160408051632726b07360e01b81526004810186905290519193506001600160a01b03861691632726b07391602480820192602092909190829003018186803b1580156110a057600080fd5b505afa1580156110b4573d6000803e3d6000fd5b505050506040513d60208110156110ca57600080fd5b5051919491935090915050565b6000610f788284601203600a0a61119c565b60008161110b611105866b033b2e3c9fd0803ce800000061119c565b85610f92565b8161111257fe5b04905061112b846b033b2e3c9fd0803ce800000061119c565b611135828461119c565b106111405780611145565b806001015b949350505050565b80820182811015610a73576040805162461bcd60e51b815260206004820152601460248201527364732d6d6174682d6164642d6f766572666c6f7760601b604482015290519081900360640190fd5b60008115806111b7575050808202828282816111b457fe5b04145b610a73576040805162461bcd60e51b815260206004820152601460248201527364732d6d6174682d6d756c2d6f766572666c6f7760601b604482015290519081900360640190fd5b6000815160001415611247576040805162461bcd60e51b815260206004820152600c60248201526b737472696e672d656d70747960a01b604482015290519081900360640190fd5b506020015190565b6000670de0b6b3a7640000611275611267858561119c565b6706f05b59d3b2000061114d565b8161127c57fe5b049392505050565b60048111156112a55760405162461bcd60e51b8152600401610f1690611766565b50565b6112b0611405565b6040518060800160405280621e8480815260200162249f008152602001622b7cd08152602001623567e081525090505b90565b600060646112f783610f8d6064601461114d565b816112fe57fe5b0492915050565b60008073169e633a2d1e6c10dd91238ba11c4a708dfef37c6001600160a01b03166350d25bcd6040518163ffffffff1660e01b815260040160206040518083038186803b15801561135557600080fd5b505afa158015611369573d6000803e3d6000fd5b505050506040513d602081101561137f57600080fd5b50519050600081136113d8576040805162461bcd60e51b815260206004820152601b60248201527f5f67657447656c61746f47617350726963653a306f7242656c6f770000000000604482015290519081900360640190fd5b905090565b6040518060800160405280600081526020016000815260200160008152602001600081525090565b60405180608001604052806004906020820280368337509192915050565b60008083601f840112611434578182fd5b50813567ffffffffffffffff81111561144b578182fd5b60208301915083602082850101111561146357600080fd5b9250929050565b600082601f83011261147a578081fd5b813567ffffffffffffffff8082111561148f57fe5b604051601f8301601f1916810160200182811182821017156114ad57fe5b6040528281529250828483016020018610156114c857600080fd5b8260208601602083013760006020848301015250505092915050565b600080600080608085870312156114f9578384fd5b8435611504816118e4565b93506020850135925060408501359150606085013567ffffffffffffffff81111561152d578182fd5b6115398782880161146a565b91505092959194509250565b60008060008060006080868803121561155c578081fd5b8535611567816118e4565b94506020860135935060408601359250606086013567ffffffffffffffff811115611590578182fd5b61159c88828901611423565b969995985093965092949392505050565b6000608082840312156115be578081fd5b6040516080810181811067ffffffffffffffff821117156115db57fe5b8060405250825181526020830151602082015260408301516040820152606083015160608201528091505092915050565b60008060008060608587031215611621578384fd5b84359350602085013567ffffffffffffffff81111561163e578384fd5b61164a87828801611423565b9598909750949560400135949350505050565b60008060008060808587031215611672578384fd5b843593506020850135925060408501359150606085013567ffffffffffffffff81111561152d578182fd5b60008151808452815b818110156116c2576020818501810151868301820152016116a6565b818111156116d35782602083870101525b50601f01601f19169290920160200192915050565b6001600160a01b0391909116815260200190565b600060018060a01b038716825285602083015284604083015260806060830152826080830152828460a084013781830160a090810191909152601f909201601f19160101949350505050565b901515815260200190565b600060208252610f78602083018461169d565b6020808252603e908201527f4647656c61746f446562744272696467652e5f676574476173436f73744d616b60408201527f6572546f4d616b65723a20696e76616c696420726f75746520696e6465780000606082015260800190565b6020808252602e908201527f4647656c61746f446562744272696467652e5f676574466c6173684c6f616e5260408201526d1bdd5d194e881a5b1b1a5c5d5a5960921b606082015260800190565b60008085851115611820578182fd5b8386111561182c578182fd5b5050820193919092039150565b60e01c90565b600060443d101561184f576112e0565b600481823e6308c379a06118638251611839565b1461186d576112e0565b6040513d600319016004823e80513d67ffffffffffffffff816024840111818411171561189d57505050506112e0565b828401925082519150808211156118b757505050506112e0565b503d830160208284010111156118cf575050506112e0565b601f01601f1916810160200160405291505090565b6001600160a01b03811681146112a557600080fdfe5f7661756c7457696c6c4265536166653a20696e76616c6964207661756c742069642ea264697066735822122060a8ef4125dea0e12655501bf65f66ace60d838b0c5982b607a17fbaa4f7881b64736f6c63430007040033",
  "devdoc": {
    "kind": "dev",
    "methods": {},
    "version": 1
  },
  "userdoc": {
    "kind": "user",
    "methods": {},
    "version": 1
  },
  "storageLayout": {
    "storage": [],
    "types": null
  }
}