{
  "address": "0x87CE3693b36faf546829eb329fB0e5A1f76cEC43",
  "abi": [
    {
      "inputs": [
        {
          "internalType": "address",
          "name": "_dsa",
          "type": "address"
        },
        {
          "internalType": "uint256",
          "name": "_fromVaultId",
          "type": "uint256"
        },
        {
          "internalType": "uint256",
          "name": "_destVaultId",
          "type": "uint256"
        },
        {
          "internalType": "string",
          "name": "_destColType",
          "type": "string"
        }
      ],
      "name": "getConditionData",
      "outputs": [
        {
          "internalType": "bytes",
          "name": "",
          "type": "bytes"
        }
      ],
      "stateMutability": "pure",
      "type": "function"
    },
    {
      "inputs": [
        {
          "internalType": "address",
          "name": "_dsa",
          "type": "address"
        },
        {
          "internalType": "uint256",
          "name": "_fromVaultId",
          "type": "uint256"
        },
        {
          "internalType": "uint256",
          "name": "_destVaultId",
          "type": "uint256"
        },
        {
          "internalType": "string",
          "name": "_destColType",
          "type": "string"
        }
      ],
      "name": "isDebtAmtDust",
      "outputs": [
        {
          "internalType": "string",
          "name": "",
          "type": "string"
        }
      ],
      "stateMutability": "view",
      "type": "function"
    },
    {
      "inputs": [
        {
          "internalType": "uint256",
          "name": "",
          "type": "uint256"
        },
        {
          "internalType": "bytes",
          "name": "_conditionData",
          "type": "bytes"
        },
        {
          "internalType": "uint256",
          "name": "",
          "type": "uint256"
        }
      ],
      "name": "ok",
      "outputs": [
        {
          "internalType": "string",
          "name": "",
          "type": "string"
        }
      ],
      "stateMutability": "view",
      "type": "function"
    }
  ],
  "transactionHash": "0xf8a269b836c3e50889bf152b2767276aa804c1b60ab75d060d4c0281e44076d9",
  "args": [],
  "solcInputHash": "9e1e417ad5e60d445fed51b4e54a4fd7",
  "bytecode": "0x608060405234801561001057600080fd5b50611b4c806100206000396000f3fe608060405234801561001057600080fd5b50600436106100415760003560e01c806361d10bf014610046578063a7ca8a1714610076578063a99891c5146100a6575b600080fd5b610060600480360381019061005b919061101c565b6100d6565b60405161006d91906115d4565b60405180910390f35b610090600480360381019061008b919061109c565b610161565b60405161009d91906115f6565b60405180910390f35b6100c060048036038101906100bb9190611169565b6101f7565b6040516100cd91906115f6565b60405180910390f35b606063a7ca8a1760e01b86868686866040516024016100f9959493929190611542565b604051602081830303815290604052907bffffffffffffffffffffffffffffffffffffffffffffffffffffffff19166020820180517bffffffffffffffffffffffffffffffffffffffffffffffffffffffff8381831617835250505050905095945050505050565b606061017785848461017288610241565b61050b565b6101b6576040518060400160405280600281526020017f4f4b0000000000000000000000000000000000000000000000000000000000008152506101ed565b6040518060400160405280600d81526020017f44656274416d74497344757374000000000000000000000000000000000000008152505b9050949350505050565b60606000806000808787600490809261021293929190611777565b81019061021f9190610fa1565b935093509350935061023384848484610161565b945050505050949350505050565b600080735ef30b9986345249bc32d8928b7ee64de9435e399050600080610268838661053b565b9150915060008373ffffffffffffffffffffffffffffffffffffffff166336569e776040518163ffffffff1660e01b815260040160206040518083038186803b1580156102b457600080fd5b505afa1580156102c8573d6000803e3d6000fd5b505050506040513d601f19601f820116820180604052508101906102ec9190610f78565b905060008173ffffffffffffffffffffffffffffffffffffffff1663d9638d36856040518263ffffffff1660e01b81526004016103299190611590565b60a06040518083038186803b15801561034157600080fd5b505afa158015610355573d6000803e3d6000fd5b505050506040513d601f19601f820116820180604052508101906103799190611211565b50505091505060008273ffffffffffffffffffffffffffffffffffffffff16632424be5c86866040518363ffffffff1660e01b81526004016103bc9291906115ab565b604080518083038186803b1580156103d357600080fd5b505afa1580156103e7573d6000803e3d6000fd5b505050506040513d601f19601f8201168201806040525081019061040b91906111d5565b91505060008373ffffffffffffffffffffffffffffffffffffffff16636c25b346866040518263ffffffff1660e01b81526004016104499190611527565b60206040518083038186803b15801561046157600080fd5b505afa158015610475573d6000803e3d6000fd5b505050506040513d601f19601f820116820180604052508101906104999190611140565b905060006104b06104aa848661065b565b836106c8565b90506b033b2e3c9fd0803ce8000000816104ca9190611800565b9850806104e38a6b033b2e3c9fd0803ce800000061065b565b106104ee57886104fc565b6001896104fb91906117aa565b5b98505050505050505050919050565b60006105178486610721565b610522576000610524565b835b93506105318484846108b1565b9050949350505050565b6000808373ffffffffffffffffffffffffffffffffffffffff16632c2cb9fd846040518263ffffffff1660e01b815260040161057791906116b8565b60206040518083038186803b15801561058f57600080fd5b505afa1580156105a3573d6000803e3d6000fd5b505050506040513d601f19601f820116820180604052508101906105c79190611117565b91508373ffffffffffffffffffffffffffffffffffffffff16632726b073846040518263ffffffff1660e01b815260040161060291906116b8565b60206040518083038186803b15801561061a57600080fd5b505afa15801561062e573d6000803e3d6000fd5b505050506040513d601f19601f820116820180604052508101906106529190610f78565b90509250929050565b6000808214806106835750828283856106749190611831565b9250826106819190611800565b145b6106c2576040517f08c379a00000000000000000000000000000000000000000000000000000000081526004016106b990611638565b60405180910390fd5b92915050565b60008282846106d7919061188b565b915081111561071b576040517f08c379a000000000000000000000000000000000000000000000000000000000815260040161071290611618565b60405180910390fd5b92915050565b60008083141561073457600090506108ab565b735ef30b9986345249bc32d8928b7ee64de9435e3973ffffffffffffffffffffffffffffffffffffffff16638161b120846040518263ffffffff1660e01b815260040161078191906116b8565b60206040518083038186803b15801561079957600080fd5b505afa9250505080156107ca57506040513d601f19601f820116820180604052508101906107c79190610f78565b60015b610878576107d6611a04565b806107e1575061083d565b806040516020016107f29190611505565b6040516020818303038152906040526040517f08c379a000000000000000000000000000000000000000000000000000000000815260040161083491906115f6565b60405180910390fd5b6040517f08c379a000000000000000000000000000000000000000000000000000000000815260040161086f90611678565b60405180910390fd5b8073ffffffffffffffffffffffffffffffffffffffff168373ffffffffffffffffffffffffffffffffffffffff16149150505b92915050565b60008084146108c9576108c484836108dd565b6108d4565b6108d38383610b77565b5b90509392505050565b600080735ef30b9986345249bc32d8928b7ee64de9435e39905060008173ffffffffffffffffffffffffffffffffffffffff166336569e776040518163ffffffff1660e01b815260040160206040518083038186803b15801561093f57600080fd5b505afa158015610953573d6000803e3d6000fd5b505050506040513d601f19601f820116820180604052508101906109779190610f78565b9050600080610986848861053b565b9150915060008373ffffffffffffffffffffffffffffffffffffffff16632424be5c84846040518363ffffffff1660e01b81526004016109c79291906115ab565b604080518083038186803b1580156109de57600080fd5b505afa1580156109f2573d6000803e3d6000fd5b505050506040513d601f19601f82011682018060405250810190610a1691906111d5565b9150506000808573ffffffffffffffffffffffffffffffffffffffff1663d9638d36866040518263ffffffff1660e01b8152600401610a559190611590565b60a06040518083038186803b158015610a6d57600080fd5b505afa158015610a81573d6000803e3d6000fd5b505050506040513d601f19601f82011682018060405250810190610aa59190611211565b9450505092505060008673ffffffffffffffffffffffffffffffffffffffff16636c25b346866040518263ffffffff1660e01b8152600401610ae79190611527565b60206040518083038186803b158015610aff57600080fd5b505afa158015610b13573d6000803e3d6000fd5b505050506040513d601f19601f82011682018060405250810190610b379190611140565b90506000610b468b8386610ce3565b9050610b528582610d53565b94506000610b60858761065b565b90508381109a505050505050505050505092915050565b600080735ef30b9986345249bc32d8928b7ee64de9435e39905060008173ffffffffffffffffffffffffffffffffffffffff166336569e776040518163ffffffff1660e01b815260040160206040518083038186803b158015610bd957600080fd5b505afa158015610bed573d6000803e3d6000fd5b505050506040513d601f19601f82011682018060405250810190610c119190610f78565b90506000610c1e86610dac565b90506000808373ffffffffffffffffffffffffffffffffffffffff1663d9638d36846040518263ffffffff1660e01b8152600401610c5c9190611590565b60a06040518083038186803b158015610c7457600080fd5b505afa158015610c88573d6000803e3d6000fd5b505050506040513d601f19601f82011682018060405250810190610cac9190611211565b945050509250506000610cc188600085610ce3565b90506000610ccf848361065b565b905082811097505050505050505092915050565b600081610d05610cff866b033b2e3c9fd0803ce800000061065b565b856106c8565b610d0f9190611800565b9050610d27846b033b2e3c9fd0803ce800000061065b565b610d31828461065b565b10610d3c5780610d4a565b600181610d4991906117aa565b5b90509392505050565b6000828284610d6291906117aa565b9150811015610da6576040517f08c379a0000000000000000000000000000000000000000000000000000000008152600401610d9d90611658565b60405180910390fd5b92915050565b60008082511415610df2576040517f08c379a0000000000000000000000000000000000000000000000000000000008152600401610de990611698565b60405180910390fd5b60208201519050919050565b6000610e11610e0c84611704565b6116d3565b905082815260208101848484011115610e2957600080fd5b610e34848285611917565b509392505050565b600081359050610e4b81611aba565b92915050565b600081519050610e6081611aba565b92915050565b600081359050610e7581611ad1565b92915050565b600081519050610e8a81611ae8565b92915050565b60008083601f840112610ea257600080fd5b8235905067ffffffffffffffff811115610ebb57600080fd5b602083019150836001820283011115610ed357600080fd5b9250929050565b60008083601f840112610eec57600080fd5b8235905067ffffffffffffffff811115610f0557600080fd5b602083019150836001820283011115610f1d57600080fd5b9250929050565b600082601f830112610f3557600080fd5b8135610f45848260208601610dfe565b91505092915050565b600081359050610f5d81611aff565b92915050565b600081519050610f7281611aff565b92915050565b600060208284031215610f8a57600080fd5b6000610f9884828501610e51565b91505092915050565b60008060008060808587031215610fb757600080fd5b6000610fc587828801610e66565b9450506020610fd687828801610f4e565b9350506040610fe787828801610f4e565b925050606085013567ffffffffffffffff81111561100457600080fd5b61101087828801610f24565b91505092959194509250565b60008060008060006080868803121561103457600080fd5b600061104288828901610e3c565b955050602061105388828901610f4e565b945050604061106488828901610f4e565b935050606086013567ffffffffffffffff81111561108157600080fd5b61108d88828901610eda565b92509250509295509295909350565b600080600080608085870312156110b257600080fd5b60006110c087828801610e3c565b94505060206110d187828801610f4e565b93505060406110e287828801610f4e565b925050606085013567ffffffffffffffff8111156110ff57600080fd5b61110b87828801610f24565b91505092959194509250565b60006020828403121561112957600080fd5b600061113784828501610e7b565b91505092915050565b60006020828403121561115257600080fd5b600061116084828501610f63565b91505092915050565b6000806000806060858703121561117f57600080fd5b600061118d87828801610f4e565b945050602085013567ffffffffffffffff8111156111aa57600080fd5b6111b687828801610e90565b935093505060406111c987828801610f4e565b91505092959194509250565b600080604083850312156111e857600080fd5b60006111f685828601610f63565b925050602061120785828601610f63565b9150509250929050565b600080600080600060a0868803121561122957600080fd5b600061123788828901610f63565b955050602061124888828901610f63565b945050604061125988828901610f63565b935050606061126a88828901610f63565b925050608061127b88828901610f63565b9150509295509295909350565b611291816118bf565b82525050565b6112a0816118e3565b82525050565b60006112b182611734565b6112bb818561174a565b93506112cb818560208601611926565b6112d4816119e6565b840191505092915050565b60006112eb838561175b565b93506112f8838584611917565b611301836119e6565b840190509392505050565b60006113178261173f565b611321818561175b565b9350611331818560208601611926565b61133a816119e6565b840191505092915050565b60006113508261173f565b61135a818561176c565b935061136a818560208601611926565b80840191505092915050565b600061138360158361175b565b91507f64732d6d6174682d7375622d756e646572666c6f7700000000000000000000006000830152602082019050919050565b60006113c360148361175b565b91507f64732d6d6174682d6d756c2d6f766572666c6f770000000000000000000000006000830152602082019050919050565b600061140360148361175b565b91507f64732d6d6174682d6164642d6f766572666c6f770000000000000000000000006000830152602082019050919050565b600061144360158361176c565b91507f464d616b65722e5f69735661756c744f776e65723a00000000000000000000006000830152601582019050919050565b6000611483601e8361175b565b91507f464d616b65722e5f69735661756c744f776e65723a756e646566696e656400006000830152602082019050919050565b60006114c3600c8361175b565b91507f737472696e672d656d70747900000000000000000000000000000000000000006000830152602082019050919050565b6114ff8161190d565b82525050565b600061151082611436565b915061151c8284611345565b915081905092915050565b600060208201905061153c6000830184611288565b92915050565b60006080820190506115576000830188611288565b61156460208301876114f6565b61157160408301866114f6565b81810360608301526115848184866112df565b90509695505050505050565b60006020820190506115a56000830184611297565b92915050565b60006040820190506115c06000830185611297565b6115cd6020830184611288565b9392505050565b600060208201905081810360008301526115ee81846112a6565b905092915050565b60006020820190508181036000830152611610818461130c565b905092915050565b6000602082019050818103600083015261163181611376565b9050919050565b60006020820190508181036000830152611651816113b6565b9050919050565b60006020820190508181036000830152611671816113f6565b9050919050565b6000602082019050818103600083015261169181611476565b9050919050565b600060208201905081810360008301526116b1816114b6565b9050919050565b60006020820190506116cd60008301846114f6565b92915050565b6000604051905081810181811067ffffffffffffffff821117156116fa576116f96119b7565b5b8060405250919050565b600067ffffffffffffffff82111561171f5761171e6119b7565b5b601f19601f8301169050602081019050919050565b600081519050919050565b600081519050919050565b600082825260208201905092915050565b600082825260208201905092915050565b600081905092915050565b6000808585111561178757600080fd5b8386111561179457600080fd5b6001850283019150848603905094509492505050565b60006117b58261190d565b91506117c08361190d565b9250827fffffffffffffffffffffffffffffffffffffffffffffffffffffffffffffffff038211156117f5576117f4611959565b5b828201905092915050565b600061180b8261190d565b91506118168361190d565b92508261182657611825611988565b5b828204905092915050565b600061183c8261190d565b91506118478361190d565b9250817fffffffffffffffffffffffffffffffffffffffffffffffffffffffffffffffff04831182151516156118805761187f611959565b5b828202905092915050565b60006118968261190d565b91506118a18361190d565b9250828210156118b4576118b3611959565b5b828203905092915050565b60006118ca826118ed565b9050919050565b60006118dc826118ed565b9050919050565b6000819050919050565b600073ffffffffffffffffffffffffffffffffffffffff82169050919050565b6000819050919050565b82818337600083830152505050565b60005b83811015611944578082015181840152602081019050611929565b83811115611953576000848401525b50505050565b7f4e487b7100000000000000000000000000000000000000000000000000000000600052601160045260246000fd5b7f4e487b7100000000000000000000000000000000000000000000000000000000600052601260045260246000fd5b7f4e487b7100000000000000000000000000000000000000000000000000000000600052604160045260246000fd5b6000601f19601f8301169050919050565b60008160e01c9050919050565b600060443d1015611a1457611ab7565b60046000803e611a256000516119f7565b6308c379a08114611a365750611ab7565b60405160043d036004823e80513d602482011167ffffffffffffffff82111715611a6257505050611ab7565b808201805167ffffffffffffffff811115611a81575050505050611ab7565b8060208301013d8501811115611a9c57505050505050611ab7565b611aa5826119e6565b60208401016040528296505050505050505b90565b611ac3816118bf565b8114611ace57600080fd5b50565b611ada816118d1565b8114611ae557600080fd5b50565b611af1816118e3565b8114611afc57600080fd5b50565b611b088161190d565b8114611b1357600080fd5b5056fea2646970667358221220b317a7078300a9b7374f3935dfbd39658a2d0708a167a896bfc15c453ff7431d64736f6c63430008000033",
  "devdoc": {
    "kind": "dev",
    "methods": {},
    "version": 1
  },
  "userdoc": {
    "kind": "user",
    "methods": {},
    "version": 1
  },
  "storageLayout": {
    "storage": [],
    "types": null
  }
}