{
  "address": "0xe5E50CF4b85D6C3C08AD0C5932717C8118BBE6f4",
  "abi": [
    {
      "inputs": [
        {
          "internalType": "uint256",
          "name": "_vaultId",
          "type": "uint256"
        },
        {
          "internalType": "uint256",
          "name": "_wDaiToBorrow",
          "type": "uint256"
        },
        {
          "internalType": "string",
          "name": "_colType",
          "type": "string"
        }
      ],
      "name": "borrowAmountIsDustExplicit",
      "outputs": [
        {
          "internalType": "bool",
          "name": "",
          "type": "bool"
        }
      ],
      "stateMutability": "view",
      "type": "function"
    },
    {
      "inputs": [
        {
          "internalType": "address",
          "name": "_dsa",
          "type": "address"
        },
        {
          "internalType": "uint256",
          "name": "_fromVaultId",
          "type": "uint256"
        },
        {
          "internalType": "uint256",
          "name": "_destVaultId",
          "type": "uint256"
        },
        {
          "internalType": "string",
          "name": "_destColType",
          "type": "string"
        }
      ],
      "name": "getConditionData",
      "outputs": [
        {
          "internalType": "bytes",
          "name": "",
          "type": "bytes"
        }
      ],
      "stateMutability": "pure",
      "type": "function"
    },
    {
      "inputs": [
        {
          "internalType": "address",
          "name": "_dsa",
          "type": "address"
        },
        {
          "internalType": "uint256",
          "name": "_fromVaultId",
          "type": "uint256"
        },
        {
          "internalType": "uint256",
          "name": "_destVaultId",
          "type": "uint256"
        },
        {
          "internalType": "string",
          "name": "_destColType",
          "type": "string"
        }
      ],
      "name": "isBorrowAmountDust",
      "outputs": [
        {
          "internalType": "string",
          "name": "",
          "type": "string"
        }
      ],
      "stateMutability": "view",
      "type": "function"
    },
    {
      "inputs": [
        {
          "internalType": "uint256",
          "name": "",
          "type": "uint256"
        },
        {
          "internalType": "bytes",
          "name": "_conditionData",
          "type": "bytes"
        },
        {
          "internalType": "uint256",
          "name": "",
          "type": "uint256"
        }
      ],
      "name": "ok",
      "outputs": [
        {
          "internalType": "string",
          "name": "",
          "type": "string"
        }
      ],
      "stateMutability": "view",
      "type": "function"
    }
  ],
  "transactionHash": "0x21be61bbe6347c8ccb1f1f3b16a631d736b738a47a344d53903db3f56c31ea6b",
  "args": [],
  "solcInputHash": "0c702ccad6439e7f34b6d311a794eaa1",
  "bytecode": "0x608060405234801561001057600080fd5b506110cf806100206000396000f3fe608060405234801561001057600080fd5b506004361061004c5760003560e01c80632effac911461005157806361d10bf01461007a578063a99891c51461008d578063dba43282146100a0575b600080fd5b61006461005f366004610d89565b6100c0565b6040516100719190610f93565b60405180910390f35b610064610088366004610dea565b610151565b61006461009b366004610e52565b6101b1565b6100b36100ae366004610ea3565b6101f3565b6040516100719190610f88565b60606100cc838661021c565b6100d75760006100d9565b825b925060006100e685610426565b90506100f38482856101f3565b61011757604051806040016040528060028152602001614f4b60f01b815250610147565b604051806040016040528060168152602001751119589d139bdd11dc99585d195c951a185b911d5cdd60521b8152505b9695505050505050565b6060632effac9160e01b8686868686604051602401610174959493929190610f3c565b60408051601f198184030181529190526020810180516001600160e01b03166001600160e01b031990931692909217909152905095945050505050565b606060008080836101c5876004818b610fad565b8101906101d29190610d89565b93509350935093506101e6848484846100c0565b9998505050505050505050565b6000831561020a57610205848461068b565b610214565b61021482846108e2565b949350505050565b60008261022b57506000610420565b735ef30b9986345249bc32d8928b7ee64de9435e396001600160a01b0316638161b120846040518263ffffffff1660e01b81526004018082815260200191505060206040518083038186803b15801561028357600080fd5b505afa9250505080156102a857506040513d60208110156102a357600080fd5b505160015b61040f576102b4610fdb565b806102bf57506103c2565b806040516020018080742326b0b5b2b9172fb4b9ab30bab63a27bbb732b91d60591b81525060150182805190602001908083835b602083106103125780518252601f1990920191602091820191016102f3565b51815160209384036101000a60001901801990921691161790526040805192909401828103601f190183529384905262461bcd60e51b84526004840181815282516024860152825192965094508493604401925085019080838360005b8381101561038757818101518382015260200161036f565b50505050905090810190601f1680156103b45780820380516001836020036101000a031916815260200191505b509250505060405180910390fd5b6040805162461bcd60e51b815260206004820152601e60248201527f464d616b65722e5f69735661756c744f776e65723a756e646566696e65640000604482015290519081900360640190fd5b6001600160a01b0383811691161490505b92915050565b6000735ef30b9986345249bc32d8928b7ee64de9435e3981806104498386610a20565b915091506000836001600160a01b03166336569e776040518163ffffffff1660e01b815260040160206040518083038186803b15801561048857600080fd5b505afa15801561049c573d6000803e3d6000fd5b505050506040513d60208110156104b257600080fd5b505160408051636cb1c69b60e11b81526004810186905290519192506000916001600160a01b0384169163d9638d369160248083019260a0929190829003018186803b15801561050157600080fd5b505afa158015610515573d6000803e3d6000fd5b505050506040513d60a081101561052b57600080fd5b5060200151604080516309092f9760e21b8152600481018790526001600160a01b038681166024830152825193945060009390861692632424be5c9260448082019391829003018186803b15801561058257600080fd5b505afa158015610596573d6000803e3d6000fd5b505050506040513d60408110156105ac57600080fd5b5060209081015160408051633612d9a360e11b81526001600160a01b038881166004830152915192945060009391871692636c25b34692602480840193919291829003018186803b15801561060057600080fd5b505afa158015610614573d6000803e3d6000fd5b505050506040513d602081101561062a57600080fd5b50519050600061064361063d8486610b15565b83610b78565b90506b033b2e3c9fd0803ce8000000810498508061066d8a6b033b2e3c9fd0803ce8000000610b15565b10610678578861067d565b886001015b9a9950505050505050505050565b600080735ef30b9986345249bc32d8928b7ee64de9435e3990506000816001600160a01b03166336569e776040518163ffffffff1660e01b815260040160206040518083038186803b1580156106e057600080fd5b505afa1580156106f4573d6000803e3d6000fd5b505050506040513d602081101561070a57600080fd5b5051905060008061071b8488610a20565b915091506000836001600160a01b0316632424be5c84846040518363ffffffff1660e01b815260040180838152602001826001600160a01b0316815260200192505050604080518083038186803b15801561077557600080fd5b505afa158015610789573d6000803e3d6000fd5b505050506040513d604081101561079f57600080fd5b506020015160408051636cb1c69b60e11b815260048101869052905191925060009182916001600160a01b0388169163d9638d369160248082019260a092909190829003018186803b1580156107f457600080fd5b505afa158015610808573d6000803e3d6000fd5b505050506040513d60a081101561081e57600080fd5b5060208082015160809092015160408051633612d9a360e11b81526001600160a01b0389811660048301529151949650919450600093908a1692636c25b3469260248082019391829003018186803b15801561087957600080fd5b505afa15801561088d573d6000803e3d6000fd5b505050506040513d60208110156108a357600080fd5b5051905060006108b48b8386610bc8565b90506108c08582610c29565b945060006108ce8587610b15565b939093109c9b505050505050505050505050565b600080735ef30b9986345249bc32d8928b7ee64de9435e3990506000816001600160a01b03166336569e776040518163ffffffff1660e01b815260040160206040518083038186803b15801561093757600080fd5b505afa15801561094b573d6000803e3d6000fd5b505050506040513d602081101561096157600080fd5b50519050600061097086610c78565b9050600080836001600160a01b031663d9638d36846040518263ffffffff1660e01b81526004018082815260200191505060a06040518083038186803b1580156109b957600080fd5b505afa1580156109cd573d6000803e3d6000fd5b505050506040513d60a08110156109e357600080fd5b50602081015160809091015190925090506000610a01888285610bc8565b90506000610a0f8483610b15565b929092109998505050505050505050565b600080836001600160a01b0316632c2cb9fd846040518263ffffffff1660e01b81526004018082815260200191505060206040518083038186803b158015610a6757600080fd5b505afa158015610a7b573d6000803e3d6000fd5b505050506040513d6020811015610a9157600080fd5b505160408051632726b07360e01b81526004810186905290519193506001600160a01b03861691632726b07391602480820192602092909190829003018186803b158015610ade57600080fd5b505afa158015610af2573d6000803e3d6000fd5b505050506040513d6020811015610b0857600080fd5b5051919491935090915050565b6000811580610b3057505080820282828281610b2d57fe5b04145b610420576040805162461bcd60e51b815260206004820152601460248201527364732d6d6174682d6d756c2d6f766572666c6f7760601b604482015290519081900360640190fd5b80820382811115610420576040805162461bcd60e51b815260206004820152601560248201527464732d6d6174682d7375622d756e646572666c6f7760581b604482015290519081900360640190fd5b600081610bea610be4866b033b2e3c9fd0803ce8000000610b15565b85610b78565b81610bf157fe5b049050610c0a846b033b2e3c9fd0803ce8000000610b15565b610c148284610b15565b10610c1f5780610214565b6001019392505050565b80820182811015610420576040805162461bcd60e51b815260206004820152601460248201527364732d6d6174682d6164642d6f766572666c6f7760601b604482015290519081900360640190fd5b6000815160001415610cc0576040805162461bcd60e51b815260206004820152600c60248201526b737472696e672d656d70747960a01b604482015290519081900360640190fd5b506020015190565b60008083601f840112610cd9578182fd5b50813567ffffffffffffffff811115610cf0578182fd5b602083019150836020828501011115610d0857600080fd5b9250929050565b600082601f830112610d1f578081fd5b813567ffffffffffffffff80821115610d3457fe5b604051601f8301601f191681016020018281118282101715610d5257fe5b604052828152925082848301602001861015610d6d57600080fd5b8260208601602083013760006020848301015250505092915050565b60008060008060808587031215610d9e578384fd5b8435610da981611081565b93506020850135925060408501359150606085013567ffffffffffffffff811115610dd2578182fd5b610dde87828801610d0f565b91505092959194509250565b600080600080600060808688031215610e01578081fd5b8535610e0c81611081565b94506020860135935060408601359250606086013567ffffffffffffffff811115610e35578182fd5b610e4188828901610cc8565b969995985093965092949392505050565b60008060008060608587031215610e67578384fd5b84359350602085013567ffffffffffffffff811115610e84578384fd5b610e9087828801610cc8565b9598909750949560400135949350505050565b600080600060608486031215610eb7578283fd5b8335925060208401359150604084013567ffffffffffffffff811115610edb578182fd5b610ee786828701610d0f565b9150509250925092565b60008151808452815b81811015610f1657602081850181015186830182015201610efa565b81811115610f275782602083870101525b50601f01601f19169290920160200192915050565b600060018060a01b038716825285602083015284604083015260806060830152826080830152828460a084013781830160a090810191909152601f909201601f19160101949350505050565b901515815260200190565b600060208252610fa66020830184610ef1565b9392505050565b60008085851115610fbc578182fd5b83861115610fc8578182fd5b5050820193919092039150565b60e01c90565b600060443d1015610feb5761107e565b600481823e6308c379a0610fff8251610fd5565b146110095761107e565b6040513d600319016004823e80513d67ffffffffffffffff8160248401118184111715611039575050505061107e565b82840192508251915080821115611053575050505061107e565b503d8301602082840101111561106b5750505061107e565b601f01601f191681016020016040529150505b90565b6001600160a01b038116811461109657600080fd5b5056fea26469706673582212200e5705498c192385944e757547a7b6749ea266893471bf19ad6b8eba7eeafa1764736f6c63430007040033",
  "devdoc": {
    "kind": "dev",
    "methods": {},
    "version": 1
  },
  "userdoc": {
    "kind": "user",
    "methods": {},
    "version": 1
  },
  "storageLayout": {
    "storage": [],
    "types": null
  }
}