{
  "address": "0xA0163174A4Bb731eB712BFd50109B71c15171e0B",
  "abi": [
    {
      "inputs": [
        {
          "internalType": "address",
          "name": "_instaFeeCollector",
          "type": "address"
        },
        {
          "internalType": "address",
          "name": "_oracleAggregator",
          "type": "address"
        }
      ],
      "stateMutability": "nonpayable",
      "type": "constructor"
    },
    {
      "inputs": [
        {
          "internalType": "uint256",
          "name": "_fromVaultId",
          "type": "uint256"
        }
      ],
      "name": "getConditionData",
      "outputs": [
        {
          "internalType": "bytes",
          "name": "",
          "type": "bytes"
        }
      ],
      "stateMutability": "pure",
      "type": "function"
    },
    {
      "inputs": [
        {
          "internalType": "uint256",
          "name": "_fromVaultId",
          "type": "uint256"
        }
      ],
      "name": "hasLiquidity",
      "outputs": [
        {
          "internalType": "string",
          "name": "",
          "type": "string"
        }
      ],
      "stateMutability": "view",
      "type": "function"
    },
    {
      "inputs": [],
      "name": "instaFeeCollector",
      "outputs": [
        {
          "internalType": "address",
          "name": "",
          "type": "address"
        }
      ],
      "stateMutability": "view",
      "type": "function"
    },
    {
      "inputs": [
        {
          "internalType": "uint256",
          "name": "",
          "type": "uint256"
        },
        {
          "internalType": "bytes",
          "name": "_conditionData",
          "type": "bytes"
        },
        {
          "internalType": "uint256",
          "name": "",
          "type": "uint256"
        }
      ],
      "name": "ok",
      "outputs": [
        {
          "internalType": "string",
          "name": "",
          "type": "string"
        }
      ],
      "stateMutability": "view",
      "type": "function"
    },
    {
      "inputs": [],
      "name": "oracleAggregator",
      "outputs": [
        {
          "internalType": "address",
          "name": "",
          "type": "address"
        }
      ],
      "stateMutability": "view",
      "type": "function"
    }
  ],
  "transactionHash": "0x8d1e4c8e01518fbcb34529163ec9297e7a949e3e589645ccab215d98d7a5e08f",
  "args": [
    "0x0c159985E905ea1A3dA7305D70583Dd618862cf4",
    "0x64f31D46C52bBDe223D863B11dAb9327aB1414E9"
  ],
  "solcInputHash": "06ff1a108d21b21e4ca3839d365cb0b5",
  "bytecode": "0x60c06040523480156200001157600080fd5b5060405162001f6638038062001f668339818101604052810190620000379190620000c4565b8173ffffffffffffffffffffffffffffffffffffffff1660808173ffffffffffffffffffffffffffffffffffffffff1660601b815250508073ffffffffffffffffffffffffffffffffffffffff1660a08173ffffffffffffffffffffffffffffffffffffffff1660601b81525050505062000153565b600081519050620000be8162000139565b92915050565b60008060408385031215620000d857600080fd5b6000620000e885828601620000ad565b9250506020620000fb85828601620000ad565b9150509250929050565b6000620001128262000119565b9050919050565b600073ffffffffffffffffffffffffffffffffffffffff82169050919050565b620001448162000105565b81146200015057600080fd5b50565b60805160601c60a05160601c611dd96200018d600039600081816101e6015261030d015260008181610148015261036b0152611dd96000f3fe608060405234801561001057600080fd5b50600436106100575760003560e01c80633dcbdf401461005c5780637a73f5ab1461008c5780638dffe3f4146100bc578063a99891c5146100da578063bc95af311461010a575b600080fd5b61007660048036038101906100719190611330565b610128565b6040516100839190611727565b60405180910390f35b6100a660048036038101906100a19190611330565b61028c565b6040516100b39190611705565b60405180910390f35b6100c461030b565b6040516100d191906116a6565b60405180910390f35b6100f460048036038101906100ef9190611382565b61032f565b6040516101019190611727565b60405180910390f35b610112610369565b60405161011f91906116a6565b60405180910390f35b606061020f736b175474e89094c44da98b954eedeac495271d0f61020a847f000000000000000000000000000000000000000000000000000000000000000073ffffffffffffffffffffffffffffffffffffffff1663ddca3f436040518163ffffffff1660e01b815260040160206040518083038186803b1580156101ac57600080fd5b505afa1580156101c0573d6000803e3d6000fd5b505050506040513d601f19601f820116820180604052508101906101e49190611359565b7f000000000000000000000000000000000000000000000000000000000000000061038d565b6103de565b61024e576040518060400160405280600c81526020017f41617665496c6c69717569640000000000000000000000000000000000000000815250610285565b6040518060400160405280600281526020017f4f4b0000000000000000000000000000000000000000000000000000000000008152505b9050919050565b6060633dcbdf4060e01b826040516024016102a791906117e9565b604051602081830303815290604052907bffffffffffffffffffffffffffffffffffffffffffffffffffffffff19166020820180517bffffffffffffffffffffffffffffffffffffffffffffffffffffffff83818316178352505050509050919050565b7f000000000000000000000000000000000000000000000000000000000000000081565b6060600084846004908092610346939291906118a4565b8101906103539190611330565b905061035e81610128565b915050949350505050565b7f000000000000000000000000000000000000000000000000000000000000000081565b6000806103a161039c86610591565b61085b565b90506103d4816103cd6103c8736b175474e89094c44da98b954eedeac495271d0f85610876565b6109b1565b8686610a29565b9150509392505050565b6000818373ffffffffffffffffffffffffffffffffffffffff166370a0823173b53c1a33016b2dc2ff3653530bff1848a515c8c573ffffffffffffffffffffffffffffffffffffffff16630261bf8b6040518163ffffffff1660e01b815260040160206040518083038186803b15801561045757600080fd5b505afa15801561046b573d6000803e3d6000fd5b505050506040513d601f19601f8201168201806040525081019061048f9190611262565b73ffffffffffffffffffffffffffffffffffffffff166335ea6a75876040518263ffffffff1660e01b81526004016104c791906116a6565b6101806040518083038186803b1580156104e057600080fd5b505afa1580156104f4573d6000803e3d6000fd5b505050506040513d601f19601f8201168201806040525081019061051891906112dd565b60e001516040518263ffffffff1660e01b815260040161053891906116a6565b60206040518083038186803b15801561055057600080fd5b505afa158015610564573d6000803e3d6000fd5b505050506040513d601f19601f820116820180604052508101906105889190611359565b11905092915050565b600080735ef30b9986345249bc32d8928b7ee64de9435e3990506000806105b88386610b26565b9150915060008373ffffffffffffffffffffffffffffffffffffffff166336569e776040518163ffffffff1660e01b815260040160206040518083038186803b15801561060457600080fd5b505afa158015610618573d6000803e3d6000fd5b505050506040513d601f19601f8201168201806040525081019061063c9190611262565b905060008173ffffffffffffffffffffffffffffffffffffffff1663d9638d36856040518263ffffffff1660e01b815260040161067991906116c1565b60a06040518083038186803b15801561069157600080fd5b505afa1580156106a5573d6000803e3d6000fd5b505050506040513d601f19601f820116820180604052508101906106c9919061142a565b50505091505060008273ffffffffffffffffffffffffffffffffffffffff16632424be5c86866040518363ffffffff1660e01b815260040161070c9291906116dc565b604080518083038186803b15801561072357600080fd5b505afa158015610737573d6000803e3d6000fd5b505050506040513d601f19601f8201168201806040525081019061075b91906113ee565b91505060008373ffffffffffffffffffffffffffffffffffffffff16636c25b346866040518263ffffffff1660e01b815260040161079991906116a6565b60206040518083038186803b1580156107b157600080fd5b505afa1580156107c5573d6000803e3d6000fd5b505050506040513d601f19601f820116820180604052508101906107e99190611359565b905060006108006107fa8486610c46565b83610cb3565b90506b033b2e3c9fd0803ce80000008161081a919061192d565b9850806108338a6b033b2e3c9fd0803ce8000000610c46565b1061083e578861084c565b60018961084b91906118d7565b5b98505050505050505050919050565b600061086f82670df27a2cdf448000610d0c565b9050919050565b60008073a004a5afba04b74037e9e52ba1f7eb02b5e6150973ffffffffffffffffffffffffffffffffffffffff16635a860c87856040518263ffffffff1660e01b81526004016108c691906116a6565b60806040518083038186803b1580156108de57600080fd5b505afa1580156108f2573d6000803e3d6000fd5b505050506040513d601f19601f820116820180604052508101906109169190611307565b9050828160000151111561092e5760009150506109ab565b82816020015111156109445760019150506109ab565b828160400151111561095a5760029150506109ab565b82816060015111156109705760039150506109ab565b6040517f08c379a00000000000000000000000000000000000000000000000000000000081526004016109a2906117c9565b60405180910390fd5b92915050565b60006109d5826040518060600160405280603d8152602001611d67603d9139610d50565b610a226109e0610d9c565b8360048110610a18577f4e487b7100000000000000000000000000000000000000000000000000000000600052603260045260246000fd5b6020020151610dd6565b9050919050565b60008060008373ffffffffffffffffffffffffffffffffffffffff16633c772b6c610a5388610e04565b73eeeeeeeeeeeeeeeeeeeeeeeeeeeeeeeeeeeeeeee736b175474e89094c44da98b954eedeac495271d0f6040518463ffffffff1660e01b8152600401610a9b93929190611804565b604080518083038186803b158015610ab257600080fd5b505afa158015610ac6573d6000803e3d6000fd5b505050506040513d601f19601f82011682018060405250810190610aea91906113ee565b91509150610af88183610e1e565b9150610b048786610d0c565b8288610b1091906118d7565b610b1a91906118d7565b92505050949350505050565b6000808373ffffffffffffffffffffffffffffffffffffffff16632c2cb9fd846040518263ffffffff1660e01b8152600401610b6291906117e9565b60206040518083038186803b158015610b7a57600080fd5b505afa158015610b8e573d6000803e3d6000fd5b505050506040513d601f19601f82011682018060405250810190610bb2919061128b565b91508373ffffffffffffffffffffffffffffffffffffffff16632726b073846040518263ffffffff1660e01b8152600401610bed91906117e9565b60206040518083038186803b158015610c0557600080fd5b505afa158015610c19573d6000803e3d6000fd5b505050506040513d601f19601f82011682018060405250810190610c3d9190611262565b90509250929050565b600080821480610c6e575082828385610c5f9190611acf565b925082610c6c919061192d565b145b610cad576040517f08c379a0000000000000000000000000000000000000000000000000000000008152600401610ca490611769565b60405180910390fd5b92915050565b6000828284610cc29190611b29565b9150811115610d06576040517f08c379a0000000000000000000000000000000000000000000000000000000008152600401610cfd90611749565b60405180910390fd5b92915050565b6000670de0b6b3a7640000610d3e610d248585610c46565b6002670de0b6b3a7640000610d39919061192d565b610e4a565b610d48919061192d565b905092915050565b60048211158190610d97576040517f08c379a0000000000000000000000000000000000000000000000000000000008152600401610d8e9190611727565b60405180910390fd5b505050565b610da4610f84565b60405180608001604052806223fd068152602001622d1e89815260200162339ac88152602001623d7bd8815250905090565b60006064601e6064610de891906118d7565b83610df39190611acf565b610dfd919061192d565b9050919050565b6000610e1782610e12610ea3565b610c46565b9050919050565b6000610e4282846012610e319190611b29565b600a610e3d91906119b1565b610c46565b905092915050565b6000828284610e5991906118d7565b9150811015610e9d576040517f08c379a0000000000000000000000000000000000000000000000000000000008152600401610e9490611789565b60405180910390fd5b92915050565b60008073169e633a2d1e6c10dd91238ba11c4a708dfef37c73ffffffffffffffffffffffffffffffffffffffff166350d25bcd6040518163ffffffff1660e01b815260040160206040518083038186803b158015610f0057600080fd5b505afa158015610f14573d6000803e3d6000fd5b505050506040513d601f19601f82011682018060405250810190610f3891906112b4565b905060008113610f7d576040517f08c379a0000000000000000000000000000000000000000000000000000000008152600401610f74906117a9565b60405180910390fd5b8091505090565b6040518060800160405280600490602082028036833780820191505090505090565b600081519050610fb581611cc5565b92915050565b600081519050610fca81611cdc565b92915050565b60008083601f840112610fe257600080fd5b8235905067ffffffffffffffff811115610ffb57600080fd5b60208301915083600182028301111561101357600080fd5b9250929050565b60008151905061102981611cf3565b92915050565b60006020828403121561104157600080fd5b61104b602061183b565b9050600061105b84828501611223565b60008301525092915050565b6000610180828403121561107a57600080fd5b61108561018061183b565b905060006110958482850161102f565b60008301525060206110a9848285016111f9565b60208301525060406110bd848285016111f9565b60408301525060606110d1848285016111f9565b60608301525060806110e5848285016111f9565b60808301525060a06110f9848285016111f9565b60a08301525060c061110d84828501611238565b60c08301525060e061112184828501610fa6565b60e08301525061010061113684828501610fa6565b6101008301525061012061114c84828501610fa6565b6101208301525061014061116284828501610fa6565b610140830152506101606111788482850161124d565b6101608301525092915050565b60006080828403121561119757600080fd5b6111a1608061183b565b905060006111b184828501611223565b60008301525060206111c584828501611223565b60208301525060406111d984828501611223565b60408301525060606111ed84828501611223565b60608301525092915050565b60008151905061120881611d0a565b92915050565b60008135905061121d81611d21565b92915050565b60008151905061123281611d21565b92915050565b60008151905061124781611d38565b92915050565b60008151905061125c81611d4f565b92915050565b60006020828403121561127457600080fd5b600061128284828501610fa6565b91505092915050565b60006020828403121561129d57600080fd5b60006112ab84828501610fbb565b91505092915050565b6000602082840312156112c657600080fd5b60006112d48482850161101a565b91505092915050565b600061018082840312156112f057600080fd5b60006112fe84828501611067565b91505092915050565b60006080828403121561131957600080fd5b600061132784828501611185565b91505092915050565b60006020828403121561134257600080fd5b60006113508482850161120e565b91505092915050565b60006020828403121561136b57600080fd5b600061137984828501611223565b91505092915050565b6000806000806060858703121561139857600080fd5b60006113a68782880161120e565b945050602085013567ffffffffffffffff8111156113c357600080fd5b6113cf87828801610fd0565b935093505060406113e28782880161120e565b91505092959194509250565b6000806040838503121561140157600080fd5b600061140f85828601611223565b925050602061142085828601611223565b9150509250929050565b600080600080600060a0868803121561144257600080fd5b600061145088828901611223565b955050602061146188828901611223565b945050604061147288828901611223565b935050606061148388828901611223565b925050608061149488828901611223565b9150509295509295909350565b6114aa81611b5d565b82525050565b6114b981611b6f565b82525050565b60006114ca8261186c565b6114d48185611882565b93506114e4818560208601611be7565b6114ed81611ca7565b840191505092915050565b600061150382611877565b61150d8185611893565b935061151d818560208601611be7565b61152681611ca7565b840191505092915050565b600061153e601583611893565b91507f64732d6d6174682d7375622d756e646572666c6f7700000000000000000000006000830152602082019050919050565b600061157e601483611893565b91507f64732d6d6174682d6d756c2d6f766572666c6f770000000000000000000000006000830152602082019050919050565b60006115be601483611893565b91507f64732d6d6174682d6164642d6f766572666c6f770000000000000000000000006000830152602082019050919050565b60006115fe601b83611893565b91507f5f67657447656c61746f47617350726963653a306f7242656c6f7700000000006000830152602082019050919050565b600061163e602e83611893565b91507f4647656c61746f446562744272696467652e5f676574466c6173684c6f616e5260008301527f6f7574653a20696c6c69717569640000000000000000000000000000000000006020830152604082019050919050565b6116a081611bbf565b82525050565b60006020820190506116bb60008301846114a1565b92915050565b60006020820190506116d660008301846114b0565b92915050565b60006040820190506116f160008301856114b0565b6116fe60208301846114a1565b9392505050565b6000602082019050818103600083015261171f81846114bf565b905092915050565b6000602082019050818103600083015261174181846114f8565b905092915050565b6000602082019050818103600083015261176281611531565b9050919050565b6000602082019050818103600083015261178281611571565b9050919050565b600060208201905081810360008301526117a2816115b1565b9050919050565b600060208201905081810360008301526117c2816115f1565b9050919050565b600060208201905081810360008301526117e281611631565b9050919050565b60006020820190506117fe6000830184611697565b92915050565b60006060820190506118196000830186611697565b61182660208301856114a1565b61183360408301846114a1565b949350505050565b6000604051905081810181811067ffffffffffffffff8211171561186257611861611c78565b5b8060405250919050565b600081519050919050565b600081519050919050565b600082825260208201905092915050565b600082825260208201905092915050565b600080858511156118b457600080fd5b838611156118c157600080fd5b6001850283019150848603905094509492505050565b60006118e282611bbf565b91506118ed83611bbf565b9250827fffffffffffffffffffffffffffffffffffffffffffffffffffffffffffffffff0382111561192257611921611c1a565b5b828201905092915050565b600061193882611bbf565b915061194383611bbf565b92508261195357611952611c49565b5b828204905092915050565b6000808291508390505b60018511156119a85780860481111561198457611983611c1a565b5b60018516156119935780820291505b80810290506119a185611cb8565b9450611968565b94509492505050565b60006119bc82611bbf565b91506119c783611bbf565b92506119f47fffffffffffffffffffffffffffffffffffffffffffffffffffffffffffffffff84846119fc565b905092915050565b600082611a0c5760019050611ac8565b81611a1a5760009050611ac8565b8160018114611a305760028114611a3a57611a69565b6001915050611ac8565b60ff841115611a4c57611a4b611c1a565b5b8360020a915084821115611a6357611a62611c1a565b5b50611ac8565b5060208310610133831016604e8410600b8410161715611a9e5782820a905083811115611a9957611a98611c1a565b5b611ac8565b611aab848484600161195e565b92509050818404811115611ac257611ac1611c1a565b5b81810290505b9392505050565b6000611ada82611bbf565b9150611ae583611bbf565b9250817fffffffffffffffffffffffffffffffffffffffffffffffffffffffffffffffff0483118215151615611b1e57611b1d611c1a565b5b828202905092915050565b6000611b3482611bbf565b9150611b3f83611bbf565b925082821015611b5257611b51611c1a565b5b828203905092915050565b6000611b6882611b9f565b9050919050565b6000819050919050565b6000819050919050565b60006fffffffffffffffffffffffffffffffff82169050919050565b600073ffffffffffffffffffffffffffffffffffffffff82169050919050565b6000819050919050565b600064ffffffffff82169050919050565b600060ff82169050919050565b60005b83811015611c05578082015181840152602081019050611bea565b83811115611c14576000848401525b50505050565b7f4e487b7100000000000000000000000000000000000000000000000000000000600052601160045260246000fd5b7f4e487b7100000000000000000000000000000000000000000000000000000000600052601260045260246000fd5b7f4e487b7100000000000000000000000000000000000000000000000000000000600052604160045260246000fd5b6000601f19601f8301169050919050565b60008160011c9050919050565b611cce81611b5d565b8114611cd957600080fd5b50565b611ce581611b6f565b8114611cf057600080fd5b50565b611cfc81611b79565b8114611d0757600080fd5b50565b611d1381611b83565b8114611d1e57600080fd5b50565b611d2a81611bbf565b8114611d3557600080fd5b50565b611d4181611bc9565b8114611d4c57600080fd5b50565b611d5881611bda565b8114611d6357600080fd5b5056fe4647656c61746f446562744272696467652e5f676574476173436f73744d616b6572546f416176653a20696e76616c696420726f75746520696e646578a2646970667358221220b57ae7d31e90e33c3583a9a68e15b025ce00d870acbf6fb6f7e4643a4cbc483164736f6c63430008000033",
  "devdoc": {
    "kind": "dev",
    "methods": {},
    "version": 1
  },
  "userdoc": {
    "kind": "user",
    "methods": {},
    "version": 1
  },
  "storageLayout": {
    "storage": [],
    "types": null
  }
}