{
  "address": "0xA4f5a143Eda51075B33B7Fc58d4BE5C826605134",
  "abi": [
    {
      "inputs": [
        {
          "internalType": "address",
          "name": "_instaFeeCollector",
          "type": "address"
        },
        {
          "internalType": "address",
          "name": "_oracleAggregator",
          "type": "address"
        }
      ],
      "stateMutability": "nonpayable",
      "type": "constructor"
    },
    {
      "inputs": [
        {
          "internalType": "address",
          "name": "_dsa",
          "type": "address"
        },
        {
          "internalType": "uint256",
          "name": "_fromVaultId",
          "type": "uint256"
        },
        {
          "internalType": "uint256",
          "name": "_destVaultId",
          "type": "uint256"
        },
        {
          "internalType": "string",
          "name": "_destColType",
          "type": "string"
        }
      ],
      "name": "destVaultWillBeSafe",
      "outputs": [
        {
          "internalType": "string",
          "name": "",
          "type": "string"
        }
      ],
      "stateMutability": "view",
      "type": "function"
    },
    {
      "inputs": [
        {
          "internalType": "address",
          "name": "_dsa",
          "type": "address"
        },
        {
          "internalType": "uint256",
          "name": "_fromVaultId",
          "type": "uint256"
        },
        {
          "internalType": "uint256",
          "name": "_destVaultId",
          "type": "uint256"
        },
        {
          "internalType": "string",
          "name": "_destColType",
          "type": "string"
        }
      ],
      "name": "getConditionData",
      "outputs": [
        {
          "internalType": "bytes",
          "name": "",
          "type": "bytes"
        }
      ],
      "stateMutability": "pure",
      "type": "function"
    },
    {
      "inputs": [],
      "name": "instaFeeCollector",
      "outputs": [
        {
          "internalType": "address",
          "name": "",
          "type": "address"
        }
      ],
      "stateMutability": "view",
      "type": "function"
    },
    {
      "inputs": [
        {
          "internalType": "uint256",
          "name": "",
          "type": "uint256"
        },
        {
          "internalType": "bytes",
          "name": "_conditionData",
          "type": "bytes"
        },
        {
          "internalType": "uint256",
          "name": "",
          "type": "uint256"
        }
      ],
      "name": "ok",
      "outputs": [
        {
          "internalType": "string",
          "name": "",
          "type": "string"
        }
      ],
      "stateMutability": "view",
      "type": "function"
    },
    {
      "inputs": [],
      "name": "oracleAggregator",
      "outputs": [
        {
          "internalType": "address",
          "name": "",
          "type": "address"
        }
      ],
      "stateMutability": "view",
      "type": "function"
    }
  ],
  "transactionHash": "0x13215059e2f2ff6d9255f3351464e6b106c37f9b76e4303d1a650522631f0cba",
  "args": [
    "0x0c159985E905ea1A3dA7305D70583Dd618862cf4",
    "0x64f31D46C52bBDe223D863B11dAb9327aB1414E9"
  ],
  "solcInputHash": "06ff1a108d21b21e4ca3839d365cb0b5",
  "bytecode": "0x60c06040523480156200001157600080fd5b5060405162002c6b38038062002c6b8339818101604052810190620000379190620000c4565b8173ffffffffffffffffffffffffffffffffffffffff1660808173ffffffffffffffffffffffffffffffffffffffff1660601b815250508073ffffffffffffffffffffffffffffffffffffffff1660a08173ffffffffffffffffffffffffffffffffffffffff1660601b81525050505062000153565b600081519050620000be8162000139565b92915050565b60008060408385031215620000d857600080fd5b6000620000e885828601620000ad565b9250506020620000fb85828601620000ad565b9150509250929050565b6000620001128262000119565b9050919050565b600073ffffffffffffffffffffffffffffffffffffffff82169050919050565b620001448162000105565b81146200015057600080fd5b50565b60805160601c60a05160601c612ade6200018d600039600081816101b501526102fe01526000818161022301526102600152612ade6000f3fe608060405234801561001057600080fd5b50600436106100575760003560e01c806361d10bf01461005c5780638dffe3f41461008c578063a99891c5146100aa578063bc95af31146100da578063cdcd5858146100f8575b600080fd5b61007660048036038101906100719190611bdc565b610128565b60405161008391906122f2565b60405180910390f35b6100946101b3565b6040516100a19190612245565b60405180910390f35b6100c460048036038101906100bf9190611d7b565b6101d7565b6040516100d19190612314565b60405180910390f35b6100e2610221565b6040516100ef9190612245565b60405180910390f35b610112600480360381019061010d9190611c5c565b610245565b60405161011f9190612314565b60405180910390f35b606063cdcd585860e01b868686868660405160240161014b959493929190612260565b604051602081830303815290604052907bffffffffffffffffffffffffffffffffffffffffffffffffffffffff19166020820180517bffffffffffffffffffffffffffffffffffffffffffffffffffffffff8381831617835250505050905095945050505050565b7f000000000000000000000000000000000000000000000000000000000000000081565b6060600080600080878760049080926101f29392919061252c565b8101906101ff9190611b61565b935093509350935061021384848484610245565b945050505050949350505050565b7f000000000000000000000000000000000000000000000000000000000000000081565b6060610327858484610256886103a7565b6103228960008a147f000000000000000000000000000000000000000000000000000000000000000073ffffffffffffffffffffffffffffffffffffffff1663ddca3f436040518163ffffffff1660e01b815260040160206040518083038186803b1580156102c457600080fd5b505afa1580156102d8573d6000803e3d6000fd5b505050506040513d601f19601f820116820180604052508101906102fc9190611d52565b7f00000000000000000000000000000000000000000000000000000000000000006104f0565b610543565b610366576040518060400160405280601681526020017f446573745661756c7457696c6c4e6f744265536166650000000000000000000081525061039d565b6040518060400160405280600281526020017f4f4b0000000000000000000000000000000000000000000000000000000000008152505b9050949350505050565b600080735ef30b9986345249bc32d8928b7ee64de9435e39905060008173ffffffffffffffffffffffffffffffffffffffff166336569e776040518163ffffffff1660e01b815260040160206040518083038186803b15801561040957600080fd5b505afa15801561041d573d6000803e3d6000fd5b505050506040513d601f19601f820116820180604052508101906104419190611b38565b90506000806104508487610575565b9150915060008373ffffffffffffffffffffffffffffffffffffffff16632424be5c84846040518363ffffffff1660e01b81526004016104919291906122c9565b604080518083038186803b1580156104a857600080fd5b505afa1580156104bc573d6000803e3d6000fd5b505050506040513d601f19601f820116820180604052508101906104e09190611de7565b5090508095505050505050919050565b6000806105046104ff87610695565b61095f565b9050610538816105318761052c736b175474e89094c44da98b954eedeac495271d0f8661097a565b610ab5565b8686610b8c565b915050949350505050565b600061054f8587610c89565b61055a57600061055c565b845b945061056a85858585610e19565b905095945050505050565b6000808373ffffffffffffffffffffffffffffffffffffffff16632c2cb9fd846040518263ffffffff1660e01b81526004016105b19190612436565b60206040518083038186803b1580156105c957600080fd5b505afa1580156105dd573d6000803e3d6000fd5b505050506040513d601f19601f820116820180604052508101906106019190611cd7565b91508373ffffffffffffffffffffffffffffffffffffffff16632726b073846040518263ffffffff1660e01b815260040161063c9190612436565b60206040518083038186803b15801561065457600080fd5b505afa158015610668573d6000803e3d6000fd5b505050506040513d601f19601f8201168201806040525081019061068c9190611b38565b90509250929050565b600080735ef30b9986345249bc32d8928b7ee64de9435e3990506000806106bc8386610575565b9150915060008373ffffffffffffffffffffffffffffffffffffffff166336569e776040518163ffffffff1660e01b815260040160206040518083038186803b15801561070857600080fd5b505afa15801561071c573d6000803e3d6000fd5b505050506040513d601f19601f820116820180604052508101906107409190611b38565b905060008173ffffffffffffffffffffffffffffffffffffffff1663d9638d36856040518263ffffffff1660e01b815260040161077d91906122ae565b60a06040518083038186803b15801561079557600080fd5b505afa1580156107a9573d6000803e3d6000fd5b505050506040513d601f19601f820116820180604052508101906107cd9190611e23565b50505091505060008273ffffffffffffffffffffffffffffffffffffffff16632424be5c86866040518363ffffffff1660e01b81526004016108109291906122c9565b604080518083038186803b15801561082757600080fd5b505afa15801561083b573d6000803e3d6000fd5b505050506040513d601f19601f8201168201806040525081019061085f9190611de7565b91505060008373ffffffffffffffffffffffffffffffffffffffff16636c25b346866040518263ffffffff1660e01b815260040161089d9190612245565b60206040518083038186803b1580156108b557600080fd5b505afa1580156108c9573d6000803e3d6000fd5b505050506040513d601f19601f820116820180604052508101906108ed9190611d52565b905060006109046108fe8486610e48565b83610eb5565b90506b033b2e3c9fd0803ce80000008161091e91906125b5565b9850806109378a6b033b2e3c9fd0803ce8000000610e48565b106109425788610950565b60018961094f919061255f565b5b98505050505050505050919050565b600061097382670df27a2cdf448000610f0e565b9050919050565b60008073a004a5afba04b74037e9e52ba1f7eb02b5e6150973ffffffffffffffffffffffffffffffffffffffff16635a860c87856040518263ffffffff1660e01b81526004016109ca9190612245565b60806040518083038186803b1580156109e257600080fd5b505afa1580156109f6573d6000803e3d6000fd5b505050506040513d601f19601f82011682018060405250810190610a1a9190611d29565b90508281600001511115610a32576000915050610aaf565b8281602001511115610a48576001915050610aaf565b8281604001511115610a5e576002915050610aaf565b8281606001511115610a74576003915050610aaf565b6040517f08c379a0000000000000000000000000000000000000000000000000000000008152600401610aa690612416565b60405180910390fd5b92915050565b6000610ad9826040518060600160405280603e8152602001612a6b603e9139610f52565b610b8483610b2b57610ae9610f9e565b8360048110610b21577f4e487b7100000000000000000000000000000000000000000000000000000000600052603260045260246000fd5b6020020151610b7f565b62030d40610b37610f9e565b8460048110610b6f577f4e487b7100000000000000000000000000000000000000000000000000000000600052603260045260246000fd5b6020020151610b7e919061255f565b5b610fd8565b905092915050565b60008060008373ffffffffffffffffffffffffffffffffffffffff16633c772b6c610bb688611006565b73eeeeeeeeeeeeeeeeeeeeeeeeeeeeeeeeeeeeeeee736b175474e89094c44da98b954eedeac495271d0f6040518463ffffffff1660e01b8152600401610bfe93929190612451565b604080518083038186803b158015610c1557600080fd5b505afa158015610c29573d6000803e3d6000fd5b505050506040513d601f19601f82011682018060405250810190610c4d9190611de7565b91509150610c5b8183611020565b9150610c678786610f0e565b8288610c73919061255f565b610c7d919061255f565b92505050949350505050565b600080831415610c9c5760009050610e13565b735ef30b9986345249bc32d8928b7ee64de9435e3973ffffffffffffffffffffffffffffffffffffffff16638161b120846040518263ffffffff1660e01b8152600401610ce99190612436565b60206040518083038186803b158015610d0157600080fd5b505afa925050508015610d3257506040513d601f19601f82011682018060405250810190610d2f9190611b38565b60015b610de057610d3e612941565b80610d495750610da5565b80604051602001610d5a9190612223565b6040516020818303038152906040526040517f08c379a0000000000000000000000000000000000000000000000000000000008152600401610d9c9190612314565b60405180910390fd5b6040517f08c379a0000000000000000000000000000000000000000000000000000000008152600401610dd7906123b6565b60405180910390fd5b8073ffffffffffffffffffffffffffffffffffffffff168373ffffffffffffffffffffffffffffffffffffffff16149150505b92915050565b6000808514610e3257610e2d85848461104c565b610e3e565b610e3d848484611472565b5b9050949350505050565b600080821480610e70575082828385610e619190612757565b925082610e6e91906125b5565b145b610eaf576040517f08c379a0000000000000000000000000000000000000000000000000000000008152600401610ea690612356565b60405180910390fd5b92915050565b6000828284610ec491906127b1565b9150811115610f08576040517f08c379a0000000000000000000000000000000000000000000000000000000008152600401610eff90612336565b60405180910390fd5b92915050565b6000670de0b6b3a7640000610f40610f268585610e48565b6002670de0b6b3a7640000610f3b91906125b5565b611717565b610f4a91906125b5565b905092915050565b60048211158190610f99576040517f08c379a0000000000000000000000000000000000000000000000000000000008152600401610f909190612314565b60405180910390fd5b505050565b610fa6611913565b604051806080016040528062266fd88152602001622feb948152602001623c97b8815260200162424ca8815250905090565b60006064601e6064610fea919061255f565b83610ff59190612757565b610fff91906125b5565b9050919050565b600061101982611014611770565b610e48565b9050919050565b60006110448284601261103391906127b1565b600a61103f9190612639565b610e48565b905092915050565b600080841415611091576040517f08c379a0000000000000000000000000000000000000000000000000000000008152600401611088906123d6565b60405180910390fd5b6000735ef30b9986345249bc32d8928b7ee64de9435e3990506000806110b78388610575565b91509150600073e81f70cc7c0d46e12d70efc60607f16bbd617e8873ffffffffffffffffffffffffffffffffffffffff16634445d799846040518263ffffffff1660e01b815260040161110a91906122ae565b60206040518083038186803b15801561112257600080fd5b505afa158015611136573d6000803e3d6000fd5b505050506040513d601f19601f8201168201806040525081019061115a9190611b38565b905060008473ffffffffffffffffffffffffffffffffffffffff166336569e776040518163ffffffff1660e01b815260040160206040518083038186803b1580156111a457600080fd5b505afa1580156111b8573d6000803e3d6000fd5b505050506040513d601f19601f820116820180604052508101906111dc9190611b38565b90506000808273ffffffffffffffffffffffffffffffffffffffff1663d9638d36876040518263ffffffff1660e01b815260040161121a91906122ae565b60a06040518083038186803b15801561123257600080fd5b505afa158015611246573d6000803e3d6000fd5b505050506040513d601f19601f8201168201806040525081019061126a9190611e23565b505092509250506000808473ffffffffffffffffffffffffffffffffffffffff16632424be5c89896040518363ffffffff1660e01b81526004016112af9291906122c9565b604080518083038186803b1580156112c657600080fd5b505afa1580156112da573d6000803e3d6000fd5b505050506040513d601f19601f820116820180604052508101906112fe9190611de7565b9150915060008573ffffffffffffffffffffffffffffffffffffffff16636c25b346896040518263ffffffff1660e01b815260040161133d9190612245565b60206040518083038186803b15801561135557600080fd5b505afa158015611369573d6000803e3d6000fd5b505050506040513d601f19601f8201168201806040525081019061138d9190611d52565b905060006114188873ffffffffffffffffffffffffffffffffffffffff1663b3bcfa826040518163ffffffff1660e01b815260040160206040518083038186803b1580156113da57600080fd5b505afa1580156113ee573d6000803e3d6000fd5b505050506040513d601f19601f820116820180604052508101906114129190611d52565b8f611020565b905060006114278e8489611851565b90506114338583611717565b945061143f8482611717565b9350600061144d8886610e48565b90506114598688610e48565b8111159d50505050505050505050505050509392505050565b600080735ef30b9986345249bc32d8928b7ee64de9435e39905060008173ffffffffffffffffffffffffffffffffffffffff166336569e776040518163ffffffff1660e01b815260040160206040518083038186803b1580156114d457600080fd5b505afa1580156114e8573d6000803e3d6000fd5b505050506040513d601f19601f8201168201806040525081019061150c9190611b38565b90506000611519876118c1565b90506000808373ffffffffffffffffffffffffffffffffffffffff1663d9638d36846040518263ffffffff1660e01b815260040161155791906122ae565b60a06040518083038186803b15801561156f57600080fd5b505afa158015611583573d6000803e3d6000fd5b505050506040513d601f19601f820116820180604052508101906115a79190611e23565b50509250925050600073e81f70cc7c0d46e12d70efc60607f16bbd617e8873ffffffffffffffffffffffffffffffffffffffff16634445d799856040518263ffffffff1660e01b81526004016115fd91906122ae565b60206040518083038186803b15801561161557600080fd5b505afa158015611629573d6000803e3d6000fd5b505050506040513d601f19601f8201168201806040525081019061164d9190611b38565b905060006116d88273ffffffffffffffffffffffffffffffffffffffff1663b3bcfa826040518163ffffffff1660e01b815260040160206040518083038186803b15801561169a57600080fd5b505afa1580156116ae573d6000803e3d6000fd5b505050506040513d601f19601f820116820180604052508101906116d29190611d52565b8b611020565b905060006116e88a600087611851565b905060006116f68683610e48565b90506117028386610e48565b81111599505050505050505050509392505050565b6000828284611726919061255f565b915081101561176a576040517f08c379a000000000000000000000000000000000000000000000000000000000815260040161176190612376565b60405180910390fd5b92915050565b60008073169e633a2d1e6c10dd91238ba11c4a708dfef37c73ffffffffffffffffffffffffffffffffffffffff166350d25bcd6040518163ffffffff1660e01b815260040160206040518083038186803b1580156117cd57600080fd5b505afa1580156117e1573d6000803e3d6000fd5b505050506040513d601f19601f820116820180604052508101906118059190611d00565b90506000811361184a576040517f08c379a000000000000000000000000000000000000000000000000000000000815260040161184190612396565b60405180910390fd5b8091505090565b60008161187361186d866b033b2e3c9fd0803ce8000000610e48565b85610eb5565b61187d91906125b5565b9050611895846b033b2e3c9fd0803ce8000000610e48565b61189f8284610e48565b106118aa57806118b8565b6001816118b7919061255f565b5b90509392505050565b60008082511415611907576040517f08c379a00000000000000000000000000000000000000000000000000000000081526004016118fe906123f6565b60405180910390fd5b60208201519050919050565b6040518060800160405280600490602082028036833780820191505090505090565b6000611948611943846124b9565b612488565b90508281526020810184848401111561196057600080fd5b61196b848285612847565b509392505050565b600081359050611982816129f7565b92915050565b600081519050611997816129f7565b92915050565b6000813590506119ac81612a0e565b92915050565b6000815190506119c181612a25565b92915050565b60008083601f8401126119d957600080fd5b8235905067ffffffffffffffff8111156119f257600080fd5b602083019150836001820283011115611a0a57600080fd5b9250929050565b600081519050611a2081612a3c565b92915050565b60008083601f840112611a3857600080fd5b8235905067ffffffffffffffff811115611a5157600080fd5b602083019150836001820283011115611a6957600080fd5b9250929050565b600082601f830112611a8157600080fd5b8135611a91848260208601611935565b91505092915050565b600060808284031215611aac57600080fd5b611ab66080612488565b90506000611ac684828501611b23565b6000830152506020611ada84828501611b23565b6020830152506040611aee84828501611b23565b6040830152506060611b0284828501611b23565b60608301525092915050565b600081359050611b1d81612a53565b92915050565b600081519050611b3281612a53565b92915050565b600060208284031215611b4a57600080fd5b6000611b5884828501611988565b91505092915050565b60008060008060808587031215611b7757600080fd5b6000611b858782880161199d565b9450506020611b9687828801611b0e565b9350506040611ba787828801611b0e565b925050606085013567ffffffffffffffff811115611bc457600080fd5b611bd087828801611a70565b91505092959194509250565b600080600080600060808688031215611bf457600080fd5b6000611c0288828901611973565b9550506020611c1388828901611b0e565b9450506040611c2488828901611b0e565b935050606086013567ffffffffffffffff811115611c4157600080fd5b611c4d88828901611a26565b92509250509295509295909350565b60008060008060808587031215611c7257600080fd5b6000611c8087828801611973565b9450506020611c9187828801611b0e565b9350506040611ca287828801611b0e565b925050606085013567ffffffffffffffff811115611cbf57600080fd5b611ccb87828801611a70565b91505092959194509250565b600060208284031215611ce957600080fd5b6000611cf7848285016119b2565b91505092915050565b600060208284031215611d1257600080fd5b6000611d2084828501611a11565b91505092915050565b600060808284031215611d3b57600080fd5b6000611d4984828501611a9a565b91505092915050565b600060208284031215611d6457600080fd5b6000611d7284828501611b23565b91505092915050565b60008060008060608587031215611d9157600080fd5b6000611d9f87828801611b0e565b945050602085013567ffffffffffffffff811115611dbc57600080fd5b611dc8878288016119c7565b93509350506040611ddb87828801611b0e565b91505092959194509250565b60008060408385031215611dfa57600080fd5b6000611e0885828601611b23565b9250506020611e1985828601611b23565b9150509250929050565b600080600080600060a08688031215611e3b57600080fd5b6000611e4988828901611b23565b9550506020611e5a88828901611b23565b9450506040611e6b88828901611b23565b9350506060611e7c88828901611b23565b9250506080611e8d88828901611b23565b9150509295509295909350565b611ea3816127e5565b82525050565b611eb281612809565b82525050565b6000611ec3826124e9565b611ecd81856124ff565b9350611edd818560208601612856565b611ee681612916565b840191505092915050565b6000611efd8385612510565b9350611f0a838584612847565b611f1383612916565b840190509392505050565b6000611f29826124f4565b611f338185612510565b9350611f43818560208601612856565b611f4c81612916565b840191505092915050565b6000611f62826124f4565b611f6c8185612521565b9350611f7c818560208601612856565b80840191505092915050565b6000611f95601583612510565b91507f64732d6d6174682d7375622d756e646572666c6f7700000000000000000000006000830152602082019050919050565b6000611fd5601483612510565b91507f64732d6d6174682d6d756c2d6f766572666c6f770000000000000000000000006000830152602082019050919050565b6000612015601483612510565b91507f64732d6d6174682d6164642d6f766572666c6f770000000000000000000000006000830152602082019050919050565b6000612055601b83612510565b91507f5f67657447656c61746f47617350726963653a306f7242656c6f7700000000006000830152602082019050919050565b6000612095601583612521565b91507f464d616b65722e5f69735661756c744f776e65723a00000000000000000000006000830152601582019050919050565b60006120d5601e83612510565b91507f464d616b65722e5f69735661756c744f776e65723a756e646566696e656400006000830152602082019050919050565b6000612115602383612510565b91507f5f7661756c7457696c6c4265536166653a20696e76616c6964207661756c742060008301527f69642e00000000000000000000000000000000000000000000000000000000006020830152604082019050919050565b600061217b600c83612510565b91507f737472696e672d656d70747900000000000000000000000000000000000000006000830152602082019050919050565b60006121bb602e83612510565b91507f4647656c61746f446562744272696467652e5f676574466c6173684c6f616e5260008301527f6f7574653a20696c6c69717569640000000000000000000000000000000000006020830152604082019050919050565b61221d8161283d565b82525050565b600061222e82612088565b915061223a8284611f57565b915081905092915050565b600060208201905061225a6000830184611e9a565b92915050565b60006080820190506122756000830188611e9a565b6122826020830187612214565b61228f6040830186612214565b81810360608301526122a2818486611ef1565b90509695505050505050565b60006020820190506122c36000830184611ea9565b92915050565b60006040820190506122de6000830185611ea9565b6122eb6020830184611e9a565b9392505050565b6000602082019050818103600083015261230c8184611eb8565b905092915050565b6000602082019050818103600083015261232e8184611f1e565b905092915050565b6000602082019050818103600083015261234f81611f88565b9050919050565b6000602082019050818103600083015261236f81611fc8565b9050919050565b6000602082019050818103600083015261238f81612008565b9050919050565b600060208201905081810360008301526123af81612048565b9050919050565b600060208201905081810360008301526123cf816120c8565b9050919050565b600060208201905081810360008301526123ef81612108565b9050919050565b6000602082019050818103600083015261240f8161216e565b9050919050565b6000602082019050818103600083015261242f816121ae565b9050919050565b600060208201905061244b6000830184612214565b92915050565b60006060820190506124666000830186612214565b6124736020830185611e9a565b6124806040830184611e9a565b949350505050565b6000604051905081810181811067ffffffffffffffff821117156124af576124ae6128e7565b5b8060405250919050565b600067ffffffffffffffff8211156124d4576124d36128e7565b5b601f19601f8301169050602081019050919050565b600081519050919050565b600081519050919050565b600082825260208201905092915050565b600082825260208201905092915050565b600081905092915050565b6000808585111561253c57600080fd5b8386111561254957600080fd5b6001850283019150848603905094509492505050565b600061256a8261283d565b91506125758361283d565b9250827fffffffffffffffffffffffffffffffffffffffffffffffffffffffffffffffff038211156125aa576125a9612889565b5b828201905092915050565b60006125c08261283d565b91506125cb8361283d565b9250826125db576125da6128b8565b5b828204905092915050565b6000808291508390505b60018511156126305780860481111561260c5761260b612889565b5b600185161561261b5780820291505b808102905061262985612927565b94506125f0565b94509492505050565b60006126448261283d565b915061264f8361283d565b925061267c7fffffffffffffffffffffffffffffffffffffffffffffffffffffffffffffffff8484612684565b905092915050565b6000826126945760019050612750565b816126a25760009050612750565b81600181146126b857600281146126c2576126f1565b6001915050612750565b60ff8411156126d4576126d3612889565b5b8360020a9150848211156126eb576126ea612889565b5b50612750565b5060208310610133831016604e8410600b84101617156127265782820a90508381111561272157612720612889565b5b612750565b61273384848460016125e6565b9250905081840481111561274a57612749612889565b5b81810290505b9392505050565b60006127628261283d565b915061276d8361283d565b9250817fffffffffffffffffffffffffffffffffffffffffffffffffffffffffffffffff04831182151516156127a6576127a5612889565b5b828202905092915050565b60006127bc8261283d565b91506127c78361283d565b9250828210156127da576127d9612889565b5b828203905092915050565b60006127f08261281d565b9050919050565b60006128028261281d565b9050919050565b6000819050919050565b6000819050919050565b600073ffffffffffffffffffffffffffffffffffffffff82169050919050565b6000819050919050565b82818337600083830152505050565b60005b83811015612874578082015181840152602081019050612859565b83811115612883576000848401525b50505050565b7f4e487b7100000000000000000000000000000000000000000000000000000000600052601160045260246000fd5b7f4e487b7100000000000000000000000000000000000000000000000000000000600052601260045260246000fd5b7f4e487b7100000000000000000000000000000000000000000000000000000000600052604160045260246000fd5b6000601f19601f8301169050919050565b60008160011c9050919050565b60008160e01c9050919050565b600060443d1015612951576129f4565b60046000803e612962600051612934565b6308c379a0811461297357506129f4565b60405160043d036004823e80513d602482011167ffffffffffffffff8211171561299f575050506129f4565b808201805167ffffffffffffffff8111156129be5750505050506129f4565b8060208301013d85018111156129d9575050505050506129f4565b6129e282612916565b60208401016040528296505050505050505b90565b612a00816127e5565b8114612a0b57600080fd5b50565b612a17816127f7565b8114612a2257600080fd5b50565b612a2e81612809565b8114612a3957600080fd5b50565b612a4581612813565b8114612a5057600080fd5b50565b612a5c8161283d565b8114612a6757600080fd5b5056fe4647656c61746f446562744272696467652e5f676574476173436f73744d616b6572546f4d616b65723a20696e76616c696420726f75746520696e646578a2646970667358221220be9aa51dddd3be2ded8289b43db640668aab5a38b1ef2964e1f85e8827cccfc864736f6c63430008000033",
  "devdoc": {
    "kind": "dev",
    "methods": {},
    "version": 1
  },
  "userdoc": {
    "kind": "user",
    "methods": {},
    "version": 1
  },
  "storageLayout": {
    "storage": [],
    "types": null
  }
}