{
  "address": "0xDF3CDd10e646e4155723a3bC5b1191741DD90333",
  "abi": [
    {
      "inputs": [
        {
          "internalType": "uint256",
          "name": "_vaultId",
          "type": "uint256"
        },
        {
          "internalType": "address",
          "name": "_priceOracle",
          "type": "address"
        },
        {
          "internalType": "bytes",
          "name": "_oraclePayload",
          "type": "bytes"
        },
        {
          "internalType": "uint256",
          "name": "_minColRatio",
          "type": "uint256"
        }
      ],
      "name": "getConditionData",
      "outputs": [
        {
          "internalType": "bytes",
          "name": "",
          "type": "bytes"
        }
      ],
      "stateMutability": "pure",
      "type": "function"
    },
    {
      "inputs": [
        {
          "internalType": "uint256",
          "name": "_vaultID",
          "type": "uint256"
        },
        {
          "internalType": "address",
          "name": "_priceOracle",
          "type": "address"
        },
        {
          "internalType": "bytes",
          "name": "_oraclePayload",
          "type": "bytes"
        },
        {
          "internalType": "uint256",
          "name": "_minColRatio",
          "type": "uint256"
        }
      ],
      "name": "isVaultUnsafeOSM",
      "outputs": [
        {
          "internalType": "string",
          "name": "",
          "type": "string"
        }
      ],
      "stateMutability": "view",
      "type": "function"
    },
    {
      "inputs": [
        {
          "internalType": "uint256",
          "name": "",
          "type": "uint256"
        },
        {
          "internalType": "bytes",
          "name": "_conditionData",
          "type": "bytes"
        },
        {
          "internalType": "uint256",
          "name": "",
          "type": "uint256"
        }
      ],
      "name": "ok",
      "outputs": [
        {
          "internalType": "string",
          "name": "",
          "type": "string"
        }
      ],
      "stateMutability": "view",
      "type": "function"
    }
  ],
  "transactionHash": "0xb5ff3e0b52d71a27c3e2cb221e1d218bfe9c3a691c92af6b2ceeee3efc646055",
  "args": [],
  "solcInputHash": "4c9a22467780ba3244753adc746970ed",
  "bytecode": "0x608060405234801561001057600080fd5b50610b8c806100206000396000f3fe608060405234801561001057600080fd5b50600436106100415760003560e01c80636e8391dd1461004657806377301f811461006f578063a99891c514610082575b600080fd5b610059610054366004610766565b610095565b60405161006691906108ae565b60405180910390f35b61005961007d366004610704565b6100fd565b61005961009036600461077b565b61015d565b60606100a38585858561019f565b6100d857604051806040016040528060138152602001724d616b65725661756c744e6f74556e7361666560681b8152506100f4565b604051806040016040528060028152602001614f4b60f01b8152505b95945050505050565b6060636e8391dd60e01b8686868686604051602401610120959493929190610975565b60408051601f198184030181529190526020810180516001600160e01b03166001600160e01b031990931692909217909152905095945050505050565b60606000808080610171876004818b610a17565b81019061017e91906106a5565b935093509350935061019284848484610095565b9998505050505050505050565b6000806000856001600160a01b0316856040516101bc91906107f8565b600060405180830381855afa9150503d80600081146101f7576040519150601f19603f3d011682016040523d82523d6000602084013e6101fc565b606091505b50915091508161022857610228816040518060600160405280602e8152602001610b29602e9139610327565b6000808280602001905181019061023f9190610586565b91509150806102695760405162461bcd60e51b81526004016102609061091d565b60405180910390fd5b604051634a3843bb60e11b8152600090730a7008b38e7015f8c36a49eebc32513eca8801e5906394708776906102a3908d9060040161096c565b60006040518083038186803b1580156102bb57600080fd5b505afa1580156102cf573d6000803e3d6000fd5b505050506040513d6000823e601f3d908101601f191682016040526102f791908101906105b9565b90508661031861030e83606001518660001c6103bb565b8360a001516103fc565b109a9950505050505050505050565b602082516103359190610aba565b600414156103aa57602082015162461bcd60e51b6001600160e01b031982161415610399576044830192508183604051602001610373929190610814565b60408051601f198184030181529082905262461bcd60e51b8252610260916004016108ae565b816040516020016103739190610843565b806040516020016103739190610876565b6000670de0b6b3a76400006103eb6103d3858561041f565b6103e66002670de0b6b3a7640000610a57565b610465565b6103f59190610a57565b9392505050565b6000816103eb61041485670de0b6b3a764000061041f565b6103e6600286610a57565b6000811580610443575082826104358183610a6b565b92506104419083610a57565b145b61045f5760405162461bcd60e51b8152600401610260906108c1565b92915050565b6000826104728382610a3f565b915081101561045f5760405162461bcd60e51b8152600401610260906108ef565b805161049e81610b10565b919050565b60008083601f8401126104b4578182fd5b50813567ffffffffffffffff8111156104cb578182fd5b6020830191508360208285010111156104e357600080fd5b9250929050565b600082601f8301126104fa578081fd5b813561050d610508826109ef565b6109c5565b818152846020838601011115610521578283fd5b816020850160208301379081016020019190915292915050565b600082601f83011261054b578081fd5b8151610559610508826109ef565b81815284602083860101111561056d578283fd5b61057e826020830160208701610a8a565b949350505050565b60008060408385031215610598578182fd5b82519150602083015180151581146105ae578182fd5b809150509250929050565b6000602082840312156105ca578081fd5b815167ffffffffffffffff808211156105e1578283fd5b81840191506101608083870312156105f7578384fd5b610600816109c5565b90508251815261061260208401610493565b6020820152604083015182811115610628578485fd5b6106348782860161053b565b604083015250606083015160608201526080830151608082015260a083015160a082015260c083015160c082015260e083015160e082015261010091508183015182820152610120915081830151828201526101409150610696828401610493565b91810191909152949350505050565b600080600080608085870312156106ba578182fd5b8435935060208501356106cc81610b10565b9250604085013567ffffffffffffffff8111156106e7578283fd5b6106f3878288016104ea565b949793965093946060013593505050565b60008060008060006080868803121561071b578081fd5b85359450602086013561072d81610b10565b9350604086013567ffffffffffffffff811115610748578182fd5b610754888289016104a3565b96999598509660600135949350505050565b600080600080608085870312156106ba578384fd5b60008060008060608587031215610790578384fd5b84359350602085013567ffffffffffffffff8111156107ad578384fd5b6107b9878288016104a3565b9598909750949560400135949350505050565b600081518084526107e4816020860160208601610a8a565b601f01601f19169290920160200192915050565b6000825161080a818460208701610a8a565b9190910192915050565b60008351610826818460208801610a8a565b83519083019061083a818360208801610a8a565b01949350505050565b60008251610855818460208701610a8a565b6e2737a2b93937b929b2b632b1ba37b960891b920191825250600f01919050565b60008251610888818460208701610a8a565b73556e657870656374656452657475726e6461746160601b920191825250601401919050565b6000602082526103f560208301846107cc565b60208082526014908201527364732d6d6174682d6d756c2d6f766572666c6f7760601b604082015260600190565b60208082526014908201527364732d6d6174682d6164642d6f766572666c6f7760601b604082015260600190565b6020808252602f908201527f464d616b65725661756c74556e736166654f534d2e5f69735661756c74556e7360408201526e18599953d4d34e88085a185cd39e1d608a1b606082015260800190565b90815260200190565b8581526001600160a01b038516602082015260806040820181905281018390526000838560a08401378060a0858401015260a0601f19601f86011683010190508260608301529695505050505050565b60405181810167ffffffffffffffff811182821017156109e7576109e7610afa565b604052919050565b600067ffffffffffffffff821115610a0957610a09610afa565b50601f01601f191660200190565b60008085851115610a26578182fd5b83861115610a32578182fd5b5050820193919092039150565b60008219821115610a5257610a52610ace565b500190565b600082610a6657610a66610ae4565b500490565b6000816000190483118215151615610a8557610a85610ace565b500290565b60005b83811015610aa5578181015183820152602001610a8d565b83811115610ab4576000848401525b50505050565b600082610ac957610ac9610ae4565b500690565b634e487b7160e01b600052601160045260246000fd5b634e487b7160e01b600052601260045260246000fd5b634e487b7160e01b600052604160045260246000fd5b6001600160a01b0381168114610b2557600080fd5b5056fe464d616b65725661756c74556e736166654f534d2e5f69735661756c74556e736166654f534d3a6f7261636c653aa2646970667358221220cba62336fec4d3665588b58a23939e255ee2690bc2b420c10464ff153df645a664736f6c63430008000033",
  "devdoc": {
    "author": "Gelato Team",
    "kind": "dev",
    "methods": {
      "getConditionData(uint256,address,bytes,uint256)": {
        "details": "Use the return for your Task's Condition.data field off-chain.",
        "returns": {
          "_0": "The encoded payload for your Task's Condition.data field."
        }
      },
      "isVaultUnsafeOSM(uint256,address,bytes,uint256)": {
        "details": "The price oracle must return (bytes32, bool).",
        "params": {
          "_minColRatio": "The minimum collateral ratio measured in the price of the collateral as specified by the _priceOracle.",
          "_oraclePayload": "The data for making the staticcall to the oracle's read  method e.g. the selector for MakerOracle's read fn.",
          "_priceOracle": "The price oracle contract to supply the collateral price  e.g. Maker's ETH/USD oracle for ETH collateral pricing.",
          "_vaultID": "The id of the Maker vault"
        },
        "returns": {
          "_0": "OK if the Maker Vault is unsafe, otherwise some error message."
        }
      },
      "ok(uint256,bytes,uint256)": {
        "details": "A standard interface for GelatoCore to read Conditions",
        "params": {
          "_conditionData": "The data you get from `getConditionData()`"
        },
        "returns": {
          "_0": "OK if the Condition is there, else some error message."
        }
      }
    },
    "title": "ConditionMakerVaultUnsafe",
    "version": 1
  },
  "userdoc": {
    "kind": "user",
    "methods": {
      "getConditionData(uint256,address,bytes,uint256)": {
        "notice": "Convenience function for off-chain _conditionData encoding"
      },
      "isVaultUnsafeOSM(uint256,address,bytes,uint256)": {
        "notice": "Specific implementation of this Condition's ok function"
      },
      "ok(uint256,bytes,uint256)": {
        "notice": "Standard GelatoCore system function"
      }
    },
    "notice": "Condition tracking Maker vault collateralization safety requirements.",
    "version": 1
  },
  "storageLayout": {
    "storage": [],
    "types": null
  }
}