{
  "address": "0x19202579F1Aed3Fa00807Ac89EbD92901021A15f",
  "abi": [
    {
      "inputs": [
        {
          "internalType": "uint256",
          "name": "_vaultId",
          "type": "uint256"
        },
        {
          "internalType": "uint256",
          "name": "_ratioLimit",
          "type": "uint256"
        }
      ],
      "name": "getConditionData",
      "outputs": [
        {
          "internalType": "bytes",
          "name": "",
          "type": "bytes"
        }
      ],
      "stateMutability": "pure",
      "type": "function"
    },
    {
      "inputs": [
        {
          "internalType": "uint256",
          "name": "_vaultId",
          "type": "uint256"
        },
        {
          "internalType": "uint256",
          "name": "_ratioLimit",
          "type": "uint256"
        }
      ],
      "name": "isAffordable",
      "outputs": [
        {
          "internalType": "string",
          "name": "",
          "type": "string"
        }
      ],
      "stateMutability": "view",
      "type": "function"
    },
    {
      "inputs": [
        {
          "internalType": "uint256",
          "name": "",
          "type": "uint256"
        },
        {
          "internalType": "bytes",
          "name": "_conditionData",
          "type": "bytes"
        },
        {
          "internalType": "uint256",
          "name": "",
          "type": "uint256"
        }
      ],
      "name": "ok",
      "outputs": [
        {
          "internalType": "string",
          "name": "",
          "type": "string"
        }
      ],
      "stateMutability": "view",
      "type": "function"
    }
  ],
  "transactionHash": "0x2af52ccf7dcf3e2f59f788d9beeab569c9fea6eb33b440992ac31e4c5356643c",
  "args": [],
  "solcInputHash": "bf7cd3f181208953a3fd533c358cf962",
  "bytecode": "0x608060405234801561001057600080fd5b50610d79806100206000396000f3fe608060405234801561001057600080fd5b50600436106100415760003560e01c8063a99891c514610046578063be9eea981461006f578063c39db98314610082575b600080fd5b610059610054366004610b52565b610095565b6040516100669190610c4f565b60405180910390f35b61005961007d366004610bcf565b6100cd565b610059610090366004610bcf565b610195565b60606000806100a78560048189610d1b565b8101906100b49190610bcf565b915091506100c282826100cd565b979650505050505050565b606060006100da846101ec565b9050600061011e6101196000610114736b175474e89094c44da98b954eedeac495271d0f61010f61010a8b61030d565b610572565b610586565b610692565b6106f2565b90508361012b8284610705565b1061016f576040518060400160405280601781526020017f446562744272696467654e6f744166666f726461626c650000000000000000008152509250505061018f565b604051806040016040528060028152602001614f4b60f01b815250925050505b92915050565b606063be9eea9860e01b83836040516024016101b2929190610d0d565b60408051601f198184030181529190526020810180516001600160e01b03166001600160e01b031990931692909217909152905092915050565b600080735ef30b9986345249bc32d8928b7ee64de9435e3990506000816001600160a01b03166336569e776040518163ffffffff1660e01b815260040160206040518083038186803b15801561024157600080fd5b505afa158015610255573d6000803e3d6000fd5b505050506040513d602081101561026b57600080fd5b5051905060008061027c8487610736565b915091506000836001600160a01b0316632424be5c84846040518363ffffffff1660e01b815260040180838152602001826001600160a01b0316815260200192505050604080518083038186803b1580156102d657600080fd5b505afa1580156102ea573d6000803e3d6000fd5b505050506040513d604081101561030057600080fd5b5051979650505050505050565b6000735ef30b9986345249bc32d8928b7ee64de9435e3981806103308386610736565b915091506000836001600160a01b03166336569e776040518163ffffffff1660e01b815260040160206040518083038186803b15801561036f57600080fd5b505afa158015610383573d6000803e3d6000fd5b505050506040513d602081101561039957600080fd5b505160408051636cb1c69b60e11b81526004810186905290519192506000916001600160a01b0384169163d9638d369160248083019260a0929190829003018186803b1580156103e857600080fd5b505afa1580156103fc573d6000803e3d6000fd5b505050506040513d60a081101561041257600080fd5b5060200151604080516309092f9760e21b8152600481018790526001600160a01b038681166024830152825193945060009390861692632424be5c9260448082019391829003018186803b15801561046957600080fd5b505afa15801561047d573d6000803e3d6000fd5b505050506040513d604081101561049357600080fd5b5060209081015160408051633612d9a360e11b81526001600160a01b038881166004830152915192945060009391871692636c25b34692602480840193919291829003018186803b1580156104e757600080fd5b505afa1580156104fb573d6000803e3d6000fd5b505050506040513d602081101561051157600080fd5b50519050600061052a610524848661082b565b8361088e565b90506b033b2e3c9fd0803ce800000081049850806105548a6b033b2e3c9fd0803ce800000061082b565b1061055f5788610564565b886001015b9a9950505050505050505050565b600061018f82670df27a2cdf4480006108de565b6000610590610aad565b604051635a860c8760e01b815273a004a5afba04b74037e9e52ba1f7eb02b5e6150990635a860c87906105c7908790600401610c3b565b60806040518083038186803b1580156105df57600080fd5b505afa1580156105f3573d6000803e3d6000fd5b505050506040513d601f19601f820116820180604052508101906106179190610af3565b9050828160000151111561062f57600091505061018f565b828160200151111561064557600191505061018f565b828160400151111561065b57600291505061018f565b828160600151111561067157600391505061018f565b60405162461bcd60e51b815260040161068990610cbf565b60405180910390fd5b600061069d82610906565b6106eb836106c2576106ad61092a565b83600481106106b857fe5b60200201516106e6565b6106e66106cd61092a565b84600481106106d857fe5b6020020151620249f0610964565b6109b3565b9392505050565b600061018f826107006109d5565b61082b565b60008161072761071d85670de0b6b3a764000061082b565b6002855b04610964565b8161072e57fe5b049392505050565b600080836001600160a01b0316632c2cb9fd846040518263ffffffff1660e01b81526004018082815260200191505060206040518083038186803b15801561077d57600080fd5b505afa158015610791573d6000803e3d6000fd5b505050506040513d60208110156107a757600080fd5b505160408051632726b07360e01b81526004810186905290519193506001600160a01b03861691632726b07391602480820192602092909190829003018186803b1580156107f457600080fd5b505afa158015610808573d6000803e3d6000fd5b505050506040513d602081101561081e57600080fd5b5051919491935090915050565b60008115806108465750508082028282828161084357fe5b04145b61018f576040805162461bcd60e51b815260206004820152601460248201527364732d6d6174682d6d756c2d6f766572666c6f7760601b604482015290519081900360640190fd5b8082038281111561018f576040805162461bcd60e51b815260206004820152601560248201527464732d6d6174682d7375622d756e646572666c6f7760581b604482015290519081900360640190fd5b6000670de0b6b3a76400006107276108f6858561082b565b6002670de0b6b3a7640000610721565b60048111156109275760405162461bcd60e51b815260040161068990610c62565b50565b610932610ad5565b6040518060800160405280621e8480815260200162249f008152602001622b7cd08152602001623567e0815250905090565b8082018281101561018f576040805162461bcd60e51b815260206004820152601460248201527364732d6d6174682d6164642d6f766572666c6f7760601b604482015290519081900360640190fd5b600060646109c78361070060646014610964565b816109ce57fe5b0492915050565b60008073169e633a2d1e6c10dd91238ba11c4a708dfef37c6001600160a01b03166350d25bcd6040518163ffffffff1660e01b815260040160206040518083038186803b158015610a2557600080fd5b505afa158015610a39573d6000803e3d6000fd5b505050506040513d6020811015610a4f57600080fd5b5051905060008113610aa8576040805162461bcd60e51b815260206004820152601b60248201527f5f67657447656c61746f47617350726963653a306f7242656c6f770000000000604482015290519081900360640190fd5b905090565b6040518060800160405280600081526020016000815260200160008152602001600081525090565b60405180608001604052806004906020820280368337509192915050565b600060808284031215610b04578081fd5b6040516080810181811067ffffffffffffffff82111715610b2157fe5b8060405250825181526020830151602082015260408301516040820152606083015160608201528091505092915050565b60008060008060608587031215610b67578283fd5b84359350602085013567ffffffffffffffff80821115610b85578485fd5b818701915087601f830112610b98578485fd5b813581811115610ba6578586fd5b886020828501011115610bb7578586fd5b95986020929092019750949560400135945092505050565b60008060408385031215610be1578182fd5b50508035926020909101359150565b60008151808452815b81811015610c1557602081850181015186830182015201610bf9565b81811115610c265782602083870101525b50601f01601f19169290920160200192915050565b6001600160a01b0391909116815260200190565b6000602082526106eb6020830184610bf0565b6020808252603e908201527f4647656c61746f446562744272696467652e5f676574476173436f73744d616b60408201527f6572546f4d616b65723a20696e76616c696420726f75746520696e6465780000606082015260800190565b6020808252602e908201527f4647656c61746f446562744272696467652e5f676574466c6173684c6f616e5260408201526d1bdd5d194e881a5b1b1a5c5d5a5960921b606082015260800190565b918252602082015260400190565b60008085851115610d2a578182fd5b83861115610d36578182fd5b505082019391909203915056fea264697066735822122004aae87907141d31e49c23db1aa471a5723120691650e4fde15eb6b9c612e79d64736f6c63430007040033",
  "devdoc": {
    "author": "Gelato Team",
    "kind": "dev",
    "methods": {
      "getConditionData(uint256,uint256)": {
        "details": "Use the return for your Task's Condition.data field off-chain.WARNING _ratioLimit should be in wad standard.",
        "returns": {
          "_0": "The encoded payload for your Task's Condition.data field."
        }
      },
      "isAffordable(uint256,uint256)": {
        "details": "Check if the debt refinancing action is affordable.WARNING _ratioLimit should be in wad standard.",
        "params": {
          "_ratioLimit": "the maximum limit define by the user up on which the debt is too expensive for him",
          "_vaultId": "The id of the Maker vault"
        },
        "returns": {
          "_0": "OK if the Debt Bridge is affordable, otherwise some error message."
        }
      },
      "ok(uint256,bytes,uint256)": {
        "details": "A standard interface for GelatoCore to read Conditions",
        "params": {
          "_conditionData": "The data you get from `getConditionData()`"
        },
        "returns": {
          "_0": "OK if the Condition is there, else some error message."
        }
      }
    },
    "title": "ConditionDebtBridgeIsAffordable",
    "version": 1
  },
  "userdoc": {
    "kind": "user",
    "methods": {
      "getConditionData(uint256,uint256)": {
        "notice": "Convenience function for off-chain _conditionData encoding"
      },
      "isAffordable(uint256,uint256)": {
        "notice": "Specific implementation of this Condition's ok function"
      },
      "ok(uint256,bytes,uint256)": {
        "notice": "Standard GelatoCore system function"
      }
    },
    "notice": "Condition checking if Debt Refinance is affordable.",
    "version": 1
  },
  "storageLayout": {
    "storage": [],
    "types": null
  }
}