{
  "address": "0xCA1d48683809980a8d9afF4815155dd71b01d584",
  "abi": [
    {
      "inputs": [
        {
          "internalType": "uint256",
          "name": "__id",
          "type": "uint256"
        },
        {
          "internalType": "address",
          "name": "_oracleAggregator",
          "type": "address"
        },
        {
          "internalType": "address",
          "name": "__instaFeeCollector",
          "type": "address"
        },
        {
          "internalType": "address",
          "name": "__connectGelatoDebtBridgeFee",
          "type": "address"
        }
      ],
      "stateMutability": "nonpayable",
      "type": "constructor"
    },
    {
      "inputs": [],
      "name": "OK",
      "outputs": [
        {
          "internalType": "string",
          "name": "",
          "type": "string"
        }
      ],
      "stateMutability": "view",
      "type": "function"
    },
    {
      "inputs": [],
      "name": "connectGelatoDataFromMakerAddr",
      "outputs": [
        {
          "internalType": "address",
          "name": "",
          "type": "address"
        }
      ],
      "stateMutability": "view",
      "type": "function"
    },
    {
      "inputs": [],
      "name": "connectorID",
      "outputs": [
        {
          "internalType": "uint256",
          "name": "_type",
          "type": "uint256"
        },
        {
          "internalType": "uint256",
          "name": "id",
          "type": "uint256"
        }
      ],
      "stateMutability": "view",
      "type": "function"
    },
    {
      "inputs": [
        {
          "internalType": "uint256",
          "name": "_vaultAId",
          "type": "uint256"
        },
        {
          "internalType": "uint256",
          "name": "_vaultBId",
          "type": "uint256"
        },
        {
          "internalType": "string",
          "name": "_colType",
          "type": "string"
        }
      ],
      "name": "getDataAndCastMakerToMaker",
      "outputs": [],
      "stateMutability": "payable",
      "type": "function"
    },
    {
      "inputs": [],
      "name": "instaFeeCollector",
      "outputs": [
        {
          "internalType": "address",
          "name": "",
          "type": "address"
        }
      ],
      "stateMutability": "view",
      "type": "function"
    },
    {
      "inputs": [],
      "name": "name",
      "outputs": [
        {
          "internalType": "string",
          "name": "",
          "type": "string"
        }
      ],
      "stateMutability": "view",
      "type": "function"
    },
    {
      "inputs": [],
      "name": "oracleAggregator",
      "outputs": [
        {
          "internalType": "address",
          "name": "",
          "type": "address"
        }
      ],
      "stateMutability": "view",
      "type": "function"
    },
    {
      "inputs": [
        {
          "internalType": "uint256",
          "name": "",
          "type": "uint256"
        },
        {
          "internalType": "address",
          "name": "_dsa",
          "type": "address"
        },
        {
          "internalType": "bytes",
          "name": "_actionData",
          "type": "bytes"
        },
        {
          "internalType": "enum DataFlow",
          "name": "",
          "type": "uint8"
        },
        {
          "internalType": "uint256",
          "name": "",
          "type": "uint256"
        },
        {
          "internalType": "uint256",
          "name": "",
          "type": "uint256"
        }
      ],
      "name": "termsOk",
      "outputs": [
        {
          "internalType": "string",
          "name": "",
          "type": "string"
        }
      ],
      "stateMutability": "view",
      "type": "function"
    }
  ],
  "transactionHash": "0xb31531da880849fabacb81825525ccb6559ca5495695d53ceacdd03849960617",
  "args": [
    81,
    "0x64f31D46C52bBDe223D863B11dAb9327aB1414E9",
    "0x0c159985E905ea1A3dA7305D70583Dd618862cf4",
    "0x9B6eeB49390626Dec7B3785D38879746923B308E"
  ],
  "solcInputHash": "06ff1a108d21b21e4ca3839d365cb0b5",
  "bytecode": "0x6101206040523480156200001257600080fd5b5060405162004a9138038062004a9183398181016040528101906200003891906200015d565b8383838383608081815250508273ffffffffffffffffffffffffffffffffffffffff1660a08173ffffffffffffffffffffffffffffffffffffffff1660601b815250508173ffffffffffffffffffffffffffffffffffffffff1660c08173ffffffffffffffffffffffffffffffffffffffff1660601b815250508073ffffffffffffffffffffffffffffffffffffffff166101008173ffffffffffffffffffffffffffffffffffffffff1660601b815250503073ffffffffffffffffffffffffffffffffffffffff1660e08173ffffffffffffffffffffffffffffffffffffffff1660601b8152505050505050505050506200023b565b600081519050620001408162000207565b92915050565b600081519050620001578162000221565b92915050565b600080600080608085870312156200017457600080fd5b6000620001848782880162000146565b945050602062000197878288016200012f565b9350506040620001aa878288016200012f565b9250506060620001bd878288016200012f565b91505092959194509250565b6000620001d682620001dd565b9050919050565b600073ffffffffffffffffffffffffffffffffffffffff82169050919050565b6000819050919050565b6200021281620001c9565b81146200021e57600080fd5b50565b6200022c81620001fd565b81146200023857600080fd5b50565b60805160a05160601c60c05160601c60e05160601c6101005160601c6147d4620002bd600039600081816114390152611ded0152600081816101fa01526109c3015260008181610267015281816118de01528181611a8e0152818161231b015261255e015260008181610243015261062b015260006102c901526147d46000f3fe60806040526004361061007b5760003560e01c8063bc95af311161004e578063bc95af311461011d578063d48fe28014610148578063eb15f78114610173578063eb9e71261461019f5761007b565b806306fdde031461008057806308b0e9ce146100ab5780631263c73c146100d65780638dffe3f4146100f2575b600080fd5b34801561008c57600080fd5b506100956101dc565b6040516100a29190613e99565b60405180910390f35b3480156100b757600080fd5b506100c06101f8565b6040516100cd9190613cda565b60405180910390f35b6100f060048036038101906100eb9190613573565b61021c565b005b3480156100fe57600080fd5b50610107610241565b6040516101149190613cda565b60405180910390f35b34801561012957600080fd5b50610132610265565b60405161013f9190613cda565b60405180910390f35b34801561015457600080fd5b5061015d610289565b60405161016a9190613e99565b60405180910390f35b34801561017f57600080fd5b506101886102c2565b604051610196929190613fcd565b60405180910390f35b3480156101ab57600080fd5b506101c660048036038101906101c19190613490565b6102f4565b6040516101d39190613e99565b60405180910390f35b60405180606001604052806022815260200161477d6022913981565b7f000000000000000000000000000000000000000000000000000000000000000081565b60008061022b868686866104cb565b9150915061023982826108ce565b505050505050565b7f000000000000000000000000000000000000000000000000000000000000000081565b7f000000000000000000000000000000000000000000000000000000000000000081565b6040518060400160405280600281526020017f4f4b00000000000000000000000000000000000000000000000000000000000081525081565b60008060017f000000000000000000000000000000000000000000000000000000000000000080925081935050509091565b60606000868660049060249261030c939291906141ce565b810190610319919061343e565b905060008114156103ce573073ffffffffffffffffffffffffffffffffffffffff166306fdde036040518163ffffffff1660e01b815260040160006040518083038186803b15801561036a57600080fd5b505afa15801561037e573d6000803e3d6000fd5b505050506040513d6000823e3d601f19601f820116820180604052508101906103a791906133d4565b6040516020016103b79190613c30565b6040516020818303038152906040529150506104c0565b6103d88189610a9a565b610486573073ffffffffffffffffffffffffffffffffffffffff166306fdde036040518163ffffffff1660e01b815260040160006040518083038186803b15801561042257600080fd5b505afa158015610436573d6000803e3d6000fd5b505050506040513d6000823e3d601f19601f8201168201806040525081019061045f91906133d4565b60405160200161046f9190613c52565b6040516020818303038152906040529150506104c0565b6040518060400160405280600281526020017f4f4b0000000000000000000000000000000000000000000000000000000000008152509150505b979650505050505050565b606080600167ffffffffffffffff81111561050f577f4e487b7100000000000000000000000000000000000000000000000000000000600052604160045260246000fd5b60405190808252806020026020018201604052801561053d5781602001602082028036833780820191505090505b50915073eb4bf86589f808f90eec8e964dbf16bd4d2849058260008151811061058f577f4e487b7100000000000000000000000000000000000000000000000000000000600052603260045260246000fd5b602002602001019073ffffffffffffffffffffffffffffffffffffffff16908173ffffffffffffffffffffffffffffffffffffffff16815250506105d38530610a9a565b6105de5760006105e0565b845b945060006105f56105f088610c2a565b610ef4565b9050600061060288610f0f565b90506000610624736b175474e89094c44da98b954eedeac495271d0f84611058565b90506000807f000000000000000000000000000000000000000000000000000000000000000073ffffffffffffffffffffffffffffffffffffffff16633c772b6c61067a61067560008e1487611193565b61126a565b73eeeeeeeeeeeeeeeeeeeeeeeeeeeeeeeeeeeeeeee736b175474e89094c44da98b954eedeac495271d0f6040518463ffffffff1660e01b81526004016106c293929190613f96565b604080518083038186803b1580156106d957600080fd5b505afa1580156106ed573d6000803e3d6000fd5b505050506040513d601f19601f820116820180604052508101906107119190613537565b9150915061071f8183611284565b915060008060008c1461073e576107398d8d8989886112b0565b61074d565b61074c8d8c8c8a8a89611c64565b5b91509150600167ffffffffffffffff811115610792577f4e487b7100000000000000000000000000000000000000000000000000000000600052604160045260246000fd5b6040519080825280602002602001820160405280156107c557816020015b60608152602001906001900390816107b05790505b509750638d0a9b1b60e01b736b175474e89094c44da98b954eedeac495271d0f888785856040516020016107fa929190613dd9565b60405160208183030381529060405260405160240161081c9493929190613d48565b604051602081830303815290604052907bffffffffffffffffffffffffffffffffffffffffffffffffffffffff19166020820180517bffffffffffffffffffffffffffffffffffffffffffffffffffffffff8381831617835250505050886000815181106108b3577f4e487b7100000000000000000000000000000000000000000000000000000000600052603260045260246000fd5b60200260200101819052505050505050505094509492505050565b600063e0e90acf60e01b8383336040516024016108ed93929190613e10565b604051602081830303815290604052907bffffffffffffffffffffffffffffffffffffffffffffffffffffffff19166020820180517bffffffffffffffffffffffffffffffffffffffffffffffffffffffff838183161783525050505090506000803073ffffffffffffffffffffffffffffffffffffffff16836040516109749190613bd3565b600060405180830381855af49150503d80600081146109af576040519150601f19603f3d011682016040523d82523d6000602084013e6109b4565b606091505b509150915081610a9357610a927f000000000000000000000000000000000000000000000000000000000000000073ffffffffffffffffffffffffffffffffffffffff166306fdde036040518163ffffffff1660e01b815260040160006040518083038186803b158015610a2757600080fd5b505afa158015610a3b573d6000803e3d6000fd5b505050506040513d6000823e3d601f19601f82011682018060405250810190610a6491906133d4565b604051602001610a749190613c96565b6040516020818303038152906040528261273590919063ffffffff16565b5b5050505050565b600080831415610aad5760009050610c24565b735ef30b9986345249bc32d8928b7ee64de9435e3973ffffffffffffffffffffffffffffffffffffffff16638161b120846040518263ffffffff1660e01b8152600401610afa9190613f7b565b60206040518083038186803b158015610b1257600080fd5b505afa925050508015610b4357506040513d601f19601f82011682018060405250810190610b409190613330565b60015b610bf157610b4f614605565b80610b5a5750610bb6565b80604051602001610b6b9190613cb8565b6040516020818303038152906040526040517f08c379a0000000000000000000000000000000000000000000000000000000008152600401610bad9190613e99565b60405180910390fd5b6040517f08c379a0000000000000000000000000000000000000000000000000000000008152600401610be890613f3b565b60405180910390fd5b8073ffffffffffffffffffffffffffffffffffffffff168373ffffffffffffffffffffffffffffffffffffffff16149150505b92915050565b600080735ef30b9986345249bc32d8928b7ee64de9435e399050600080610c51838661289e565b9150915060008373ffffffffffffffffffffffffffffffffffffffff166336569e776040518163ffffffff1660e01b815260040160206040518083038186803b158015610c9d57600080fd5b505afa158015610cb1573d6000803e3d6000fd5b505050506040513d601f19601f82011682018060405250810190610cd59190613330565b905060008173ffffffffffffffffffffffffffffffffffffffff1663d9638d36856040518263ffffffff1660e01b8152600401610d129190613e55565b60a06040518083038186803b158015610d2a57600080fd5b505afa158015610d3e573d6000803e3d6000fd5b505050506040513d601f19601f82011682018060405250810190610d6291906135df565b50505091505060008273ffffffffffffffffffffffffffffffffffffffff16632424be5c86866040518363ffffffff1660e01b8152600401610da5929190613e70565b604080518083038186803b158015610dbc57600080fd5b505afa158015610dd0573d6000803e3d6000fd5b505050506040513d601f19601f82011682018060405250810190610df49190613537565b91505060008373ffffffffffffffffffffffffffffffffffffffff16636c25b346866040518263ffffffff1660e01b8152600401610e329190613cda565b60206040518083038186803b158015610e4a57600080fd5b505afa158015610e5e573d6000803e3d6000fd5b505050506040513d601f19601f82011682018060405250810190610e829190613467565b90506000610e99610e9384866129be565b83612a2b565b90506b033b2e3c9fd0803ce800000081610eb39190614257565b985080610ecc8a6b033b2e3c9fd0803ce80000006129be565b10610ed75788610ee5565b600189610ee49190614201565b5b98505050505050505050919050565b6000610f0882670df27a2cdf448000612a84565b9050919050565b600080735ef30b9986345249bc32d8928b7ee64de9435e39905060008173ffffffffffffffffffffffffffffffffffffffff166336569e776040518163ffffffff1660e01b815260040160206040518083038186803b158015610f7157600080fd5b505afa158015610f85573d6000803e3d6000fd5b505050506040513d601f19601f82011682018060405250810190610fa99190613330565b9050600080610fb8848761289e565b9150915060008373ffffffffffffffffffffffffffffffffffffffff16632424be5c84846040518363ffffffff1660e01b8152600401610ff9929190613e70565b604080518083038186803b15801561101057600080fd5b505afa158015611024573d6000803e3d6000fd5b505050506040513d601f19601f820116820180604052508101906110489190613537565b5090508095505050505050919050565b60008073a004a5afba04b74037e9e52ba1f7eb02b5e6150973ffffffffffffffffffffffffffffffffffffffff16635a860c87856040518263ffffffff1660e01b81526004016110a89190613cda565b60806040518083038186803b1580156110c057600080fd5b505afa1580156110d4573d6000803e3d6000fd5b505050506040513d601f19601f820116820180604052508101906110f89190613415565b9050828160000151111561111057600091505061118d565b828160200151111561112657600191505061118d565b828160400151111561113c57600291505061118d565b828160600151111561115257600391505061118d565b6040517f08c379a000000000000000000000000000000000000000000000000000000000815260040161118490613f5b565b60405180910390fd5b92915050565b60006111b7826040518060600160405280603e815260200161473f603e9139612ac8565b61126283611209576111c7612b14565b83600481106111ff577f4e487b7100000000000000000000000000000000000000000000000000000000600052603260045260246000fd5b602002015161125d565b62030d40611215612b14565b846004811061124d577f4e487b7100000000000000000000000000000000000000000000000000000000600052603260045260246000fd5b602002015161125c9190614201565b5b612b4e565b905092915050565b600061127d82611278612b7c565b6129be565b9050919050565b60006112a8828460126112979190614453565b600a6112a391906142db565b6129be565b905092915050565b606080600867ffffffffffffffff8111156112f4577f4e487b7100000000000000000000000000000000000000000000000000000000600052604160045260246000fd5b6040519080825280602002602001820160405280156113225781602001602082028036833780820191505090505b50915073ac02030d8a8f49ed04b2f52c394d3f901a10f8a982600081518110611374577f4e487b7100000000000000000000000000000000000000000000000000000000600052603260045260246000fd5b602002602001019073ffffffffffffffffffffffffffffffffffffffff16908173ffffffffffffffffffffffffffffffffffffffff168152505073ac02030d8a8f49ed04b2f52c394d3f901a10f8a9826001815181106113fd577f4e487b7100000000000000000000000000000000000000000000000000000000600052603260045260246000fd5b602002602001019073ffffffffffffffffffffffffffffffffffffffff16908173ffffffffffffffffffffffffffffffffffffffff16815250507f000000000000000000000000000000000000000000000000000000000000000082600281518110611492577f4e487b7100000000000000000000000000000000000000000000000000000000600052603260045260246000fd5b602002602001019073ffffffffffffffffffffffffffffffffffffffff16908173ffffffffffffffffffffffffffffffffffffffff168152505073ac02030d8a8f49ed04b2f52c394d3f901a10f8a98260038151811061151b577f4e487b7100000000000000000000000000000000000000000000000000000000600052603260045260246000fd5b602002602001019073ffffffffffffffffffffffffffffffffffffffff16908173ffffffffffffffffffffffffffffffffffffffff168152505073ac02030d8a8f49ed04b2f52c394d3f901a10f8a9826004815181106115a4577f4e487b7100000000000000000000000000000000000000000000000000000000600052603260045260246000fd5b602002602001019073ffffffffffffffffffffffffffffffffffffffff16908173ffffffffffffffffffffffffffffffffffffffff168152505073e5398f279175962e56fe4c5e0b62dc7208ef36c68260058151811061162d577f4e487b7100000000000000000000000000000000000000000000000000000000600052603260045260246000fd5b602002602001019073ffffffffffffffffffffffffffffffffffffffff16908173ffffffffffffffffffffffffffffffffffffffff168152505073e5398f279175962e56fe4c5e0b62dc7208ef36c6826006815181106116b6577f4e487b7100000000000000000000000000000000000000000000000000000000600052603260045260246000fd5b602002602001019073ffffffffffffffffffffffffffffffffffffffff16908173ffffffffffffffffffffffffffffffffffffffff168152505073eb4bf86589f808f90eec8e964dbf16bd4d2849058260078151811061173f577f4e487b7100000000000000000000000000000000000000000000000000000000600052603260045260246000fd5b602002602001019073ffffffffffffffffffffffffffffffffffffffff16908173ffffffffffffffffffffffffffffffffffffffff1681525050600867ffffffffffffffff8111156117ba577f4e487b7100000000000000000000000000000000000000000000000000000000600052604160045260246000fd5b6040519080825280602002602001820160405280156117ed57816020015b60608152602001906001900390816117d85790505b50905061181f877fffffffffffffffffffffffffffffffffffffffffffffffffffffffffffffffff6000610258612c5d565b81600081518110611859577f4e487b7100000000000000000000000000000000000000000000000000000000600052603260045260246000fd5b6020026020010181905250611891877fffffffffffffffffffffffffffffffffffffffffffffffffffffffffffffffff600080612ce5565b816001815181106118cb577f4e487b7100000000000000000000000000000000000000000000000000000000600052603260045260246000fd5b60200260200101819052506119866000847f000000000000000000000000000000000000000000000000000000000000000073ffffffffffffffffffffffffffffffffffffffff1663ddca3f436040518163ffffffff1660e01b815260040160206040518083038186803b15801561194257600080fd5b505afa158015611956573d6000803e3d6000fd5b505050506040513d601f19601f8201168201806040525081019061197a9190613467565b61025880610259612d6d565b816002815181106119c0577f4e487b7100000000000000000000000000000000000000000000000000000000600052603260045260246000fd5b60200260200101819052506119d88685600080612dfb565b81600381518110611a12577f4e487b7100000000000000000000000000000000000000000000000000000000600052603260045260246000fd5b6020026020010181905250611a2d8660006102586000612e83565b81600481518110611a67577f4e487b7100000000000000000000000000000000000000000000000000000000600052603260045260246000fd5b6020026020010181905250611b34736b175474e89094c44da98b954eedeac495271d0f60007f000000000000000000000000000000000000000000000000000000000000000073ffffffffffffffffffffffffffffffffffffffff1663c415b95c6040518163ffffffff1660e01b815260040160206040518083038186803b158015611af257600080fd5b505afa158015611b06573d6000803e3d6000fd5b505050506040513d601f19601f82011682018060405250810190611b2a9190613359565b6102596000612f0b565b81600581518110611b6e577f4e487b7100000000000000000000000000000000000000000000000000000000600052603260045260246000fd5b6020026020010181905250611baf736b175474e89094c44da98b954eedeac495271d0f847398edc8067cc671bcae82d36dcc609c3e4e078ac8600080612f0b565b81600681518110611be9577f4e487b7100000000000000000000000000000000000000000000000000000000600052603260045260246000fd5b6020026020010181905250611c15736b175474e89094c44da98b954eedeac495271d0f86600080612f96565b81600781518110611c4f577f4e487b7100000000000000000000000000000000000000000000000000000000600052603260045260246000fd5b60200260200101819052509550959350505050565b606080600967ffffffffffffffff811115611ca8577f4e487b7100000000000000000000000000000000000000000000000000000000600052604160045260246000fd5b604051908082528060200260200182016040528015611cd65781602001602082028036833780820191505090505b50915073ac02030d8a8f49ed04b2f52c394d3f901a10f8a982600081518110611d28577f4e487b7100000000000000000000000000000000000000000000000000000000600052603260045260246000fd5b602002602001019073ffffffffffffffffffffffffffffffffffffffff16908173ffffffffffffffffffffffffffffffffffffffff168152505073ac02030d8a8f49ed04b2f52c394d3f901a10f8a982600181518110611db1577f4e487b7100000000000000000000000000000000000000000000000000000000600052603260045260246000fd5b602002602001019073ffffffffffffffffffffffffffffffffffffffff16908173ffffffffffffffffffffffffffffffffffffffff16815250507f000000000000000000000000000000000000000000000000000000000000000082600281518110611e46577f4e487b7100000000000000000000000000000000000000000000000000000000600052603260045260246000fd5b602002602001019073ffffffffffffffffffffffffffffffffffffffff16908173ffffffffffffffffffffffffffffffffffffffff168152505073ac02030d8a8f49ed04b2f52c394d3f901a10f8a982600381518110611ecf577f4e487b7100000000000000000000000000000000000000000000000000000000600052603260045260246000fd5b602002602001019073ffffffffffffffffffffffffffffffffffffffff16908173ffffffffffffffffffffffffffffffffffffffff168152505073ac02030d8a8f49ed04b2f52c394d3f901a10f8a982600481518110611f58577f4e487b7100000000000000000000000000000000000000000000000000000000600052603260045260246000fd5b602002602001019073ffffffffffffffffffffffffffffffffffffffff16908173ffffffffffffffffffffffffffffffffffffffff168152505073ac02030d8a8f49ed04b2f52c394d3f901a10f8a982600581518110611fe1577f4e487b7100000000000000000000000000000000000000000000000000000000600052603260045260246000fd5b602002602001019073ffffffffffffffffffffffffffffffffffffffff16908173ffffffffffffffffffffffffffffffffffffffff168152505073e5398f279175962e56fe4c5e0b62dc7208ef36c68260068151811061206a577f4e487b7100000000000000000000000000000000000000000000000000000000600052603260045260246000fd5b602002602001019073ffffffffffffffffffffffffffffffffffffffff16908173ffffffffffffffffffffffffffffffffffffffff168152505073e5398f279175962e56fe4c5e0b62dc7208ef36c6826007815181106120f3577f4e487b7100000000000000000000000000000000000000000000000000000000600052603260045260246000fd5b602002602001019073ffffffffffffffffffffffffffffffffffffffff16908173ffffffffffffffffffffffffffffffffffffffff168152505073eb4bf86589f808f90eec8e964dbf16bd4d2849058260088151811061217c577f4e487b7100000000000000000000000000000000000000000000000000000000600052603260045260246000fd5b602002602001019073ffffffffffffffffffffffffffffffffffffffff16908173ffffffffffffffffffffffffffffffffffffffff1681525050600967ffffffffffffffff8111156121f7577f4e487b7100000000000000000000000000000000000000000000000000000000600052604160045260246000fd5b60405190808252806020026020018201604052801561222a57816020015b60608152602001906001900390816122155790505b50905061225c887fffffffffffffffffffffffffffffffffffffffffffffffffffffffffffffffff6000610258612c5d565b81600081518110612296577f4e487b7100000000000000000000000000000000000000000000000000000000600052603260045260246000fd5b60200260200101819052506122ce887fffffffffffffffffffffffffffffffffffffffffffffffffffffffffffffffff600080612ce5565b81600181518110612308577f4e487b7100000000000000000000000000000000000000000000000000000000600052603260045260246000fd5b60200260200101819052506123c36000847f000000000000000000000000000000000000000000000000000000000000000073ffffffffffffffffffffffffffffffffffffffff1663ddca3f436040518163ffffffff1660e01b815260040160206040518083038186803b15801561237f57600080fd5b505afa158015612393573d6000803e3d6000fd5b505050506040513d601f19601f820116820180604052508101906123b79190613467565b61025880610259612d6d565b816002815181106123fd577f4e487b7100000000000000000000000000000000000000000000000000000000600052603260045260246000fd5b602002602001018190525061245587878080601f016020809104026020016040519081016040528093929190818152602001838380828437600081840152601f19601f8201169050808301925050505050505061301e565b8160038151811061248f577f4e487b7100000000000000000000000000000000000000000000000000000000600052603260045260246000fd5b60200260200101819052506124a8600085600080612dfb565b816004815181106124e2577f4e487b7100000000000000000000000000000000000000000000000000000000600052603260045260246000fd5b60200260200101819052506124fd6000806102586000612e83565b81600581518110612537577f4e487b7100000000000000000000000000000000000000000000000000000000600052603260045260246000fd5b6020026020010181905250612604736b175474e89094c44da98b954eedeac495271d0f60007f000000000000000000000000000000000000000000000000000000000000000073ffffffffffffffffffffffffffffffffffffffff1663c415b95c6040518163ffffffff1660e01b815260040160206040518083038186803b1580156125c257600080fd5b505afa1580156125d6573d6000803e3d6000fd5b505050506040513d601f19601f820116820180604052508101906125fa9190613359565b6102596000612f0b565b8160068151811061263e577f4e487b7100000000000000000000000000000000000000000000000000000000600052603260045260246000fd5b602002602001018190525061267f736b175474e89094c44da98b954eedeac495271d0f847398edc8067cc671bcae82d36dcc609c3e4e078ac8600080612f0b565b816007815181106126b9577f4e487b7100000000000000000000000000000000000000000000000000000000600052603260045260246000fd5b60200260200101819052506126e5736b175474e89094c44da98b954eedeac495271d0f86600080612f96565b8160088151811061271f577f4e487b7100000000000000000000000000000000000000000000000000000000600052603260045260246000fd5b6020026020010181905250965096945050505050565b600460208351612745919061451c565b1415612842576000826020015190506308c379a060e01b817bffffffffffffffffffffffffffffffffffffffffffffffffffffffff191614156127e657604483019250818360405160200161279b929190613bea565b6040516020818303038152906040526040517f08c379a00000000000000000000000000000000000000000000000000000000081526004016127dd9190613e99565b60405180910390fd5b816040516020016127f79190613c0e565b6040516020818303038152906040526040517f08c379a00000000000000000000000000000000000000000000000000000000081526004016128399190613e99565b60405180910390fd5b806040516020016128539190613c74565b6040516020818303038152906040526040517f08c379a00000000000000000000000000000000000000000000000000000000081526004016128959190613e99565b60405180910390fd5b6000808373ffffffffffffffffffffffffffffffffffffffff16632c2cb9fd846040518263ffffffff1660e01b81526004016128da9190613f7b565b60206040518083038186803b1580156128f257600080fd5b505afa158015612906573d6000803e3d6000fd5b505050506040513d601f19601f8201168201806040525081019061292a9190613382565b91508373ffffffffffffffffffffffffffffffffffffffff16632726b073846040518263ffffffff1660e01b81526004016129659190613f7b565b60206040518083038186803b15801561297d57600080fd5b505afa158015612991573d6000803e3d6000fd5b505050506040513d601f19601f820116820180604052508101906129b59190613330565b90509250929050565b6000808214806129e65750828283856129d791906143f9565b9250826129e49190614257565b145b612a25576040517f08c379a0000000000000000000000000000000000000000000000000000000008152600401612a1c90613edb565b60405180910390fd5b92915050565b6000828284612a3a9190614453565b9150811115612a7e576040517f08c379a0000000000000000000000000000000000000000000000000000000008152600401612a7590613ebb565b60405180910390fd5b92915050565b6000670de0b6b3a7640000612ab6612a9c85856129be565b6002670de0b6b3a7640000612ab19190614257565b61309d565b612ac09190614257565b905092915050565b60048211158190612b0f576040517f08c379a0000000000000000000000000000000000000000000000000000000008152600401612b069190613e99565b60405180910390fd5b505050565b612b1c6130f6565b604051806080016040528062266fd88152602001622feb948152602001623c97b8815260200162424ca8815250905090565b60006064601e6064612b609190614201565b83612b6b91906143f9565b612b759190614257565b9050919050565b60008073169e633a2d1e6c10dd91238ba11c4a708dfef37c73ffffffffffffffffffffffffffffffffffffffff166350d25bcd6040518163ffffffff1660e01b815260040160206040518083038186803b158015612bd957600080fd5b505afa158015612bed573d6000803e3d6000fd5b505050506040513d601f19601f82011682018060405250810190612c1191906133ab565b905060008113612c56576040517f08c379a0000000000000000000000000000000000000000000000000000000008152600401612c4d90613f1b565b60405180910390fd5b8091505090565b606063d5e0da3660e01b85858585604051602401612c7e9493929190613ff6565b604051602081830303815290604052907bffffffffffffffffffffffffffffffffffffffffffffffffffffffff19166020820180517bffffffffffffffffffffffffffffffffffffffffffffffffffffffff83818316178352505050509050949350505050565b606063674fb1b460e01b85858585604051602401612d069493929190613ff6565b604051602081830303815290604052907bffffffffffffffffffffffffffffffffffffffffffffffffffffffff19166020820180517bffffffffffffffffffffffffffffffffffffffffffffffffffffffff83818316178352505050509050949350505050565b606063acd2fd9360e01b878787878787604051602401612d929695949392919061403b565b604051602081830303815290604052907bffffffffffffffffffffffffffffffffffffffffffffffffffffffff19166020820180517bffffffffffffffffffffffffffffffffffffffffffffffffffffffff838183161783525050505090509695505050505050565b6060632505c3d960e01b85858585604051602401612e1c9493929190613ff6565b604051602081830303815290604052907bffffffffffffffffffffffffffffffffffffffffffffffffffffffff19166020820180517bffffffffffffffffffffffffffffffffffffffffffffffffffffffff83818316178352505050509050949350505050565b606063111d948260e01b85858585604051602401612ea49493929190613ff6565b604051602081830303815290604052907bffffffffffffffffffffffffffffffffffffffffffffffffffffffff19166020820180517bffffffffffffffffffffffffffffffffffffffffffffffffffffffff83818316178352505050509050949350505050565b6060634bd3ab8260e01b8686868686604051602401612f2e959493929190613cf5565b604051602081830303815290604052907bffffffffffffffffffffffffffffffffffffffffffffffffffffffff19166020820180517bffffffffffffffffffffffffffffffffffffffffffffffffffffffff8381831617835250505050905095945050505050565b606063213980e860e01b85858585604051602401612fb79493929190613d94565b604051602081830303815290604052907bffffffffffffffffffffffffffffffffffffffffffffffffffffffff19166020820180517bffffffffffffffffffffffffffffffffffffffffffffffffffffffff83818316178352505050509050949350505050565b606063e4dcb06b60e01b826040516024016130399190613e99565b604051602081830303815290604052907bffffffffffffffffffffffffffffffffffffffffffffffffffffffff19166020820180517bffffffffffffffffffffffffffffffffffffffffffffffffffffffff83818316178352505050509050919050565b60008282846130ac9190614201565b91508110156130f0576040517f08c379a00000000000000000000000000000000000000000000000000000000081526004016130e790613efb565b60405180910390fd5b92915050565b6040518060800160405280600490602082028036833780820191505090505090565b600061312b613126846140cd565b61409c565b90508281526020810184848401111561314357600080fd5b61314e8482856144e9565b509392505050565b600081359050613165816146bb565b92915050565b60008151905061317a816146bb565b92915050565b60008151905061318f816146d2565b92915050565b6000815190506131a4816146e9565b92915050565b60008083601f8401126131bc57600080fd5b8235905067ffffffffffffffff8111156131d557600080fd5b6020830191508360018202830111156131ed57600080fd5b9250929050565b60008135905061320381614700565b92915050565b60008151905061321881614710565b92915050565b60008083601f84011261323057600080fd5b8235905067ffffffffffffffff81111561324957600080fd5b60208301915083600182028301111561326157600080fd5b9250929050565b600082601f83011261327957600080fd5b8151613289848260208601613118565b91505092915050565b6000608082840312156132a457600080fd5b6132ae608061409c565b905060006132be8482850161331b565b60008301525060206132d28482850161331b565b60208301525060406132e68482850161331b565b60408301525060606132fa8482850161331b565b60608301525092915050565b60008135905061331581614727565b92915050565b60008151905061332a81614727565b92915050565b60006020828403121561334257600080fd5b60006133508482850161316b565b91505092915050565b60006020828403121561336b57600080fd5b600061337984828501613180565b91505092915050565b60006020828403121561339457600080fd5b60006133a284828501613195565b91505092915050565b6000602082840312156133bd57600080fd5b60006133cb84828501613209565b91505092915050565b6000602082840312156133e657600080fd5b600082015167ffffffffffffffff81111561340057600080fd5b61340c84828501613268565b91505092915050565b60006080828403121561342757600080fd5b600061343584828501613292565b91505092915050565b60006020828403121561345057600080fd5b600061345e84828501613306565b91505092915050565b60006020828403121561347957600080fd5b60006134878482850161331b565b91505092915050565b600080600080600080600060c0888a0312156134ab57600080fd5b60006134b98a828b01613306565b97505060206134ca8a828b01613156565b965050604088013567ffffffffffffffff8111156134e757600080fd5b6134f38a828b016131aa565b955095505060606135068a828b016131f4565b93505060806135178a828b01613306565b92505060a06135288a828b01613306565b91505092959891949750929550565b6000806040838503121561354a57600080fd5b60006135588582860161331b565b92505060206135698582860161331b565b9150509250929050565b6000806000806060858703121561358957600080fd5b600061359787828801613306565b94505060206135a887828801613306565b935050604085013567ffffffffffffffff8111156135c557600080fd5b6135d18782880161321e565b925092505092959194509250565b600080600080600060a086880312156135f757600080fd5b60006136058882890161331b565b95505060206136168882890161331b565b94505060406136278882890161331b565b93505060606136388882890161331b565b92505060806136498882890161331b565b9150509295509295909350565b60006136628383613691565b60208301905092915050565b600061367a8383613791565b905092915050565b61368b81614499565b82525050565b61369a81614487565b82525050565b6136a981614487565b82525050565b60006136ba8261411d565b6136c48185614163565b93506136cf836140fd565b8060005b838110156137005781516136e78882613656565b97506136f283614149565b9250506001810190506136d3565b5085935050505092915050565b600061371882614128565b6137228185614174565b9350836020820285016137348561410d565b8060005b858110156137705784840389528151613751858261366e565b945061375c83614156565b925060208a01995050600181019050613738565b50829750879550505050505092915050565b61378b816144ab565b82525050565b600061379c82614133565b6137a68185614185565b93506137b68185602086016144e9565b6137bf816145da565b840191505092915050565b60006137d582614133565b6137df8185614196565b93506137ef8185602086016144e9565b6137f8816145da565b840191505092915050565b600061380e82614133565b61381881856141a7565b93506138288185602086016144e9565b80840191505092915050565b600061383f8261413e565b61384981856141b2565b93506138598185602086016144e9565b613862816145da565b840191505092915050565b60006138788261413e565b61388281856141c3565b93506138928185602086016144e9565b80840191505092915050565b60006138ab6015836141b2565b91507f64732d6d6174682d7375622d756e646572666c6f7700000000000000000000006000830152602082019050919050565b60006138eb6014836141b2565b91507f64732d6d6174682d6d756c2d6f766572666c6f770000000000000000000000006000830152602082019050919050565b600061392b6014836141b2565b91507f64732d6d6174682d6164642d6f766572666c6f770000000000000000000000006000830152602082019050919050565b600061396b600f836141c3565b91507f4e6f4572726f7253656c6563746f7200000000000000000000000000000000006000830152600f82019050919050565b60006139ab601b836141b2565b91507f5f67657447656c61746f47617350726963653a306f7242656c6f7700000000006000830152602082019050919050565b60006139eb6015836141c3565b91507f464d616b65722e5f69735661756c744f776e65723a00000000000000000000006000830152601582019050919050565b6000613a2b601e836141b2565b91507f464d616b65722e5f69735661756c744f776e65723a756e646566696e656400006000830152602082019050919050565b6000613a6b6017836141c3565b91507f3a205661756c74204964206973206e6f742076616c69640000000000000000006000830152601782019050919050565b6000613aab6018836141c3565b91507f3a205661756c74206e6f74206f776e65642062792064736100000000000000006000830152601882019050919050565b6000613aeb602e836141b2565b91507f4647656c61746f446562744272696467652e5f676574466c6173684c6f616e5260008301527f6f7574653a20696c6c69717569640000000000000000000000000000000000006020830152604082019050919050565b6000613b516014836141c3565b91507f556e657870656374656452657475726e646174610000000000000000000000006000830152601482019050919050565b6000613b916007836141c3565b91507f2e5f636173743a000000000000000000000000000000000000000000000000006000830152600782019050919050565b613bcd816144df565b82525050565b6000613bdf8284613803565b915081905092915050565b6000613bf6828561386d565b9150613c02828461386d565b91508190509392505050565b6000613c1a828461386d565b9150613c258261395e565b915081905092915050565b6000613c3c828461386d565b9150613c4782613a5e565b915081905092915050565b6000613c5e828461386d565b9150613c6982613a9e565b915081905092915050565b6000613c80828461386d565b9150613c8b82613b44565b915081905092915050565b6000613ca2828461386d565b9150613cad82613b84565b915081905092915050565b6000613cc3826139de565b9150613ccf828461386d565b915081905092915050565b6000602082019050613cef60008301846136a0565b92915050565b600060a082019050613d0a60008301886136a0565b613d176020830187613bc4565b613d246040830186613682565b613d316060830185613bc4565b613d3e6080830184613bc4565b9695505050505050565b6000608082019050613d5d60008301876136a0565b613d6a6020830186613bc4565b613d776040830185613bc4565b8181036060830152613d8981846137ca565b905095945050505050565b6000608082019050613da960008301876136a0565b613db66020830186613bc4565b613dc36040830185613bc4565b613dd06060830184613bc4565b95945050505050565b60006040820190508181036000830152613df381856136af565b90508181036020830152613e07818461370d565b90509392505050565b60006060820190508181036000830152613e2a81866136af565b90508181036020830152613e3e818561370d565b9050613e4d60408301846136a0565b949350505050565b6000602082019050613e6a6000830184613782565b92915050565b6000604082019050613e856000830185613782565b613e9260208301846136a0565b9392505050565b60006020820190508181036000830152613eb38184613834565b905092915050565b60006020820190508181036000830152613ed48161389e565b9050919050565b60006020820190508181036000830152613ef4816138de565b9050919050565b60006020820190508181036000830152613f148161391e565b9050919050565b60006020820190508181036000830152613f348161399e565b9050919050565b60006020820190508181036000830152613f5481613a1e565b9050919050565b60006020820190508181036000830152613f7481613ade565b9050919050565b6000602082019050613f906000830184613bc4565b92915050565b6000606082019050613fab6000830186613bc4565b613fb860208301856136a0565b613fc560408301846136a0565b949350505050565b6000604082019050613fe26000830185613bc4565b613fef6020830184613bc4565b9392505050565b600060808201905061400b6000830187613bc4565b6140186020830186613bc4565b6140256040830185613bc4565b6140326060830184613bc4565b95945050505050565b600060c0820190506140506000830189613bc4565b61405d6020830188613bc4565b61406a6040830187613bc4565b6140776060830186613bc4565b6140846080830185613bc4565b61409160a0830184613bc4565b979650505050505050565b6000604051905081810181811067ffffffffffffffff821117156140c3576140c26145ab565b5b8060405250919050565b600067ffffffffffffffff8211156140e8576140e76145ab565b5b601f19601f8301169050602081019050919050565b6000819050602082019050919050565b6000819050602082019050919050565b600081519050919050565b600081519050919050565b600081519050919050565b600081519050919050565b6000602082019050919050565b6000602082019050919050565b600082825260208201905092915050565b600082825260208201905092915050565b600082825260208201905092915050565b600082825260208201905092915050565b600081905092915050565b600082825260208201905092915050565b600081905092915050565b600080858511156141de57600080fd5b838611156141eb57600080fd5b6001850283019150848603905094509492505050565b600061420c826144df565b9150614217836144df565b9250827fffffffffffffffffffffffffffffffffffffffffffffffffffffffffffffffff0382111561424c5761424b61454d565b5b828201905092915050565b6000614262826144df565b915061426d836144df565b92508261427d5761427c61457c565b5b828204905092915050565b6000808291508390505b60018511156142d2578086048111156142ae576142ad61454d565b5b60018516156142bd5780820291505b80810290506142cb856145eb565b9450614292565b94509492505050565b60006142e6826144df565b91506142f1836144df565b925061431e7fffffffffffffffffffffffffffffffffffffffffffffffffffffffffffffffff8484614326565b905092915050565b60008261433657600190506143f2565b8161434457600090506143f2565b816001811461435a576002811461436457614393565b60019150506143f2565b60ff8411156143765761437561454d565b5b8360020a91508482111561438d5761438c61454d565b5b506143f2565b5060208310610133831016604e8410600b84101617156143c85782820a9050838111156143c3576143c261454d565b5b6143f2565b6143d58484846001614288565b925090508184048111156143ec576143eb61454d565b5b81810290505b9392505050565b6000614404826144df565b915061440f836144df565b9250817fffffffffffffffffffffffffffffffffffffffffffffffffffffffffffffffff04831182151516156144485761444761454d565b5b828202905092915050565b600061445e826144df565b9150614469836144df565b92508282101561447c5761447b61454d565b5b828203905092915050565b6000614492826144bf565b9050919050565b60006144a4826144bf565b9050919050565b6000819050919050565b6000819050919050565b600073ffffffffffffffffffffffffffffffffffffffff82169050919050565b6000819050919050565b60005b838110156145075780820151818401526020810190506144ec565b83811115614516576000848401525b50505050565b6000614527826144df565b9150614532836144df565b9250826145425761454161457c565b5b828206905092915050565b7f4e487b7100000000000000000000000000000000000000000000000000000000600052601160045260246000fd5b7f4e487b7100000000000000000000000000000000000000000000000000000000600052601260045260246000fd5b7f4e487b7100000000000000000000000000000000000000000000000000000000600052604160045260246000fd5b6000601f19601f8301169050919050565b60008160011c9050919050565b60008160e01c9050919050565b600060443d1015614615576146b8565b60046000803e6146266000516145f8565b6308c379a0811461463757506146b8565b60405160043d036004823e80513d602482011167ffffffffffffffff82111715614663575050506146b8565b808201805167ffffffffffffffff8111156146825750505050506146b8565b8060208301013d850181111561469d575050505050506146b8565b6146a6826145da565b60208401016040528296505050505050505b90565b6146c481614487565b81146146cf57600080fd5b50565b6146db81614499565b81146146e657600080fd5b50565b6146f2816144ab565b81146146fd57600080fd5b50565b6004811061470d57600080fd5b50565b614719816144b5565b811461472457600080fd5b50565b614730816144df565b811461473b57600080fd5b5056fe4647656c61746f446562744272696467652e5f676574476173436f73744d616b6572546f4d616b65723a20696e76616c696420726f75746520696e646578436f6e6e65637447656c61746f446174614d616b6572546f4d616b65722d76332e30a264697066735822122006ae931517d11536dea4fea8b62800f219f42e76f6443d75044f5b2195d351dd64736f6c63430008000033",
  "devdoc": {
    "kind": "dev",
    "methods": {
      "connectorID()": {
        "details": "Connector Details"
      },
      "getDataAndCastMakerToMaker(uint256,uint256,string)": {
        "details": "payable to be compatible in conjunction with DSA.cast payable target",
        "params": {
          "_colType": "colType of the new vault. example : ETH-B, ETH-A.",
          "_vaultAId": "Id of the unsafe vault of the client of Vault A Collateral.",
          "_vaultBId": "Id of the vault B Collateral of the client."
        }
      }
    },
    "version": 1
  },
  "userdoc": {
    "kind": "user",
    "methods": {
      "getDataAndCastMakerToMaker(uint256,uint256,string)": {
        "notice": "Entry Point for DSA.cast DebtBridge from e.g ETH-A to ETH-B"
      }
    },
    "version": 1
  },
  "storageLayout": {
    "storage": [],
    "types": null
  }
}