{
  "address": "0x11028592f0a4f4E7e0C9936464e621584eb5070e",
  "abi": [
    {
      "inputs": [
        {
          "internalType": "uint256",
          "name": "__id",
          "type": "uint256"
        },
        {
          "internalType": "address",
          "name": "_oracleAggregator",
          "type": "address"
        },
        {
          "internalType": "address",
          "name": "__instaFeeCollector",
          "type": "address"
        },
        {
          "internalType": "address",
          "name": "__connectGelatoDebtBridgeFee",
          "type": "address"
        }
      ],
      "stateMutability": "nonpayable",
      "type": "constructor"
    },
    {
      "inputs": [],
      "name": "OK",
      "outputs": [
        {
          "internalType": "string",
          "name": "",
          "type": "string"
        }
      ],
      "stateMutability": "view",
      "type": "function"
    },
    {
      "inputs": [],
      "name": "connectGelatoDataFromMakerAddr",
      "outputs": [
        {
          "internalType": "address",
          "name": "",
          "type": "address"
        }
      ],
      "stateMutability": "view",
      "type": "function"
    },
    {
      "inputs": [],
      "name": "connectorID",
      "outputs": [
        {
          "internalType": "uint256",
          "name": "_type",
          "type": "uint256"
        },
        {
          "internalType": "uint256",
          "name": "id",
          "type": "uint256"
        }
      ],
      "stateMutability": "view",
      "type": "function"
    },
    {
      "inputs": [
        {
          "internalType": "uint256",
          "name": "_vaultAId",
          "type": "uint256"
        },
        {
          "internalType": "uint256",
          "name": "_vaultBId",
          "type": "uint256"
        },
        {
          "internalType": "string",
          "name": "_colType",
          "type": "string"
        }
      ],
      "name": "getDataAndCastMakerToMaker",
      "outputs": [],
      "stateMutability": "payable",
      "type": "function"
    },
    {
      "inputs": [],
      "name": "instaFeeCollector",
      "outputs": [
        {
          "internalType": "address",
          "name": "",
          "type": "address"
        }
      ],
      "stateMutability": "view",
      "type": "function"
    },
    {
      "inputs": [],
      "name": "name",
      "outputs": [
        {
          "internalType": "string",
          "name": "",
          "type": "string"
        }
      ],
      "stateMutability": "view",
      "type": "function"
    },
    {
      "inputs": [],
      "name": "oracleAggregator",
      "outputs": [
        {
          "internalType": "address",
          "name": "",
          "type": "address"
        }
      ],
      "stateMutability": "view",
      "type": "function"
    },
    {
      "inputs": [
        {
          "internalType": "uint256",
          "name": "",
          "type": "uint256"
        },
        {
          "internalType": "address",
          "name": "_dsa",
          "type": "address"
        },
        {
          "internalType": "bytes",
          "name": "_actionData",
          "type": "bytes"
        },
        {
          "internalType": "enum DataFlow",
          "name": "",
          "type": "uint8"
        },
        {
          "internalType": "uint256",
          "name": "",
          "type": "uint256"
        },
        {
          "internalType": "uint256",
          "name": "",
          "type": "uint256"
        }
      ],
      "name": "termsOk",
      "outputs": [
        {
          "internalType": "string",
          "name": "",
          "type": "string"
        }
      ],
      "stateMutability": "view",
      "type": "function"
    }
  ],
  "transactionHash": "0x65f70192b80aebbbefb3f603d4ef82c8dc3c3ec8646f2faf29863e1b18047465",
  "args": [
    85,
    "0x64f31D46C52bBDe223D863B11dAb9327aB1414E9",
    "0x0c159985E905ea1A3dA7305D70583Dd618862cf4",
    "0x9B6eeB49390626Dec7B3785D38879746923B308E"
  ],
  "solcInputHash": "4b220f9f5ace9500863671bb012c293f",
  "bytecode": "0x6101206040523480156200001257600080fd5b506040516200336d3803806200336d833981016040819052620000359162000089565b6080939093526001600160601b0319606092831b811660a05290821b811660c05291811b9091166101005230901b60e052620000dc565b80516001600160a01b03811681146200008457600080fd5b919050565b600080600080608085870312156200009f578384fd5b84519350620000b1602086016200006c565b9250620000c1604086016200006c565b9150620000d1606086016200006c565b905092959194509250565b60805160a05160601c60c05160601c60e05160601c6101005160601c61320f6200015e60003960008181610feb015261164901526000818161018201526107700152600081816101ef0152818161129d015281816113f5015281816119510152611ad10152600081816101cb01526104b801526000610234015261320f6000f3fe60806040526004361061007b5760003560e01c8063bc95af311161004e578063bc95af31146100f7578063d48fe2801461010c578063eb15f78114610121578063eb9e7126146101445761007b565b806306fdde031461008057806308b0e9ce146100ab5780631263c73c146100cd5780638dffe3f4146100e2575b600080fd5b34801561008c57600080fd5b50610095610164565b6040516100a29190612cc8565b60405180910390f35b3480156100b757600080fd5b506100c0610180565b6040516100a29190612ba1565b6100e06100db3660046128af565b6101a4565b005b3480156100ee57600080fd5b506100c06101c9565b34801561010357600080fd5b506100c06101ed565b34801561011857600080fd5b50610095610211565b34801561012d57600080fd5b5061013661022f565b6040516100a2929190612e41565b34801561015057600080fd5b5061009561015f366004612805565b610256565b6040518060600160405280602281526020016131b86022913981565b7f000000000000000000000000000000000000000000000000000000000000000081565b6000806101b3868686866103d2565b915091506101c182826106b2565b505050505050565b7f000000000000000000000000000000000000000000000000000000000000000081565b7f000000000000000000000000000000000000000000000000000000000000000081565b604051806040016040528060028152602001614f4b60f01b81525081565b6001907f000000000000000000000000000000000000000000000000000000000000000090565b6060600061026860246004888a612e92565b81019061027591906127ed565b90508061031857306001600160a01b03166306fdde036040518163ffffffff1660e01b815260040160006040518083038186803b1580156102b557600080fd5b505afa1580156102c9573d6000803e3d6000fd5b505050506040513d6000823e601f3d908101601f191682016040526102f191908101906126e5565b6040516020016103019190612a7f565b6040516020818303038152906040529150506103c7565b6103228189610831565b6103ab57306001600160a01b03166306fdde036040518163ffffffff1660e01b815260040160006040518083038186803b15801561035f57600080fd5b505afa158015610373573d6000803e3d6000fd5b505050506040513d6000823e601f3d908101601f1916820160405261039b91908101906126e5565b6040516020016103019190612ac0565b50506040805180820190915260028152614f4b60f01b60208201525b979650505050505050565b6040805160018082528183019092526060918291906020808301908036833701905050915073eb4bf86589f808f90eec8e964dbf16bd4d2849058260008151811061042d57634e487b7160e01b600052603260045260246000fd5b60200260200101906001600160a01b031690816001600160a01b0316815250506104578530610831565b610462576000610464565b845b9450600061047961047488610945565b610bd1565b9050600061048688610be5565b905060006104a9736b175474e89094c44da98b954eedeac495271d0f8a85610d10565b90506000806001600160a01b037f000000000000000000000000000000000000000000000000000000000000000016633c772b6c6104f06104eb8d1587610e4a565b610ee6565b73eeeeeeeeeeeeeeeeeeeeeeeeeeeeeeeeeeeeeeee736b175474e89094c44da98b954eedeac495271d0f6040518463ffffffff1660e01b815260040161053893929190612e22565b604080518083038186803b15801561054f57600080fd5b505afa158015610563573d6000803e3d6000fd5b505050506040513d601f19601f82011682018060405250810190610587919061288c565b915091506105958183610ef9565b91506000808b156105b2576105ad8d8d898988610f15565b6105c0565b6105c08d8c8c8a8a89611573565b604080516001808252818301909252929450909250816020015b60608152602001906001900390816105da579050509750638d0a9b1b60e01b736b175474e89094c44da98b954eedeac495271d0f88878585604051602001610623929190612c3c565b60408051601f198184030181529082905261064394939291602401612be9565b604051602081830303815290604052906001600160e01b0319166020820180516001600160e01b0383818316178352505050508860008151811061069757634e487b7160e01b600052603260045260246000fd5b60200260200101819052505050505050505094509492505050565b600063e0e90acf60e01b8383336040516024016106d193929190612c6a565b604051602081830303815290604052906001600160e01b0319166020820180516001600160e01b0383818316178352505050509050600080306001600160a01b0316836040516107219190612a01565b600060405180830381855af49150503d806000811461075c576040519150601f19603f3d011682016040523d82523d6000602084013e610761565b606091505b50915091508161082a5761082a7f00000000000000000000000000000000000000000000000000000000000000006001600160a01b03166306fdde036040518163ffffffff1660e01b815260040160006040518083038186803b1580156107c757600080fd5b505afa1580156107db573d6000803e3d6000fd5b505050506040513d6000823e601f3d908101601f1916820160405261080391908101906126e5565b6040516020016108139190612b39565b60408051601f198184030181529190528290611c0e565b5050505050565b6000826108405750600061093f565b60405163040b0d8960e51b8152735ef30b9986345249bc32d8928b7ee64de9435e3990638161b12090610877908690600401612ca8565b60206040518083038186803b15801561088f57600080fd5b505afa9250505080156108bf575060408051601f3d908101601f191682019092526108bc918101906126b1565b60015b61092e576108cb6130bc565b806108d65750610916565b806040516020016108e79190612b64565b60408051601f198184030181529082905262461bcd60e51b825261090d91600401612cc8565b60405180910390fd5b60405162461bcd60e51b815260040161090d90612d9d565b6001600160a01b0383811691161490505b92915050565b6000735ef30b9986345249bc32d8928b7ee64de9435e3981806109688386611c7c565b915091506000836001600160a01b03166336569e776040518163ffffffff1660e01b815260040160206040518083038186803b1580156109a757600080fd5b505afa1580156109bb573d6000803e3d6000fd5b505050506040513d601f19601f820116820180604052508101906109df91906126b1565b90506000816001600160a01b031663d9638d36856040518263ffffffff1660e01b8152600401610a0f9190612ca8565b60a06040518083038186803b158015610a2757600080fd5b505afa158015610a3b573d6000803e3d6000fd5b505050506040513d601f19601f82011682018060405250810190610a5f9190612900565b5050509150506000826001600160a01b0316632424be5c86866040518363ffffffff1660e01b8152600401610a95929190612cb1565b604080518083038186803b158015610aac57600080fd5b505afa158015610ac0573d6000803e3d6000fd5b505050506040513d601f19601f82011682018060405250810190610ae4919061288c565b9150506000836001600160a01b0316636c25b346866040518263ffffffff1660e01b8152600401610b159190612ba1565b60206040518083038186803b158015610b2d57600080fd5b505afa158015610b41573d6000803e3d6000fd5b505050506040513d601f19601f82011682018060405250810190610b6591906126cd565b90506000610b7c610b768486611d83565b83611dc3565b9050610b946b033b2e3c9fd0803ce800000082612ed2565b985080610bad8a6b033b2e3c9fd0803ce8000000611d83565b10610bb85788610bc3565b610bc3896001612eba565b9a9950505050505050505050565b600061093f82670df27a2cdf448000611df1565b600080735ef30b9986345249bc32d8928b7ee64de9435e3990506000816001600160a01b03166336569e776040518163ffffffff1660e01b815260040160206040518083038186803b158015610c3a57600080fd5b505afa158015610c4e573d6000803e3d6000fd5b505050506040513d601f19601f82011682018060405250810190610c7291906126b1565b9050600080610c818487611c7c565b915091506000836001600160a01b0316632424be5c84846040518363ffffffff1660e01b8152600401610cb5929190612cb1565b604080518083038186803b158015610ccc57600080fd5b505afa158015610ce0573d6000803e3d6000fd5b505050506040513d601f19601f82011682018060405250810190610d04919061288c565b50979650505050505050565b604051635a860c8760e01b8152600090819073a004a5afba04b74037e9e52ba1f7eb02b5e6150990635a860c8790610d4c908890600401612ba1565b60806040518083038186803b158015610d6457600080fd5b505afa158015610d78573d6000803e3d6000fd5b505050506040513d601f19601f82011682018060405250810190610d9c9190612788565b90508281600001511115610db4576000915050610e43565b828160200151118015610dce5750610dcc8484611e2b565b155b15610ddd576001915050610e43565b828160400151118015610df55750610df5858461211c565b15610e04576002915050610e43565b828160600151118015610e1c5750610e1c85846121a0565b15610e2b576003915050610e43565b60405162461bcd60e51b815260040161090d90612dd4565b9392505050565b6000610e6e826040518060600160405280603e815260200161317a603e91396121fb565b610e4383610ea757610e7e612223565b8360048110610e9d57634e487b7160e01b600052603260045260246000fd5b6020020151610ee1565b62030d40610eb3612223565b8460048110610ed257634e487b7160e01b600052603260045260246000fd5b6020020151610ee19190612eba565b61225e565b600061093f82610ef4612281565b611d83565b6000610e4382610f0a856012613019565b610ef490600a612f2c565b6040805160088082526101208201909252606091829190602082016101008036833701905050915073ac02030d8a8f49ed04b2f52c394d3f901a10f8a982600081518110610f7357634e487b7160e01b600052603260045260246000fd5b60200260200101906001600160a01b031690816001600160a01b03168152505073ac02030d8a8f49ed04b2f52c394d3f901a10f8a982600181518110610fc957634e487b7160e01b600052603260045260246000fd5b60200260200101906001600160a01b031690816001600160a01b0316815250507f00000000000000000000000000000000000000000000000000000000000000008260028151811061102b57634e487b7160e01b600052603260045260246000fd5b60200260200101906001600160a01b031690816001600160a01b03168152505073ac02030d8a8f49ed04b2f52c394d3f901a10f8a98260038151811061108157634e487b7160e01b600052603260045260246000fd5b60200260200101906001600160a01b031690816001600160a01b03168152505073ac02030d8a8f49ed04b2f52c394d3f901a10f8a9826004815181106110d757634e487b7160e01b600052603260045260246000fd5b60200260200101906001600160a01b031690816001600160a01b03168152505073e5398f279175962e56fe4c5e0b62dc7208ef36c68260058151811061112d57634e487b7160e01b600052603260045260246000fd5b60200260200101906001600160a01b031690816001600160a01b03168152505073e5398f279175962e56fe4c5e0b62dc7208ef36c68260068151811061118357634e487b7160e01b600052603260045260246000fd5b60200260200101906001600160a01b031690816001600160a01b03168152505073eb4bf86589f808f90eec8e964dbf16bd4d284905826007815181106111d957634e487b7160e01b600052603260045260246000fd5b6001600160a01b039290921660209283029190910182015260408051600880825261012082019092529182015b606081526020019060019003908161120657905050905061122e876000196000610258612330565b8160008151811061124f57634e487b7160e01b600052603260045260246000fd5b60200260200101819052506112698760001960008061238d565b8160018151811061128a57634e487b7160e01b600052603260045260246000fd5b60200260200101819052506113386000847f00000000000000000000000000000000000000000000000000000000000000006001600160a01b031663ddca3f436040518163ffffffff1660e01b815260040160206040518083038186803b1580156112f457600080fd5b505afa158015611308573d6000803e3d6000fd5b505050506040513d601f19601f8201168201806040525081019061132c91906126cd565b610258806102596123ae565b8160028151811061135957634e487b7160e01b600052603260045260246000fd5b60200260200101819052506113718685600080612411565b8160038151811061139257634e487b7160e01b600052603260045260246000fd5b60200260200101819052506113ad8660006102586000612432565b816004815181106113ce57634e487b7160e01b600052603260045260246000fd5b602002602001018190525061148e736b175474e89094c44da98b954eedeac495271d0f60007f00000000000000000000000000000000000000000000000000000000000000006001600160a01b031663c415b95c6040518163ffffffff1660e01b815260040160206040518083038186803b15801561144c57600080fd5b505afa158015611460573d6000803e3d6000fd5b505050506040513d601f19601f8201168201806040525081019061148491906126b1565b6102596000612453565b816005815181106114af57634e487b7160e01b600052603260045260246000fd5b60200260200101819052506114f0736b175474e89094c44da98b954eedeac495271d0f847398edc8067cc671bcae82d36dcc609c3e4e078ac8600080612453565b8160068151811061151157634e487b7160e01b600052603260045260246000fd5b602002602001018190525061153d736b175474e89094c44da98b954eedeac495271d0f866000806124b3565b8160078151811061155e57634e487b7160e01b600052603260045260246000fd5b60200260200101819052509550959350505050565b6040805160098082526101408201909252606091829190602082016101208036833701905050915073ac02030d8a8f49ed04b2f52c394d3f901a10f8a9826000815181106115d157634e487b7160e01b600052603260045260246000fd5b60200260200101906001600160a01b031690816001600160a01b03168152505073ac02030d8a8f49ed04b2f52c394d3f901a10f8a98260018151811061162757634e487b7160e01b600052603260045260246000fd5b60200260200101906001600160a01b031690816001600160a01b0316815250507f00000000000000000000000000000000000000000000000000000000000000008260028151811061168957634e487b7160e01b600052603260045260246000fd5b60200260200101906001600160a01b031690816001600160a01b03168152505073ac02030d8a8f49ed04b2f52c394d3f901a10f8a9826003815181106116df57634e487b7160e01b600052603260045260246000fd5b60200260200101906001600160a01b031690816001600160a01b03168152505073ac02030d8a8f49ed04b2f52c394d3f901a10f8a98260048151811061173557634e487b7160e01b600052603260045260246000fd5b60200260200101906001600160a01b031690816001600160a01b03168152505073ac02030d8a8f49ed04b2f52c394d3f901a10f8a98260058151811061178b57634e487b7160e01b600052603260045260246000fd5b60200260200101906001600160a01b031690816001600160a01b03168152505073e5398f279175962e56fe4c5e0b62dc7208ef36c6826006815181106117e157634e487b7160e01b600052603260045260246000fd5b60200260200101906001600160a01b031690816001600160a01b03168152505073e5398f279175962e56fe4c5e0b62dc7208ef36c68260078151811061183757634e487b7160e01b600052603260045260246000fd5b60200260200101906001600160a01b031690816001600160a01b03168152505073eb4bf86589f808f90eec8e964dbf16bd4d2849058260088151811061188d57634e487b7160e01b600052603260045260246000fd5b6001600160a01b039290921660209283029190910182015260408051600980825261014082019092529182015b60608152602001906001900390816118ba5790505090506118e2886000196000610258612330565b8160008151811061190357634e487b7160e01b600052603260045260246000fd5b602002602001018190525061191d8860001960008061238d565b8160018151811061193e57634e487b7160e01b600052603260045260246000fd5b60200260200101819052506119a86000847f00000000000000000000000000000000000000000000000000000000000000006001600160a01b031663ddca3f436040518163ffffffff1660e01b815260040160206040518083038186803b1580156112f457600080fd5b816002815181106119c957634e487b7160e01b600052603260045260246000fd5b6020026020010181905250611a1387878080601f0160208091040260200160405190810160405280939291908181526020018383808284376000920191909152506124d492505050565b81600381518110611a3457634e487b7160e01b600052603260045260246000fd5b6020026020010181905250611a4d600085600080612411565b81600481518110611a6e57634e487b7160e01b600052603260045260246000fd5b6020026020010181905250611a896000806102586000612432565b81600581518110611aaa57634e487b7160e01b600052603260045260246000fd5b6020026020010181905250611b28736b175474e89094c44da98b954eedeac495271d0f60007f00000000000000000000000000000000000000000000000000000000000000006001600160a01b031663c415b95c6040518163ffffffff1660e01b815260040160206040518083038186803b15801561144c57600080fd5b81600681518110611b4957634e487b7160e01b600052603260045260246000fd5b6020026020010181905250611b8a736b175474e89094c44da98b954eedeac495271d0f847398edc8067cc671bcae82d36dcc609c3e4e078ac8600080612453565b81600781518110611bab57634e487b7160e01b600052603260045260246000fd5b6020026020010181905250611bd7736b175474e89094c44da98b954eedeac495271d0f866000806124b3565b81600881518110611bf857634e487b7160e01b600052603260045260246000fd5b6020026020010181905250965096945050505050565b60208251611c1c9190613060565b60041415611c6b57602082015162461bcd60e51b6001600160e01b031982161415611c5a5760448301925081836040516020016108e7929190612a1d565b816040516020016108e79190612a4c565b806040516020016108e79190612b01565b600080836001600160a01b0316632c2cb9fd846040518263ffffffff1660e01b8152600401611cab9190612ca8565b60206040518083038186803b158015611cc357600080fd5b505afa158015611cd7573d6000803e3d6000fd5b505050506040513d601f19601f82011682018060405250810190611cfb91906126cd565b604051632726b07360e01b81529092506001600160a01b03851690632726b07390611d2a908690600401612ca8565b60206040518083038186803b158015611d4257600080fd5b505afa158015611d56573d6000803e3d6000fd5b505050506040513d601f19601f82011682018060405250810190611d7a91906126b1565b90509250929050565b6000811580611da757508282611d998183612ffa565b9250611da59083612ed2565b145b61093f5760405162461bcd60e51b815260040161090d90612d0a565b600082611dd08382613019565b915081111561093f5760405162461bcd60e51b815260040161090d90612cdb565b6000670de0b6b3a7640000611e21611e098585611d83565b611e1c6002670de0b6b3a7640000612ed2565b612528565b610e439190612ed2565b600080735ef30b9986345249bc32d8928b7ee64de9435e3990506000816001600160a01b03166336569e776040518163ffffffff1660e01b815260040160206040518083038186803b158015611e8057600080fd5b505afa158015611e94573d6000803e3d6000fd5b505050506040513d601f19601f82011682018060405250810190611eb891906126b1565b9050600080611ec78488611c7c565b915091506000806000856001600160a01b031663d9638d36866040518263ffffffff1660e01b8152600401611efc9190612ca8565b60a06040518083038186803b158015611f1457600080fd5b505afa158015611f28573d6000803e3d6000fd5b505050506040513d601f19601f82011682018060405250810190611f4c9190612900565b50935050925092506000866001600160a01b0316636c25b346866040518263ffffffff1660e01b8152600401611f829190612ba1565b60206040518083038186803b158015611f9a57600080fd5b505afa158015611fae573d6000803e3d6000fd5b505050506040513d601f19601f82011682018060405250810190611fd291906126cd565b90506000876001600160a01b031663babe8a3f6040518163ffffffff1660e01b815260040160206040518083038186803b15801561200f57600080fd5b505afa158015612023573d6000803e3d6000fd5b505050506040513d601f19601f8201168201806040525081019061204791906126cd565b90506000886001600160a01b0316630dca59c16040518163ffffffff1660e01b815260040160206040518083038186803b15801561208457600080fd5b505afa158015612098573d6000803e3d6000fd5b505050506040513d601f19601f820116820180604052508101906120bc91906126cd565b905060006120cb8d8588612556565b905060006120d98783611d83565b90506120e58382612528565b92506120f18883612528565b9750856120fe8989611d83565b118061210957508383115b9f9e505050505050505050505050505050565b600081612128846125c2565b6001600160a01b0316633b1d21a26040518163ffffffff1660e01b815260040160206040518083038186803b15801561216057600080fd5b505afa158015612174573d6000803e3d6000fd5b505050506040513d601f19601f8201168201806040525081019061219891906126cd565b119392505050565b600081836001600160a01b03166370a08231733dfd23a6c5e8bbcfc9581d2e864a68feb6a076d36040518263ffffffff1660e01b81526004016121e39190612ba1565b60206040518083038186803b15801561216057600080fd5b80600483111561221e5760405162461bcd60e51b815260040161090d9190612cc8565b505050565b61222b61264c565b604051806080016040528062266fd88152602001622feb948152602001623c97b8815260200162424ca881525090505b90565b6000606461226d601e82612eba565b6122779084612ffa565b61093f9190612ed2565b60008073169e633a2d1e6c10dd91238ba11c4a708dfef37c6001600160a01b03166350d25bcd6040518163ffffffff1660e01b815260040160206040518083038186803b1580156122d157600080fd5b505afa1580156122e5573d6000803e3d6000fd5b505050506040513d601f19601f8201168201806040525081019061230991906126cd565b90506000811361232b5760405162461bcd60e51b815260040161090d90612d66565b905090565b606063d5e0da3660e01b858585856040516024016123519493929190612e4f565b60408051601f198184030181529190526020810180516001600160e01b03166001600160e01b0319909316929092179091529050949350505050565b606063674fb1b460e01b858585856040516024016123519493929190612e4f565b606063acd2fd9360e01b8787878787876040516024016123d396959493929190612e6a565b60408051601f198184030181529190526020810180516001600160e01b03166001600160e01b03199093169290921790915290509695505050505050565b6060632505c3d960e01b858585856040516024016123519493929190612e4f565b606063111d948260e01b858585856040516024016123519493929190612e4f565b6060634bd3ab8260e01b8686868686604051602401612476959493929190612bb5565b60408051601f198184030181529190526020810180516001600160e01b03166001600160e01b031990931692909217909152905095945050505050565b606063213980e860e01b858585856040516024016123519493929190612c16565b606063e4dcb06b60e01b826040516024016124ef9190612cc8565b60408051601f198184030181529190526020810180516001600160e01b03166001600160e01b0319909316929092179091529050919050565b6000826125358382612eba565b915081101561093f5760405162461bcd60e51b815260040161090d90612d38565b600081612578612572866b033b2e3c9fd0803ce8000000611d83565b85611dc3565b6125829190612ed2565b905061259a846b033b2e3c9fd0803ce8000000611d83565b6125a48284611d83565b106125af57806125ba565b6125ba816001612eba565b949350505050565b60405163104b29e960e01b815260009073e81f70cc7c0d46e12d70efc60607f16bbd617e889063104b29e9906125fc908590600401612ba1565b60206040518083038186803b15801561261457600080fd5b505afa158015612628573d6000803e3d6000fd5b505050506040513d601f19601f8201168201806040525081019061093f91906126b1565b60405180608001604052806004906020820280368337509192915050565b60008083601f84011261267b578182fd5b50813567ffffffffffffffff811115612692578182fd5b6020830191508360208285010111156126aa57600080fd5b9250929050565b6000602082840312156126c2578081fd5b8151610e4381613161565b6000602082840312156126de578081fd5b5051919050565b6000602082840312156126f6578081fd5b815167ffffffffffffffff8082111561270d578283fd5b818401915084601f830112612720578283fd5b815181811115612732576127326130a0565b604051601f8201601f191681016020018381118282101715612756576127566130a0565b60405281815283820160200187101561276d578485fd5b61277e826020830160208701613030565b9695505050505050565b600060808284031215612799578081fd5b6040516080810181811067ffffffffffffffff821117156127bc576127bc6130a0565b8060405250825181526020830151602082015260408301516040820152606083015160608201528091505092915050565b6000602082840312156127fe578081fd5b5035919050565b600080600080600080600060c0888a03121561281f578283fd5b87359650602088013561283181613161565b9550604088013567ffffffffffffffff81111561284c578384fd5b6128588a828b0161266a565b90965094505060608801356004811061286f578384fd5b969995985093969295946080840135945060a09093013592915050565b6000806040838503121561289e578182fd5b505080516020909101519092909150565b600080600080606085870312156128c4578384fd5b8435935060208501359250604085013567ffffffffffffffff8111156128e8578283fd5b6128f48782880161266a565b95989497509550505050565b600080600080600060a08688031215612917578081fd5b5050835160208501516040860151606087015160809097015192989197509594509092509050565b6000815180845260208085019450808401835b838110156129775781516001600160a01b031687529582019590820190600101612952565b509495945050505050565b6000815180845260208085018081965082840281019150828601855b858110156129c85782840389526129b68483516129d5565b9885019893509084019060010161299e565b5091979650505050505050565b600081518084526129ed816020860160208601613030565b601f01601f19169290920160200192915050565b60008251612a13818460208701613030565b9190910192915050565b60008351612a2f818460208801613030565b835190830190612a43818360208801613030565b01949350505050565b60008251612a5e818460208701613030565b6e2737a2b93937b929b2b632b1ba37b960891b920191825250600f01919050565b60008251612a91818460208701613030565b7f3a205661756c74204964206973206e6f742076616c6964000000000000000000920191825250601701919050565b60008251612ad2818460208701613030565b7f3a205661756c74206e6f74206f776e6564206279206473610000000000000000920191825250601801919050565b60008251612b13818460208701613030565b73556e657870656374656452657475726e6461746160601b920191825250601401919050565b60008251612b4b818460208701613030565b66172fb1b0b9ba1d60c91b920191825250600701919050565b6000742326b0b5b2b9172fb4b9ab30bab63a27bbb732b91d60591b82528251612b94816015850160208701613030565b9190910160150192915050565b6001600160a01b0391909116815260200190565b6001600160a01b03958616815260208101949094529190931660408301526060820192909252608081019190915260a00190565b600060018060a01b03861682528460208301528360408301526080606083015261277e60808301846129d5565b6001600160a01b0394909416845260208401929092526040830152606082015260800190565b600060408252612c4f604083018561293f565b8281036020840152612c618185612982565b95945050505050565b600060608252612c7d606083018661293f565b8281036020840152612c8f8186612982565b91505060018060a01b0383166040830152949350505050565b90815260200190565b9182526001600160a01b0316602082015260400190565b600060208252610e4360208301846129d5565b60208082526015908201527464732d6d6174682d7375622d756e646572666c6f7760581b604082015260600190565b60208082526014908201527364732d6d6174682d6d756c2d6f766572666c6f7760601b604082015260600190565b60208082526014908201527364732d6d6174682d6164642d6f766572666c6f7760601b604082015260600190565b6020808252601b908201527f5f67657447656c61746f47617350726963653a306f7242656c6f770000000000604082015260600190565b6020808252601e908201527f464d616b65722e5f69735661756c744f776e65723a756e646566696e65640000604082015260600190565b6020808252602e908201527f4647656c61746f446562744272696467652e5f676574466c6173684c6f616e5260408201526d1bdd5d194e881a5b1b1a5c5d5a5960921b606082015260800190565b9283526001600160a01b03918216602084015216604082015260600190565b918252602082015260400190565b93845260208401929092526040830152606082015260800190565b958652602086019490945260408501929092526060840152608083015260a082015260c00190565b60008085851115612ea1578182fd5b83861115612ead578182fd5b5050820193919092039150565b60008219821115612ecd57612ecd613074565b500190565b600082612ee157612ee161308a565b500490565b80825b6001808611612ef85750612f23565b818704821115612f0a57612f0a613074565b80861615612f1757918102915b9490941c938002612ee9565b94509492505050565b6000610e436000198484600082612f4557506001610e43565b81612f5257506000610e43565b8160018114612f685760028114612f7257612f9f565b6001915050610e43565b60ff841115612f8357612f83613074565b6001841b915084821115612f9957612f99613074565b50610e43565b5060208310610133831016604e8410600b8410161715612fd2575081810a83811115612fcd57612fcd613074565b610e43565b612fdf8484846001612ee6565b808604821115612ff157612ff1613074565b02949350505050565b600081600019048311821515161561301457613014613074565b500290565b60008282101561302b5761302b613074565b500390565b60005b8381101561304b578181015183820152602001613033565b8381111561305a576000848401525b50505050565b60008261306f5761306f61308a565b500690565b634e487b7160e01b600052601160045260246000fd5b634e487b7160e01b600052601260045260246000fd5b634e487b7160e01b600052604160045260246000fd5b60e01c90565b600060443d10156130cc5761225b565b600481823e6308c379a06130e082516130b6565b146130ea5761225b565b6040513d600319016004823e80513d67ffffffffffffffff816024840111818411171561311a575050505061225b565b82840192508251915080821115613134575050505061225b565b503d8301602082840101111561314c5750505061225b565b601f01601f1916810160200160405291505090565b6001600160a01b038116811461317657600080fd5b5056fe4647656c61746f446562744272696467652e5f676574476173436f73744d616b6572546f4d616b65723a20696e76616c696420726f75746520696e646578436f6e6e65637447656c61746f446174614d616b6572546f4d616b65722d76332e30a264697066735822122029263fe9aa9240507c1c5aacdaf74bfe68f4dc53c25ab5192aa7a5560eb2de5d64736f6c63430008000033",
  "devdoc": {
    "kind": "dev",
    "methods": {
      "connectorID()": {
        "details": "Connector Details"
      },
      "getDataAndCastMakerToMaker(uint256,uint256,string)": {
        "details": "payable to be compatible in conjunction with DSA.cast payable target",
        "params": {
          "_colType": "colType of the new vault. example : ETH-B, ETH-A.",
          "_vaultAId": "Id of the unsafe vault of the client of Vault A Collateral.",
          "_vaultBId": "Id of the vault B Collateral of the client."
        }
      }
    },
    "version": 1
  },
  "userdoc": {
    "kind": "user",
    "methods": {
      "getDataAndCastMakerToMaker(uint256,uint256,string)": {
        "notice": "Entry Point for DSA.cast DebtBridge from e.g ETH-A to ETH-B"
      }
    },
    "version": 1
  },
  "storageLayout": {
    "storage": [],
    "types": null
  }
}