{
  "address": "0xe4F7B402a3a4A6cceEfbA208C0814770a0731e70",
  "abi": [
    {
      "inputs": [
        {
          "internalType": "uint256",
          "name": "__id",
          "type": "uint256"
        },
        {
          "internalType": "address",
          "name": "_oracleAggregator",
          "type": "address"
        },
        {
          "internalType": "address",
          "name": "__instaFeeCollector",
          "type": "address"
        },
        {
          "internalType": "address",
          "name": "__connectGelatoDebtBridgeFee",
          "type": "address"
        }
      ],
      "stateMutability": "nonpayable",
      "type": "constructor"
    },
    {
      "inputs": [],
      "name": "OK",
      "outputs": [
        {
          "internalType": "string",
          "name": "",
          "type": "string"
        }
      ],
      "stateMutability": "view",
      "type": "function"
    },
    {
      "inputs": [],
      "name": "connectGelatoDataFromMakerAddr",
      "outputs": [
        {
          "internalType": "address",
          "name": "",
          "type": "address"
        }
      ],
      "stateMutability": "view",
      "type": "function"
    },
    {
      "inputs": [],
      "name": "connectorID",
      "outputs": [
        {
          "internalType": "uint256",
          "name": "_type",
          "type": "uint256"
        },
        {
          "internalType": "uint256",
          "name": "id",
          "type": "uint256"
        }
      ],
      "stateMutability": "view",
      "type": "function"
    },
    {
      "inputs": [
        {
          "internalType": "uint256",
          "name": "_vaultId",
          "type": "uint256"
        },
        {
          "internalType": "address",
          "name": "_colToken",
          "type": "address"
        }
      ],
      "name": "getDataAndCastMakerToCompound",
      "outputs": [],
      "stateMutability": "payable",
      "type": "function"
    },
    {
      "inputs": [],
      "name": "instaFeeCollector",
      "outputs": [
        {
          "internalType": "address",
          "name": "",
          "type": "address"
        }
      ],
      "stateMutability": "view",
      "type": "function"
    },
    {
      "inputs": [],
      "name": "name",
      "outputs": [
        {
          "internalType": "string",
          "name": "",
          "type": "string"
        }
      ],
      "stateMutability": "view",
      "type": "function"
    },
    {
      "inputs": [],
      "name": "oracleAggregator",
      "outputs": [
        {
          "internalType": "address",
          "name": "",
          "type": "address"
        }
      ],
      "stateMutability": "view",
      "type": "function"
    },
    {
      "inputs": [
        {
          "internalType": "uint256",
          "name": "",
          "type": "uint256"
        },
        {
          "internalType": "address",
          "name": "_dsa",
          "type": "address"
        },
        {
          "internalType": "bytes",
          "name": "_actionData",
          "type": "bytes"
        },
        {
          "internalType": "enum DataFlow",
          "name": "",
          "type": "uint8"
        },
        {
          "internalType": "uint256",
          "name": "",
          "type": "uint256"
        },
        {
          "internalType": "uint256",
          "name": "",
          "type": "uint256"
        }
      ],
      "name": "termsOk",
      "outputs": [
        {
          "internalType": "string",
          "name": "",
          "type": "string"
        }
      ],
      "stateMutability": "view",
      "type": "function"
    }
  ],
  "transactionHash": "0x5cc74a42cb7b92ad848d6cc14121ff91ea489323ccd5a73598358d791549251b",
  "args": [
    80,
    "0x64f31D46C52bBDe223D863B11dAb9327aB1414E9",
    "0x0c159985E905ea1A3dA7305D70583Dd618862cf4",
    "0x9B6eeB49390626Dec7B3785D38879746923B308E"
  ],
  "solcInputHash": "06ff1a108d21b21e4ca3839d365cb0b5",
  "bytecode": "0x6101206040523480156200001257600080fd5b5060405162003e2838038062003e2883398181016040528101906200003891906200015d565b8383838383608081815250508273ffffffffffffffffffffffffffffffffffffffff1660a08173ffffffffffffffffffffffffffffffffffffffff1660601b815250508173ffffffffffffffffffffffffffffffffffffffff1660c08173ffffffffffffffffffffffffffffffffffffffff1660601b815250508073ffffffffffffffffffffffffffffffffffffffff166101008173ffffffffffffffffffffffffffffffffffffffff1660601b815250503073ffffffffffffffffffffffffffffffffffffffff1660e08173ffffffffffffffffffffffffffffffffffffffff1660601b8152505050505050505050506200023b565b600081519050620001408162000207565b92915050565b600081519050620001578162000221565b92915050565b600080600080608085870312156200017457600080fd5b6000620001848782880162000146565b945050602062000197878288016200012f565b9350506040620001aa878288016200012f565b9250506060620001bd878288016200012f565b91505092959194509250565b6000620001d682620001dd565b9050919050565b600073ffffffffffffffffffffffffffffffffffffffff82169050919050565b6000819050919050565b6200021281620001c9565b81146200021e57600080fd5b50565b6200022c81620001fd565b81146200023857600080fd5b50565b60805160a05160601c60c05160601c60e05160601c6101005160601c613b80620002a860003960006113950152600081816101fa015261097e0152600081816102420152818161183a01526119fe01526000818161021e0152610601015260006102c50152613b806000f3fe60806040526004361061007b5760003560e01c8063d48fe2801161004e578063d48fe2801461012c578063e588576e14610157578063eb15f78114610173578063eb9e71261461019f5761007b565b806306fdde031461008057806308b0e9ce146100ab5780638dffe3f4146100d6578063bc95af3114610101575b600080fd5b34801561008c57600080fd5b506100956101dc565b6040516100a2919061323f565b60405180910390f35b3480156100b757600080fd5b506100c06101f8565b6040516100cd9190613080565b60405180910390f35b3480156100e257600080fd5b506100eb61021c565b6040516100f89190613080565b60405180910390f35b34801561010d57600080fd5b50610116610240565b6040516101239190613080565b60405180910390f35b34801561013857600080fd5b50610141610264565b60405161014e919061323f565b60405180910390f35b610171600480360381019061016c9190612866565b61029d565b005b34801561017f57600080fd5b506101886102be565b604051610196929190613373565b60405180910390f35b3480156101ab57600080fd5b506101c660048036038101906101c191906128a2565b6102f0565b6040516101d3919061323f565b60405180910390f35b604051806060016040528060258152602001613b266025913981565b7f000000000000000000000000000000000000000000000000000000000000000081565b7f000000000000000000000000000000000000000000000000000000000000000081565b7f000000000000000000000000000000000000000000000000000000000000000081565b6040518060400160405280600281526020017f4f4b00000000000000000000000000000000000000000000000000000000000081525081565b6000806102aa84846104c7565b915091506102b88282610889565b50505050565b60008060017f000000000000000000000000000000000000000000000000000000000000000080925081935050509091565b60606000868660049060249261030893929190613574565b8101906103159190612814565b905060008114156103ca573073ffffffffffffffffffffffffffffffffffffffff166306fdde036040518163ffffffff1660e01b815260040160006040518083038186803b15801561036657600080fd5b505afa15801561037a573d6000803e3d6000fd5b505050506040513d6000823e3d601f19601f820116820180604052508101906103a391906127aa565b6040516020016103b39190612fd6565b6040516020818303038152906040529150506104bc565b6103d48189610a55565b610482573073ffffffffffffffffffffffffffffffffffffffff166306fdde036040518163ffffffff1660e01b815260040160006040518083038186803b15801561041e57600080fd5b505afa158015610432573d6000803e3d6000fd5b505050506040513d6000823e3d601f19601f8201168201806040525081019061045b91906127aa565b60405160200161046b9190612ff8565b6040516020818303038152906040529150506104bc565b6040518060400160405280600281526020017f4f4b0000000000000000000000000000000000000000000000000000000000008152509150505b979650505050505050565b606080600167ffffffffffffffff81111561050b577f4e487b7100000000000000000000000000000000000000000000000000000000600052604160045260246000fd5b6040519080825280602002602001820160405280156105395781602001602082028036833780820191505090505b50915073eb4bf86589f808f90eec8e964dbf16bd4d2849058260008151811061058b577f4e487b7100000000000000000000000000000000000000000000000000000000600052603260045260246000fd5b602002602001019073ffffffffffffffffffffffffffffffffffffffff16908173ffffffffffffffffffffffffffffffffffffffff168152505060006105d86105d386610be5565b610eaf565b905060006105fa736b175474e89094c44da98b954eedeac495271d0f83610eca565b90506000807f000000000000000000000000000000000000000000000000000000000000000073ffffffffffffffffffffffffffffffffffffffff16633c772b6c61064c61064786611005565b61107d565b73eeeeeeeeeeeeeeeeeeeeeeeeeeeeeeeeeeeeeeee736b175474e89094c44da98b954eedeac495271d0f6040518463ffffffff1660e01b81526004016106949392919061333c565b604080518083038186803b1580156106ab57600080fd5b505afa1580156106bf573d6000803e3d6000fd5b505050506040513d601f19601f820116820180604052508101906106e39190612949565b915091506106f18183611097565b915060008061070b8a8a886107058e6110c3565b8861120c565b91509150600167ffffffffffffffff811115610750577f4e487b7100000000000000000000000000000000000000000000000000000000600052604160045260246000fd5b60405190808252806020026020018201604052801561078357816020015b606081526020019060019003908161076e5790505b509650638d0a9b1b60e01b736b175474e89094c44da98b954eedeac495271d0f878785856040516020016107b892919061317f565b6040516020818303038152906040526040516024016107da94939291906130ee565b604051602081830303815290604052907bffffffffffffffffffffffffffffffffffffffffffffffffffffffff19166020820180517bffffffffffffffffffffffffffffffffffffffffffffffffffffffff838183161783525050505087600081518110610871577f4e487b7100000000000000000000000000000000000000000000000000000000600052603260045260246000fd5b60200260200101819052505050505050509250929050565b600063e0e90acf60e01b8383336040516024016108a8939291906131b6565b604051602081830303815290604052907bffffffffffffffffffffffffffffffffffffffffffffffffffffffff19166020820180517bffffffffffffffffffffffffffffffffffffffffffffffffffffffff838183161783525050505090506000803073ffffffffffffffffffffffffffffffffffffffff168360405161092f9190612f79565b600060405180830381855af49150503d806000811461096a576040519150601f19603f3d011682016040523d82523d6000602084013e61096f565b606091505b509150915081610a4e57610a4d7f000000000000000000000000000000000000000000000000000000000000000073ffffffffffffffffffffffffffffffffffffffff166306fdde036040518163ffffffff1660e01b815260040160006040518083038186803b1580156109e257600080fd5b505afa1580156109f6573d6000803e3d6000fd5b505050506040513d6000823e3d601f19601f82011682018060405250810190610a1f91906127aa565b604051602001610a2f919061303c565b60405160208183030381529060405282611bd490919063ffffffff16565b5b5050505050565b600080831415610a685760009050610bdf565b735ef30b9986345249bc32d8928b7ee64de9435e3973ffffffffffffffffffffffffffffffffffffffff16638161b120846040518263ffffffff1660e01b8152600401610ab59190613321565b60206040518083038186803b158015610acd57600080fd5b505afa925050508015610afe57506040513d601f19601f82011682018060405250810190610afb9190612706565b60015b610bac57610b0a6139ab565b80610b155750610b71565b80604051602001610b26919061305e565b6040516020818303038152906040526040517f08c379a0000000000000000000000000000000000000000000000000000000008152600401610b68919061323f565b60405180910390fd5b6040517f08c379a0000000000000000000000000000000000000000000000000000000008152600401610ba3906132e1565b60405180910390fd5b8073ffffffffffffffffffffffffffffffffffffffff168373ffffffffffffffffffffffffffffffffffffffff16149150505b92915050565b600080735ef30b9986345249bc32d8928b7ee64de9435e399050600080610c0c8386611d3d565b9150915060008373ffffffffffffffffffffffffffffffffffffffff166336569e776040518163ffffffff1660e01b815260040160206040518083038186803b158015610c5857600080fd5b505afa158015610c6c573d6000803e3d6000fd5b505050506040513d601f19601f82011682018060405250810190610c909190612706565b905060008173ffffffffffffffffffffffffffffffffffffffff1663d9638d36856040518263ffffffff1660e01b8152600401610ccd91906131fb565b60a06040518083038186803b158015610ce557600080fd5b505afa158015610cf9573d6000803e3d6000fd5b505050506040513d601f19601f82011682018060405250810190610d1d9190612985565b50505091505060008273ffffffffffffffffffffffffffffffffffffffff16632424be5c86866040518363ffffffff1660e01b8152600401610d60929190613216565b604080518083038186803b158015610d7757600080fd5b505afa158015610d8b573d6000803e3d6000fd5b505050506040513d601f19601f82011682018060405250810190610daf9190612949565b91505060008373ffffffffffffffffffffffffffffffffffffffff16636c25b346866040518263ffffffff1660e01b8152600401610ded9190613080565b60206040518083038186803b158015610e0557600080fd5b505afa158015610e19573d6000803e3d6000fd5b505050506040513d601f19601f82011682018060405250810190610e3d919061283d565b90506000610e54610e4e8486611e5d565b83611eca565b90506b033b2e3c9fd0803ce800000081610e6e91906135fd565b985080610e878a6b033b2e3c9fd0803ce8000000611e5d565b10610e925788610ea0565b600189610e9f91906135a7565b5b98505050505050505050919050565b6000610ec382670df27a2cdf448000611f23565b9050919050565b60008073a004a5afba04b74037e9e52ba1f7eb02b5e6150973ffffffffffffffffffffffffffffffffffffffff16635a860c87856040518263ffffffff1660e01b8152600401610f1a9190613080565b60806040518083038186803b158015610f3257600080fd5b505afa158015610f46573d6000803e3d6000fd5b505050506040513d601f19601f82011682018060405250810190610f6a91906127eb565b90508281600001511115610f82576000915050610fff565b8281602001511115610f98576001915050610fff565b8281604001511115610fae576002915050610fff565b8281606001511115610fc4576003915050610fff565b6040517f08c379a0000000000000000000000000000000000000000000000000000000008152600401610ff690613301565b60405180910390fd5b92915050565b600061102982604051806080016040528060418152602001613ae560419139611f67565b611076611034611fb3565b836004811061106c577f4e487b7100000000000000000000000000000000000000000000000000000000600052603260045260246000fd5b6020020151611fed565b9050919050565b60006110908261108b61201b565b611e5d565b9050919050565b60006110bb828460126110aa91906137f9565b600a6110b69190613681565b611e5d565b905092915050565b600080735ef30b9986345249bc32d8928b7ee64de9435e39905060008173ffffffffffffffffffffffffffffffffffffffff166336569e776040518163ffffffff1660e01b815260040160206040518083038186803b15801561112557600080fd5b505afa158015611139573d6000803e3d6000fd5b505050506040513d601f19601f8201168201806040525081019061115d9190612706565b905060008061116c8487611d3d565b9150915060008373ffffffffffffffffffffffffffffffffffffffff16632424be5c84846040518363ffffffff1660e01b81526004016111ad929190613216565b604080518083038186803b1580156111c457600080fd5b505afa1580156111d8573d6000803e3d6000fd5b505050506040513d601f19601f820116820180604052508101906111fc9190612949565b5090508095505050505050919050565b606080600867ffffffffffffffff811115611250577f4e487b7100000000000000000000000000000000000000000000000000000000600052604160045260246000fd5b60405190808252806020026020018201604052801561127e5781602001602082028036833780820191505090505b50915073ac02030d8a8f49ed04b2f52c394d3f901a10f8a9826000815181106112d0577f4e487b7100000000000000000000000000000000000000000000000000000000600052603260045260246000fd5b602002602001019073ffffffffffffffffffffffffffffffffffffffff16908173ffffffffffffffffffffffffffffffffffffffff168152505073ac02030d8a8f49ed04b2f52c394d3f901a10f8a982600181518110611359577f4e487b7100000000000000000000000000000000000000000000000000000000600052603260045260246000fd5b602002602001019073ffffffffffffffffffffffffffffffffffffffff16908173ffffffffffffffffffffffffffffffffffffffff16815250507f0000000000000000000000000000000000000000000000000000000000000000826002815181106113ee577f4e487b7100000000000000000000000000000000000000000000000000000000600052603260045260246000fd5b602002602001019073ffffffffffffffffffffffffffffffffffffffff16908173ffffffffffffffffffffffffffffffffffffffff16815250507315fdd1e902cac70786fe7d31013b1a806764b5a282600381518110611477577f4e487b7100000000000000000000000000000000000000000000000000000000600052603260045260246000fd5b602002602001019073ffffffffffffffffffffffffffffffffffffffff16908173ffffffffffffffffffffffffffffffffffffffff16815250507315fdd1e902cac70786fe7d31013b1a806764b5a282600481518110611500577f4e487b7100000000000000000000000000000000000000000000000000000000600052603260045260246000fd5b602002602001019073ffffffffffffffffffffffffffffffffffffffff16908173ffffffffffffffffffffffffffffffffffffffff168152505073e5398f279175962e56fe4c5e0b62dc7208ef36c682600581518110611589577f4e487b7100000000000000000000000000000000000000000000000000000000600052603260045260246000fd5b602002602001019073ffffffffffffffffffffffffffffffffffffffff16908173ffffffffffffffffffffffffffffffffffffffff168152505073e5398f279175962e56fe4c5e0b62dc7208ef36c682600681518110611612577f4e487b7100000000000000000000000000000000000000000000000000000000600052603260045260246000fd5b602002602001019073ffffffffffffffffffffffffffffffffffffffff16908173ffffffffffffffffffffffffffffffffffffffff168152505073eb4bf86589f808f90eec8e964dbf16bd4d2849058260078151811061169b577f4e487b7100000000000000000000000000000000000000000000000000000000600052603260045260246000fd5b602002602001019073ffffffffffffffffffffffffffffffffffffffff16908173ffffffffffffffffffffffffffffffffffffffff1681525050600867ffffffffffffffff811115611716577f4e487b7100000000000000000000000000000000000000000000000000000000600052604160045260246000fd5b60405190808252806020026020018201604052801561174957816020015b60608152602001906001900390816117345790505b50905061177b877fffffffffffffffffffffffffffffffffffffffffffffffffffffffffffffffff60006102586120fc565b816000815181106117b5577f4e487b7100000000000000000000000000000000000000000000000000000000600052603260045260246000fd5b60200260200101819052506117ed877fffffffffffffffffffffffffffffffffffffffffffffffffffffffffffffffff600080612184565b81600181518110611827577f4e487b7100000000000000000000000000000000000000000000000000000000600052603260045260246000fd5b60200260200101819052506118e26000847f000000000000000000000000000000000000000000000000000000000000000073ffffffffffffffffffffffffffffffffffffffff1663ddca3f436040518163ffffffff1660e01b815260040160206040518083038186803b15801561189e57600080fd5b505afa1580156118b2573d6000803e3d6000fd5b505050506040513d601f19601f820116820180604052508101906118d6919061283d565b6102588061025961220c565b8160028151811061191c577f4e487b7100000000000000000000000000000000000000000000000000000000600052603260045260246000fd5b6020026020010181905250611934868560008061229a565b8160038151811061196e577f4e487b7100000000000000000000000000000000000000000000000000000000600052603260045260246000fd5b602002602001018190525061199d736b175474e89094c44da98b954eedeac495271d0f60006102586000612322565b816004815181106119d7577f4e487b7100000000000000000000000000000000000000000000000000000000600052603260045260246000fd5b6020026020010181905250611aa4736b175474e89094c44da98b954eedeac495271d0f60007f000000000000000000000000000000000000000000000000000000000000000073ffffffffffffffffffffffffffffffffffffffff1663c415b95c6040518163ffffffff1660e01b815260040160206040518083038186803b158015611a6257600080fd5b505afa158015611a76573d6000803e3d6000fd5b505050506040513d601f19601f82011682018060405250810190611a9a919061272f565b61025960006123aa565b81600581518110611ade577f4e487b7100000000000000000000000000000000000000000000000000000000600052603260045260246000fd5b6020026020010181905250611b1f736b175474e89094c44da98b954eedeac495271d0f847398edc8067cc671bcae82d36dcc609c3e4e078ac86000806123aa565b81600681518110611b59577f4e487b7100000000000000000000000000000000000000000000000000000000600052603260045260246000fd5b6020026020010181905250611b85736b175474e89094c44da98b954eedeac495271d0f86600080612435565b81600781518110611bbf577f4e487b7100000000000000000000000000000000000000000000000000000000600052603260045260246000fd5b60200260200101819052509550959350505050565b600460208351611be491906138c2565b1415611ce1576000826020015190506308c379a060e01b817bffffffffffffffffffffffffffffffffffffffffffffffffffffffff19161415611c85576044830192508183604051602001611c3a929190612f90565b6040516020818303038152906040526040517f08c379a0000000000000000000000000000000000000000000000000000000008152600401611c7c919061323f565b60405180910390fd5b81604051602001611c969190612fb4565b6040516020818303038152906040526040517f08c379a0000000000000000000000000000000000000000000000000000000008152600401611cd8919061323f565b60405180910390fd5b80604051602001611cf2919061301a565b6040516020818303038152906040526040517f08c379a0000000000000000000000000000000000000000000000000000000008152600401611d34919061323f565b60405180910390fd5b6000808373ffffffffffffffffffffffffffffffffffffffff16632c2cb9fd846040518263ffffffff1660e01b8152600401611d799190613321565b60206040518083038186803b158015611d9157600080fd5b505afa158015611da5573d6000803e3d6000fd5b505050506040513d601f19601f82011682018060405250810190611dc99190612758565b91508373ffffffffffffffffffffffffffffffffffffffff16632726b073846040518263ffffffff1660e01b8152600401611e049190613321565b60206040518083038186803b158015611e1c57600080fd5b505afa158015611e30573d6000803e3d6000fd5b505050506040513d601f19601f82011682018060405250810190611e549190612706565b90509250929050565b600080821480611e85575082828385611e76919061379f565b925082611e8391906135fd565b145b611ec4576040517f08c379a0000000000000000000000000000000000000000000000000000000008152600401611ebb90613281565b60405180910390fd5b92915050565b6000828284611ed991906137f9565b9150811115611f1d576040517f08c379a0000000000000000000000000000000000000000000000000000000008152600401611f1490613261565b60405180910390fd5b92915050565b6000670de0b6b3a7640000611f55611f3b8585611e5d565b6002670de0b6b3a7640000611f5091906135fd565b6124bd565b611f5f91906135fd565b905092915050565b60048211158190611fae576040517f08c379a0000000000000000000000000000000000000000000000000000000008152600401611fa5919061323f565b60405180910390fd5b505050565b611fbb612516565b6040518060800160405280621ef3138152602001622814978152602001622cec41815260200162387070815250905090565b60006064601e6064611fff91906135a7565b8361200a919061379f565b61201491906135fd565b9050919050565b60008073169e633a2d1e6c10dd91238ba11c4a708dfef37c73ffffffffffffffffffffffffffffffffffffffff166350d25bcd6040518163ffffffff1660e01b815260040160206040518083038186803b15801561207857600080fd5b505afa15801561208c573d6000803e3d6000fd5b505050506040513d601f19601f820116820180604052508101906120b09190612781565b9050600081136120f5576040517f08c379a00000000000000000000000000000000000000000000000000000000081526004016120ec906132c1565b60405180910390fd5b8091505090565b606063d5e0da3660e01b8585858560405160240161211d949392919061339c565b604051602081830303815290604052907bffffffffffffffffffffffffffffffffffffffffffffffffffffffff19166020820180517bffffffffffffffffffffffffffffffffffffffffffffffffffffffff83818316178352505050509050949350505050565b606063674fb1b460e01b858585856040516024016121a5949392919061339c565b604051602081830303815290604052907bffffffffffffffffffffffffffffffffffffffffffffffffffffffff19166020820180517bffffffffffffffffffffffffffffffffffffffffffffffffffffffff83818316178352505050509050949350505050565b606063acd2fd9360e01b878787878787604051602401612231969594939291906133e1565b604051602081830303815290604052907bffffffffffffffffffffffffffffffffffffffffffffffffffffffff19166020820180517bffffffffffffffffffffffffffffffffffffffffffffffffffffffff838183161783525050505090509695505050505050565b606063ce88b43960e01b858585856040516024016122bb949392919061313a565b604051602081830303815290604052907bffffffffffffffffffffffffffffffffffffffffffffffffffffffff19166020820180517bffffffffffffffffffffffffffffffffffffffffffffffffffffffff83818316178352505050509050949350505050565b60606338baa4c260e01b85858585604051602401612343949392919061313a565b604051602081830303815290604052907bffffffffffffffffffffffffffffffffffffffffffffffffffffffff19166020820180517bffffffffffffffffffffffffffffffffffffffffffffffffffffffff83818316178352505050509050949350505050565b6060634bd3ab8260e01b86868686866040516024016123cd95949392919061309b565b604051602081830303815290604052907bffffffffffffffffffffffffffffffffffffffffffffffffffffffff19166020820180517bffffffffffffffffffffffffffffffffffffffffffffffffffffffff8381831617835250505050905095945050505050565b606063213980e860e01b85858585604051602401612456949392919061313a565b604051602081830303815290604052907bffffffffffffffffffffffffffffffffffffffffffffffffffffffff19166020820180517bffffffffffffffffffffffffffffffffffffffffffffffffffffffff83818316178352505050509050949350505050565b60008282846124cc91906135a7565b9150811015612510576040517f08c379a0000000000000000000000000000000000000000000000000000000008152600401612507906132a1565b60405180910390fd5b92915050565b6040518060800160405280600490602082028036833780820191505090505090565b600061254b61254684613473565b613442565b90508281526020810184848401111561256357600080fd5b61256e84828561388f565b509392505050565b60008135905061258581613a61565b92915050565b60008151905061259a81613a61565b92915050565b6000815190506125af81613a78565b92915050565b6000815190506125c481613a8f565b92915050565b60008083601f8401126125dc57600080fd5b8235905067ffffffffffffffff8111156125f557600080fd5b60208301915083600182028301111561260d57600080fd5b9250929050565b60008135905061262381613aa6565b92915050565b60008151905061263881613ab6565b92915050565b600082601f83011261264f57600080fd5b815161265f848260208601612538565b91505092915050565b60006080828403121561267a57600080fd5b6126846080613442565b90506000612694848285016126f1565b60008301525060206126a8848285016126f1565b60208301525060406126bc848285016126f1565b60408301525060606126d0848285016126f1565b60608301525092915050565b6000813590506126eb81613acd565b92915050565b60008151905061270081613acd565b92915050565b60006020828403121561271857600080fd5b60006127268482850161258b565b91505092915050565b60006020828403121561274157600080fd5b600061274f848285016125a0565b91505092915050565b60006020828403121561276a57600080fd5b6000612778848285016125b5565b91505092915050565b60006020828403121561279357600080fd5b60006127a184828501612629565b91505092915050565b6000602082840312156127bc57600080fd5b600082015167ffffffffffffffff8111156127d657600080fd5b6127e28482850161263e565b91505092915050565b6000608082840312156127fd57600080fd5b600061280b84828501612668565b91505092915050565b60006020828403121561282657600080fd5b6000612834848285016126dc565b91505092915050565b60006020828403121561284f57600080fd5b600061285d848285016126f1565b91505092915050565b6000806040838503121561287957600080fd5b6000612887858286016126dc565b925050602061289885828601612576565b9150509250929050565b600080600080600080600060c0888a0312156128bd57600080fd5b60006128cb8a828b016126dc565b97505060206128dc8a828b01612576565b965050604088013567ffffffffffffffff8111156128f957600080fd5b6129058a828b016125ca565b955095505060606129188a828b01612614565b93505060806129298a828b016126dc565b92505060a061293a8a828b016126dc565b91505092959891949750929550565b6000806040838503121561295c57600080fd5b600061296a858286016126f1565b925050602061297b858286016126f1565b9150509250929050565b600080600080600060a0868803121561299d57600080fd5b60006129ab888289016126f1565b95505060206129bc888289016126f1565b94505060406129cd888289016126f1565b93505060606129de888289016126f1565b92505060806129ef888289016126f1565b9150509295509295909350565b6000612a088383612a37565b60208301905092915050565b6000612a208383612b37565b905092915050565b612a318161383f565b82525050565b612a408161382d565b82525050565b612a4f8161382d565b82525050565b6000612a60826134c3565b612a6a8185613509565b9350612a75836134a3565b8060005b83811015612aa6578151612a8d88826129fc565b9750612a98836134ef565b925050600181019050612a79565b5085935050505092915050565b6000612abe826134ce565b612ac8818561351a565b935083602082028501612ada856134b3565b8060005b85811015612b165784840389528151612af78582612a14565b9450612b02836134fc565b925060208a01995050600181019050612ade565b50829750879550505050505092915050565b612b3181613851565b82525050565b6000612b42826134d9565b612b4c818561352b565b9350612b5c81856020860161388f565b612b6581613980565b840191505092915050565b6000612b7b826134d9565b612b85818561353c565b9350612b9581856020860161388f565b612b9e81613980565b840191505092915050565b6000612bb4826134d9565b612bbe818561354d565b9350612bce81856020860161388f565b80840191505092915050565b6000612be5826134e4565b612bef8185613558565b9350612bff81856020860161388f565b612c0881613980565b840191505092915050565b6000612c1e826134e4565b612c288185613569565b9350612c3881856020860161388f565b80840191505092915050565b6000612c51601583613558565b91507f64732d6d6174682d7375622d756e646572666c6f7700000000000000000000006000830152602082019050919050565b6000612c91601483613558565b91507f64732d6d6174682d6d756c2d6f766572666c6f770000000000000000000000006000830152602082019050919050565b6000612cd1601483613558565b91507f64732d6d6174682d6164642d6f766572666c6f770000000000000000000000006000830152602082019050919050565b6000612d11600f83613569565b91507f4e6f4572726f7253656c6563746f7200000000000000000000000000000000006000830152600f82019050919050565b6000612d51601b83613558565b91507f5f67657447656c61746f47617350726963653a306f7242656c6f7700000000006000830152602082019050919050565b6000612d91601583613569565b91507f464d616b65722e5f69735661756c744f776e65723a00000000000000000000006000830152601582019050919050565b6000612dd1601e83613558565b91507f464d616b65722e5f69735661756c744f776e65723a756e646566696e656400006000830152602082019050919050565b6000612e11601783613569565b91507f3a205661756c74204964206973206e6f742076616c69640000000000000000006000830152601782019050919050565b6000612e51601883613569565b91507f3a205661756c74206e6f74206f776e65642062792064736100000000000000006000830152601882019050919050565b6000612e91602e83613558565b91507f4647656c61746f446562744272696467652e5f676574466c6173684c6f616e5260008301527f6f7574653a20696c6c69717569640000000000000000000000000000000000006020830152604082019050919050565b6000612ef7601483613569565b91507f556e657870656374656452657475726e646174610000000000000000000000006000830152601482019050919050565b6000612f37600783613569565b91507f2e5f636173743a000000000000000000000000000000000000000000000000006000830152600782019050919050565b612f7381613885565b82525050565b6000612f858284612ba9565b915081905092915050565b6000612f9c8285612c13565b9150612fa88284612c13565b91508190509392505050565b6000612fc08284612c13565b9150612fcb82612d04565b915081905092915050565b6000612fe28284612c13565b9150612fed82612e04565b915081905092915050565b60006130048284612c13565b915061300f82612e44565b915081905092915050565b60006130268284612c13565b915061303182612eea565b915081905092915050565b60006130488284612c13565b915061305382612f2a565b915081905092915050565b600061306982612d84565b91506130758284612c13565b915081905092915050565b60006020820190506130956000830184612a46565b92915050565b600060a0820190506130b06000830188612a46565b6130bd6020830187612f6a565b6130ca6040830186612a28565b6130d76060830185612f6a565b6130e46080830184612f6a565b9695505050505050565b60006080820190506131036000830187612a46565b6131106020830186612f6a565b61311d6040830185612f6a565b818103606083015261312f8184612b70565b905095945050505050565b600060808201905061314f6000830187612a46565b61315c6020830186612f6a565b6131696040830185612f6a565b6131766060830184612f6a565b95945050505050565b600060408201905081810360008301526131998185612a55565b905081810360208301526131ad8184612ab3565b90509392505050565b600060608201905081810360008301526131d08186612a55565b905081810360208301526131e48185612ab3565b90506131f36040830184612a46565b949350505050565b60006020820190506132106000830184612b28565b92915050565b600060408201905061322b6000830185612b28565b6132386020830184612a46565b9392505050565b600060208201905081810360008301526132598184612bda565b905092915050565b6000602082019050818103600083015261327a81612c44565b9050919050565b6000602082019050818103600083015261329a81612c84565b9050919050565b600060208201905081810360008301526132ba81612cc4565b9050919050565b600060208201905081810360008301526132da81612d44565b9050919050565b600060208201905081810360008301526132fa81612dc4565b9050919050565b6000602082019050818103600083015261331a81612e84565b9050919050565b60006020820190506133366000830184612f6a565b92915050565b60006060820190506133516000830186612f6a565b61335e6020830185612a46565b61336b6040830184612a46565b949350505050565b60006040820190506133886000830185612f6a565b6133956020830184612f6a565b9392505050565b60006080820190506133b16000830187612f6a565b6133be6020830186612f6a565b6133cb6040830185612f6a565b6133d86060830184612f6a565b95945050505050565b600060c0820190506133f66000830189612f6a565b6134036020830188612f6a565b6134106040830187612f6a565b61341d6060830186612f6a565b61342a6080830185612f6a565b61343760a0830184612f6a565b979650505050505050565b6000604051905081810181811067ffffffffffffffff8211171561346957613468613951565b5b8060405250919050565b600067ffffffffffffffff82111561348e5761348d613951565b5b601f19601f8301169050602081019050919050565b6000819050602082019050919050565b6000819050602082019050919050565b600081519050919050565b600081519050919050565b600081519050919050565b600081519050919050565b6000602082019050919050565b6000602082019050919050565b600082825260208201905092915050565b600082825260208201905092915050565b600082825260208201905092915050565b600082825260208201905092915050565b600081905092915050565b600082825260208201905092915050565b600081905092915050565b6000808585111561358457600080fd5b8386111561359157600080fd5b6001850283019150848603905094509492505050565b60006135b282613885565b91506135bd83613885565b9250827fffffffffffffffffffffffffffffffffffffffffffffffffffffffffffffffff038211156135f2576135f16138f3565b5b828201905092915050565b600061360882613885565b915061361383613885565b92508261362357613622613922565b5b828204905092915050565b6000808291508390505b600185111561367857808604811115613654576136536138f3565b5b60018516156136635780820291505b808102905061367185613991565b9450613638565b94509492505050565b600061368c82613885565b915061369783613885565b92506136c47fffffffffffffffffffffffffffffffffffffffffffffffffffffffffffffffff84846136cc565b905092915050565b6000826136dc5760019050613798565b816136ea5760009050613798565b8160018114613700576002811461370a57613739565b6001915050613798565b60ff84111561371c5761371b6138f3565b5b8360020a915084821115613733576137326138f3565b5b50613798565b5060208310610133831016604e8410600b841016171561376e5782820a905083811115613769576137686138f3565b5b613798565b61377b848484600161362e565b92509050818404811115613792576137916138f3565b5b81810290505b9392505050565b60006137aa82613885565b91506137b583613885565b9250817fffffffffffffffffffffffffffffffffffffffffffffffffffffffffffffffff04831182151516156137ee576137ed6138f3565b5b828202905092915050565b600061380482613885565b915061380f83613885565b925082821015613822576138216138f3565b5b828203905092915050565b600061383882613865565b9050919050565b600061384a82613865565b9050919050565b6000819050919050565b6000819050919050565b600073ffffffffffffffffffffffffffffffffffffffff82169050919050565b6000819050919050565b60005b838110156138ad578082015181840152602081019050613892565b838111156138bc576000848401525b50505050565b60006138cd82613885565b91506138d883613885565b9250826138e8576138e7613922565b5b828206905092915050565b7f4e487b7100000000000000000000000000000000000000000000000000000000600052601160045260246000fd5b7f4e487b7100000000000000000000000000000000000000000000000000000000600052601260045260246000fd5b7f4e487b7100000000000000000000000000000000000000000000000000000000600052604160045260246000fd5b6000601f19601f8301169050919050565b60008160011c9050919050565b60008160e01c9050919050565b600060443d10156139bb57613a5e565b60046000803e6139cc60005161399e565b6308c379a081146139dd5750613a5e565b60405160043d036004823e80513d602482011167ffffffffffffffff82111715613a0957505050613a5e565b808201805167ffffffffffffffff811115613a28575050505050613a5e565b8060208301013d8501811115613a4357505050505050613a5e565b613a4c82613980565b60208401016040528296505050505050505b90565b613a6a8161382d565b8114613a7557600080fd5b50565b613a818161383f565b8114613a8c57600080fd5b50565b613a9881613851565b8114613aa357600080fd5b50565b60048110613ab357600080fd5b50565b613abf8161385b565b8114613aca57600080fd5b50565b613ad681613885565b8114613ae157600080fd5b5056fe4647656c61746f446562744272696467652e5f676574476173436f73744d616b6572546f436f6d706f756e643a20696e76616c696420726f75746520696e646578436f6e6e65637447656c61746f446174614d616b6572546f436f6d706f756e642d76312e30a26469706673582212203de76218f003464d0f3e98d9b9afc343cc7d375f4212f204e4f27f9dfb9cd24464736f6c63430008000033",
  "devdoc": {
    "kind": "dev",
    "methods": {
      "connectorID()": {
        "details": "Connector Details"
      },
      "getDataAndCastMakerToCompound(uint256,address)": {
        "details": "payable to be compatible in conjunction with DSA.cast payable target",
        "params": {
          "_colToken": "vault's col token address .",
          "_vaultId": "Id of the unsafe vault of the client."
        }
      }
    },
    "version": 1
  },
  "userdoc": {
    "kind": "user",
    "methods": {
      "getDataAndCastMakerToCompound(uint256,address)": {
        "notice": "Entry Point for DSA.cast DebtBridge from Maker to Compound"
      }
    },
    "version": 1
  },
  "storageLayout": {
    "storage": [],
    "types": null
  }
}