{
  "address": "0xCcdE1e59E747bE1c186f9b2b9Fd4Fb76BDFA8002",
  "abi": [
    {
      "inputs": [
        {
          "internalType": "uint256",
          "name": "__id",
          "type": "uint256"
        },
        {
          "internalType": "address",
          "name": "_oracleAggregator",
          "type": "address"
        },
        {
          "internalType": "address",
          "name": "__instaFeeCollector",
          "type": "address"
        },
        {
          "internalType": "address",
          "name": "__connectGelatoDebtBridgeFee",
          "type": "address"
        }
      ],
      "stateMutability": "nonpayable",
      "type": "constructor"
    },
    {
      "inputs": [],
      "name": "OK",
      "outputs": [
        {
          "internalType": "string",
          "name": "",
          "type": "string"
        }
      ],
      "stateMutability": "view",
      "type": "function"
    },
    {
      "inputs": [],
      "name": "connectGelatoDataFromMakerAddr",
      "outputs": [
        {
          "internalType": "address",
          "name": "",
          "type": "address"
        }
      ],
      "stateMutability": "view",
      "type": "function"
    },
    {
      "inputs": [],
      "name": "connectorID",
      "outputs": [
        {
          "internalType": "uint256",
          "name": "_type",
          "type": "uint256"
        },
        {
          "internalType": "uint256",
          "name": "id",
          "type": "uint256"
        }
      ],
      "stateMutability": "view",
      "type": "function"
    },
    {
      "inputs": [
        {
          "internalType": "uint256",
          "name": "_vaultId",
          "type": "uint256"
        },
        {
          "internalType": "address",
          "name": "_colToken",
          "type": "address"
        }
      ],
      "name": "getDataAndCastMakerToCompound",
      "outputs": [],
      "stateMutability": "payable",
      "type": "function"
    },
    {
      "inputs": [],
      "name": "instaFeeCollector",
      "outputs": [
        {
          "internalType": "address",
          "name": "",
          "type": "address"
        }
      ],
      "stateMutability": "view",
      "type": "function"
    },
    {
      "inputs": [],
      "name": "name",
      "outputs": [
        {
          "internalType": "string",
          "name": "",
          "type": "string"
        }
      ],
      "stateMutability": "view",
      "type": "function"
    },
    {
      "inputs": [],
      "name": "oracleAggregator",
      "outputs": [
        {
          "internalType": "address",
          "name": "",
          "type": "address"
        }
      ],
      "stateMutability": "view",
      "type": "function"
    },
    {
      "inputs": [
        {
          "internalType": "uint256",
          "name": "",
          "type": "uint256"
        },
        {
          "internalType": "address",
          "name": "_dsa",
          "type": "address"
        },
        {
          "internalType": "bytes",
          "name": "_actionData",
          "type": "bytes"
        },
        {
          "internalType": "enum DataFlow",
          "name": "",
          "type": "uint8"
        },
        {
          "internalType": "uint256",
          "name": "",
          "type": "uint256"
        },
        {
          "internalType": "uint256",
          "name": "",
          "type": "uint256"
        }
      ],
      "name": "termsOk",
      "outputs": [
        {
          "internalType": "string",
          "name": "",
          "type": "string"
        }
      ],
      "stateMutability": "view",
      "type": "function"
    }
  ],
  "transactionHash": "0x1734c6467d62beaaff651eab657d0b4395231243183573728e734c325bca8827",
  "args": [
    84,
    "0x64f31D46C52bBDe223D863B11dAb9327aB1414E9",
    "0x0c159985E905ea1A3dA7305D70583Dd618862cf4",
    "0x9B6eeB49390626Dec7B3785D38879746923B308E"
  ],
  "solcInputHash": "4b220f9f5ace9500863671bb012c293f",
  "bytecode": "0x6101206040523480156200001257600080fd5b5060405162002bd038038062002bd0833981016040819052620000359162000089565b6080939093526001600160601b0319606092831b811660a05290821b811660c05291811b9091166101005230901b60e052620000dc565b80516001600160a01b03811681146200008457600080fd5b919050565b600080600080608085870312156200009f578384fd5b84519350620000b1602086016200006c565b9250620000c1604086016200006c565b9150620000d1606086016200006c565b905092959194509250565b60805160a05160601c60c05160601c60e05160601c6101005160601c612a87620001496000396000610f6f01526000818161018201526107300152600081816101ca01528181611221015261138d0152600081816101a60152610486015260006102300152612a876000f3fe60806040526004361061007b5760003560e01c8063d48fe2801161004e578063d48fe280146100f7578063e588576e1461010c578063eb15f78114610121578063eb9e7126146101445761007b565b806306fdde031461008057806308b0e9ce146100ab5780638dffe3f4146100cd578063bc95af31146100e2575b600080fd5b34801561008c57600080fd5b50610095610164565b6040516100a2919061253e565b60405180910390f35b3480156100b757600080fd5b506100c0610180565b6040516100a29190612417565b3480156100d957600080fd5b506100c06101a4565b3480156100ee57600080fd5b506100c06101c8565b34801561010357600080fd5b506100956101ec565b61011f61011a366004612076565b61020a565b005b34801561012d57600080fd5b5061013661022b565b6040516100a29291906126b7565b34801561015057600080fd5b5061009561015f3660046120a5565b610252565b604051806060016040528060258152602001612a2d6025913981565b7f000000000000000000000000000000000000000000000000000000000000000081565b7f000000000000000000000000000000000000000000000000000000000000000081565b7f000000000000000000000000000000000000000000000000000000000000000081565b604051806040016040528060028152602001614f4b60f01b81525081565b60008061021784846103ce565b915091506102258282610672565b50505050565b6001907f000000000000000000000000000000000000000000000000000000000000000090565b6060600061026460246004888a612708565b810190610271919061205e565b90508061031457306001600160a01b03166306fdde036040518163ffffffff1660e01b815260040160006040518083038186803b1580156102b157600080fd5b505afa1580156102c5573d6000803e3d6000fd5b505050506040513d6000823e601f3d908101601f191682016040526102ed9190810190611f56565b6040516020016102fd91906122f5565b6040516020818303038152906040529150506103c3565b61031e81896107f1565b6103a757306001600160a01b03166306fdde036040518163ffffffff1660e01b815260040160006040518083038186803b15801561035b57600080fd5b505afa15801561036f573d6000803e3d6000fd5b505050506040513d6000823e601f3d908101601f191682016040526103979190810190611f56565b6040516020016102fd9190612336565b50506040805180820190915260028152614f4b60f01b60208201525b979650505050505050565b6040805160018082528183019092526060918291906020808301908036833701905050915073eb4bf86589f808f90eec8e964dbf16bd4d2849058260008151811061042957634e487b7160e01b600052603260045260246000fd5b60200260200101906001600160a01b031690816001600160a01b031681525050600061045c61045786610905565b610b91565b9050600061047f736b175474e89094c44da98b954eedeac495271d0f8784610bad565b90506000807f00000000000000000000000000000000000000000000000000000000000000006001600160a01b0316633c772b6c6104c46104bf86610ce7565b610d3f565b73eeeeeeeeeeeeeeeeeeeeeeeeeeeeeeeeeeeeeeee736b175474e89094c44da98b954eedeac495271d0f6040518463ffffffff1660e01b815260040161050c93929190612698565b604080518083038186803b15801561052357600080fd5b505afa158015610537573d6000803e3d6000fd5b505050506040513d601f19601f8201168201806040525081019061055b9190612153565b915091506105698183610d52565b91506000806105838a8a8861057d8e610d6e565b88610e99565b604080516001808252818301909252929450909250816020015b606081526020019060019003908161059d579050509650638d0a9b1b60e01b736b175474e89094c44da98b954eedeac495271d0f878785856040516020016105e69291906124b2565b60408051601f19818403018152908290526106069493929160240161245f565b604051602081830303815290604052906001600160e01b0319166020820180516001600160e01b0383818316178352505050508760008151811061065a57634e487b7160e01b600052603260045260246000fd5b60200260200101819052505050505050509250929050565b600063e0e90acf60e01b838333604051602401610691939291906124e0565b604051602081830303815290604052906001600160e01b0319166020820180516001600160e01b0383818316178352505050509050600080306001600160a01b0316836040516106e19190612277565b600060405180830381855af49150503d806000811461071c576040519150601f19603f3d011682016040523d82523d6000602084013e610721565b606091505b5091509150816107ea576107ea7f00000000000000000000000000000000000000000000000000000000000000006001600160a01b03166306fdde036040518163ffffffff1660e01b815260040160006040518083038186803b15801561078757600080fd5b505afa15801561079b573d6000803e3d6000fd5b505050506040513d6000823e601f3d908101601f191682016040526107c39190810190611f56565b6040516020016107d391906123af565b60408051601f19818403018152919052829061150b565b5050505050565b600082610800575060006108ff565b60405163040b0d8960e51b8152735ef30b9986345249bc32d8928b7ee64de9435e3990638161b1209061083790869060040161251e565b60206040518083038186803b15801561084f57600080fd5b505afa92505050801561087f575060408051601f3d908101601f1916820190925261087c91810190611f22565b60015b6108ee5761088b61292e565b8061089657506108d6565b806040516020016108a791906123da565b60408051601f198184030181529082905262461bcd60e51b82526108cd9160040161253e565b60405180910390fd5b60405162461bcd60e51b81526004016108cd90612613565b6001600160a01b0383811691161490505b92915050565b6000735ef30b9986345249bc32d8928b7ee64de9435e3981806109288386611579565b915091506000836001600160a01b03166336569e776040518163ffffffff1660e01b815260040160206040518083038186803b15801561096757600080fd5b505afa15801561097b573d6000803e3d6000fd5b505050506040513d601f19601f8201168201806040525081019061099f9190611f22565b90506000816001600160a01b031663d9638d36856040518263ffffffff1660e01b81526004016109cf919061251e565b60a06040518083038186803b1580156109e757600080fd5b505afa1580156109fb573d6000803e3d6000fd5b505050506040513d601f19601f82011682018060405250810190610a1f9190612176565b5050509150506000826001600160a01b0316632424be5c86866040518363ffffffff1660e01b8152600401610a55929190612527565b604080518083038186803b158015610a6c57600080fd5b505afa158015610a80573d6000803e3d6000fd5b505050506040513d601f19601f82011682018060405250810190610aa49190612153565b9150506000836001600160a01b0316636c25b346866040518263ffffffff1660e01b8152600401610ad59190612417565b60206040518083038186803b158015610aed57600080fd5b505afa158015610b01573d6000803e3d6000fd5b505050506040513d601f19601f82011682018060405250810190610b259190611f3e565b90506000610b3c610b368486611680565b836116c0565b9050610b546b033b2e3c9fd0803ce800000082612748565b985080610b6d8a6b033b2e3c9fd0803ce8000000611680565b10610b785788610b83565b610b83896001612730565b9a9950505050505050505050565b6000610ba582670df27a2cdf4480006116ee565b90505b919050565b604051635a860c8760e01b8152600090819073a004a5afba04b74037e9e52ba1f7eb02b5e6150990635a860c8790610be9908890600401612417565b60806040518083038186803b158015610c0157600080fd5b505afa158015610c15573d6000803e3d6000fd5b505050506040513d601f19601f82011682018060405250810190610c399190611ff9565b90508281600001511115610c51576000915050610ce0565b828160200151118015610c6b5750610c698484611728565b155b15610c7a576001915050610ce0565b828160400151118015610c925750610c928584611a19565b15610ca1576002915050610ce0565b828160600151118015610cb95750610cb98584611a9d565b15610cc8576003915050610ce0565b60405162461bcd60e51b81526004016108cd9061264a565b9392505050565b6000610d0b826040518060800160405280604181526020016129ec60419139611af8565b610ba5610d16611b20565b8360048110610d3557634e487b7160e01b600052603260045260246000fd5b6020020151611b5b565b6000610ba582610d4d611b7e565b611680565b6000610ce082610d6385601261288f565b610d4d90600a6127a2565b600080735ef30b9986345249bc32d8928b7ee64de9435e3990506000816001600160a01b03166336569e776040518163ffffffff1660e01b815260040160206040518083038186803b158015610dc357600080fd5b505afa158015610dd7573d6000803e3d6000fd5b505050506040513d601f19601f82011682018060405250810190610dfb9190611f22565b9050600080610e0a8487611579565b915091506000836001600160a01b0316632424be5c84846040518363ffffffff1660e01b8152600401610e3e929190612527565b604080518083038186803b158015610e5557600080fd5b505afa158015610e69573d6000803e3d6000fd5b505050506040513d601f19601f82011682018060405250810190610e8d9190612153565b50979650505050505050565b6040805160088082526101208201909252606091829190602082016101008036833701905050915073ac02030d8a8f49ed04b2f52c394d3f901a10f8a982600081518110610ef757634e487b7160e01b600052603260045260246000fd5b60200260200101906001600160a01b031690816001600160a01b03168152505073ac02030d8a8f49ed04b2f52c394d3f901a10f8a982600181518110610f4d57634e487b7160e01b600052603260045260246000fd5b60200260200101906001600160a01b031690816001600160a01b0316815250507f000000000000000000000000000000000000000000000000000000000000000082600281518110610faf57634e487b7160e01b600052603260045260246000fd5b60200260200101906001600160a01b031690816001600160a01b0316815250507315fdd1e902cac70786fe7d31013b1a806764b5a28260038151811061100557634e487b7160e01b600052603260045260246000fd5b60200260200101906001600160a01b031690816001600160a01b0316815250507315fdd1e902cac70786fe7d31013b1a806764b5a28260048151811061105b57634e487b7160e01b600052603260045260246000fd5b60200260200101906001600160a01b031690816001600160a01b03168152505073e5398f279175962e56fe4c5e0b62dc7208ef36c6826005815181106110b157634e487b7160e01b600052603260045260246000fd5b60200260200101906001600160a01b031690816001600160a01b03168152505073e5398f279175962e56fe4c5e0b62dc7208ef36c68260068151811061110757634e487b7160e01b600052603260045260246000fd5b60200260200101906001600160a01b031690816001600160a01b03168152505073eb4bf86589f808f90eec8e964dbf16bd4d2849058260078151811061115d57634e487b7160e01b600052603260045260246000fd5b6001600160a01b039290921660209283029190910182015260408051600880825261012082019092529182015b606081526020019060019003908161118a5790505090506111b2876000196000610258611c2d565b816000815181106111d357634e487b7160e01b600052603260045260246000fd5b60200260200101819052506111ed87600019600080611c8a565b8160018151811061120e57634e487b7160e01b600052603260045260246000fd5b60200260200101819052506112bc6000847f00000000000000000000000000000000000000000000000000000000000000006001600160a01b031663ddca3f436040518163ffffffff1660e01b815260040160206040518083038186803b15801561127857600080fd5b505afa15801561128c573d6000803e3d6000fd5b505050506040513d601f19601f820116820180604052508101906112b09190611f3e565b61025880610259611cab565b816002815181106112dd57634e487b7160e01b600052603260045260246000fd5b60200260200101819052506112f58685600080611d0e565b8160038151811061131657634e487b7160e01b600052603260045260246000fd5b6020026020010181905250611345736b175474e89094c44da98b954eedeac495271d0f60006102586000611d2f565b8160048151811061136657634e487b7160e01b600052603260045260246000fd5b6020026020010181905250611426736b175474e89094c44da98b954eedeac495271d0f60007f00000000000000000000000000000000000000000000000000000000000000006001600160a01b031663c415b95c6040518163ffffffff1660e01b815260040160206040518083038186803b1580156113e457600080fd5b505afa1580156113f8573d6000803e3d6000fd5b505050506040513d601f19601f8201168201806040525081019061141c9190611f22565b6102596000611d50565b8160058151811061144757634e487b7160e01b600052603260045260246000fd5b6020026020010181905250611488736b175474e89094c44da98b954eedeac495271d0f847398edc8067cc671bcae82d36dcc609c3e4e078ac8600080611d50565b816006815181106114a957634e487b7160e01b600052603260045260246000fd5b60200260200101819052506114d5736b175474e89094c44da98b954eedeac495271d0f86600080611db0565b816007815181106114f657634e487b7160e01b600052603260045260246000fd5b60200260200101819052509550959350505050565b6020825161151991906128d2565b6004141561156857602082015162461bcd60e51b6001600160e01b0319821614156115575760448301925081836040516020016108a7929190612293565b816040516020016108a791906122c2565b806040516020016108a79190612377565b600080836001600160a01b0316632c2cb9fd846040518263ffffffff1660e01b81526004016115a8919061251e565b60206040518083038186803b1580156115c057600080fd5b505afa1580156115d4573d6000803e3d6000fd5b505050506040513d601f19601f820116820180604052508101906115f89190611f3e565b604051632726b07360e01b81529092506001600160a01b03851690632726b0739061162790869060040161251e565b60206040518083038186803b15801561163f57600080fd5b505afa158015611653573d6000803e3d6000fd5b505050506040513d601f19601f820116820180604052508101906116779190611f22565b90509250929050565b60008115806116a4575082826116968183612870565b92506116a29083612748565b145b6108ff5760405162461bcd60e51b81526004016108cd90612580565b6000826116cd838261288f565b91508111156108ff5760405162461bcd60e51b81526004016108cd90612551565b6000670de0b6b3a764000061171e6117068585611680565b6117196002670de0b6b3a7640000612748565b611dd1565b610ce09190612748565b600080735ef30b9986345249bc32d8928b7ee64de9435e3990506000816001600160a01b03166336569e776040518163ffffffff1660e01b815260040160206040518083038186803b15801561177d57600080fd5b505afa158015611791573d6000803e3d6000fd5b505050506040513d601f19601f820116820180604052508101906117b59190611f22565b90506000806117c48488611579565b915091506000806000856001600160a01b031663d9638d36866040518263ffffffff1660e01b81526004016117f9919061251e565b60a06040518083038186803b15801561181157600080fd5b505afa158015611825573d6000803e3d6000fd5b505050506040513d601f19601f820116820180604052508101906118499190612176565b50935050925092506000866001600160a01b0316636c25b346866040518263ffffffff1660e01b815260040161187f9190612417565b60206040518083038186803b15801561189757600080fd5b505afa1580156118ab573d6000803e3d6000fd5b505050506040513d601f19601f820116820180604052508101906118cf9190611f3e565b90506000876001600160a01b031663babe8a3f6040518163ffffffff1660e01b815260040160206040518083038186803b15801561190c57600080fd5b505afa158015611920573d6000803e3d6000fd5b505050506040513d601f19601f820116820180604052508101906119449190611f3e565b90506000886001600160a01b0316630dca59c16040518163ffffffff1660e01b815260040160206040518083038186803b15801561198157600080fd5b505afa158015611995573d6000803e3d6000fd5b505050506040513d601f19601f820116820180604052508101906119b99190611f3e565b905060006119c88d8588611dff565b905060006119d68783611680565b90506119e28382611dd1565b92506119ee8883611dd1565b9750856119fb8989611680565b1180611a0657508383115b9f9e505050505050505050505050505050565b600081611a2584611e6b565b6001600160a01b0316633b1d21a26040518163ffffffff1660e01b815260040160206040518083038186803b158015611a5d57600080fd5b505afa158015611a71573d6000803e3d6000fd5b505050506040513d601f19601f82011682018060405250810190611a959190611f3e565b119392505050565b600081836001600160a01b03166370a08231733dfd23a6c5e8bbcfc9581d2e864a68feb6a076d36040518263ffffffff1660e01b8152600401611ae09190612417565b60206040518083038186803b158015611a5d57600080fd5b806004831115611b1b5760405162461bcd60e51b81526004016108cd919061253e565b505050565b611b28611ef5565b6040518060800160405280621ef3138152602001622814978152602001622cec4181526020016238707081525090505b90565b60006064611b6a601e82612730565b611b749084612870565b610ba59190612748565b60008073169e633a2d1e6c10dd91238ba11c4a708dfef37c6001600160a01b03166350d25bcd6040518163ffffffff1660e01b815260040160206040518083038186803b158015611bce57600080fd5b505afa158015611be2573d6000803e3d6000fd5b505050506040513d601f19601f82011682018060405250810190611c069190611f3e565b905060008113611c285760405162461bcd60e51b81526004016108cd906125dc565b905090565b606063d5e0da3660e01b85858585604051602401611c4e94939291906126c5565b60408051601f198184030181529190526020810180516001600160e01b03166001600160e01b0319909316929092179091529050949350505050565b606063674fb1b460e01b85858585604051602401611c4e94939291906126c5565b606063acd2fd9360e01b878787878787604051602401611cd0969594939291906126e0565b60408051601f198184030181529190526020810180516001600160e01b03166001600160e01b03199093169290921790915290509695505050505050565b606063ce88b43960e01b85858585604051602401611c4e949392919061248c565b60606338baa4c260e01b85858585604051602401611c4e949392919061248c565b6060634bd3ab8260e01b8686868686604051602401611d7395949392919061242b565b60408051601f198184030181529190526020810180516001600160e01b03166001600160e01b031990931692909217909152905095945050505050565b606063213980e860e01b85858585604051602401611c4e949392919061248c565b600082611dde8382612730565b91508110156108ff5760405162461bcd60e51b81526004016108cd906125ae565b600081611e21611e1b866b033b2e3c9fd0803ce8000000611680565b856116c0565b611e2b9190612748565b9050611e43846b033b2e3c9fd0803ce8000000611680565b611e4d8284611680565b10611e585780611e63565b611e63816001612730565b949350505050565b60405163104b29e960e01b815260009073e81f70cc7c0d46e12d70efc60607f16bbd617e889063104b29e990611ea5908590600401612417565b60206040518083038186803b158015611ebd57600080fd5b505afa158015611ed1573d6000803e3d6000fd5b505050506040513d601f19601f82011682018060405250810190610ba59190611f22565b60405180608001604052806004906020820280368337509192915050565b803560048110610ba857600080fd5b600060208284031215611f33578081fd5b8151610ce0816129d3565b600060208284031215611f4f578081fd5b5051919050565b600060208284031215611f67578081fd5b815167ffffffffffffffff80821115611f7e578283fd5b818401915084601f830112611f91578283fd5b815181811115611fa357611fa3612912565b604051601f8201601f191681016020018381118282101715611fc757611fc7612912565b604052818152838201602001871015611fde578485fd5b611fef8260208301602087016128a6565b9695505050505050565b60006080828403121561200a578081fd5b6040516080810181811067ffffffffffffffff8211171561202d5761202d612912565b8060405250825181526020830151602082015260408301516040820152606083015160608201528091505092915050565b60006020828403121561206f578081fd5b5035919050565b60008060408385031215612088578081fd5b82359150602083013561209a816129d3565b809150509250929050565b600080600080600080600060c0888a0312156120bf578283fd5b8735965060208801356120d1816129d3565b9550604088013567ffffffffffffffff808211156120ed578485fd5b818a0191508a601f830112612100578485fd5b81358181111561210e578586fd5b8b602082850101111561211f578586fd5b60208301975080965050505061213760608901611f13565b92506080880135915060a0880135905092959891949750929550565b60008060408385031215612165578182fd5b505080516020909101519092909150565b600080600080600060a0868803121561218d578081fd5b5050835160208501516040860151606087015160809097015192989197509594509092509050565b6000815180845260208085019450808401835b838110156121ed5781516001600160a01b0316875295820195908201906001016121c8565b509495945050505050565b6000815180845260208085018081965082840281019150828601855b8581101561223e57828403895261222c84835161224b565b98850198935090840190600101612214565b5091979650505050505050565b600081518084526122638160208601602086016128a6565b601f01601f19169290920160200192915050565b600082516122898184602087016128a6565b9190910192915050565b600083516122a58184602088016128a6565b8351908301906122b98183602088016128a6565b01949350505050565b600082516122d48184602087016128a6565b6e2737a2b93937b929b2b632b1ba37b960891b920191825250600f01919050565b600082516123078184602087016128a6565b7f3a205661756c74204964206973206e6f742076616c6964000000000000000000920191825250601701919050565b600082516123488184602087016128a6565b7f3a205661756c74206e6f74206f776e6564206279206473610000000000000000920191825250601801919050565b600082516123898184602087016128a6565b73556e657870656374656452657475726e6461746160601b920191825250601401919050565b600082516123c18184602087016128a6565b66172fb1b0b9ba1d60c91b920191825250600701919050565b6000742326b0b5b2b9172fb4b9ab30bab63a27bbb732b91d60591b8252825161240a8160158501602087016128a6565b9190910160150192915050565b6001600160a01b0391909116815260200190565b6001600160a01b03958616815260208101949094529190931660408301526060820192909252608081019190915260a00190565b600060018060a01b038616825284602083015283604083015260806060830152611fef608083018461224b565b6001600160a01b0394909416845260208401929092526040830152606082015260800190565b6000604082526124c560408301856121b5565b82810360208401526124d781856121f8565b95945050505050565b6000606082526124f360608301866121b5565b828103602084015261250581866121f8565b91505060018060a01b0383166040830152949350505050565b90815260200190565b9182526001600160a01b0316602082015260400190565b600060208252610ce0602083018461224b565b60208082526015908201527464732d6d6174682d7375622d756e646572666c6f7760581b604082015260600190565b60208082526014908201527364732d6d6174682d6d756c2d6f766572666c6f7760601b604082015260600190565b60208082526014908201527364732d6d6174682d6164642d6f766572666c6f7760601b604082015260600190565b6020808252601b908201527f5f67657447656c61746f47617350726963653a306f7242656c6f770000000000604082015260600190565b6020808252601e908201527f464d616b65722e5f69735661756c744f776e65723a756e646566696e65640000604082015260600190565b6020808252602e908201527f4647656c61746f446562744272696467652e5f676574466c6173684c6f616e5260408201526d1bdd5d194e881a5b1b1a5c5d5a5960921b606082015260800190565b9283526001600160a01b03918216602084015216604082015260600190565b918252602082015260400190565b93845260208401929092526040830152606082015260800190565b958652602086019490945260408501929092526060840152608083015260a082015260c00190565b60008085851115612717578182fd5b83861115612723578182fd5b5050820193919092039150565b60008219821115612743576127436128e6565b500190565b600082612757576127576128fc565b500490565b80825b600180861161276e5750612799565b818704821115612780576127806128e6565b8086161561278d57918102915b9490941c93800261275f565b94509492505050565b6000610ce060001984846000826127bb57506001610ce0565b816127c857506000610ce0565b81600181146127de57600281146127e857612815565b6001915050610ce0565b60ff8411156127f9576127f96128e6565b6001841b91508482111561280f5761280f6128e6565b50610ce0565b5060208310610133831016604e8410600b8410161715612848575081810a83811115612843576128436128e6565b610ce0565b612855848484600161275c565b808604821115612867576128676128e6565b02949350505050565b600081600019048311821515161561288a5761288a6128e6565b500290565b6000828210156128a1576128a16128e6565b500390565b60005b838110156128c15781810151838201526020016128a9565b838111156102255750506000910152565b6000826128e1576128e16128fc565b500690565b634e487b7160e01b600052601160045260246000fd5b634e487b7160e01b600052601260045260246000fd5b634e487b7160e01b600052604160045260246000fd5b60e01c90565b600060443d101561293e57611b58565b600481823e6308c379a06129528251612928565b1461295c57611b58565b6040513d600319016004823e80513d67ffffffffffffffff816024840111818411171561298c5750505050611b58565b828401925082519150808211156129a65750505050611b58565b503d830160208284010111156129be57505050611b58565b601f01601f1916810160200160405291505090565b6001600160a01b03811681146129e857600080fd5b5056fe4647656c61746f446562744272696467652e5f676574476173436f73744d616b6572546f436f6d706f756e643a20696e76616c696420726f75746520696e646578436f6e6e65637447656c61746f446174614d616b6572546f436f6d706f756e642d76312e30a2646970667358221220a0b13dabdbd1fb80bfa7ad69b650def42e2dc6e99c7ced9c8bfb8b4f0af0035d64736f6c63430008000033",
  "devdoc": {
    "kind": "dev",
    "methods": {
      "connectorID()": {
        "details": "Connector Details"
      },
      "getDataAndCastMakerToCompound(uint256,address)": {
        "details": "payable to be compatible in conjunction with DSA.cast payable target",
        "params": {
          "_colToken": "vault's col token address .",
          "_vaultId": "Id of the unsafe vault of the client."
        }
      }
    },
    "version": 1
  },
  "userdoc": {
    "kind": "user",
    "methods": {
      "getDataAndCastMakerToCompound(uint256,address)": {
        "notice": "Entry Point for DSA.cast DebtBridge from Maker to Compound"
      }
    },
    "version": 1
  },
  "storageLayout": {
    "storage": [],
    "types": null
  }
}