{
  "address": "0x9B6eeB49390626Dec7B3785D38879746923B308E",
  "abi": [
    {
      "inputs": [
        {
          "internalType": "uint256",
          "name": "__id",
          "type": "uint256"
        }
      ],
      "stateMutability": "nonpayable",
      "type": "constructor"
    },
    {
      "inputs": [
        {
          "internalType": "uint256",
          "name": "_debt",
          "type": "uint256"
        },
        {
          "internalType": "uint256",
          "name": "_txFee",
          "type": "uint256"
        },
        {
          "internalType": "uint256",
          "name": "_instaFeeFactor",
          "type": "uint256"
        },
        {
          "internalType": "uint256",
          "name": "_getId",
          "type": "uint256"
        },
        {
          "internalType": "uint256",
          "name": "_setId",
          "type": "uint256"
        },
        {
          "internalType": "uint256",
          "name": "_setIdInstaFee",
          "type": "uint256"
        }
      ],
      "name": "calculateFee",
      "outputs": [],
      "stateMutability": "payable",
      "type": "function"
    },
    {
      "inputs": [],
      "name": "connectorID",
      "outputs": [
        {
          "internalType": "uint256",
          "name": "_type",
          "type": "uint256"
        },
        {
          "internalType": "uint256",
          "name": "id",
          "type": "uint256"
        }
      ],
      "stateMutability": "view",
      "type": "function"
    },
    {
      "inputs": [],
      "name": "name",
      "outputs": [
        {
          "internalType": "string",
          "name": "",
          "type": "string"
        }
      ],
      "stateMutability": "view",
      "type": "function"
    }
  ],
  "transactionHash": "0x1eea4758107ea32aef508692c285a502a45fd9e92334835bfda5e7dd44e888e1",
  "args": [
    78
  ],
  "solcInputHash": "9e1e417ad5e60d445fed51b4e54a4fd7",
  "bytecode": "0x60a060405234801561001057600080fd5b506040516108ad3803806108ad83398181016040528101906100329190610055565b80608081815250505061009f565b60008151905061004f81610088565b92915050565b60006020828403121561006757600080fd5b600061007584828501610040565b91505092915050565b6000819050919050565b6100918161007e565b811461009c57600080fd5b50565b6080516107f36100ba600039600061013901526107f36000f3fe6080604052600436106100345760003560e01c806306fdde0314610039578063acd2fd9314610064578063eb15f78114610080575b600080fd5b34801561004557600080fd5b5061004e6100ac565b60405161005b9190610557565b60405180910390f35b61007e60048036038101906100799190610406565b6100e5565b005b34801561008c57600080fd5b50610095610132565b6040516100a39291906105d4565b60405180910390f35b6040518060400160405280601f81526020017f436f6e6e65637447656c61746f446562744272696467654665652d76312e300081525081565b6100ef8387610164565b955060006100fd878661021b565b905061011f8382888a6101109190610619565b61011a9190610619565b61025f565b610129828261025f565b50505050505050565b60008060017f000000000000000000000000000000000000000000000000000000000000000080925081935050509091565b600080831461021157738a5419cfc711b2343c17a6abf4b2bafabb06957f73ffffffffffffffffffffffffffffffffffffffff1663a9c70eaa846040518263ffffffff1660e01b81526004016101ba91906105b9565b602060405180830381600087803b1580156101d457600080fd5b505af11580156101e8573d6000803e3d6000fd5b505050506040513d601f19601f8201168201806040525081019061020c91906103dd565b610213565b815b905092915050565b6000670de0b6b3a764000061024d61023385856102ed565b6002670de0b6b3a7640000610248919061066f565b61035a565b610257919061066f565b905092915050565b600082146102e957738a5419cfc711b2343c17a6abf4b2bafabb06957f73ffffffffffffffffffffffffffffffffffffffff166361e3c94483836040518363ffffffff1660e01b81526004016102b69291906105d4565b600060405180830381600087803b1580156102d057600080fd5b505af11580156102e4573d6000803e3d6000fd5b505050505b5050565b60008082148061031557508282838561030691906106a0565b925082610313919061066f565b145b610354576040517f08c379a000000000000000000000000000000000000000000000000000000000815260040161034b90610579565b60405180910390fd5b92915050565b60008282846103699190610619565b91508110156103ad576040517f08c379a00000000000000000000000000000000000000000000000000000000081526004016103a490610599565b60405180910390fd5b92915050565b6000813590506103c2816107a6565b92915050565b6000815190506103d7816107a6565b92915050565b6000602082840312156103ef57600080fd5b60006103fd848285016103c8565b91505092915050565b60008060008060008060c0878903121561041f57600080fd5b600061042d89828a016103b3565b965050602061043e89828a016103b3565b955050604061044f89828a016103b3565b945050606061046089828a016103b3565b935050608061047189828a016103b3565b92505060a061048289828a016103b3565b9150509295509295509295565b600061049a826105fd565b6104a48185610608565b93506104b4818560208601610704565b6104bd81610795565b840191505092915050565b60006104d5601483610608565b91507f64732d6d6174682d6d756c2d6f766572666c6f770000000000000000000000006000830152602082019050919050565b6000610515601483610608565b91507f64732d6d6174682d6164642d6f766572666c6f770000000000000000000000006000830152602082019050919050565b610551816106fa565b82525050565b60006020820190508181036000830152610571818461048f565b905092915050565b60006020820190508181036000830152610592816104c8565b9050919050565b600060208201905081810360008301526105b281610508565b9050919050565b60006020820190506105ce6000830184610548565b92915050565b60006040820190506105e96000830185610548565b6105f66020830184610548565b9392505050565b600081519050919050565b600082825260208201905092915050565b6000610624826106fa565b915061062f836106fa565b9250827fffffffffffffffffffffffffffffffffffffffffffffffffffffffffffffffff0382111561066457610663610737565b5b828201905092915050565b600061067a826106fa565b9150610685836106fa565b92508261069557610694610766565b5b828204905092915050565b60006106ab826106fa565b91506106b6836106fa565b9250817fffffffffffffffffffffffffffffffffffffffffffffffffffffffffffffffff04831182151516156106ef576106ee610737565b5b828202905092915050565b6000819050919050565b60005b83811015610722578082015181840152602081019050610707565b83811115610731576000848401525b50505050565b7f4e487b7100000000000000000000000000000000000000000000000000000000600052601160045260246000fd5b7f4e487b7100000000000000000000000000000000000000000000000000000000600052601260045260246000fd5b6000601f19601f8301169050919050565b6107af816106fa565b81146107ba57600080fd5b5056fea2646970667358221220957d3679646290ffea2d39bd7badbb77711b802c524f2e33fa693788eba1501564736f6c63430008000033",
  "devdoc": {
    "kind": "dev",
    "methods": {
      "calculateFee(uint256,uint256,uint256,uint256,uint256,uint256)": {
        "details": "payable to be compatible in conjunction with DSA.cast payable target",
        "params": {
          "_debt": "the amount of debt at the beginning",
          "_getId": "the amount storing Id in instaMemory.",
          "_instaFeeFactor": "instadapp fee.",
          "_setId": "id to store total amount (e.g. debt or col to draw)",
          "_setIdInstaFee": "id to store instaFee",
          "_txFee": "fast transaction fee of Gelato."
        }
      },
      "connectorID()": {
        "details": "Connector Details"
      }
    },
    "version": 1
  },
  "userdoc": {
    "kind": "user",
    "methods": {
      "calculateFee(uint256,uint256,uint256,uint256,uint256,uint256)": {
        "notice": "Function to compute Fee and borrow amount"
      }
    },
    "version": 1
  },
  "storageLayout": {
    "storage": [],
    "types": null
  }
}