{
  "address": "0x14f76cF52708E6BCE3B8CcaF0801975D535cBCeC",
  "abi": [
    {
      "inputs": [
        {
          "internalType": "uint256",
          "name": "__id",
          "type": "uint256"
        },
        {
          "internalType": "address",
          "name": "_oracleAggregator",
          "type": "address"
        },
        {
          "internalType": "address",
          "name": "__instaFeeCollector",
          "type": "address"
        },
        {
          "internalType": "address",
          "name": "__connectGelatoDebtBridgeFee",
          "type": "address"
        }
      ],
      "stateMutability": "nonpayable",
      "type": "constructor"
    },
    {
      "inputs": [],
      "name": "OK",
      "outputs": [
        {
          "internalType": "string",
          "name": "",
          "type": "string"
        }
      ],
      "stateMutability": "view",
      "type": "function"
    },
    {
      "inputs": [],
      "name": "connectGelatoDataFromMakerAddr",
      "outputs": [
        {
          "internalType": "address",
          "name": "",
          "type": "address"
        }
      ],
      "stateMutability": "view",
      "type": "function"
    },
    {
      "inputs": [],
      "name": "connectorID",
      "outputs": [
        {
          "internalType": "uint256",
          "name": "_type",
          "type": "uint256"
        },
        {
          "internalType": "uint256",
          "name": "id",
          "type": "uint256"
        }
      ],
      "stateMutability": "view",
      "type": "function"
    },
    {
      "inputs": [
        {
          "internalType": "uint256",
          "name": "_vaultId",
          "type": "uint256"
        },
        {
          "internalType": "address",
          "name": "_colToken",
          "type": "address"
        }
      ],
      "name": "getDataAndCastMakerToAave",
      "outputs": [],
      "stateMutability": "payable",
      "type": "function"
    },
    {
      "inputs": [],
      "name": "instaFeeCollector",
      "outputs": [
        {
          "internalType": "address",
          "name": "",
          "type": "address"
        }
      ],
      "stateMutability": "view",
      "type": "function"
    },
    {
      "inputs": [],
      "name": "name",
      "outputs": [
        {
          "internalType": "string",
          "name": "",
          "type": "string"
        }
      ],
      "stateMutability": "view",
      "type": "function"
    },
    {
      "inputs": [],
      "name": "oracleAggregator",
      "outputs": [
        {
          "internalType": "address",
          "name": "",
          "type": "address"
        }
      ],
      "stateMutability": "view",
      "type": "function"
    },
    {
      "inputs": [
        {
          "internalType": "uint256",
          "name": "",
          "type": "uint256"
        },
        {
          "internalType": "address",
          "name": "_dsa",
          "type": "address"
        },
        {
          "internalType": "bytes",
          "name": "_actionData",
          "type": "bytes"
        },
        {
          "internalType": "enum DataFlow",
          "name": "",
          "type": "uint8"
        },
        {
          "internalType": "uint256",
          "name": "",
          "type": "uint256"
        },
        {
          "internalType": "uint256",
          "name": "",
          "type": "uint256"
        }
      ],
      "name": "termsOk",
      "outputs": [
        {
          "internalType": "string",
          "name": "",
          "type": "string"
        }
      ],
      "stateMutability": "view",
      "type": "function"
    }
  ],
  "transactionHash": "0xe8b3d677bbdb314c3875dc5b746f8dd8fe955fcfbd00a65a1244455d4ae66f22",
  "args": [
    83,
    "0x64f31D46C52bBDe223D863B11dAb9327aB1414E9",
    "0x0c159985E905ea1A3dA7305D70583Dd618862cf4",
    "0x9B6eeB49390626Dec7B3785D38879746923B308E"
  ],
  "solcInputHash": "4b220f9f5ace9500863671bb012c293f",
  "bytecode": "0x6101206040523480156200001257600080fd5b5060405162002bfa38038062002bfa833981016040819052620000359162000089565b6080939093526001600160601b0319606092831b811660a05290821b811660c05291811b9091166101005230901b60e052620000dc565b80516001600160a01b03811681146200008457600080fd5b919050565b600080600080608085870312156200009f578384fd5b84519350620000b1602086016200006c565b9250620000c1604086016200006c565b9150620000d1606086016200006c565b905092959194509250565b60805160a05160601c60c05160601c60e05160601c6101005160601c612ab1620001496000396000610f6f01526000818161018201526107300152600081816101eb01528181611221015261138f0152600081816101a60152610486015260006102300152612ab16000f3fe60806040526004361061007b5760003560e01c8063bc95af311161004e578063bc95af31146100f7578063d48fe2801461010c578063eb15f78114610121578063eb9e7126146101445761007b565b806306fdde031461008057806308b0e9ce146100ab5780638dffe3f4146100cd5780639ae4bca2146100e2575b600080fd5b34801561008c57600080fd5b50610095610164565b6040516100a29190612570565b60405180910390f35b3480156100b757600080fd5b506100c0610180565b6040516100a2919061241b565b3480156100d957600080fd5b506100c06101a4565b6100f56100f036600461207a565b6101c8565b005b34801561010357600080fd5b506100c06101e9565b34801561011857600080fd5b5061009561020d565b34801561012d57600080fd5b5061013661022b565b6040516100a29291906126e9565b34801561015057600080fd5b5061009561015f3660046120a9565b610252565b604051806060016040528060218152602001612a1e6021913981565b7f000000000000000000000000000000000000000000000000000000000000000081565b7f000000000000000000000000000000000000000000000000000000000000000081565b6000806101d584846103ce565b915091506101e38282610672565b50505050565b7f000000000000000000000000000000000000000000000000000000000000000081565b604051806040016040528060028152602001614f4b60f01b81525081565b6001907f000000000000000000000000000000000000000000000000000000000000000090565b6060600061026460246004888a61273a565b8101906102719190612062565b90508061031457306001600160a01b03166306fdde036040518163ffffffff1660e01b815260040160006040518083038186803b1580156102b157600080fd5b505afa1580156102c5573d6000803e3d6000fd5b505050506040513d6000823e601f3d908101601f191682016040526102ed9190810190611f5a565b6040516020016102fd91906122f9565b6040516020818303038152906040529150506103c3565b61031e81896107f1565b6103a757306001600160a01b03166306fdde036040518163ffffffff1660e01b815260040160006040518083038186803b15801561035b57600080fd5b505afa15801561036f573d6000803e3d6000fd5b505050506040513d6000823e601f3d908101601f191682016040526103979190810190611f5a565b6040516020016102fd919061233a565b50506040805180820190915260028152614f4b60f01b60208201525b979650505050505050565b6040805160018082528183019092526060918291906020808301908036833701905050915073eb4bf86589f808f90eec8e964dbf16bd4d2849058260008151811061042957634e487b7160e01b600052603260045260246000fd5b60200260200101906001600160a01b031690816001600160a01b031681525050600061045c61045786610905565b610b91565b9050600061047f736b175474e89094c44da98b954eedeac495271d0f8784610bad565b90506000807f00000000000000000000000000000000000000000000000000000000000000006001600160a01b0316633c772b6c6104c46104bf86610ce7565b610d3f565b73eeeeeeeeeeeeeeeeeeeeeeeeeeeeeeeeeeeeeeee736b175474e89094c44da98b954eedeac495271d0f6040518463ffffffff1660e01b815260040161050c939291906126ca565b604080518083038186803b15801561052357600080fd5b505afa158015610537573d6000803e3d6000fd5b505050506040513d601f19601f8201168201806040525081019061055b9190612157565b915091506105698183610d52565b91506000806105838a8a8861057d8e610d6e565b88610e99565b604080516001808252818301909252929450909250816020015b606081526020019060019003908161059d579050509650638d0a9b1b60e01b736b175474e89094c44da98b954eedeac495271d0f878785856040516020016105e69291906124e4565b60408051601f198184030181529082905261060694939291602401612463565b604051602081830303815290604052906001600160e01b0319166020820180516001600160e01b0383818316178352505050508760008151811061065a57634e487b7160e01b600052603260045260246000fd5b60200260200101819052505050505050509250929050565b600063e0e90acf60e01b83833360405160240161069193929190612512565b604051602081830303815290604052906001600160e01b0319166020820180516001600160e01b0383818316178352505050509050600080306001600160a01b0316836040516106e1919061227b565b600060405180830381855af49150503d806000811461071c576040519150601f19603f3d011682016040523d82523d6000602084013e610721565b606091505b5091509150816107ea576107ea7f00000000000000000000000000000000000000000000000000000000000000006001600160a01b03166306fdde036040518163ffffffff1660e01b815260040160006040518083038186803b15801561078757600080fd5b505afa15801561079b573d6000803e3d6000fd5b505050506040513d6000823e601f3d908101601f191682016040526107c39190810190611f5a565b6040516020016107d391906123b3565b60408051601f19818403018152919052829061150d565b5050505050565b600082610800575060006108ff565b60405163040b0d8960e51b8152735ef30b9986345249bc32d8928b7ee64de9435e3990638161b12090610837908690600401612550565b60206040518083038186803b15801561084f57600080fd5b505afa92505050801561087f575060408051601f3d908101601f1916820190925261087c91810190611f26565b60015b6108ee5761088b612960565b8061089657506108d6565b806040516020016108a791906123de565b60408051601f198184030181529082905262461bcd60e51b82526108cd91600401612570565b60405180910390fd5b60405162461bcd60e51b81526004016108cd90612645565b6001600160a01b0383811691161490505b92915050565b6000735ef30b9986345249bc32d8928b7ee64de9435e398180610928838661157b565b915091506000836001600160a01b03166336569e776040518163ffffffff1660e01b815260040160206040518083038186803b15801561096757600080fd5b505afa15801561097b573d6000803e3d6000fd5b505050506040513d601f19601f8201168201806040525081019061099f9190611f26565b90506000816001600160a01b031663d9638d36856040518263ffffffff1660e01b81526004016109cf9190612550565b60a06040518083038186803b1580156109e757600080fd5b505afa1580156109fb573d6000803e3d6000fd5b505050506040513d601f19601f82011682018060405250810190610a1f919061217a565b5050509150506000826001600160a01b0316632424be5c86866040518363ffffffff1660e01b8152600401610a55929190612559565b604080518083038186803b158015610a6c57600080fd5b505afa158015610a80573d6000803e3d6000fd5b505050506040513d601f19601f82011682018060405250810190610aa49190612157565b9150506000836001600160a01b0316636c25b346866040518263ffffffff1660e01b8152600401610ad5919061241b565b60206040518083038186803b158015610aed57600080fd5b505afa158015610b01573d6000803e3d6000fd5b505050506040513d601f19601f82011682018060405250810190610b259190611f42565b90506000610b3c610b368486611682565b836116c2565b9050610b546b033b2e3c9fd0803ce80000008261277a565b985080610b6d8a6b033b2e3c9fd0803ce8000000611682565b10610b785788610b83565b610b83896001612762565b9a9950505050505050505050565b6000610ba582670df27a2cdf4480006116f0565b90505b919050565b604051635a860c8760e01b8152600090819073a004a5afba04b74037e9e52ba1f7eb02b5e6150990635a860c8790610be990889060040161241b565b60806040518083038186803b158015610c0157600080fd5b505afa158015610c15573d6000803e3d6000fd5b505050506040513d601f19601f82011682018060405250810190610c399190611ffd565b90508281600001511115610c51576000915050610ce0565b828160200151118015610c6b5750610c69848461172a565b155b15610c7a576001915050610ce0565b828160400151118015610c925750610c928584611a1b565b15610ca1576002915050610ce0565b828160600151118015610cb95750610cb98584611a9f565b15610cc8576003915050610ce0565b60405162461bcd60e51b81526004016108cd9061267c565b9392505050565b6000610d0b826040518060600160405280603d8152602001612a3f603d9139611afa565b610ba5610d16611b22565b8360048110610d3557634e487b7160e01b600052603260045260246000fd5b6020020151611b5d565b6000610ba582610d4d611b80565b611682565b6000610ce082610d638560126128c1565b610d4d90600a6127d4565b600080735ef30b9986345249bc32d8928b7ee64de9435e3990506000816001600160a01b03166336569e776040518163ffffffff1660e01b815260040160206040518083038186803b158015610dc357600080fd5b505afa158015610dd7573d6000803e3d6000fd5b505050506040513d601f19601f82011682018060405250810190610dfb9190611f26565b9050600080610e0a848761157b565b915091506000836001600160a01b0316632424be5c84846040518363ffffffff1660e01b8152600401610e3e929190612559565b604080518083038186803b158015610e5557600080fd5b505afa158015610e69573d6000803e3d6000fd5b505050506040513d601f19601f82011682018060405250810190610e8d9190612157565b50979650505050505050565b6040805160088082526101208201909252606091829190602082016101008036833701905050915073ac02030d8a8f49ed04b2f52c394d3f901a10f8a982600081518110610ef757634e487b7160e01b600052603260045260246000fd5b60200260200101906001600160a01b031690816001600160a01b03168152505073ac02030d8a8f49ed04b2f52c394d3f901a10f8a982600181518110610f4d57634e487b7160e01b600052603260045260246000fd5b60200260200101906001600160a01b031690816001600160a01b0316815250507f000000000000000000000000000000000000000000000000000000000000000082600281518110610faf57634e487b7160e01b600052603260045260246000fd5b60200260200101906001600160a01b031690816001600160a01b03168152505073bf6e4331ffd02f7043e62788fd272aefc712f5ee8260038151811061100557634e487b7160e01b600052603260045260246000fd5b60200260200101906001600160a01b031690816001600160a01b03168152505073bf6e4331ffd02f7043e62788fd272aefc712f5ee8260048151811061105b57634e487b7160e01b600052603260045260246000fd5b60200260200101906001600160a01b031690816001600160a01b03168152505073e5398f279175962e56fe4c5e0b62dc7208ef36c6826005815181106110b157634e487b7160e01b600052603260045260246000fd5b60200260200101906001600160a01b031690816001600160a01b03168152505073e5398f279175962e56fe4c5e0b62dc7208ef36c68260068151811061110757634e487b7160e01b600052603260045260246000fd5b60200260200101906001600160a01b031690816001600160a01b03168152505073eb4bf86589f808f90eec8e964dbf16bd4d2849058260078151811061115d57634e487b7160e01b600052603260045260246000fd5b6001600160a01b039290921660209283029190910182015260408051600880825261012082019092529182015b606081526020019060019003908161118a5790505090506111b2876000196000610258611c2f565b816000815181106111d357634e487b7160e01b600052603260045260246000fd5b60200260200101819052506111ed87600019600080611c8c565b8160018151811061120e57634e487b7160e01b600052603260045260246000fd5b60200260200101819052506112bc6000847f00000000000000000000000000000000000000000000000000000000000000006001600160a01b031663ddca3f436040518163ffffffff1660e01b815260040160206040518083038186803b15801561127857600080fd5b505afa15801561128c573d6000803e3d6000fd5b505050506040513d601f19601f820116820180604052508101906112b09190611f42565b61025880610259611cad565b816002815181106112dd57634e487b7160e01b600052603260045260246000fd5b60200260200101819052506112f58685600080611d10565b8160038151811061131657634e487b7160e01b600052603260045260246000fd5b6020026020010181905250611347736b175474e89094c44da98b954eedeac495271d0f600060026102586000611d31565b8160048151811061136857634e487b7160e01b600052603260045260246000fd5b6020026020010181905250611428736b175474e89094c44da98b954eedeac495271d0f60007f00000000000000000000000000000000000000000000000000000000000000006001600160a01b031663c415b95c6040518163ffffffff1660e01b815260040160206040518083038186803b1580156113e657600080fd5b505afa1580156113fa573d6000803e3d6000fd5b505050506040513d601f19601f8201168201806040525081019061141e9190611f26565b6102596000611d91565b8160058151811061144957634e487b7160e01b600052603260045260246000fd5b602002602001018190525061148a736b175474e89094c44da98b954eedeac495271d0f847398edc8067cc671bcae82d36dcc609c3e4e078ac8600080611d91565b816006815181106114ab57634e487b7160e01b600052603260045260246000fd5b60200260200101819052506114d7736b175474e89094c44da98b954eedeac495271d0f86600080611db4565b816007815181106114f857634e487b7160e01b600052603260045260246000fd5b60200260200101819052509550959350505050565b6020825161151b9190612904565b6004141561156a57602082015162461bcd60e51b6001600160e01b0319821614156115595760448301925081836040516020016108a7929190612297565b816040516020016108a791906122c6565b806040516020016108a7919061237b565b600080836001600160a01b0316632c2cb9fd846040518263ffffffff1660e01b81526004016115aa9190612550565b60206040518083038186803b1580156115c257600080fd5b505afa1580156115d6573d6000803e3d6000fd5b505050506040513d601f19601f820116820180604052508101906115fa9190611f42565b604051632726b07360e01b81529092506001600160a01b03851690632726b07390611629908690600401612550565b60206040518083038186803b15801561164157600080fd5b505afa158015611655573d6000803e3d6000fd5b505050506040513d601f19601f820116820180604052508101906116799190611f26565b90509250929050565b60008115806116a65750828261169881836128a2565b92506116a4908361277a565b145b6108ff5760405162461bcd60e51b81526004016108cd906125b2565b6000826116cf83826128c1565b91508111156108ff5760405162461bcd60e51b81526004016108cd90612583565b6000670de0b6b3a76400006117206117088585611682565b61171b6002670de0b6b3a764000061277a565b611dd5565b610ce0919061277a565b600080735ef30b9986345249bc32d8928b7ee64de9435e3990506000816001600160a01b03166336569e776040518163ffffffff1660e01b815260040160206040518083038186803b15801561177f57600080fd5b505afa158015611793573d6000803e3d6000fd5b505050506040513d601f19601f820116820180604052508101906117b79190611f26565b90506000806117c6848861157b565b915091506000806000856001600160a01b031663d9638d36866040518263ffffffff1660e01b81526004016117fb9190612550565b60a06040518083038186803b15801561181357600080fd5b505afa158015611827573d6000803e3d6000fd5b505050506040513d601f19601f8201168201806040525081019061184b919061217a565b50935050925092506000866001600160a01b0316636c25b346866040518263ffffffff1660e01b8152600401611881919061241b565b60206040518083038186803b15801561189957600080fd5b505afa1580156118ad573d6000803e3d6000fd5b505050506040513d601f19601f820116820180604052508101906118d19190611f42565b90506000876001600160a01b031663babe8a3f6040518163ffffffff1660e01b815260040160206040518083038186803b15801561190e57600080fd5b505afa158015611922573d6000803e3d6000fd5b505050506040513d601f19601f820116820180604052508101906119469190611f42565b90506000886001600160a01b0316630dca59c16040518163ffffffff1660e01b815260040160206040518083038186803b15801561198357600080fd5b505afa158015611997573d6000803e3d6000fd5b505050506040513d601f19601f820116820180604052508101906119bb9190611f42565b905060006119ca8d8588611e03565b905060006119d88783611682565b90506119e48382611dd5565b92506119f08883611dd5565b9750856119fd8989611682565b1180611a0857508383115b9f9e505050505050505050505050505050565b600081611a2784611e6f565b6001600160a01b0316633b1d21a26040518163ffffffff1660e01b815260040160206040518083038186803b158015611a5f57600080fd5b505afa158015611a73573d6000803e3d6000fd5b505050506040513d601f19601f82011682018060405250810190611a979190611f42565b119392505050565b600081836001600160a01b03166370a08231733dfd23a6c5e8bbcfc9581d2e864a68feb6a076d36040518263ffffffff1660e01b8152600401611ae2919061241b565b60206040518083038186803b158015611a5f57600080fd5b806004831115611b1d5760405162461bcd60e51b81526004016108cd9190612570565b505050565b611b2a611ef9565b60405180608001604052806223fd068152602001622d1e89815260200162339ac88152602001623d7bd881525090505b90565b60006064611b6c601e82612762565b611b7690846128a2565b610ba5919061277a565b60008073169e633a2d1e6c10dd91238ba11c4a708dfef37c6001600160a01b03166350d25bcd6040518163ffffffff1660e01b815260040160206040518083038186803b158015611bd057600080fd5b505afa158015611be4573d6000803e3d6000fd5b505050506040513d601f19601f82011682018060405250810190611c089190611f42565b905060008113611c2a5760405162461bcd60e51b81526004016108cd9061260e565b905090565b606063d5e0da3660e01b85858585604051602401611c5094939291906126f7565b60408051601f198184030181529190526020810180516001600160e01b03166001600160e01b0319909316929092179091529050949350505050565b606063674fb1b460e01b85858585604051602401611c5094939291906126f7565b606063acd2fd9360e01b878787878787604051602401611cd296959493929190612712565b60408051601f198184030181529190526020810180516001600160e01b03166001600160e01b03199093169290921790915290509695505050505050565b606063ce88b43960e01b85858585604051602401611c509493929190612490565b6060636abcd3de60e01b8686868686604051602401611d549594939291906124b6565b60408051601f198184030181529190526020810180516001600160e01b03166001600160e01b031990931692909217909152905095945050505050565b6060634bd3ab8260e01b8686868686604051602401611d5495949392919061242f565b606063213980e860e01b85858585604051602401611c509493929190612490565b600082611de28382612762565b91508110156108ff5760405162461bcd60e51b81526004016108cd906125e0565b600081611e25611e1f866b033b2e3c9fd0803ce8000000611682565b856116c2565b611e2f919061277a565b9050611e47846b033b2e3c9fd0803ce8000000611682565b611e518284611682565b10611e5c5780611e67565b611e67816001612762565b949350505050565b60405163104b29e960e01b815260009073e81f70cc7c0d46e12d70efc60607f16bbd617e889063104b29e990611ea990859060040161241b565b60206040518083038186803b158015611ec157600080fd5b505afa158015611ed5573d6000803e3d6000fd5b505050506040513d601f19601f82011682018060405250810190610ba59190611f26565b60405180608001604052806004906020820280368337509192915050565b803560048110610ba857600080fd5b600060208284031215611f37578081fd5b8151610ce081612a05565b600060208284031215611f53578081fd5b5051919050565b600060208284031215611f6b578081fd5b815167ffffffffffffffff80821115611f82578283fd5b818401915084601f830112611f95578283fd5b815181811115611fa757611fa7612944565b604051601f8201601f191681016020018381118282101715611fcb57611fcb612944565b604052818152838201602001871015611fe2578485fd5b611ff38260208301602087016128d8565b9695505050505050565b60006080828403121561200e578081fd5b6040516080810181811067ffffffffffffffff8211171561203157612031612944565b8060405250825181526020830151602082015260408301516040820152606083015160608201528091505092915050565b600060208284031215612073578081fd5b5035919050565b6000806040838503121561208c578081fd5b82359150602083013561209e81612a05565b809150509250929050565b600080600080600080600060c0888a0312156120c3578283fd5b8735965060208801356120d581612a05565b9550604088013567ffffffffffffffff808211156120f1578485fd5b818a0191508a601f830112612104578485fd5b813581811115612112578586fd5b8b6020828501011115612123578586fd5b60208301975080965050505061213b60608901611f17565b92506080880135915060a0880135905092959891949750929550565b60008060408385031215612169578182fd5b505080516020909101519092909150565b600080600080600060a08688031215612191578081fd5b5050835160208501516040860151606087015160809097015192989197509594509092509050565b6000815180845260208085019450808401835b838110156121f15781516001600160a01b0316875295820195908201906001016121cc565b509495945050505050565b6000815180845260208085018081965082840281019150828601855b8581101561224257828403895261223084835161224f565b98850198935090840190600101612218565b5091979650505050505050565b600081518084526122678160208601602086016128d8565b601f01601f19169290920160200192915050565b6000825161228d8184602087016128d8565b9190910192915050565b600083516122a98184602088016128d8565b8351908301906122bd8183602088016128d8565b01949350505050565b600082516122d88184602087016128d8565b6e2737a2b93937b929b2b632b1ba37b960891b920191825250600f01919050565b6000825161230b8184602087016128d8565b7f3a205661756c74204964206973206e6f742076616c6964000000000000000000920191825250601701919050565b6000825161234c8184602087016128d8565b7f3a205661756c74206e6f74206f776e6564206279206473610000000000000000920191825250601801919050565b6000825161238d8184602087016128d8565b73556e657870656374656452657475726e6461746160601b920191825250601401919050565b600082516123c58184602087016128d8565b66172fb1b0b9ba1d60c91b920191825250600701919050565b6000742326b0b5b2b9172fb4b9ab30bab63a27bbb732b91d60591b8252825161240e8160158501602087016128d8565b9190910160150192915050565b6001600160a01b0391909116815260200190565b6001600160a01b03958616815260208101949094529190931660408301526060820192909252608081019190915260a00190565b600060018060a01b038616825284602083015283604083015260806060830152611ff3608083018461224f565b6001600160a01b0394909416845260208401929092526040830152606082015260800190565b6001600160a01b03959095168552602085019390935260408401919091526060830152608082015260a00190565b6000604082526124f760408301856121b9565b828103602084015261250981856121fc565b95945050505050565b60006060825261252560608301866121b9565b828103602084015261253781866121fc565b91505060018060a01b0383166040830152949350505050565b90815260200190565b9182526001600160a01b0316602082015260400190565b600060208252610ce0602083018461224f565b60208082526015908201527464732d6d6174682d7375622d756e646572666c6f7760581b604082015260600190565b60208082526014908201527364732d6d6174682d6d756c2d6f766572666c6f7760601b604082015260600190565b60208082526014908201527364732d6d6174682d6164642d6f766572666c6f7760601b604082015260600190565b6020808252601b908201527f5f67657447656c61746f47617350726963653a306f7242656c6f770000000000604082015260600190565b6020808252601e908201527f464d616b65722e5f69735661756c744f776e65723a756e646566696e65640000604082015260600190565b6020808252602e908201527f4647656c61746f446562744272696467652e5f676574466c6173684c6f616e5260408201526d1bdd5d194e881a5b1b1a5c5d5a5960921b606082015260800190565b9283526001600160a01b03918216602084015216604082015260600190565b918252602082015260400190565b93845260208401929092526040830152606082015260800190565b958652602086019490945260408501929092526060840152608083015260a082015260c00190565b60008085851115612749578182fd5b83861115612755578182fd5b5050820193919092039150565b6000821982111561277557612775612918565b500190565b6000826127895761278961292e565b500490565b80825b60018086116127a057506127cb565b8187048211156127b2576127b2612918565b808616156127bf57918102915b9490941c938002612791565b94509492505050565b6000610ce060001984846000826127ed57506001610ce0565b816127fa57506000610ce0565b8160018114612810576002811461281a57612847565b6001915050610ce0565b60ff84111561282b5761282b612918565b6001841b91508482111561284157612841612918565b50610ce0565b5060208310610133831016604e8410600b841016171561287a575081810a8381111561287557612875612918565b610ce0565b612887848484600161278e565b80860482111561289957612899612918565b02949350505050565b60008160001904831182151516156128bc576128bc612918565b500290565b6000828210156128d3576128d3612918565b500390565b60005b838110156128f35781810151838201526020016128db565b838111156101e35750506000910152565b6000826129135761291361292e565b500690565b634e487b7160e01b600052601160045260246000fd5b634e487b7160e01b600052601260045260246000fd5b634e487b7160e01b600052604160045260246000fd5b60e01c90565b600060443d101561297057611b5a565b600481823e6308c379a0612984825161295a565b1461298e57611b5a565b6040513d600319016004823e80513d67ffffffffffffffff81602484011181841117156129be5750505050611b5a565b828401925082519150808211156129d85750505050611b5a565b503d830160208284010111156129f057505050611b5a565b601f01601f1916810160200160405291505090565b6001600160a01b0381168114612a1a57600080fd5b5056fe436f6e6e65637447656c61746f446174614d616b6572546f416176652d76312e304647656c61746f446562744272696467652e5f676574476173436f73744d616b6572546f416176653a20696e76616c696420726f75746520696e646578a2646970667358221220b1f748ee1e602534747bc4f654275b36dc4ba214fb94c59047ddbab5c5a3a53c64736f6c63430008000033",
  "devdoc": {
    "kind": "dev",
    "methods": {
      "connectorID()": {
        "details": "Connector Details"
      },
      "getDataAndCastMakerToAave(uint256,address)": {
        "details": "payable to be compatible in conjunction with DSA.cast payable target",
        "params": {
          "_colToken": "vault's col token address .",
          "_vaultId": "Id of the unsafe vault of the client of Vault A Collateral."
        }
      }
    },
    "version": 1
  },
  "userdoc": {
    "kind": "user",
    "methods": {
      "getDataAndCastMakerToAave(uint256,address)": {
        "notice": "Entry Point for DSA.cast DebtBridge from e.g ETH-A to ETH-B"
      }
    },
    "version": 1
  },
  "storageLayout": {
    "storage": [],
    "types": null
  }
}