{
  "address": "0x9e52Ee93660BD7850BF0eB7a8498a951cC9F5Cfe",
  "abi": [
    {
      "inputs": [
        {
          "internalType": "uint256",
          "name": "__id",
          "type": "uint256"
        },
        {
          "internalType": "address",
          "name": "_oracleAggregator",
          "type": "address"
        },
        {
          "internalType": "address",
          "name": "__instaFeeCollector",
          "type": "address"
        },
        {
          "internalType": "address",
          "name": "__connectGelatoDebtBridgeFee",
          "type": "address"
        }
      ],
      "stateMutability": "nonpayable",
      "type": "constructor"
    },
    {
      "inputs": [],
      "name": "OK",
      "outputs": [
        {
          "internalType": "string",
          "name": "",
          "type": "string"
        }
      ],
      "stateMutability": "view",
      "type": "function"
    },
    {
      "inputs": [],
      "name": "connectGelatoDataFromMakerAddr",
      "outputs": [
        {
          "internalType": "address",
          "name": "",
          "type": "address"
        }
      ],
      "stateMutability": "view",
      "type": "function"
    },
    {
      "inputs": [],
      "name": "connectorID",
      "outputs": [
        {
          "internalType": "uint256",
          "name": "_type",
          "type": "uint256"
        },
        {
          "internalType": "uint256",
          "name": "id",
          "type": "uint256"
        }
      ],
      "stateMutability": "view",
      "type": "function"
    },
    {
      "inputs": [
        {
          "internalType": "uint256",
          "name": "_vaultId",
          "type": "uint256"
        },
        {
          "internalType": "address",
          "name": "_colToken",
          "type": "address"
        }
      ],
      "name": "getDataAndCastMakerToAave",
      "outputs": [],
      "stateMutability": "payable",
      "type": "function"
    },
    {
      "inputs": [],
      "name": "instaFeeCollector",
      "outputs": [
        {
          "internalType": "address",
          "name": "",
          "type": "address"
        }
      ],
      "stateMutability": "view",
      "type": "function"
    },
    {
      "inputs": [],
      "name": "name",
      "outputs": [
        {
          "internalType": "string",
          "name": "",
          "type": "string"
        }
      ],
      "stateMutability": "view",
      "type": "function"
    },
    {
      "inputs": [],
      "name": "oracleAggregator",
      "outputs": [
        {
          "internalType": "address",
          "name": "",
          "type": "address"
        }
      ],
      "stateMutability": "view",
      "type": "function"
    },
    {
      "inputs": [
        {
          "internalType": "uint256",
          "name": "",
          "type": "uint256"
        },
        {
          "internalType": "address",
          "name": "_dsa",
          "type": "address"
        },
        {
          "internalType": "bytes",
          "name": "_actionData",
          "type": "bytes"
        },
        {
          "internalType": "enum DataFlow",
          "name": "",
          "type": "uint8"
        },
        {
          "internalType": "uint256",
          "name": "",
          "type": "uint256"
        },
        {
          "internalType": "uint256",
          "name": "",
          "type": "uint256"
        }
      ],
      "name": "termsOk",
      "outputs": [
        {
          "internalType": "string",
          "name": "",
          "type": "string"
        }
      ],
      "stateMutability": "view",
      "type": "function"
    }
  ],
  "transactionHash": "0x241f834d87b5543a6d4e7d9c966e2d2482192ce775422da180993528d4a74684",
  "args": [
    79,
    "0x64f31D46C52bBDe223D863B11dAb9327aB1414E9",
    "0x0c159985E905ea1A3dA7305D70583Dd618862cf4",
    "0x9B6eeB49390626Dec7B3785D38879746923B308E"
  ],
  "solcInputHash": "06ff1a108d21b21e4ca3839d365cb0b5",
  "bytecode": "0x6101206040523480156200001257600080fd5b5060405162003e7838038062003e7883398181016040528101906200003891906200015d565b8383838383608081815250508273ffffffffffffffffffffffffffffffffffffffff1660a08173ffffffffffffffffffffffffffffffffffffffff1660601b815250508173ffffffffffffffffffffffffffffffffffffffff1660c08173ffffffffffffffffffffffffffffffffffffffff1660601b815250508073ffffffffffffffffffffffffffffffffffffffff166101008173ffffffffffffffffffffffffffffffffffffffff1660601b815250503073ffffffffffffffffffffffffffffffffffffffff1660e08173ffffffffffffffffffffffffffffffffffffffff1660601b8152505050505050505050506200023b565b600081519050620001408162000207565b92915050565b600081519050620001578162000221565b92915050565b600080600080608085870312156200017457600080fd5b6000620001848782880162000146565b945050602062000197878288016200012f565b9350506040620001aa878288016200012f565b9250506060620001bd878288016200012f565b91505092959194509250565b6000620001d682620001dd565b9050919050565b600073ffffffffffffffffffffffffffffffffffffffff82169050919050565b6000819050919050565b6200021281620001c9565b81146200021e57600080fd5b50565b6200022c81620001fd565b81146200023857600080fd5b50565b60805160a05160601c60c05160601c60e05160601c6101005160601c613bd0620002a860003960006113950152600081816101fa015261097e0152600081816102630152818161183a0152611a0001526000818161021e0152610601015260006102c50152613bd06000f3fe60806040526004361061007b5760003560e01c8063bc95af311161004e578063bc95af311461011d578063d48fe28014610148578063eb15f78114610173578063eb9e71261461019f5761007b565b806306fdde031461008057806308b0e9ce146100ab5780638dffe3f4146100d65780639ae4bca214610101575b600080fd5b34801561008c57600080fd5b506100956101dc565b6040516100a29190613297565b60405180910390f35b3480156100b757600080fd5b506100c06101f8565b6040516100cd9190613085565b60405180910390f35b3480156100e257600080fd5b506100eb61021c565b6040516100f89190613085565b60405180910390f35b61011b6004803603810190610116919061286b565b610240565b005b34801561012957600080fd5b50610132610261565b60405161013f9190613085565b60405180910390f35b34801561015457600080fd5b5061015d610285565b60405161016a9190613297565b60405180910390f35b34801561017f57600080fd5b506101886102be565b6040516101969291906133cb565b60405180910390f35b3480156101ab57600080fd5b506101c660048036038101906101c191906128a7565b6102f0565b6040516101d39190613297565b60405180910390f35b604051806060016040528060218152602001613b3d6021913981565b7f000000000000000000000000000000000000000000000000000000000000000081565b7f000000000000000000000000000000000000000000000000000000000000000081565b60008061024d84846104c7565b9150915061025b8282610889565b50505050565b7f000000000000000000000000000000000000000000000000000000000000000081565b6040518060400160405280600281526020017f4f4b00000000000000000000000000000000000000000000000000000000000081525081565b60008060017f000000000000000000000000000000000000000000000000000000000000000080925081935050509091565b606060008686600490602492610308939291906135cc565b8101906103159190612819565b905060008114156103ca573073ffffffffffffffffffffffffffffffffffffffff166306fdde036040518163ffffffff1660e01b815260040160006040518083038186803b15801561036657600080fd5b505afa15801561037a573d6000803e3d6000fd5b505050506040513d6000823e3d601f19601f820116820180604052508101906103a391906127af565b6040516020016103b39190612fdb565b6040516020818303038152906040529150506104bc565b6103d48189610a55565b610482573073ffffffffffffffffffffffffffffffffffffffff166306fdde036040518163ffffffff1660e01b815260040160006040518083038186803b15801561041e57600080fd5b505afa158015610432573d6000803e3d6000fd5b505050506040513d6000823e3d601f19601f8201168201806040525081019061045b91906127af565b60405160200161046b9190612ffd565b6040516020818303038152906040529150506104bc565b6040518060400160405280600281526020017f4f4b0000000000000000000000000000000000000000000000000000000000008152509150505b979650505050505050565b606080600167ffffffffffffffff81111561050b577f4e487b7100000000000000000000000000000000000000000000000000000000600052604160045260246000fd5b6040519080825280602002602001820160405280156105395781602001602082028036833780820191505090505b50915073eb4bf86589f808f90eec8e964dbf16bd4d2849058260008151811061058b577f4e487b7100000000000000000000000000000000000000000000000000000000600052603260045260246000fd5b602002602001019073ffffffffffffffffffffffffffffffffffffffff16908173ffffffffffffffffffffffffffffffffffffffff168152505060006105d86105d386610be5565b610eaf565b905060006105fa736b175474e89094c44da98b954eedeac495271d0f83610eca565b90506000807f000000000000000000000000000000000000000000000000000000000000000073ffffffffffffffffffffffffffffffffffffffff16633c772b6c61064c61064786611005565b61107d565b73eeeeeeeeeeeeeeeeeeeeeeeeeeeeeeeeeeeeeeee736b175474e89094c44da98b954eedeac495271d0f6040518463ffffffff1660e01b815260040161069493929190613394565b604080518083038186803b1580156106ab57600080fd5b505afa1580156106bf573d6000803e3d6000fd5b505050506040513d601f19601f820116820180604052508101906106e3919061294e565b915091506106f18183611097565b915060008061070b8a8a886107058e6110c3565b8861120c565b91509150600167ffffffffffffffff811115610750577f4e487b7100000000000000000000000000000000000000000000000000000000600052604160045260246000fd5b60405190808252806020026020018201604052801561078357816020015b606081526020019060019003908161076e5790505b509650638d0a9b1b60e01b736b175474e89094c44da98b954eedeac495271d0f878785856040516020016107b89291906131d7565b6040516020818303038152906040526040516024016107da94939291906130f3565b604051602081830303815290604052907bffffffffffffffffffffffffffffffffffffffffffffffffffffffff19166020820180517bffffffffffffffffffffffffffffffffffffffffffffffffffffffff838183161783525050505087600081518110610871577f4e487b7100000000000000000000000000000000000000000000000000000000600052603260045260246000fd5b60200260200101819052505050505050509250929050565b600063e0e90acf60e01b8383336040516024016108a89392919061320e565b604051602081830303815290604052907bffffffffffffffffffffffffffffffffffffffffffffffffffffffff19166020820180517bffffffffffffffffffffffffffffffffffffffffffffffffffffffff838183161783525050505090506000803073ffffffffffffffffffffffffffffffffffffffff168360405161092f9190612f7e565b600060405180830381855af49150503d806000811461096a576040519150601f19603f3d011682016040523d82523d6000602084013e61096f565b606091505b509150915081610a4e57610a4d7f000000000000000000000000000000000000000000000000000000000000000073ffffffffffffffffffffffffffffffffffffffff166306fdde036040518163ffffffff1660e01b815260040160006040518083038186803b1580156109e257600080fd5b505afa1580156109f6573d6000803e3d6000fd5b505050506040513d6000823e3d601f19601f82011682018060405250810190610a1f91906127af565b604051602001610a2f9190613041565b60405160208183030381529060405282611bd690919063ffffffff16565b5b5050505050565b600080831415610a685760009050610bdf565b735ef30b9986345249bc32d8928b7ee64de9435e3973ffffffffffffffffffffffffffffffffffffffff16638161b120846040518263ffffffff1660e01b8152600401610ab59190613379565b60206040518083038186803b158015610acd57600080fd5b505afa925050508015610afe57506040513d601f19601f82011682018060405250810190610afb919061270b565b60015b610bac57610b0a613a03565b80610b155750610b71565b80604051602001610b269190613063565b6040516020818303038152906040526040517f08c379a0000000000000000000000000000000000000000000000000000000008152600401610b689190613297565b60405180910390fd5b6040517f08c379a0000000000000000000000000000000000000000000000000000000008152600401610ba390613339565b60405180910390fd5b8073ffffffffffffffffffffffffffffffffffffffff168373ffffffffffffffffffffffffffffffffffffffff16149150505b92915050565b600080735ef30b9986345249bc32d8928b7ee64de9435e399050600080610c0c8386611d3f565b9150915060008373ffffffffffffffffffffffffffffffffffffffff166336569e776040518163ffffffff1660e01b815260040160206040518083038186803b158015610c5857600080fd5b505afa158015610c6c573d6000803e3d6000fd5b505050506040513d601f19601f82011682018060405250810190610c90919061270b565b905060008173ffffffffffffffffffffffffffffffffffffffff1663d9638d36856040518263ffffffff1660e01b8152600401610ccd9190613253565b60a06040518083038186803b158015610ce557600080fd5b505afa158015610cf9573d6000803e3d6000fd5b505050506040513d601f19601f82011682018060405250810190610d1d919061298a565b50505091505060008273ffffffffffffffffffffffffffffffffffffffff16632424be5c86866040518363ffffffff1660e01b8152600401610d6092919061326e565b604080518083038186803b158015610d7757600080fd5b505afa158015610d8b573d6000803e3d6000fd5b505050506040513d601f19601f82011682018060405250810190610daf919061294e565b91505060008373ffffffffffffffffffffffffffffffffffffffff16636c25b346866040518263ffffffff1660e01b8152600401610ded9190613085565b60206040518083038186803b158015610e0557600080fd5b505afa158015610e19573d6000803e3d6000fd5b505050506040513d601f19601f82011682018060405250810190610e3d9190612842565b90506000610e54610e4e8486611e5f565b83611ecc565b90506b033b2e3c9fd0803ce800000081610e6e9190613655565b985080610e878a6b033b2e3c9fd0803ce8000000611e5f565b10610e925788610ea0565b600189610e9f91906135ff565b5b98505050505050505050919050565b6000610ec382670df27a2cdf448000611f25565b9050919050565b60008073a004a5afba04b74037e9e52ba1f7eb02b5e6150973ffffffffffffffffffffffffffffffffffffffff16635a860c87856040518263ffffffff1660e01b8152600401610f1a9190613085565b60806040518083038186803b158015610f3257600080fd5b505afa158015610f46573d6000803e3d6000fd5b505050506040513d601f19601f82011682018060405250810190610f6a91906127f0565b90508281600001511115610f82576000915050610fff565b8281602001511115610f98576001915050610fff565b8281604001511115610fae576002915050610fff565b8281606001511115610fc4576003915050610fff565b6040517f08c379a0000000000000000000000000000000000000000000000000000000008152600401610ff690613359565b60405180910390fd5b92915050565b6000611029826040518060600160405280603d8152602001613b5e603d9139611f69565b611076611034611fb5565b836004811061106c577f4e487b7100000000000000000000000000000000000000000000000000000000600052603260045260246000fd5b6020020151611fef565b9050919050565b60006110908261108b61201d565b611e5f565b9050919050565b60006110bb828460126110aa9190613851565b600a6110b691906136d9565b611e5f565b905092915050565b600080735ef30b9986345249bc32d8928b7ee64de9435e39905060008173ffffffffffffffffffffffffffffffffffffffff166336569e776040518163ffffffff1660e01b815260040160206040518083038186803b15801561112557600080fd5b505afa158015611139573d6000803e3d6000fd5b505050506040513d601f19601f8201168201806040525081019061115d919061270b565b905060008061116c8487611d3f565b9150915060008373ffffffffffffffffffffffffffffffffffffffff16632424be5c84846040518363ffffffff1660e01b81526004016111ad92919061326e565b604080518083038186803b1580156111c457600080fd5b505afa1580156111d8573d6000803e3d6000fd5b505050506040513d601f19601f820116820180604052508101906111fc919061294e565b5090508095505050505050919050565b606080600867ffffffffffffffff811115611250577f4e487b7100000000000000000000000000000000000000000000000000000000600052604160045260246000fd5b60405190808252806020026020018201604052801561127e5781602001602082028036833780820191505090505b50915073ac02030d8a8f49ed04b2f52c394d3f901a10f8a9826000815181106112d0577f4e487b7100000000000000000000000000000000000000000000000000000000600052603260045260246000fd5b602002602001019073ffffffffffffffffffffffffffffffffffffffff16908173ffffffffffffffffffffffffffffffffffffffff168152505073ac02030d8a8f49ed04b2f52c394d3f901a10f8a982600181518110611359577f4e487b7100000000000000000000000000000000000000000000000000000000600052603260045260246000fd5b602002602001019073ffffffffffffffffffffffffffffffffffffffff16908173ffffffffffffffffffffffffffffffffffffffff16815250507f0000000000000000000000000000000000000000000000000000000000000000826002815181106113ee577f4e487b7100000000000000000000000000000000000000000000000000000000600052603260045260246000fd5b602002602001019073ffffffffffffffffffffffffffffffffffffffff16908173ffffffffffffffffffffffffffffffffffffffff168152505073bf6e4331ffd02f7043e62788fd272aefc712f5ee82600381518110611477577f4e487b7100000000000000000000000000000000000000000000000000000000600052603260045260246000fd5b602002602001019073ffffffffffffffffffffffffffffffffffffffff16908173ffffffffffffffffffffffffffffffffffffffff168152505073bf6e4331ffd02f7043e62788fd272aefc712f5ee82600481518110611500577f4e487b7100000000000000000000000000000000000000000000000000000000600052603260045260246000fd5b602002602001019073ffffffffffffffffffffffffffffffffffffffff16908173ffffffffffffffffffffffffffffffffffffffff168152505073e5398f279175962e56fe4c5e0b62dc7208ef36c682600581518110611589577f4e487b7100000000000000000000000000000000000000000000000000000000600052603260045260246000fd5b602002602001019073ffffffffffffffffffffffffffffffffffffffff16908173ffffffffffffffffffffffffffffffffffffffff168152505073e5398f279175962e56fe4c5e0b62dc7208ef36c682600681518110611612577f4e487b7100000000000000000000000000000000000000000000000000000000600052603260045260246000fd5b602002602001019073ffffffffffffffffffffffffffffffffffffffff16908173ffffffffffffffffffffffffffffffffffffffff168152505073eb4bf86589f808f90eec8e964dbf16bd4d2849058260078151811061169b577f4e487b7100000000000000000000000000000000000000000000000000000000600052603260045260246000fd5b602002602001019073ffffffffffffffffffffffffffffffffffffffff16908173ffffffffffffffffffffffffffffffffffffffff1681525050600867ffffffffffffffff811115611716577f4e487b7100000000000000000000000000000000000000000000000000000000600052604160045260246000fd5b60405190808252806020026020018201604052801561174957816020015b60608152602001906001900390816117345790505b50905061177b877fffffffffffffffffffffffffffffffffffffffffffffffffffffffffffffffff60006102586120fe565b816000815181106117b5577f4e487b7100000000000000000000000000000000000000000000000000000000600052603260045260246000fd5b60200260200101819052506117ed877fffffffffffffffffffffffffffffffffffffffffffffffffffffffffffffffff600080612186565b81600181518110611827577f4e487b7100000000000000000000000000000000000000000000000000000000600052603260045260246000fd5b60200260200101819052506118e26000847f000000000000000000000000000000000000000000000000000000000000000073ffffffffffffffffffffffffffffffffffffffff1663ddca3f436040518163ffffffff1660e01b815260040160206040518083038186803b15801561189e57600080fd5b505afa1580156118b2573d6000803e3d6000fd5b505050506040513d601f19601f820116820180604052508101906118d69190612842565b6102588061025961220e565b8160028151811061191c577f4e487b7100000000000000000000000000000000000000000000000000000000600052603260045260246000fd5b6020026020010181905250611934868560008061229c565b8160038151811061196e577f4e487b7100000000000000000000000000000000000000000000000000000000600052603260045260246000fd5b602002602001018190525061199f736b175474e89094c44da98b954eedeac495271d0f600060026102586000612324565b816004815181106119d9577f4e487b7100000000000000000000000000000000000000000000000000000000600052603260045260246000fd5b6020026020010181905250611aa6736b175474e89094c44da98b954eedeac495271d0f60007f000000000000000000000000000000000000000000000000000000000000000073ffffffffffffffffffffffffffffffffffffffff1663c415b95c6040518163ffffffff1660e01b815260040160206040518083038186803b158015611a6457600080fd5b505afa158015611a78573d6000803e3d6000fd5b505050506040513d601f19601f82011682018060405250810190611a9c9190612734565b61025960006123af565b81600581518110611ae0577f4e487b7100000000000000000000000000000000000000000000000000000000600052603260045260246000fd5b6020026020010181905250611b21736b175474e89094c44da98b954eedeac495271d0f847398edc8067cc671bcae82d36dcc609c3e4e078ac86000806123af565b81600681518110611b5b577f4e487b7100000000000000000000000000000000000000000000000000000000600052603260045260246000fd5b6020026020010181905250611b87736b175474e89094c44da98b954eedeac495271d0f8660008061243a565b81600781518110611bc1577f4e487b7100000000000000000000000000000000000000000000000000000000600052603260045260246000fd5b60200260200101819052509550959350505050565b600460208351611be6919061391a565b1415611ce3576000826020015190506308c379a060e01b817bffffffffffffffffffffffffffffffffffffffffffffffffffffffff19161415611c87576044830192508183604051602001611c3c929190612f95565b6040516020818303038152906040526040517f08c379a0000000000000000000000000000000000000000000000000000000008152600401611c7e9190613297565b60405180910390fd5b81604051602001611c989190612fb9565b6040516020818303038152906040526040517f08c379a0000000000000000000000000000000000000000000000000000000008152600401611cda9190613297565b60405180910390fd5b80604051602001611cf4919061301f565b6040516020818303038152906040526040517f08c379a0000000000000000000000000000000000000000000000000000000008152600401611d369190613297565b60405180910390fd5b6000808373ffffffffffffffffffffffffffffffffffffffff16632c2cb9fd846040518263ffffffff1660e01b8152600401611d7b9190613379565b60206040518083038186803b158015611d9357600080fd5b505afa158015611da7573d6000803e3d6000fd5b505050506040513d601f19601f82011682018060405250810190611dcb919061275d565b91508373ffffffffffffffffffffffffffffffffffffffff16632726b073846040518263ffffffff1660e01b8152600401611e069190613379565b60206040518083038186803b158015611e1e57600080fd5b505afa158015611e32573d6000803e3d6000fd5b505050506040513d601f19601f82011682018060405250810190611e56919061270b565b90509250929050565b600080821480611e87575082828385611e7891906137f7565b925082611e859190613655565b145b611ec6576040517f08c379a0000000000000000000000000000000000000000000000000000000008152600401611ebd906132d9565b60405180910390fd5b92915050565b6000828284611edb9190613851565b9150811115611f1f576040517f08c379a0000000000000000000000000000000000000000000000000000000008152600401611f16906132b9565b60405180910390fd5b92915050565b6000670de0b6b3a7640000611f57611f3d8585611e5f565b6002670de0b6b3a7640000611f529190613655565b6124c2565b611f619190613655565b905092915050565b60048211158190611fb0576040517f08c379a0000000000000000000000000000000000000000000000000000000008152600401611fa79190613297565b60405180910390fd5b505050565b611fbd61251b565b60405180608001604052806223fd068152602001622d1e89815260200162339ac88152602001623d7bd8815250905090565b60006064601e606461200191906135ff565b8361200c91906137f7565b6120169190613655565b9050919050565b60008073169e633a2d1e6c10dd91238ba11c4a708dfef37c73ffffffffffffffffffffffffffffffffffffffff166350d25bcd6040518163ffffffff1660e01b815260040160206040518083038186803b15801561207a57600080fd5b505afa15801561208e573d6000803e3d6000fd5b505050506040513d601f19601f820116820180604052508101906120b29190612786565b9050600081136120f7576040517f08c379a00000000000000000000000000000000000000000000000000000000081526004016120ee90613319565b60405180910390fd5b8091505090565b606063d5e0da3660e01b8585858560405160240161211f94939291906133f4565b604051602081830303815290604052907bffffffffffffffffffffffffffffffffffffffffffffffffffffffff19166020820180517bffffffffffffffffffffffffffffffffffffffffffffffffffffffff83818316178352505050509050949350505050565b606063674fb1b460e01b858585856040516024016121a794939291906133f4565b604051602081830303815290604052907bffffffffffffffffffffffffffffffffffffffffffffffffffffffff19166020820180517bffffffffffffffffffffffffffffffffffffffffffffffffffffffff83818316178352505050509050949350505050565b606063acd2fd9360e01b87878787878760405160240161223396959493929190613439565b604051602081830303815290604052907bffffffffffffffffffffffffffffffffffffffffffffffffffffffff19166020820180517bffffffffffffffffffffffffffffffffffffffffffffffffffffffff838183161783525050505090509695505050505050565b606063ce88b43960e01b858585856040516024016122bd949392919061313f565b604051602081830303815290604052907bffffffffffffffffffffffffffffffffffffffffffffffffffffffff19166020820180517bffffffffffffffffffffffffffffffffffffffffffffffffffffffff83818316178352505050509050949350505050565b6060636abcd3de60e01b8686868686604051602401612347959493929190613184565b604051602081830303815290604052907bffffffffffffffffffffffffffffffffffffffffffffffffffffffff19166020820180517bffffffffffffffffffffffffffffffffffffffffffffffffffffffff8381831617835250505050905095945050505050565b6060634bd3ab8260e01b86868686866040516024016123d29594939291906130a0565b604051602081830303815290604052907bffffffffffffffffffffffffffffffffffffffffffffffffffffffff19166020820180517bffffffffffffffffffffffffffffffffffffffffffffffffffffffff8381831617835250505050905095945050505050565b606063213980e860e01b8585858560405160240161245b949392919061313f565b604051602081830303815290604052907bffffffffffffffffffffffffffffffffffffffffffffffffffffffff19166020820180517bffffffffffffffffffffffffffffffffffffffffffffffffffffffff83818316178352505050509050949350505050565b60008282846124d191906135ff565b9150811015612515576040517f08c379a000000000000000000000000000000000000000000000000000000000815260040161250c906132f9565b60405180910390fd5b92915050565b6040518060800160405280600490602082028036833780820191505090505090565b600061255061254b846134cb565b61349a565b90508281526020810184848401111561256857600080fd5b6125738482856138e7565b509392505050565b60008135905061258a81613ab9565b92915050565b60008151905061259f81613ab9565b92915050565b6000815190506125b481613ad0565b92915050565b6000815190506125c981613ae7565b92915050565b60008083601f8401126125e157600080fd5b8235905067ffffffffffffffff8111156125fa57600080fd5b60208301915083600182028301111561261257600080fd5b9250929050565b60008135905061262881613afe565b92915050565b60008151905061263d81613b0e565b92915050565b600082601f83011261265457600080fd5b815161266484826020860161253d565b91505092915050565b60006080828403121561267f57600080fd5b612689608061349a565b90506000612699848285016126f6565b60008301525060206126ad848285016126f6565b60208301525060406126c1848285016126f6565b60408301525060606126d5848285016126f6565b60608301525092915050565b6000813590506126f081613b25565b92915050565b60008151905061270581613b25565b92915050565b60006020828403121561271d57600080fd5b600061272b84828501612590565b91505092915050565b60006020828403121561274657600080fd5b6000612754848285016125a5565b91505092915050565b60006020828403121561276f57600080fd5b600061277d848285016125ba565b91505092915050565b60006020828403121561279857600080fd5b60006127a68482850161262e565b91505092915050565b6000602082840312156127c157600080fd5b600082015167ffffffffffffffff8111156127db57600080fd5b6127e784828501612643565b91505092915050565b60006080828403121561280257600080fd5b60006128108482850161266d565b91505092915050565b60006020828403121561282b57600080fd5b6000612839848285016126e1565b91505092915050565b60006020828403121561285457600080fd5b6000612862848285016126f6565b91505092915050565b6000806040838503121561287e57600080fd5b600061288c858286016126e1565b925050602061289d8582860161257b565b9150509250929050565b600080600080600080600060c0888a0312156128c257600080fd5b60006128d08a828b016126e1565b97505060206128e18a828b0161257b565b965050604088013567ffffffffffffffff8111156128fe57600080fd5b61290a8a828b016125cf565b9550955050606061291d8a828b01612619565b935050608061292e8a828b016126e1565b92505060a061293f8a828b016126e1565b91505092959891949750929550565b6000806040838503121561296157600080fd5b600061296f858286016126f6565b9250506020612980858286016126f6565b9150509250929050565b600080600080600060a086880312156129a257600080fd5b60006129b0888289016126f6565b95505060206129c1888289016126f6565b94505060406129d2888289016126f6565b93505060606129e3888289016126f6565b92505060806129f4888289016126f6565b9150509295509295909350565b6000612a0d8383612a3c565b60208301905092915050565b6000612a258383612b3c565b905092915050565b612a3681613897565b82525050565b612a4581613885565b82525050565b612a5481613885565b82525050565b6000612a658261351b565b612a6f8185613561565b9350612a7a836134fb565b8060005b83811015612aab578151612a928882612a01565b9750612a9d83613547565b925050600181019050612a7e565b5085935050505092915050565b6000612ac382613526565b612acd8185613572565b935083602082028501612adf8561350b565b8060005b85811015612b1b5784840389528151612afc8582612a19565b9450612b0783613554565b925060208a01995050600181019050612ae3565b50829750879550505050505092915050565b612b36816138a9565b82525050565b6000612b4782613531565b612b518185613583565b9350612b618185602086016138e7565b612b6a816139d8565b840191505092915050565b6000612b8082613531565b612b8a8185613594565b9350612b9a8185602086016138e7565b612ba3816139d8565b840191505092915050565b6000612bb982613531565b612bc381856135a5565b9350612bd38185602086016138e7565b80840191505092915050565b6000612bea8261353c565b612bf481856135b0565b9350612c048185602086016138e7565b612c0d816139d8565b840191505092915050565b6000612c238261353c565b612c2d81856135c1565b9350612c3d8185602086016138e7565b80840191505092915050565b6000612c566015836135b0565b91507f64732d6d6174682d7375622d756e646572666c6f7700000000000000000000006000830152602082019050919050565b6000612c966014836135b0565b91507f64732d6d6174682d6d756c2d6f766572666c6f770000000000000000000000006000830152602082019050919050565b6000612cd66014836135b0565b91507f64732d6d6174682d6164642d6f766572666c6f770000000000000000000000006000830152602082019050919050565b6000612d16600f836135c1565b91507f4e6f4572726f7253656c6563746f7200000000000000000000000000000000006000830152600f82019050919050565b6000612d56601b836135b0565b91507f5f67657447656c61746f47617350726963653a306f7242656c6f7700000000006000830152602082019050919050565b6000612d966015836135c1565b91507f464d616b65722e5f69735661756c744f776e65723a00000000000000000000006000830152601582019050919050565b6000612dd6601e836135b0565b91507f464d616b65722e5f69735661756c744f776e65723a756e646566696e656400006000830152602082019050919050565b6000612e166017836135c1565b91507f3a205661756c74204964206973206e6f742076616c69640000000000000000006000830152601782019050919050565b6000612e566018836135c1565b91507f3a205661756c74206e6f74206f776e65642062792064736100000000000000006000830152601882019050919050565b6000612e96602e836135b0565b91507f4647656c61746f446562744272696467652e5f676574466c6173684c6f616e5260008301527f6f7574653a20696c6c69717569640000000000000000000000000000000000006020830152604082019050919050565b6000612efc6014836135c1565b91507f556e657870656374656452657475726e646174610000000000000000000000006000830152601482019050919050565b6000612f3c6007836135c1565b91507f2e5f636173743a000000000000000000000000000000000000000000000000006000830152600782019050919050565b612f78816138dd565b82525050565b6000612f8a8284612bae565b915081905092915050565b6000612fa18285612c18565b9150612fad8284612c18565b91508190509392505050565b6000612fc58284612c18565b9150612fd082612d09565b915081905092915050565b6000612fe78284612c18565b9150612ff282612e09565b915081905092915050565b60006130098284612c18565b915061301482612e49565b915081905092915050565b600061302b8284612c18565b915061303682612eef565b915081905092915050565b600061304d8284612c18565b915061305882612f2f565b915081905092915050565b600061306e82612d89565b915061307a8284612c18565b915081905092915050565b600060208201905061309a6000830184612a4b565b92915050565b600060a0820190506130b56000830188612a4b565b6130c26020830187612f6f565b6130cf6040830186612a2d565b6130dc6060830185612f6f565b6130e96080830184612f6f565b9695505050505050565b60006080820190506131086000830187612a4b565b6131156020830186612f6f565b6131226040830185612f6f565b81810360608301526131348184612b75565b905095945050505050565b60006080820190506131546000830187612a4b565b6131616020830186612f6f565b61316e6040830185612f6f565b61317b6060830184612f6f565b95945050505050565b600060a0820190506131996000830188612a4b565b6131a66020830187612f6f565b6131b36040830186612f6f565b6131c06060830185612f6f565b6131cd6080830184612f6f565b9695505050505050565b600060408201905081810360008301526131f18185612a5a565b905081810360208301526132058184612ab8565b90509392505050565b600060608201905081810360008301526132288186612a5a565b9050818103602083015261323c8185612ab8565b905061324b6040830184612a4b565b949350505050565b60006020820190506132686000830184612b2d565b92915050565b60006040820190506132836000830185612b2d565b6132906020830184612a4b565b9392505050565b600060208201905081810360008301526132b18184612bdf565b905092915050565b600060208201905081810360008301526132d281612c49565b9050919050565b600060208201905081810360008301526132f281612c89565b9050919050565b6000602082019050818103600083015261331281612cc9565b9050919050565b6000602082019050818103600083015261333281612d49565b9050919050565b6000602082019050818103600083015261335281612dc9565b9050919050565b6000602082019050818103600083015261337281612e89565b9050919050565b600060208201905061338e6000830184612f6f565b92915050565b60006060820190506133a96000830186612f6f565b6133b66020830185612a4b565b6133c36040830184612a4b565b949350505050565b60006040820190506133e06000830185612f6f565b6133ed6020830184612f6f565b9392505050565b60006080820190506134096000830187612f6f565b6134166020830186612f6f565b6134236040830185612f6f565b6134306060830184612f6f565b95945050505050565b600060c08201905061344e6000830189612f6f565b61345b6020830188612f6f565b6134686040830187612f6f565b6134756060830186612f6f565b6134826080830185612f6f565b61348f60a0830184612f6f565b979650505050505050565b6000604051905081810181811067ffffffffffffffff821117156134c1576134c06139a9565b5b8060405250919050565b600067ffffffffffffffff8211156134e6576134e56139a9565b5b601f19601f8301169050602081019050919050565b6000819050602082019050919050565b6000819050602082019050919050565b600081519050919050565b600081519050919050565b600081519050919050565b600081519050919050565b6000602082019050919050565b6000602082019050919050565b600082825260208201905092915050565b600082825260208201905092915050565b600082825260208201905092915050565b600082825260208201905092915050565b600081905092915050565b600082825260208201905092915050565b600081905092915050565b600080858511156135dc57600080fd5b838611156135e957600080fd5b6001850283019150848603905094509492505050565b600061360a826138dd565b9150613615836138dd565b9250827fffffffffffffffffffffffffffffffffffffffffffffffffffffffffffffffff0382111561364a5761364961394b565b5b828201905092915050565b6000613660826138dd565b915061366b836138dd565b92508261367b5761367a61397a565b5b828204905092915050565b6000808291508390505b60018511156136d0578086048111156136ac576136ab61394b565b5b60018516156136bb5780820291505b80810290506136c9856139e9565b9450613690565b94509492505050565b60006136e4826138dd565b91506136ef836138dd565b925061371c7fffffffffffffffffffffffffffffffffffffffffffffffffffffffffffffffff8484613724565b905092915050565b60008261373457600190506137f0565b8161374257600090506137f0565b8160018114613758576002811461376257613791565b60019150506137f0565b60ff8411156137745761377361394b565b5b8360020a91508482111561378b5761378a61394b565b5b506137f0565b5060208310610133831016604e8410600b84101617156137c65782820a9050838111156137c1576137c061394b565b5b6137f0565b6137d38484846001613686565b925090508184048111156137ea576137e961394b565b5b81810290505b9392505050565b6000613802826138dd565b915061380d836138dd565b9250817fffffffffffffffffffffffffffffffffffffffffffffffffffffffffffffffff04831182151516156138465761384561394b565b5b828202905092915050565b600061385c826138dd565b9150613867836138dd565b92508282101561387a5761387961394b565b5b828203905092915050565b6000613890826138bd565b9050919050565b60006138a2826138bd565b9050919050565b6000819050919050565b6000819050919050565b600073ffffffffffffffffffffffffffffffffffffffff82169050919050565b6000819050919050565b60005b838110156139055780820151818401526020810190506138ea565b83811115613914576000848401525b50505050565b6000613925826138dd565b9150613930836138dd565b9250826139405761393f61397a565b5b828206905092915050565b7f4e487b7100000000000000000000000000000000000000000000000000000000600052601160045260246000fd5b7f4e487b7100000000000000000000000000000000000000000000000000000000600052601260045260246000fd5b7f4e487b7100000000000000000000000000000000000000000000000000000000600052604160045260246000fd5b6000601f19601f8301169050919050565b60008160011c9050919050565b60008160e01c9050919050565b600060443d1015613a1357613ab6565b60046000803e613a246000516139f6565b6308c379a08114613a355750613ab6565b60405160043d036004823e80513d602482011167ffffffffffffffff82111715613a6157505050613ab6565b808201805167ffffffffffffffff811115613a80575050505050613ab6565b8060208301013d8501811115613a9b57505050505050613ab6565b613aa4826139d8565b60208401016040528296505050505050505b90565b613ac281613885565b8114613acd57600080fd5b50565b613ad981613897565b8114613ae457600080fd5b50565b613af0816138a9565b8114613afb57600080fd5b50565b60048110613b0b57600080fd5b50565b613b17816138b3565b8114613b2257600080fd5b50565b613b2e816138dd565b8114613b3957600080fd5b5056fe436f6e6e65637447656c61746f446174614d616b6572546f416176652d76312e304647656c61746f446562744272696467652e5f676574476173436f73744d616b6572546f416176653a20696e76616c696420726f75746520696e646578a264697066735822122046fece6b61386ba1c26378bd513149211b19aa4d677c71080979e8fd3772e77d64736f6c63430008000033",
  "devdoc": {
    "kind": "dev",
    "methods": {
      "connectorID()": {
        "details": "Connector Details"
      },
      "getDataAndCastMakerToAave(uint256,address)": {
        "details": "payable to be compatible in conjunction with DSA.cast payable target",
        "params": {
          "_colToken": "vault's col token address .",
          "_vaultId": "Id of the unsafe vault of the client of Vault A Collateral."
        }
      }
    },
    "version": 1
  },
  "userdoc": {
    "kind": "user",
    "methods": {
      "getDataAndCastMakerToAave(uint256,address)": {
        "notice": "Entry Point for DSA.cast DebtBridge from e.g ETH-A to ETH-B"
      }
    },
    "version": 1
  },
  "storageLayout": {
    "storage": [],
    "types": null
  }
}