{
  "address": "0xC853d1C2fa720FB12848AEceFcbB6e05bA16476c",
  "abi": [
    {
      "inputs": [
        {
          "internalType": "uint256",
          "name": "id",
          "type": "uint256"
        },
        {
          "internalType": "address",
          "name": "connectGelatoExecutorPayment",
          "type": "address"
        }
      ],
      "stateMutability": "nonpayable",
      "type": "constructor"
    },
    {
      "inputs": [],
      "name": "OK",
      "outputs": [
        {
          "internalType": "string",
          "name": "",
          "type": "string"
        }
      ],
      "stateMutability": "view",
      "type": "function"
    },
    {
      "inputs": [],
      "name": "connectorID",
      "outputs": [
        {
          "internalType": "uint256",
          "name": "_type",
          "type": "uint256"
        },
        {
          "internalType": "uint256",
          "name": "id",
          "type": "uint256"
        }
      ],
      "stateMutability": "view",
      "type": "function"
    },
    {
      "inputs": [
        {
          "internalType": "uint256",
          "name": "_vaultAId",
          "type": "uint256"
        },
        {
          "internalType": "uint256",
          "name": "_vaultBId",
          "type": "uint256"
        },
        {
          "internalType": "address",
          "name": "_colToken",
          "type": "address"
        },
        {
          "internalType": "string",
          "name": "_colType",
          "type": "string"
        }
      ],
      "name": "getDataAndCastMakerToMaker",
      "outputs": [],
      "stateMutability": "payable",
      "type": "function"
    },
    {
      "inputs": [],
      "name": "name",
      "outputs": [
        {
          "internalType": "string",
          "name": "",
          "type": "string"
        }
      ],
      "stateMutability": "view",
      "type": "function"
    },
    {
      "inputs": [
        {
          "internalType": "uint256",
          "name": "",
          "type": "uint256"
        },
        {
          "internalType": "address",
          "name": "_dsa",
          "type": "address"
        },
        {
          "internalType": "bytes",
          "name": "_actionData",
          "type": "bytes"
        },
        {
          "internalType": "enum DataFlow",
          "name": "",
          "type": "uint8"
        },
        {
          "internalType": "uint256",
          "name": "",
          "type": "uint256"
        },
        {
          "internalType": "uint256",
          "name": "",
          "type": "uint256"
        }
      ],
      "name": "termsOk",
      "outputs": [
        {
          "internalType": "string",
          "name": "",
          "type": "string"
        }
      ],
      "stateMutability": "view",
      "type": "function"
    }
  ],
  "transactionHash": "0x3a57d71e24ecbfbbc568484969ba94eb791aa6220884d06c984869cfa46ab351",
  "args": [
    59,
    "0x5A6bC81908Df5EC5DC4ad3Bd59AEabA1B86Fc126"
  ],
  "solcInputHash": "ec40e61019af6f0225ab4926f4a0148d",
  "bytecode": "0x60c060405234801561001057600080fd5b5060405162002346380380620023468339810160408190526100319161004c565b60809190915260601b6001600160601b03191660a052610087565b6000806040838503121561005e578182fd5b825160208401519092506001600160a01b038116811461007c578182fd5b809150509250929050565b60805160a05160601c612293620000b360003980610d33528061106652508061014d52506122936000f3fe60806040526004361061004a5760003560e01c806306fdde031461004f57806345c4b9b51461007a578063d48fe2801461008f578063eb15f781146100a4578063eb9e7126146100c7575b600080fd5b34801561005b57600080fd5b506100646100e7565b6040516100719190611f92565b60405180910390f35b61008d610088366004611d92565b610103565b005b34801561009b57600080fd5b5061006461012a565b3480156100b057600080fd5b506100b9610148565b604051610071929190612050565b3480156100d357600080fd5b506100646100e2366004611c5e565b61016f565b6040518060600160405280602681526020016122386026913981565b6060806101138787878787610212565b9150915061012182826103fc565b50505050505050565b604051806040016040528060028152602001614f4b60f01b81525081565b6001907f000000000000000000000000000000000000000000000000000000000000000090565b60606000610180866004818a612082565b81019061018d9190611ce5565b505050905080600014156101bc576040518060600160405280603a815260200161219b603a9139915050610207565b6101c681896104e0565b6101eb576040518060600160405280603b81526020016121fd603b9139915050610207565b50506040805180820190915260028152614f4b60f01b60208201525b979650505050505050565b6040805160018082528183019092526060918291906020808301908036833701905050915073eb4bf86589f808f90eec8e964dbf16bd4d2849058260008151811061025957fe5b60200260200101906001600160a01b031690816001600160a01b03168152505061028386306104e0565b61028e576000610290565b855b955060006102a56102a0896106ea565b61094f565b905060006102b289610963565b905060006102d4736b175474e89094c44da98b954eedeac495271d0f84610a84565b905060006102e38a1583610b90565b905060006102f082610bf0565b90506060808c1561030e576103098e8e8e8a8a88610c03565b61031d565b61031d8e8d8d8d8b8b89610ef3565b604080516001808252818301909252929450909250816020015b6060815260200190600190039081610337579050509750638d0a9b1b60e01b736b175474e89094c44da98b954eedeac495271d0f88878585604051602001610380929190611f26565b60408051601f19818403018152908290526103a094939291602401611eef565b604051602081830303815290604052906001600160e01b0319166020820180516001600160e01b038381831617835250505050886000815181106103e057fe5b6020026020010181905250505050505050509550959350505050565b606063e0e90acf60e01b83833360405160240161041b93929190611f54565b604051602081830303815290604052906001600160e01b0319166020820180516001600160e01b038381831617835250505050905060006060306001600160a01b03168360405161046c9190611ebf565b600060405180830381855af49150503d80600081146104a7576040519150601f19603f3d011682016040523d82523d6000602084013e6104ac565b606091505b5091509150816104d9576104d96040518060600160405280602881526020016121d5602891398290611278565b5050505050565b6000826104ef575060006106e4565b735ef30b9986345249bc32d8928b7ee64de9435e396001600160a01b0316638161b120846040518263ffffffff1660e01b81526004018082815260200191505060206040518083038186803b15801561054757600080fd5b505afa92505050801561056c57506040513d602081101561056757600080fd5b505160015b6106d3576105786120e0565b806105835750610686565b806040516020018080742326b0b5b2b9172fb4b9ab30bab63a27bbb732b91d60591b81525060150182805190602001908083835b602083106105d65780518252601f1990920191602091820191016105b7565b51815160209384036101000a60001901801990921691161790526040805192909401828103601f190183529384905262461bcd60e51b84526004840181815282516024860152825192965094508493604401925085019080838360005b8381101561064b578181015183820152602001610633565b50505050905090810190601f1680156106785780820380516001836020036101000a031916815260200191505b509250505060405180910390fd5b6040805162461bcd60e51b815260206004820152601e60248201527f464d616b65722e5f69735661756c744f776e65723a756e646566696e65640000604482015290519081900360640190fd5b6001600160a01b0383811691161490505b92915050565b6000735ef30b9986345249bc32d8928b7ee64de9435e39818061070d8386611529565b915091506000836001600160a01b03166336569e776040518163ffffffff1660e01b815260040160206040518083038186803b15801561074c57600080fd5b505afa158015610760573d6000803e3d6000fd5b505050506040513d602081101561077657600080fd5b505160408051636cb1c69b60e11b81526004810186905290519192506000916001600160a01b0384169163d9638d369160248083019260a0929190829003018186803b1580156107c557600080fd5b505afa1580156107d9573d6000803e3d6000fd5b505050506040513d60a08110156107ef57600080fd5b5060200151604080516309092f9760e21b8152600481018790526001600160a01b038681166024830152825193945060009390861692632424be5c9260448082019391829003018186803b15801561084657600080fd5b505afa15801561085a573d6000803e3d6000fd5b505050506040513d604081101561087057600080fd5b5060209081015160408051633612d9a360e11b81526001600160a01b038881166004830152915192945060009391871692636c25b34692602480840193919291829003018186803b1580156108c457600080fd5b505afa1580156108d8573d6000803e3d6000fd5b505050506040513d60208110156108ee57600080fd5b505190506000610907610901848661161e565b83611681565b90506b033b2e3c9fd0803ce800000081049850806109318a6b033b2e3c9fd0803ce800000061161e565b1061093c5788610941565b886001015b9a9950505050505050505050565b60006106e482670df27a2cdf4480006116d1565b600080735ef30b9986345249bc32d8928b7ee64de9435e3990506000816001600160a01b03166336569e776040518163ffffffff1660e01b815260040160206040518083038186803b1580156109b857600080fd5b505afa1580156109cc573d6000803e3d6000fd5b505050506040513d60208110156109e257600080fd5b505190506000806109f38487611529565b915091506000836001600160a01b0316632424be5c84846040518363ffffffff1660e01b815260040180838152602001826001600160a01b0316815260200192505050604080518083038186803b158015610a4d57600080fd5b505afa158015610a61573d6000803e3d6000fd5b505050506040513d6040811015610a7757600080fd5b5051979650505050505050565b6000610a8e611b72565b604051635a860c8760e01b815273a004a5afba04b74037e9e52ba1f7eb02b5e6150990635a860c8790610ac5908790600401611edb565b60806040518083038186803b158015610add57600080fd5b505afa158015610af1573d6000803e3d6000fd5b505050506040513d601f19601f82011682018060405250810190610b159190611bff565b90508281600001511115610b2d5760009150506106e4565b8281602001511115610b435760019150506106e4565b8281604001511115610b595760029150506106e4565b8281606001511115610b6f5760039150506106e4565b60405162461bcd60e51b8152600401610b8790612002565b60405180910390fd5b6000610b9b82611706565b610be983610bc057610bab61172a565b8360048110610bb657fe5b6020020151610be4565b610be4610bcb61172a565b8460048110610bd657fe5b6020020151620249f0611765565b6117b4565b9392505050565b60006106e482610bfe6117d6565b61161e565b60408051600680825260e082019092526060918291906020820160c08036833701905050915073ac02030d8a8f49ed04b2f52c394d3f901a10f8a982600081518110610c4b57fe5b60200260200101906001600160a01b031690816001600160a01b03168152505073ac02030d8a8f49ed04b2f52c394d3f901a10f8a982600181518110610c8d57fe5b60200260200101906001600160a01b031690816001600160a01b03168152505073ac02030d8a8f49ed04b2f52c394d3f901a10f8a982600281518110610ccf57fe5b60200260200101906001600160a01b031690816001600160a01b03168152505073ac02030d8a8f49ed04b2f52c394d3f901a10f8a982600381518110610d1157fe5b60200260200101906001600160a01b031690816001600160a01b0316815250507f000000000000000000000000000000000000000000000000000000000000000082600481518110610d5f57fe5b60200260200101906001600160a01b031690816001600160a01b03168152505073eb4bf86589f808f90eec8e964dbf16bd4d28490582600581518110610da157fe5b6001600160a01b039290921660209283029190910182015260408051600680825260e082019092529182015b6060815260200190600190039081610dcd579050509050610df58860001960006102586118ae565b81600081518110610e0257fe5b6020026020010181905250610e1c88600019600080611903565b81600181518110610e2957fe5b6020026020010181905250610e4a87610e428686611681565b600080611958565b81600281518110610e5757fe5b6020026020010181905250610e7287600061025860006119ad565b81600381518110610e7f57fe5b6020026020010181905250610e978684600080611a02565b81600481518110610ea457fe5b6020026020010181905250610ed0736b175474e89094c44da98b954eedeac495271d0f86600080611a5f565b81600581518110610edd57fe5b6020026020010181905250965096945050505050565b60408051600780825261010082019092526060918291906020820160e08036833701905050915073ac02030d8a8f49ed04b2f52c394d3f901a10f8a982600081518110610f3c57fe5b60200260200101906001600160a01b031690816001600160a01b03168152505073ac02030d8a8f49ed04b2f52c394d3f901a10f8a982600181518110610f7e57fe5b60200260200101906001600160a01b031690816001600160a01b03168152505073ac02030d8a8f49ed04b2f52c394d3f901a10f8a982600281518110610fc057fe5b60200260200101906001600160a01b031690816001600160a01b03168152505073ac02030d8a8f49ed04b2f52c394d3f901a10f8a98260038151811061100257fe5b60200260200101906001600160a01b031690816001600160a01b03168152505073ac02030d8a8f49ed04b2f52c394d3f901a10f8a98260048151811061104457fe5b60200260200101906001600160a01b031690816001600160a01b0316815250507f00000000000000000000000000000000000000000000000000000000000000008260058151811061109257fe5b60200260200101906001600160a01b031690816001600160a01b03168152505073eb4bf86589f808f90eec8e964dbf16bd4d284905826006815181106110d457fe5b6001600160a01b039290921660209283029190910182015260408051600780825261010082019092529182015b60608152602001906001900390816111015790505090506111298960001960006102586118ae565b8160008151811061113657fe5b602002602001018190525061115089600019600080611903565b8160018151811061115d57fe5b60200260200101819052506111a787878080601f016020809104026020016040519081016040528093929190818152602001838380828437600092019190915250611abc92505050565b816002815181106111b457fe5b60200260200101819052506111ce6000610e428686611681565b816003815181106111db57fe5b60200260200101819052506111f660008061025860006119ad565b8160048151811061120357fe5b602002602001018190525061121b8884600080611a02565b8160058151811061122857fe5b6020026020010181905250611254736b175474e89094c44da98b954eedeac495271d0f86600080611a5f565b8160068151811061126157fe5b602002602001018190525097509795505050505050565b602082518161128357fe5b066004141561146257602082015162461bcd60e51b6001600160e01b0319821614156113a05760448301925081836040516020018083805190602001908083835b602083106112e35780518252601f1990920191602091820191016112c4565b51815160209384036101000a600019018019909216911617905285519190930192850191508083835b6020831061132b5780518252601f19909201916020918201910161130c565b51815160209384036101000a60001901801990921691161790526040805192909401828103601f190183529384905262461bcd60e51b8452600484018181528251602486015282519297509550859450604490930192860191508083836000831561064b578181015183820152602001610633565b816040516020018082805190602001908083835b602083106113d35780518252601f1990920191602091820191016113b4565b51815160001960209485036101000a0190811690199091161790526e2737a2b93937b929b2b632b1ba37b960891b9390910192835260408051601019818603018152600f85019182905262461bcd60e51b90915260138401828152815160338601528151919650945084936053019250908501908083836000831561064b578181015183820152602001610633565b806040516020018082805190602001908083835b602083106114955780518252601f199092019160209182019101611476565b51815160001960209485036101000a01908116901990911617905273556e657870656374656452657475726e6461746160601b9390910192835260408051600b19818603018152601485019182905262461bcd60e51b90915260188401828152815160388601528151919650945084936058019250908501908083836000831561064b578181015183820152602001610633565b600080836001600160a01b0316632c2cb9fd846040518263ffffffff1660e01b81526004018082815260200191505060206040518083038186803b15801561157057600080fd5b505afa158015611584573d6000803e3d6000fd5b505050506040513d602081101561159a57600080fd5b505160408051632726b07360e01b81526004810186905290519193506001600160a01b03861691632726b07391602480820192602092909190829003018186803b1580156115e757600080fd5b505afa1580156115fb573d6000803e3d6000fd5b505050506040513d602081101561161157600080fd5b5051919491935090915050565b60008115806116395750508082028282828161163657fe5b04145b6106e4576040805162461bcd60e51b815260206004820152601460248201527364732d6d6174682d6d756c2d6f766572666c6f7760601b604482015290519081900360640190fd5b808203828111156106e4576040805162461bcd60e51b815260206004820152601560248201527464732d6d6174682d7375622d756e646572666c6f7760581b604482015290519081900360640190fd5b6000670de0b6b3a76400006116f76116e9858561161e565b6706f05b59d3b20000611765565b816116fe57fe5b049392505050565b60048111156117275760405162461bcd60e51b8152600401610b8790611fa5565b50565b611732611b9a565b6040518060800160405280621e8480815260200162249f008152602001622b7cd08152602001623567e081525090505b90565b808201828110156106e4576040805162461bcd60e51b815260206004820152601460248201527364732d6d6174682d6164642d6f766572666c6f7760601b604482015290519081900360640190fd5b600060646117c883610bfe60646014611765565b816117cf57fe5b0492915050565b60008073169e633a2d1e6c10dd91238ba11c4a708dfef37c6001600160a01b03166350d25bcd6040518163ffffffff1660e01b815260040160206040518083038186803b15801561182657600080fd5b505afa15801561183a573d6000803e3d6000fd5b505050506040513d602081101561185057600080fd5b50519050600081136118a9576040805162461bcd60e51b815260206004820152601b60248201527f5f67657447656c61746f47617350726963653a306f7242656c6f770000000000604482015290519081900360640190fd5b905090565b6040805160248101869052604481018590526064810184905260848082018490528251808303909101815260a49091019091526020810180516001600160e01b0316636af06d1b60e11b179052949350505050565b6040805160248101869052604481018590526064810184905260848082018490528251808303909101815260a49091019091526020810180516001600160e01b03166319d3ec6d60e21b179052949350505050565b6040805160248101869052604481018590526064810184905260848082018490528251808303909101815260a49091019091526020810180516001600160e01b0316632505c3d960e01b179052949350505050565b6040805160248101869052604481018590526064810184905260848082018490528251808303909101815260a49091019091526020810180516001600160e01b031663088eca4160e11b179052949350505050565b604080516001600160a01b0386166024820152604481018590526064810184905260848082018490528251808303909101815260a49091019091526020810180516001600160e01b0316631911336f60e01b179052949350505050565b604080516001600160a01b0386166024820152604481018590526064810184905260848082018490528251808303909101815260a49091019091526020810180516001600160e01b0316630427301d60e31b179052949350505050565b60405160206024820181815283516044840152835160609363e4dcb06b60e01b9386939283926064019185019080838360005b83811015611b07578181015183820152602001611aef565b50505050905090810190601f168015611b345780820380516001836020036101000a031916815260200191505b5060408051601f198184030181529190526020810180516001600160e01b03166001600160e01b031990961695909517909452509192505050919050565b6040518060800160405280600081526020016000815260200160008152602001600081525090565b60405180608001604052806004906020820280368337509192915050565b60008083601f840112611bc9578182fd5b50813567ffffffffffffffff811115611be0578182fd5b602083019150836020828501011115611bf857600080fd5b9250929050565b600060808284031215611c10578081fd5b6040516080810181811067ffffffffffffffff82111715611c2d57fe5b8060405250825181526020830151602082015260408301516040820152606083015160608201528091505092915050565b600080600080600080600060c0888a031215611c78578283fd5b873596506020880135611c8a81612185565b9550604088013567ffffffffffffffff811115611ca5578384fd5b611cb18a828b01611bb8565b909650945050606088013560048110611cc8578384fd5b969995985093969295946080840135945060a09093013592915050565b60008060008060808587031215611cfa578384fd5b8435935060208086013593506040860135611d1481612185565b9250606086013567ffffffffffffffff80821115611d30578384fd5b818801915088601f830112611d43578384fd5b813581811115611d4f57fe5b611d61601f8201601f1916850161205e565b91508082528984828501011115611d76578485fd5b8084840185840137810190920192909252939692955090935050565b600080600080600060808688031215611da9578081fd5b85359450602086013593506040860135611dc281612185565b9250606086013567ffffffffffffffff811115611ddd578182fd5b611de988828901611bb8565b969995985093965092949392505050565b6000815180845260208085019450808401835b83811015611e325781516001600160a01b031687529582019590820190600101611e0d565b509495945050505050565b60008282518085526020808601955080818302840101818601855b84811015611e8657601f19868403018952611e74838351611e93565b98840198925090830190600101611e58565b5090979650505050505050565b60008151808452611eab8160208601602086016120aa565b601f01601f19169290920160200192915050565b60008251611ed18184602087016120aa565b9190910192915050565b6001600160a01b0391909116815260200190565b600060018060a01b038616825284602083015283604083015260806060830152611f1c6080830184611e93565b9695505050505050565b600060408252611f396040830185611dfa565b8281036020840152611f4b8185611e3d565b95945050505050565b600060608252611f676060830186611dfa565b8281036020840152611f798186611e3d565b91505060018060a01b0383166040830152949350505050565b600060208252610be96020830184611e93565b6020808252603e908201527f4647656c61746f446562744272696467652e5f676574476173436f73744d616b60408201527f6572546f4d616b65723a20696e76616c696420726f75746520696e6465780000606082015260800190565b6020808252602e908201527f4647656c61746f446562744272696467652e5f676574466c6173684c6f616e5260408201526d1bdd5d194e881a5b1b1a5c5d5a5960921b606082015260800190565b918252602082015260400190565b60405181810167ffffffffffffffff8111828210171561207a57fe5b604052919050565b60008085851115612091578182fd5b8386111561209d578182fd5b5050820193919092039150565b60005b838110156120c55781810151838201526020016120ad565b838111156120d4576000848401525b50505050565b60e01c90565b600060443d10156120f057611762565b600481823e6308c379a061210482516120da565b1461210e57611762565b6040513d600319016004823e80513d67ffffffffffffffff816024840111818411171561213e5750505050611762565b828401925082519150808211156121585750505050611762565b503d8301602082840101111561217057505050611762565b601f01601f1916810160200160405291505090565b6001600160a01b038116811461172757600080fdfe436f6e6e65637447656c61746f4461746146756c6c4d616b6572546f4d616b65723a205661756c742041204964206973206e6f742076616c6964436f6e6e65637447656c61746f4461746146756c6c4d616b6572546f4d616b65722e5f636173743a436f6e6e65637447656c61746f4461746146756c6c4d616b6572546f4d616b65723a205661756c742041206e6f74206f776e656420627920647361436f6e6e65637447656c61746f4461746146756c6c4d616b6572546f4d616b65722d76312e30a2646970667358221220078a95606849d0045d0cf410d3308399b4459607710ee9b5e0ec259a65225f1c64736f6c63430007040033",
  "devdoc": {
    "kind": "dev",
    "methods": {
      "connectorID()": {
        "details": "Connector Details"
      },
      "getDataAndCastMakerToMaker(uint256,uint256,address,string)": {
        "details": "payable to be compatible in conjunction with DSA.cast payable target",
        "params": {
          "_colToken": "vault's col token address .",
          "_colType": "colType of the new vault. example : ETH-B, ETH-A.",
          "_vaultAId": "Id of the unsafe vault of the client of Vault A Collateral.",
          "_vaultBId": "Id of the vault B Collateral of the client."
        }
      }
    },
    "version": 1
  },
  "userdoc": {
    "kind": "user",
    "methods": {
      "getDataAndCastMakerToMaker(uint256,uint256,address,string)": {
        "notice": "Entry Point for DSA.cast DebtBridge from e.g ETH-A to ETH-B"
      }
    },
    "version": 1
  },
  "storageLayout": {
    "storage": [],
    "types": null
  }
}