{
  "address": "0x0EAd8a0beb783f8Fb26F5A3c6888886576028ba9",
  "abi": [
    {
      "inputs": [
        {
          "internalType": "uint256",
          "name": "__id",
          "type": "uint256"
        },
        {
          "internalType": "address",
          "name": "__oracleAggregator",
          "type": "address"
        },
        {
          "internalType": "address",
          "name": "__instaFeeCollector",
          "type": "address"
        },
        {
          "internalType": "address",
          "name": "__connectGelatoDataMakerToAave",
          "type": "address"
        },
        {
          "internalType": "address",
          "name": "__connectGelatoDataMakerToMaker",
          "type": "address"
        },
        {
          "internalType": "address",
          "name": "__connectGelatoDataMakerToCompound",
          "type": "address"
        }
      ],
      "stateMutability": "nonpayable",
      "type": "constructor"
    },
    {
      "inputs": [],
      "name": "OK",
      "outputs": [
        {
          "internalType": "string",
          "name": "",
          "type": "string"
        }
      ],
      "stateMutability": "view",
      "type": "function"
    },
    {
      "inputs": [],
      "name": "connectorID",
      "outputs": [
        {
          "internalType": "uint256",
          "name": "_type",
          "type": "uint256"
        },
        {
          "internalType": "uint256",
          "name": "id",
          "type": "uint256"
        }
      ],
      "stateMutability": "view",
      "type": "function"
    },
    {
      "inputs": [
        {
          "internalType": "uint256",
          "name": "_vaultAId",
          "type": "uint256"
        },
        {
          "internalType": "address",
          "name": "_colToken",
          "type": "address"
        },
        {
          "internalType": "uint256",
          "name": "_makerDestVaultId",
          "type": "uint256"
        },
        {
          "internalType": "string",
          "name": "_makerDestColType",
          "type": "string"
        }
      ],
      "name": "getDataAndCastFromMaker",
      "outputs": [],
      "stateMutability": "payable",
      "type": "function"
    },
    {
      "inputs": [],
      "name": "name",
      "outputs": [
        {
          "internalType": "string",
          "name": "",
          "type": "string"
        }
      ],
      "stateMutability": "view",
      "type": "function"
    },
    {
      "inputs": [],
      "name": "oracleAggregator",
      "outputs": [
        {
          "internalType": "address",
          "name": "",
          "type": "address"
        }
      ],
      "stateMutability": "view",
      "type": "function"
    },
    {
      "inputs": [
        {
          "internalType": "uint256",
          "name": "",
          "type": "uint256"
        },
        {
          "internalType": "address",
          "name": "_dsa",
          "type": "address"
        },
        {
          "internalType": "bytes",
          "name": "_actionData",
          "type": "bytes"
        },
        {
          "internalType": "enum DataFlow",
          "name": "",
          "type": "uint8"
        },
        {
          "internalType": "uint256",
          "name": "",
          "type": "uint256"
        },
        {
          "internalType": "uint256",
          "name": "",
          "type": "uint256"
        }
      ],
      "name": "termsOk",
      "outputs": [
        {
          "internalType": "string",
          "name": "",
          "type": "string"
        }
      ],
      "stateMutability": "view",
      "type": "function"
    }
  ],
  "transactionHash": "0x282bfb2a7b5958478d059fd3e9eec2bbf5c86658cc5e62db7aa5dfae12eaccaa",
  "args": [
    86,
    "0x64f31D46C52bBDe223D863B11dAb9327aB1414E9",
    "0x0c159985E905ea1A3dA7305D70583Dd618862cf4",
    "0x14f76cF52708E6BCE3B8CcaF0801975D535cBCeC",
    "0x11028592f0a4f4E7e0C9936464e621584eb5070e",
    "0xCcdE1e59E747bE1c186f9b2b9Fd4Fb76BDFA8002"
  ],
  "solcInputHash": "4b220f9f5ace9500863671bb012c293f",
  "bytecode": "0x6101406040523480156200001257600080fd5b506040516200426d3803806200426d833981016040819052620000359162000091565b6080959095526001600160601b0319606094851b811660a05292841b831660c05290831b821660e052821b81166101005291901b166101205262000108565b80516001600160a01b03811681146200008c57600080fd5b919050565b60008060008060008060c08789031215620000aa578182fd5b86519550620000bc6020880162000074565b9450620000cc6040880162000074565b9350620000dc6060880162000074565b9250620000ec6080880162000074565b9150620000fc60a0880162000074565b90509295509295509295565b60805160a05160601c60c05160601c60e05160601c6101005160601c6101205160601c6140ff6200016e6000396000610ad301526000610a5d015260006109980152600061020901526000818161014f01526101ce015260006102fd01526140ff6000f3fe6080604052600436106100555760003560e01c806306fdde031461005a5780638dffe3f414610085578063ad830c1c146100a7578063d48fe280146100bc578063eb15f781146100d1578063eb9e7126146100f4575b600080fd5b34801561006657600080fd5b5061006f610114565b60405161007c91906139c4565b60405180910390f35b34801561009157600080fd5b5061009a61014d565b60405161007c91906138ea565b6100ba6100b536600461359d565b610171565b005b3480156100c857600080fd5b5061006f6102da565b3480156100dd57600080fd5b506100e66102f8565b60405161007c929190613c49565b34801561010057600080fd5b5061006f61010f3660046134ef565b61031f565b6040518060400160405280601e81526020017f436f6e6e65637447656c61746f446174614d616b6572546f582d76312e30000081525081565b7f000000000000000000000000000000000000000000000000000000000000000081565b600061018461017f866103bc565b610648565b90506000806102c38787604051806101200160405280306001600160a01b031681526020016101b28c610664565b81526020018a6001600160a01b031681526020018781526020017f00000000000000000000000000000000000000000000000000000000000000006001600160a01b031681526020018981526020018881526020017f00000000000000000000000000000000000000000000000000000000000000006001600160a01b031663ddca3f436040518163ffffffff1660e01b815260040160206040518083038186803b15801561026057600080fd5b505afa158015610274573d6000803e3d6000fd5b505050506040513d601f19601f82011682018060405250810190610298919061336a565b81526020016102bc736b175474e89094c44da98b954eedeac495271d0f8d8a61078f565b90526108d2565b915091506102d18282610b73565b50505050505050565b604051806040016040528060028152602001614f4b60f01b81525081565b6001907f000000000000000000000000000000000000000000000000000000000000000090565b6060600061033160246004888a613cb9565b81019061033e91906134d7565b90508061036657604051806060016040528060368152602001614020603691399150506103b1565b6103708189610c7b565b61039557604051806060016040528060378152602001614093603791399150506103b1565b50506040805180820190915260028152614f4b60f01b60208201525b979650505050505050565b6000735ef30b9986345249bc32d8928b7ee64de9435e3981806103df8386610d86565b915091506000836001600160a01b03166336569e776040518163ffffffff1660e01b815260040160206040518083038186803b15801561041e57600080fd5b505afa158015610432573d6000803e3d6000fd5b505050506040513d601f19601f820116820180604052508101906104569190613313565b90506000816001600160a01b031663d9638d36856040518263ffffffff1660e01b815260040161048691906139a4565b60a06040518083038186803b15801561049e57600080fd5b505afa1580156104b2573d6000803e3d6000fd5b505050506040513d601f19601f820116820180604052508101906104d691906136a0565b5050509150506000826001600160a01b0316632424be5c86866040518363ffffffff1660e01b815260040161050c9291906139ad565b604080518083038186803b15801561052357600080fd5b505afa158015610537573d6000803e3d6000fd5b505050506040513d601f19601f8201168201806040525081019061055b9190613650565b9150506000836001600160a01b0316636c25b346866040518263ffffffff1660e01b815260040161058c91906138ea565b60206040518083038186803b1580156105a457600080fd5b505afa1580156105b8573d6000803e3d6000fd5b505050506040513d601f19601f820116820180604052508101906105dc919061336a565b905060006105f36105ed8486610e8d565b83610ecd565b905061060b6b033b2e3c9fd0803ce800000082613cf9565b9850806106248a6b033b2e3c9fd0803ce8000000610e8d565b1061062f578861063a565b61063a896001613ce1565b9a9950505050505050505050565b600061065c82670df27a2cdf448000610efb565b90505b919050565b600080735ef30b9986345249bc32d8928b7ee64de9435e3990506000816001600160a01b03166336569e776040518163ffffffff1660e01b815260040160206040518083038186803b1580156106b957600080fd5b505afa1580156106cd573d6000803e3d6000fd5b505050506040513d601f19601f820116820180604052508101906106f19190613313565b90506000806107008487610d86565b915091506000836001600160a01b0316632424be5c84846040518363ffffffff1660e01b81526004016107349291906139ad565b604080518083038186803b15801561074b57600080fd5b505afa15801561075f573d6000803e3d6000fd5b505050506040513d601f19601f820116820180604052508101906107839190613650565b50979650505050505050565b604051635a860c8760e01b8152600090819073a004a5afba04b74037e9e52ba1f7eb02b5e6150990635a860c87906107cb9088906004016138ea565b60806040518083038186803b1580156107e357600080fd5b505afa1580156107f7573d6000803e3d6000fd5b505050506040513d601f19601f8201168201806040525081019061081b9190613472565b905082816000015111156108335760009150506108cb565b82816020015111801561084d575061084b8484610f35565b155b1561085c5760019150506108cb565b82816040015111801561087457506108748584611226565b156108835760029150506108cb565b82816060015111801561089b575061089b85846112aa565b156108aa5760039150506108cb565b60405162461bcd60e51b81526004016108c290613b96565b60405180910390fd5b9392505050565b60608060006108e084611305565b9050600381600381111561090457634e487b7160e01b600052602160045260246000fd5b14156109225760405162461bcd60e51b81526004016108c290613a06565b604080516001808252818301909252906020808301908036833701905050604080516001808252818301909252919450816020015b6060815260200190600190039081610957579050509150600081600381111561099057634e487b7160e01b600052602160045260246000fd5b1415610a33577f0000000000000000000000000000000000000000000000000000000000000000836000815181106109d857634e487b7160e01b600052603260045260246000fd5b60200260200101906001600160a01b031690816001600160a01b031681525050610a028686611351565b82600081518110610a2357634e487b7160e01b600052603260045260246000fd5b6020026020010181905250610b6a565b6001816003811115610a5557634e487b7160e01b600052602160045260246000fd5b1415610ad1577f000000000000000000000000000000000000000000000000000000000000000083600081518110610a9d57634e487b7160e01b600052603260045260246000fd5b60200260200101906001600160a01b031690816001600160a01b031681525050610a02868560a001518660c00151886113a8565b7f000000000000000000000000000000000000000000000000000000000000000083600081518110610b1357634e487b7160e01b600052603260045260246000fd5b60200260200101906001600160a01b031690816001600160a01b031681525050610b3d8686611406565b82600081518110610b5e57634e487b7160e01b600052603260045260246000fd5b60200260200101819052505b50935093915050565b600063e0e90acf60e01b838333604051602401610b92939291906138fe565b604051602081830303815290604052906001600160e01b0319166020820180516001600160e01b0383818316178352505050509050600080306001600160a01b031683604051610be291906137f7565b600060405180830381855af49150503d8060008114610c1d576040519150601f19603f3d011682016040523d82523d6000602084013e610c22565b606091505b509150915081610c7457610c746040518060400160405280602081526020017f436f6e6e65637447656c61746f446174614d616b6572546f582e5f636173743a8152508261142390919063ffffffff16565b5050505050565b600082610c8a57506000610d80565b60405163040b0d8960e51b8152735ef30b9986345249bc32d8928b7ee64de9435e3990638161b12090610cc19086906004016139a4565b60206040518083038186803b158015610cd957600080fd5b505afa925050508015610d09575060408051601f3d908101601f19168201909252610d0691810190613313565b60015b610d6f57610d15613ee3565b80610d205750610d57565b80604051602001610d3191906138ad565b60408051601f198184030181529082905262461bcd60e51b82526108c2916004016139c4565b60405162461bcd60e51b81526004016108c290613af6565b6001600160a01b0383811691161490505b92915050565b600080836001600160a01b0316632c2cb9fd846040518263ffffffff1660e01b8152600401610db591906139a4565b60206040518083038186803b158015610dcd57600080fd5b505afa158015610de1573d6000803e3d6000fd5b505050506040513d601f19601f82011682018060405250810190610e05919061336a565b604051632726b07360e01b81529092506001600160a01b03851690632726b07390610e349086906004016139a4565b60206040518083038186803b158015610e4c57600080fd5b505afa158015610e60573d6000803e3d6000fd5b505050506040513d601f19601f82011682018060405250810190610e849190613313565b90509250929050565b6000811580610eb157508282610ea38183613e21565b9250610eaf9083613cf9565b145b610d805760405162461bcd60e51b81526004016108c290613a63565b600082610eda8382613e40565b9150811115610d805760405162461bcd60e51b81526004016108c2906139d7565b6000670de0b6b3a7640000610f2b610f138585610e8d565b610f266002670de0b6b3a7640000613cf9565b611491565b6108cb9190613cf9565b600080735ef30b9986345249bc32d8928b7ee64de9435e3990506000816001600160a01b03166336569e776040518163ffffffff1660e01b815260040160206040518083038186803b158015610f8a57600080fd5b505afa158015610f9e573d6000803e3d6000fd5b505050506040513d601f19601f82011682018060405250810190610fc29190613313565b9050600080610fd18488610d86565b915091506000806000856001600160a01b031663d9638d36866040518263ffffffff1660e01b815260040161100691906139a4565b60a06040518083038186803b15801561101e57600080fd5b505afa158015611032573d6000803e3d6000fd5b505050506040513d601f19601f8201168201806040525081019061105691906136a0565b50935050925092506000866001600160a01b0316636c25b346866040518263ffffffff1660e01b815260040161108c91906138ea565b60206040518083038186803b1580156110a457600080fd5b505afa1580156110b8573d6000803e3d6000fd5b505050506040513d601f19601f820116820180604052508101906110dc919061336a565b90506000876001600160a01b031663babe8a3f6040518163ffffffff1660e01b815260040160206040518083038186803b15801561111957600080fd5b505afa15801561112d573d6000803e3d6000fd5b505050506040513d601f19601f82011682018060405250810190611151919061336a565b90506000886001600160a01b0316630dca59c16040518163ffffffff1660e01b815260040160206040518083038186803b15801561118e57600080fd5b505afa1580156111a2573d6000803e3d6000fd5b505050506040513d601f19601f820116820180604052508101906111c6919061336a565b905060006111d58d85886114bf565b905060006111e38783610e8d565b90506111ef8382611491565b92506111fb8883611491565b9750856112088989610e8d565b118061121357508383115b9f9e505050505050505050505050505050565b60008161123284611523565b6001600160a01b0316633b1d21a26040518163ffffffff1660e01b815260040160206040518083038186803b15801561126a57600080fd5b505afa15801561127e573d6000803e3d6000fd5b505050506040513d601f19601f820116820180604052508101906112a2919061336a565b119392505050565b600081836001600160a01b03166370a08231733dfd23a6c5e8bbcfc9581d2e864a68feb6a076d36040518263ffffffff1660e01b81526004016112ed91906138ea565b60206040518083038186803b15801561126a57600080fd5b6000611310826115ad565b1561131d5750600061065f565b61132682611619565b156113335750600161065f565b61133c8261169a565b156113495750600261065f565b506003919050565b6060639ae4bca260e01b838360405160240161136e9291906139ad565b60408051601f198184030181529190526020810180516001600160e01b03166001600160e01b031990931692909217909152905092915050565b606063bf8f75b760e01b858585856040516024016113c99493929190613c57565b60408051601f198184030181529190526020810180516001600160e01b03166001600160e01b03199093169290921790915290505b949350505050565b606063e588576e60e01b838360405160240161136e9291906139ad565b602082516114319190613e87565b6004141561148057602082015162461bcd60e51b6001600160e01b03198216141561146f576044830192508183604051602001610d31929190613813565b81604051602001610d319190613842565b80604051602001610d319190613875565b60008261149e8382613ce1565b9150811015610d805760405162461bcd60e51b81526004016108c290613a91565b6000816114e16114db866b033b2e3c9fd0803ce8000000610e8d565b85610ecd565b6114eb9190613cf9565b9050611503846b033b2e3c9fd0803ce8000000610e8d565b61150d8284610e8d565b1061151857806113fe565b6113fe816001613ce1565b60405163104b29e960e01b815260009073e81f70cc7c0d46e12d70efc60607f16bbd617e889063104b29e99061155d9085906004016138ea565b60206040518083038186803b15801561157557600080fd5b505afa158015611589573d6000803e3d6000fd5b505050506040513d601f19601f8201168201806040525081019061065c9190613313565b6000806115d583606001516115c6856101000151611729565b8560e001518660800151611781565b90506115f5736b175474e89094c44da98b954eedeac495271d0f82611863565b80156108cb57506108cb83600001518460200151856040015184876080015161186f565b60008061163a83606001516115c68560a00151600014866101000151611a75565b905061165483600001518460a001518560c0015184611b11565b158015611676575061167483600001518460a001518560c0015184611b40565b155b80156108cb57506108cb83600001518460a001518560c00151866020015185611b66565b6000806116b383606001516115c6856101000151611b97565b90506116f5736b175474e89094c44da98b954eedeac495271d0f8461010001516002146116e057826116f0565b8285606001516116f09190613ce1565b611bc6565b80156108cb57506108cb836000015184604001518560200151736b175474e89094c44da98b954eedeac495271d0f85611bd2565b600061174d826040518060600160405280603d8152602001614056603d9139611bf1565b61065c611758611c19565b836004811061177757634e487b7160e01b600052603260045260246000fd5b6020020151611c54565b6000806000836001600160a01b0316633c772b6c61179e88611c77565b73eeeeeeeeeeeeeeeeeeeeeeeeeeeeeeeeeeeeeeee736b175474e89094c44da98b954eedeac495271d0f6040518463ffffffff1660e01b81526004016117e693929190613c2a565b604080518083038186803b1580156117fd57600080fd5b505afa158015611811573d6000803e3d6000fd5b505050506040513d601f19601f820116820180604052508101906118359190613650565b915091506118438183611c85565b915061184f8786610efb565b6118598389613ce1565b6103b19190613ce1565b60006108cb8383611ca1565b60008080838161187e8a611cad565b90506001600160a01b03881673eeeeeeeeeeeeeeeeeeeeeeeeeeeeeeeeeeeeeeee14156118ad57889350611952565b604051630f1dcadb60e21b81526001600160a01b03831690633c772b6c906118f1908c908c9073eeeeeeeeeeeeeeeeeeeeeeeeeeeeeeeeeeeeeeee90600401613c2a565b604080518083038186803b15801561190857600080fd5b505afa15801561191c573d6000803e3d6000fd5b505050506040513d601f19601f820116820180604052508101906119409190613650565b909450925061194f8385611c85565b93505b604051630f1dcadb60e21b81526001600160a01b03831690633c772b6c906119aa908a90736b175474e89094c44da98b954eedeac495271d0f9073eeeeeeeeeeeeeeeeeeeeeeeeeeeeeeeeeeeeeeee90600401613c2a565b604080518083038186803b1580156119c157600080fd5b505afa1580156119d5573d6000803e3d6000fd5b505050506040513d601f19601f820116820180604052508101906119f99190613650565b9097509250611a088388611c85565b9650670de0b6b3a7640000611a66612710611a2b87611a268d611e0f565b610e8d565b611a3d85606001518660000151610e8d565b611a479190613ce1565b611a519190613cf9565b898460200151611a619190613ce1565b611eb1565b119a9950505050505050505050565b6000611a99826040518060600160405280603e8152602001613fa1603e9139611bf1565b6108cb83611ad257611aa9611ed4565b8360048110611ac857634e487b7160e01b600052603260045260246000fd5b6020020151611b0c565b62030d40611ade611ed4565b8460048110611afd57634e487b7160e01b600052603260045260246000fd5b6020020151611b0c9190613ce1565b611c54565b6000611b1d8486610c7b565b611b28576000611b2a565b835b9350611b37848484611f0e565b95945050505050565b6000611b4c8486610c7b565b611b57576000611b59565b835b9350611b37848484611f2f565b6000611b728587610c7b565b611b7d576000611b7f565b845b9450611b8d85858585611f4b565b9695505050505050565b6000611bbb82604051806080016040528060418152602001613fdf60419139611bf1565b61065c611758611f6e565b60006108cb8383611226565b6000611b8d86611be187611523565b86611beb87611523565b86611fa8565b806004831115611c145760405162461bcd60e51b81526004016108c291906139c4565b505050565b611c21613207565b60405180608001604052806223fd068152602001622d1e89815260200162339ac88152602001623d7bd881525090505b90565b60006064611c63601e82613ce1565b611c6d9084613e21565b61065c9190613cf9565b600061065c82611a26612286565b60006108cb82611c96856012613e40565b611a2690600a613d53565b6000816112a284612335565b611cb5613225565b60008060008060008073b53c1a33016b2dc2ff3653530bff1848a515c8c56001600160a01b0316630261bf8b6040518163ffffffff1660e01b815260040160206040518083038186803b158015611d0b57600080fd5b505afa158015611d1f573d6000803e3d6000fd5b505050506040513d601f19601f82011682018060405250810190611d439190613313565b6001600160a01b031663bf92857c896040518263ffffffff1660e01b8152600401611d6e91906138ea565b60c06040518083038186803b158015611d8657600080fd5b505afa158015611d9a573d6000803e3d6000fd5b505050506040513d601f19601f82011682018060405250810190611dbe9190613775565b9550955095509550955095506040518060e00160405280878152602001868152602001858152602001848152602001838152602001828152602001611e016124b7565b905298975050505050505050565b600073057835ad21a177dbdd3090bb1cae03eacf78fc6d633e150141611e348461253e565b6040518263ffffffff1660e01b8152600401611e5091906138ea565b6101406040518083038186803b158015611e6957600080fd5b505afa158015611e7d573d6000803e3d6000fd5b505050506040513d601f19601f82011682018060405250810190611ea191906136df565b50959a9950505050505050505050565b600081610f2b611ec985670de0b6b3a7640000610e8d565b610f26600286613cf9565b611edc613207565b604051806080016040528062266fd88152602001622feb948152602001623c97b8815260200162424ca8815250905090565b60008315611f2557611f208483612585565b6113fe565b6113fe83836127e8565b60008315611f4157611f208483610f35565b6113fe8383612937565b60008415611f6357611f5e858484612ba3565b611b37565b611b37848484612f48565b611f76613207565b6040518060800160405280621ef3138152602001622814978152602001622cec41815260200162387070815250905090565b600080733d9819210a31b4961b30ef54be2aed79b9c9cd3b90506000816001600160a01b0316637dc0d1d06040518163ffffffff1660e01b815260040160206040518083038186803b158015611ffd57600080fd5b505afa158015612011573d6000803e3d6000fd5b505050506040513d601f19601f820116820180604052508101906120359190613313565b90506000826001600160a01b0316638e8f294b896040518263ffffffff1660e01b815260040161206591906138ea565b60606040518083038186803b15801561207d57600080fd5b505afa158015612091573d6000803e3d6000fd5b505050506040513d601f19601f820116820180604052508101906120b5919061332f565b509150506000806000856001600160a01b0316635ec88c798d6040518263ffffffff1660e01b81526004016120ea91906138ea565b60606040518083038186803b15801561210257600080fd5b505afa158015612116573d6000803e3d6000fd5b505050506040513d601f19601f8201168201806040525081019061213a9190613673565b925092509250826000146121605760405162461bcd60e51b81526004016108c290613be4565b6121e688866001600160a01b031663fc57d4df8c6040518263ffffffff1660e01b815260040161219091906138ea565b60206040518083038186803b1580156121a857600080fd5b505afa1580156121bc573d6000803e3d6000fd5b505050506040513d601f19601f820116820180604052508101906121e0919061336a565b836131af565b6122756121f3868d6131c6565b876001600160a01b031663fc57d4df8f6040518263ffffffff1660e01b815260040161221f91906138ea565b60206040518083038186803b15801561223757600080fd5b505afa15801561224b573d6000803e3d6000fd5b505050506040513d601f19601f8201168201806040525081019061226f919061336a565b856131af565b119c9b505050505050505050505050565b60008073169e633a2d1e6c10dd91238ba11c4a708dfef37c6001600160a01b03166350d25bcd6040518163ffffffff1660e01b815260040160206040518083038186803b1580156122d657600080fd5b505afa1580156122ea573d6000803e3d6000fd5b505050506040513d601f19601f8201168201806040525081019061230e919061336a565b9050600081136123305760405162461bcd60e51b81526004016108c290613abf565b905090565b6000816001600160a01b03166370a0823173b53c1a33016b2dc2ff3653530bff1848a515c8c56001600160a01b0316630261bf8b6040518163ffffffff1660e01b815260040160206040518083038186803b15801561239357600080fd5b505afa1580156123a7573d6000803e3d6000fd5b505050506040513d601f19601f820116820180604052508101906123cb9190613313565b6001600160a01b03166335ea6a75856040518263ffffffff1660e01b81526004016123f691906138ea565b6101806040518083038186803b15801561240f57600080fd5b505afa158015612423573d6000803e3d6000fd5b505050506040513d601f19601f820116820180604052508101906124479190613382565b60e001516040518263ffffffff1660e01b815260040161246791906138ea565b60206040518083038186803b15801561247f57600080fd5b505afa158015612493573d6000803e3d6000fd5b505050506040513d601f19601f8201168201806040525081019061065c919061336a565b6000735f4ec3df9cbd43714fe2740f5e3616155c5b84196001600160a01b03166350d25bcd6040518163ffffffff1660e01b815260040160206040518083038186803b15801561250657600080fd5b505afa15801561251a573d6000803e3d6000fd5b505050506040513d601f19601f82011682018060405250810190612330919061336a565b60006001600160a01b03821673eeeeeeeeeeeeeeeeeeeeeeeeeeeeeeeeeeeeeeee1461256a578161065c565b5073c02aaa39b223fe8d0a0e5c4f27ead9083c756cc2919050565b600080735ef30b9986345249bc32d8928b7ee64de9435e3990506000816001600160a01b03166336569e776040518163ffffffff1660e01b815260040160206040518083038186803b1580156125da57600080fd5b505afa1580156125ee573d6000803e3d6000fd5b505050506040513d601f19601f820116820180604052508101906126129190613313565b90506000806126218488610d86565b915091506000836001600160a01b0316632424be5c84846040518363ffffffff1660e01b81526004016126559291906139ad565b604080518083038186803b15801561266c57600080fd5b505afa158015612680573d6000803e3d6000fd5b505050506040513d601f19601f820116820180604052508101906126a49190613650565b915050600080856001600160a01b031663d9638d36866040518263ffffffff1660e01b81526004016126d691906139a4565b60a06040518083038186803b1580156126ee57600080fd5b505afa158015612702573d6000803e3d6000fd5b505050506040513d601f19601f8201168201806040525081019061272691906136a0565b945050509250506000866001600160a01b0316636c25b346866040518263ffffffff1660e01b815260040161275b91906138ea565b60206040518083038186803b15801561277357600080fd5b505afa158015612787573d6000803e3d6000fd5b505050506040513d601f19601f820116820180604052508101906127ab919061336a565b905060006127ba8b83866114bf565b90506127c68582611491565b945060006127d48587610e8d565b939093109c9b505050505050505050505050565b600080735ef30b9986345249bc32d8928b7ee64de9435e3990506000816001600160a01b03166336569e776040518163ffffffff1660e01b815260040160206040518083038186803b15801561283d57600080fd5b505afa158015612851573d6000803e3d6000fd5b505050506040513d601f19601f820116820180604052508101906128759190613313565b90506000612882866131db565b9050600080836001600160a01b031663d9638d36846040518263ffffffff1660e01b81526004016128b391906139a4565b60a06040518083038186803b1580156128cb57600080fd5b505afa1580156128df573d6000803e3d6000fd5b505050506040513d601f19601f8201168201806040525081019061290391906136a0565b945050509250506000612918886000856114bf565b905060006129268483610e8d565b929092109998505050505050505050565b600080735ef30b9986345249bc32d8928b7ee64de9435e3990506000816001600160a01b03166336569e776040518163ffffffff1660e01b815260040160206040518083038186803b15801561298c57600080fd5b505afa1580156129a0573d6000803e3d6000fd5b505050506040513d601f19601f820116820180604052508101906129c49190613313565b905060006129d1866131db565b90506000806000846001600160a01b031663d9638d36856040518263ffffffff1660e01b8152600401612a0491906139a4565b60a06040518083038186803b158015612a1c57600080fd5b505afa158015612a30573d6000803e3d6000fd5b505050506040513d601f19601f82011682018060405250810190612a5491906136a0565b50935050925092506000856001600160a01b031663babe8a3f6040518163ffffffff1660e01b815260040160206040518083038186803b158015612a9757600080fd5b505afa158015612aab573d6000803e3d6000fd5b505050506040513d601f19601f82011682018060405250810190612acf919061336a565b90506000866001600160a01b0316630dca59c16040518163ffffffff1660e01b815260040160206040518083038186803b158015612b0c57600080fd5b505afa158015612b20573d6000803e3d6000fd5b505050506040513d601f19601f82011682018060405250810190612b44919061336a565b90506000612b548b6000876114bf565b90506000612b628683610e8d565b9050612b6e8382611491565b9250612b7a8783611491565b965084612b878888610e8d565b1180612b9257508383115b9d9c50505050505050505050505050565b600083612bc25760405162461bcd60e51b81526004016108c290613b2d565b735ef30b9986345249bc32d8928b7ee64de9435e39600080612be48388610d86565b604051634445d79960e01b8152919350915060009073e81f70cc7c0d46e12d70efc60607f16bbd617e8890634445d79990612c239086906004016139a4565b60206040518083038186803b158015612c3b57600080fd5b505afa158015612c4f573d6000803e3d6000fd5b505050506040513d601f19601f82011682018060405250810190612c739190613313565b90506000846001600160a01b03166336569e776040518163ffffffff1660e01b815260040160206040518083038186803b158015612cb057600080fd5b505afa158015612cc4573d6000803e3d6000fd5b505050506040513d601f19601f82011682018060405250810190612ce89190613313565b9050600080826001600160a01b031663d9638d36876040518263ffffffff1660e01b8152600401612d1991906139a4565b60a06040518083038186803b158015612d3157600080fd5b505afa158015612d45573d6000803e3d6000fd5b505050506040513d601f19601f82011682018060405250810190612d6991906136a0565b50509250925050600080846001600160a01b0316632424be5c89896040518363ffffffff1660e01b8152600401612da19291906139ad565b604080518083038186803b158015612db857600080fd5b505afa158015612dcc573d6000803e3d6000fd5b505050506040513d601f19601f82011682018060405250810190612df09190613650565b915091506000856001600160a01b0316636c25b346896040518263ffffffff1660e01b8152600401612e2291906138ea565b60206040518083038186803b158015612e3a57600080fd5b505afa158015612e4e573d6000803e3d6000fd5b505050506040513d601f19601f82011682018060405250810190612e72919061336a565b90506000612ef0886001600160a01b031663b3bcfa826040518163ffffffff1660e01b815260040160206040518083038186803b158015612eb257600080fd5b505afa158015612ec6573d6000803e3d6000fd5b505050506040513d601f19601f82011682018060405250810190612eea919061336a565b8f611c85565b90506000612eff8e84896114bf565b9050612f0b8583611491565b9450612f178482611491565b93506000612f258886610e8d565b9050612f318688610e8d565b10159c505050505050505050505050509392505050565b600080735ef30b9986345249bc32d8928b7ee64de9435e3990506000816001600160a01b03166336569e776040518163ffffffff1660e01b815260040160206040518083038186803b158015612f9d57600080fd5b505afa158015612fb1573d6000803e3d6000fd5b505050506040513d601f19601f82011682018060405250810190612fd59190613313565b90506000612fe2876131db565b9050600080836001600160a01b031663d9638d36846040518263ffffffff1660e01b815260040161301391906139a4565b60a06040518083038186803b15801561302b57600080fd5b505afa15801561303f573d6000803e3d6000fd5b505050506040513d601f19601f8201168201806040525081019061306391906136a0565b5050604051634445d79960e01b815291945092506000915073e81f70cc7c0d46e12d70efc60607f16bbd617e8890634445d799906130a59087906004016139a4565b60206040518083038186803b1580156130bd57600080fd5b505afa1580156130d1573d6000803e3d6000fd5b505050506040513d601f19601f820116820180604052508101906130f59190613313565b90506000613173826001600160a01b031663b3bcfa826040518163ffffffff1660e01b815260040160206040518083038186803b15801561313557600080fd5b505afa158015613149573d6000803e3d6000fd5b505050506040513d601f19601f8201168201806040525081019061316d919061336a565b8b611c85565b905060006131838a6000876114bf565b905060006131918683610e8d565b905061319d8386610e8d565b10159c9b505050505050505050505050565b6000816131bc85856131c6565b6113fe9190613ce1565b6000670de0b6b3a7640000610f2b8385613e21565b60008151600014156131ff5760405162461bcd60e51b81526004016108c290613b70565b506020015190565b60405180608001604052806004906020820280368337509192915050565b6040518060e00160405280600081526020016000815260200160008152602001600081526020016000815260200160008152602001600081525090565b805161065f81613f88565b8051801515811461065f57600080fd5b80356004811061065f57600080fd5b60006020828403121561329d578081fd5b6040516020810181811067ffffffffffffffff821117156132c0576132c0613ec7565b6040529151825250919050565b80516fffffffffffffffffffffffffffffffff8116811461065f57600080fd5b805164ffffffffff8116811461065f57600080fd5b805160ff8116811461065f57600080fd5b600060208284031215613324578081fd5b81516108cb81613f88565b600080600060608486031215613343578182fd5b61334c8461326d565b9250602084015191506133616040850161326d565b90509250925092565b60006020828403121561337b578081fd5b5051919050565b6000610180808385031215613395578182fd5b61339e81613c8f565b90506133aa848461328c565b81526133b8602084016132cd565b60208201526133c9604084016132cd565b60408201526133da606084016132cd565b60608201526133eb608084016132cd565b60808201526133fc60a084016132cd565b60a082015261340d60c084016132ed565b60c082015261341e60e08401613262565b60e0820152610100613431818501613262565b90820152610120613443848201613262565b90820152610140613455848201613262565b90820152610160613467848201613302565b908201529392505050565b600060808284031215613483578081fd5b6040516080810181811067ffffffffffffffff821117156134a6576134a6613ec7565b8060405250825181526020830151602082015260408301516040820152606083015160608201528091505092915050565b6000602082840312156134e8578081fd5b5035919050565b600080600080600080600060c0888a031215613509578485fd5b87359650602088013561351b81613f88565b9550604088013567ffffffffffffffff80821115613537578687fd5b818a0191508a601f83011261354a578687fd5b813581811115613558578788fd5b8b6020828501011115613569578788fd5b6020830197508096505050506135816060890161327d565b92506080880135915060a0880135905092959891949750929550565b600080600080608085870312156135b2578182fd5b843593506020808601356135c581613f88565b935060408601359250606086013567ffffffffffffffff808211156135e8578384fd5b818801915088601f8301126135fb578384fd5b81358181111561360d5761360d613ec7565b61361f601f8201601f19168501613c8f565b91508082528984828501011115613634578485fd5b8084840185840137810190920192909252939692955090935050565b60008060408385031215613662578182fd5b505080516020909101519092909150565b600080600060608486031215613687578081fd5b8351925060208401519150604084015190509250925092565b600080600080600060a086880312156136b7578283fd5b5050835160208501516040860151606087015160809097015192989197509594509092509050565b6000806000806000806000806000806101408b8d0312156136fe578384fd5b8a51995060208b0151985060408b0151975060608b0151965060808b0151955061372a60a08c0161326d565b945061373860c08c0161326d565b935061374660e08c0161326d565b92506137556101008c0161326d565b91506137646101208c0161326d565b90509295989b9194979a5092959850565b60008060008060008060c0878903121561378d578384fd5b865195506020870151945060408701519350606087015192506080870151915060a087015190509295509295509295565b6001600160a01b03169052565b600081518084526137e3816020860160208601613e57565b601f01601f19169290920160200192915050565b60008251613809818460208701613e57565b9190910192915050565b60008351613825818460208801613e57565b835190830190613839818360208801613e57565b01949350505050565b60008251613854818460208701613e57565b6e2737a2b93937b929b2b632b1ba37b960891b920191825250600f01919050565b60008251613887818460208701613e57565b73556e657870656374656452657475726e6461746160601b920191825250601401919050565b6000742326b0b5b2b9172fb4b9ab30bab63a27bbb732b91d60591b825282516138dd816015850160208701613e57565b9190910160150192915050565b6001600160a01b0391909116815260200190565b606080825284519082018190526000906020906080840190828801845b828110156139405781516001600160a01b03168452928401929084019060010161391b565b5050508381038285015285518082528282019080840283018401888501865b8381101561398d57601f1986840301855261397b8383516137cb565b9487019492509086019060010161395f565b505080955050505050506113fe60408301846137be565b90815260200190565b9182526001600160a01b0316602082015260400190565b6000602082526108cb60208301846137cb565b60208082526015908201527464732d6d6174682d7375622d756e646572666c6f7760581b604082015260600190565b60208082526037908201527f436f6e6e65637447656c61746f446174614d616b6572546f582e5f646174614660408201527f726f6d4d616b65723a2050524f544f434f4c2e4e4f4e45000000000000000000606082015260800190565b60208082526014908201527364732d6d6174682d6d756c2d6f766572666c6f7760601b604082015260600190565b60208082526014908201527364732d6d6174682d6164642d6f766572666c6f7760601b604082015260600190565b6020808252601b908201527f5f67657447656c61746f47617350726963653a306f7242656c6f770000000000604082015260600190565b6020808252601e908201527f464d616b65722e5f69735661756c744f776e65723a756e646566696e65640000604082015260600190565b60208082526023908201527f5f7661756c7457696c6c4265536166653a20696e76616c6964207661756c742060408201526234b21760e91b606082015260800190565b6020808252600c908201526b737472696e672d656d70747960a01b604082015260600190565b6020808252602e908201527f4647656c61746f446562744272696467652e5f676574466c6173684c6f616e5260408201526d1bdd5d194e881a5b1b1a5c5d5a5960921b606082015260800190565b60208082526026908201527f476574204163636f756e74204c69717569646974792066756e6374696f6e206660408201526530b4b632b21760d11b606082015260800190565b9283526001600160a01b03918216602084015216604082015260600190565b918252602082015260400190565b600085825284602083015260806040830152613c7660808301856137cb565b905060018060a01b038316606083015295945050505050565b60405181810167ffffffffffffffff81118282101715613cb157613cb1613ec7565b604052919050565b60008085851115613cc8578182fd5b83861115613cd4578182fd5b5050820193919092039150565b60008219821115613cf457613cf4613e9b565b500190565b600082613d0857613d08613eb1565b500490565b80825b6001808611613d1f5750613d4a565b818704821115613d3157613d31613e9b565b80861615613d3e57918102915b9490941c938002613d10565b94509492505050565b60006108cb6000198484600082613d6c575060016108cb565b81613d79575060006108cb565b8160018114613d8f5760028114613d9957613dc6565b60019150506108cb565b60ff841115613daa57613daa613e9b565b6001841b915084821115613dc057613dc0613e9b565b506108cb565b5060208310610133831016604e8410600b8410161715613df9575081810a83811115613df457613df4613e9b565b6108cb565b613e068484846001613d0d565b808604821115613e1857613e18613e9b565b02949350505050565b6000816000190483118215151615613e3b57613e3b613e9b565b500290565b600082821015613e5257613e52613e9b565b500390565b60005b83811015613e72578181015183820152602001613e5a565b83811115613e81576000848401525b50505050565b600082613e9657613e96613eb1565b500690565b634e487b7160e01b600052601160045260246000fd5b634e487b7160e01b600052601260045260246000fd5b634e487b7160e01b600052604160045260246000fd5b60e01c90565b600060443d1015613ef357611c51565b600481823e6308c379a0613f078251613edd565b14613f1157611c51565b6040513d600319016004823e80513d67ffffffffffffffff8160248401118184111715613f415750505050611c51565b82840192508251915080821115613f5b5750505050611c51565b503d83016020828401011115613f7357505050611c51565b601f01601f1916810160200160405291505090565b6001600160a01b0381168114613f9d57600080fd5b5056fe4647656c61746f446562744272696467652e5f676574476173436f73744d616b6572546f4d616b65723a20696e76616c696420726f75746520696e6465784647656c61746f446562744272696467652e5f676574476173436f73744d616b6572546f436f6d706f756e643a20696e76616c696420726f75746520696e646578436f6e6e65637447656c61746f446174614d616b6572546f4d616b65723a205661756c742041204964206973206e6f742076616c69644647656c61746f446562744272696467652e5f676574476173436f73744d616b6572546f416176653a20696e76616c696420726f75746520696e646578436f6e6e65637447656c61746f446174614d616b6572546f4d616b65723a205661756c742041206e6f74206f776e656420627920647361a2646970667358221220593cd16bffa328af821effb16ee593c1c36e7b2ea2db4c84919ff7301eedd97364736f6c63430008000033",
  "devdoc": {
    "kind": "dev",
    "methods": {
      "connectorID()": {
        "details": "Connector Details"
      },
      "getDataAndCastFromMaker(uint256,address,uint256,string)": {
        "details": "payable to be compatible in conjunction with DSA.cast payable target",
        "params": {
          "_colToken": "The ETH-A collateral token.",
          "_makerDestColType": "Only for Maker: colType of the new vault: e.g.ETH-B",
          "_makerDestVaultId": "Only for Maker: e.g. ETH-B vault of the client.",
          "_vaultAId": "Id of the unsafe vault of the client of Vault A Collateral."
        }
      }
    },
    "version": 1
  },
  "userdoc": {
    "kind": "user",
    "methods": {
      "getDataAndCastFromMaker(uint256,address,uint256,string)": {
        "notice": "Entry Point for DSA.cast DebtBridge from e.g ETH-A to ETH-B"
      }
    },
    "version": 1
  },
  "storageLayout": {
    "storage": [],
    "types": null
  }
}