{
  "address": "0x0c159985E905ea1A3dA7305D70583Dd618862cf4",
  "abi": [
    {
      "inputs": [
        {
          "internalType": "uint256",
          "name": "_fee",
          "type": "uint256"
        },
        {
          "internalType": "address payable",
          "name": "_feeCollector",
          "type": "address"
        }
      ],
      "stateMutability": "nonpayable",
      "type": "constructor"
    },
    {
      "anonymous": false,
      "inputs": [
        {
          "indexed": true,
          "internalType": "address",
          "name": "previousOwner",
          "type": "address"
        },
        {
          "indexed": true,
          "internalType": "address",
          "name": "newOwner",
          "type": "address"
        }
      ],
      "name": "OwnershipTransferred",
      "type": "event"
    },
    {
      "inputs": [],
      "name": "fee",
      "outputs": [
        {
          "internalType": "uint256",
          "name": "",
          "type": "uint256"
        }
      ],
      "stateMutability": "view",
      "type": "function"
    },
    {
      "inputs": [],
      "name": "feeCollector",
      "outputs": [
        {
          "internalType": "address payable",
          "name": "",
          "type": "address"
        }
      ],
      "stateMutability": "view",
      "type": "function"
    },
    {
      "inputs": [],
      "name": "owner",
      "outputs": [
        {
          "internalType": "address",
          "name": "",
          "type": "address"
        }
      ],
      "stateMutability": "view",
      "type": "function"
    },
    {
      "inputs": [],
      "name": "renounceOwnership",
      "outputs": [],
      "stateMutability": "nonpayable",
      "type": "function"
    },
    {
      "inputs": [
        {
          "internalType": "uint256",
          "name": "_fee",
          "type": "uint256"
        }
      ],
      "name": "setFee",
      "outputs": [],
      "stateMutability": "nonpayable",
      "type": "function"
    },
    {
      "inputs": [
        {
          "internalType": "address payable",
          "name": "_feeCollector",
          "type": "address"
        }
      ],
      "name": "setFeeCollector",
      "outputs": [],
      "stateMutability": "nonpayable",
      "type": "function"
    },
    {
      "inputs": [
        {
          "internalType": "address",
          "name": "newOwner",
          "type": "address"
        }
      ],
      "name": "transferOwnership",
      "outputs": [],
      "stateMutability": "nonpayable",
      "type": "function"
    }
  ],
  "transactionHash": "0xd4a720a596fee7fb87ca58c54c7f7b85ba6e1451a1b9710d0f082a752336d2be",
  "args": [
    "3000000000000000",
    "0xb1DC62EC38E6E3857a887210C38418E4A17Da5B2"
  ],
  "solcInputHash": "06ff1a108d21b21e4ca3839d365cb0b5",
  "bytecode": "0x608060405234801561001057600080fd5b50604051610c02380380610c0283398181016040528101906100329190610161565b600061004261012f60201b60201c565b9050806000806101000a81548173ffffffffffffffffffffffffffffffffffffffff021916908373ffffffffffffffffffffffffffffffffffffffff1602179055508073ffffffffffffffffffffffffffffffffffffffff16600073ffffffffffffffffffffffffffffffffffffffff167f8be0079c531659141344cd1fd0a4f28419497f9722a3daafe3b4186f6b6457e060405160405180910390a3508160018190555080600260006101000a81548173ffffffffffffffffffffffffffffffffffffffff021916908373ffffffffffffffffffffffffffffffffffffffff1602179055505050610207565b600033905090565b600081519050610146816101d9565b92915050565b60008151905061015b816101f0565b92915050565b6000806040838503121561017457600080fd5b60006101828582860161014c565b925050602061019385828601610137565b9150509250929050565b60006101a8826101af565b9050919050565b600073ffffffffffffffffffffffffffffffffffffffff82169050919050565b6000819050919050565b6101e28161019d565b81146101ed57600080fd5b50565b6101f9816101cf565b811461020457600080fd5b50565b6109ec806102166000396000f3fe608060405234801561001057600080fd5b506004361061007d5760003560e01c8063a42dce801161005b578063a42dce80146100c6578063c415b95c146100e2578063ddca3f4314610100578063f2fde38b1461011e5761007d565b806369fe0e2d14610082578063715018a61461009e5780638da5cb5b146100a8575b600080fd5b61009c600480360381019061009791906106ff565b61013a565b005b6100a6610223565b005b6100b0610376565b6040516100bd9190610861565b60405180910390f35b6100e060048036038101906100db91906106d6565b61039f565b005b6100ea610478565b6040516100f7919061087c565b60405180910390f35b61010861049e565b60405161011591906108f7565b60405180910390f35b610138600480360381019061013391906106ad565b6104a4565b005b610142610666565b73ffffffffffffffffffffffffffffffffffffffff1660008054906101000a900473ffffffffffffffffffffffffffffffffffffffff1673ffffffffffffffffffffffffffffffffffffffff16146101cf576040517f08c379a00000000000000000000000000000000000000000000000000000000081526004016101c6906108b7565b60405180910390fd5b660aa87bee538000811115610219576040517f08c379a0000000000000000000000000000000000000000000000000000000008152600401610210906108d7565b60405180910390fd5b8060018190555050565b61022b610666565b73ffffffffffffffffffffffffffffffffffffffff1660008054906101000a900473ffffffffffffffffffffffffffffffffffffffff1673ffffffffffffffffffffffffffffffffffffffff16146102b8576040517f08c379a00000000000000000000000000000000000000000000000000000000081526004016102af906108b7565b60405180910390fd5b600073ffffffffffffffffffffffffffffffffffffffff1660008054906101000a900473ffffffffffffffffffffffffffffffffffffffff1673ffffffffffffffffffffffffffffffffffffffff167f8be0079c531659141344cd1fd0a4f28419497f9722a3daafe3b4186f6b6457e060405160405180910390a360008060006101000a81548173ffffffffffffffffffffffffffffffffffffffff021916908373ffffffffffffffffffffffffffffffffffffffff160217905550565b60008060009054906101000a900473ffffffffffffffffffffffffffffffffffffffff16905090565b6103a7610666565b73ffffffffffffffffffffffffffffffffffffffff1660008054906101000a900473ffffffffffffffffffffffffffffffffffffffff1673ffffffffffffffffffffffffffffffffffffffff1614610434576040517f08c379a000000000000000000000000000000000000000000000000000000000815260040161042b906108b7565b60405180910390fd5b80600260006101000a81548173ffffffffffffffffffffffffffffffffffffffff021916908373ffffffffffffffffffffffffffffffffffffffff16021790555050565b600260009054906101000a900473ffffffffffffffffffffffffffffffffffffffff1681565b60015481565b6104ac610666565b73ffffffffffffffffffffffffffffffffffffffff1660008054906101000a900473ffffffffffffffffffffffffffffffffffffffff1673ffffffffffffffffffffffffffffffffffffffff1614610539576040517f08c379a0000000000000000000000000000000000000000000000000000000008152600401610530906108b7565b60405180910390fd5b600073ffffffffffffffffffffffffffffffffffffffff168173ffffffffffffffffffffffffffffffffffffffff1614156105a9576040517f08c379a00000000000000000000000000000000000000000000000000000000081526004016105a090610897565b60405180910390fd5b8073ffffffffffffffffffffffffffffffffffffffff1660008054906101000a900473ffffffffffffffffffffffffffffffffffffffff1673ffffffffffffffffffffffffffffffffffffffff167f8be0079c531659141344cd1fd0a4f28419497f9722a3daafe3b4186f6b6457e060405160405180910390a3806000806101000a81548173ffffffffffffffffffffffffffffffffffffffff021916908373ffffffffffffffffffffffffffffffffffffffff16021790555050565b600033905090565b60008135905061067d81610971565b92915050565b60008135905061069281610988565b92915050565b6000813590506106a78161099f565b92915050565b6000602082840312156106bf57600080fd5b60006106cd8482850161066e565b91505092915050565b6000602082840312156106e857600080fd5b60006106f684828501610683565b91505092915050565b60006020828403121561071157600080fd5b600061071f84828501610698565b91505092915050565b61073181610935565b82525050565b61074081610923565b82525050565b6000610753602683610912565b91507f4f776e61626c653a206e6577206f776e657220697320746865207a65726f206160008301527f64647265737300000000000000000000000000000000000000000000000000006020830152604082019050919050565b60006107b9602083610912565b91507f4f776e61626c653a2063616c6c6572206973206e6f7420746865206f776e65726000830152602082019050919050565b60006107f9603483610912565b91507f496e737461466565436f6c6c6563746f722e7365744665653a204e657720666560008301527f652076616c756520697320746f6f20686967682e0000000000000000000000006020830152604082019050919050565b61085b81610967565b82525050565b60006020820190506108766000830184610737565b92915050565b60006020820190506108916000830184610728565b92915050565b600060208201905081810360008301526108b081610746565b9050919050565b600060208201905081810360008301526108d0816107ac565b9050919050565b600060208201905081810360008301526108f0816107ec565b9050919050565b600060208201905061090c6000830184610852565b92915050565b600082825260208201905092915050565b600061092e82610947565b9050919050565b600061094082610947565b9050919050565b600073ffffffffffffffffffffffffffffffffffffffff82169050919050565b6000819050919050565b61097a81610923565b811461098557600080fd5b50565b61099181610935565b811461099c57600080fd5b50565b6109a881610967565b81146109b357600080fd5b5056fea26469706673582212203649ad321a48b617910734b42134ca5d518cc53b910369314175acf17afc040664736f6c63430008000033",
  "devdoc": {
    "kind": "dev",
    "methods": {
      "owner()": {
        "details": "Returns the address of the current owner."
      },
      "renounceOwnership()": {
        "details": "Leaves the contract without owner. It will not be possible to call `onlyOwner` functions anymore. Can only be called by the current owner. NOTE: Renouncing ownership will leave the contract without an owner, thereby removing any functionality that is only available to the owner."
      },
      "transferOwnership(address)": {
        "details": "Transfers ownership of the contract to a new account (`newOwner`). Can only be called by the current owner."
      }
    },
    "version": 1
  },
  "userdoc": {
    "kind": "user",
    "methods": {},
    "version": 1
  },
  "storageLayout": {
    "storage": [
      {
        "astId": 12323,
        "contract": "contracts/contracts/Instadapp/InstaFeeCollector.sol:InstaFeeCollector",
        "label": "_owner",
        "offset": 0,
        "slot": "0",
        "type": "t_address"
      },
      {
        "astId": 2505,
        "contract": "contracts/contracts/Instadapp/InstaFeeCollector.sol:InstaFeeCollector",
        "label": "fee",
        "offset": 0,
        "slot": "1",
        "type": "t_uint256"
      },
      {
        "astId": 2508,
        "contract": "contracts/contracts/Instadapp/InstaFeeCollector.sol:InstaFeeCollector",
        "label": "feeCollector",
        "offset": 0,
        "slot": "2",
        "type": "t_address_payable"
      }
    ],
    "types": {
      "t_address": {
        "encoding": "inplace",
        "label": "address",
        "numberOfBytes": "20"
      },
      "t_address_payable": {
        "encoding": "inplace",
        "label": "address payable",
        "numberOfBytes": "20"
      },
      "t_uint256": {
        "encoding": "inplace",
        "label": "uint256",
        "numberOfBytes": "32"
      }
    }
  }
}